{
	"smart contracts/v2-core-master/contracts/UniswapV2Factory.sol": {
		"UniswapV2Factory": {
			"abi": [
				{
					"inputs": [
						{
							"internalType": "address",
							"name": "_feeToSetter",
							"type": "address"
						}
					],
					"payable": false,
					"stateMutability": "nonpayable",
					"type": "constructor"
				},
				{
					"anonymous": false,
					"inputs": [
						{
							"indexed": true,
							"internalType": "address",
							"name": "token0",
							"type": "address"
						},
						{
							"indexed": true,
							"internalType": "address",
							"name": "token1",
							"type": "address"
						},
						{
							"indexed": false,
							"internalType": "address",
							"name": "pair",
							"type": "address"
						},
						{
							"indexed": false,
							"internalType": "uint256",
							"name": "",
							"type": "uint256"
						}
					],
					"name": "PairCreated",
					"type": "event"
				},
				{
					"constant": true,
					"inputs": [],
					"name": "INIT_CODE_HASH",
					"outputs": [
						{
							"internalType": "bytes32",
							"name": "",
							"type": "bytes32"
						}
					],
					"payable": false,
					"stateMutability": "view",
					"type": "function"
				},
				{
					"constant": true,
					"inputs": [
						{
							"internalType": "uint256",
							"name": "",
							"type": "uint256"
						}
					],
					"name": "allPairs",
					"outputs": [
						{
							"internalType": "address",
							"name": "",
							"type": "address"
						}
					],
					"payable": false,
					"stateMutability": "view",
					"type": "function"
				},
				{
					"constant": true,
					"inputs": [],
					"name": "allPairsLength",
					"outputs": [
						{
							"internalType": "uint256",
							"name": "",
							"type": "uint256"
						}
					],
					"payable": false,
					"stateMutability": "view",
					"type": "function"
				},
				{
					"constant": false,
					"inputs": [
						{
							"internalType": "address",
							"name": "tokenA",
							"type": "address"
						},
						{
							"internalType": "address",
							"name": "tokenB",
							"type": "address"
						}
					],
					"name": "createPair",
					"outputs": [
						{
							"internalType": "address",
							"name": "pair",
							"type": "address"
						}
					],
					"payable": false,
					"stateMutability": "nonpayable",
					"type": "function"
				},
				{
					"constant": true,
					"inputs": [],
					"name": "feeTo",
					"outputs": [
						{
							"internalType": "address",
							"name": "",
							"type": "address"
						}
					],
					"payable": false,
					"stateMutability": "view",
					"type": "function"
				},
				{
					"constant": true,
					"inputs": [],
					"name": "feeToCharity",
					"outputs": [
						{
							"internalType": "address",
							"name": "",
							"type": "address"
						}
					],
					"payable": false,
					"stateMutability": "view",
					"type": "function"
				},
				{
					"constant": true,
					"inputs": [],
					"name": "feeToSetter",
					"outputs": [
						{
							"internalType": "address",
							"name": "",
							"type": "address"
						}
					],
					"payable": false,
					"stateMutability": "view",
					"type": "function"
				},
				{
					"constant": true,
					"inputs": [
						{
							"internalType": "address",
							"name": "",
							"type": "address"
						},
						{
							"internalType": "address",
							"name": "",
							"type": "address"
						}
					],
					"name": "getPair",
					"outputs": [
						{
							"internalType": "address",
							"name": "",
							"type": "address"
						}
					],
					"payable": false,
					"stateMutability": "view",
					"type": "function"
				},
				{
					"constant": false,
					"inputs": [
						{
							"internalType": "address",
							"name": "_feeTo",
							"type": "address"
						}
					],
					"name": "setFeeTo",
					"outputs": [],
					"payable": false,
					"stateMutability": "nonpayable",
					"type": "function"
				},
				{
					"constant": false,
					"inputs": [
						{
							"internalType": "address",
							"name": "_feeToCharity",
							"type": "address"
						}
					],
					"name": "setFeeToCharity",
					"outputs": [],
					"payable": false,
					"stateMutability": "nonpayable",
					"type": "function"
				},
				{
					"constant": false,
					"inputs": [
						{
							"internalType": "address",
							"name": "_feeToSetter",
							"type": "address"
						}
					],
					"name": "setFeeToSetter",
					"outputs": [],
					"payable": false,
					"stateMutability": "nonpayable",
					"type": "function"
				}
			],
			"devdoc": {
				"methods": {}
			},
			"evm": {
				"assembly": "    /* \"smart contracts/v2-core-master/contracts/UniswapV2Factory.sol\":108:2241  contract UniswapV2Factory is IUniswapV2Factory {\r... */\n  mstore(0x40, 0x80)\n    /* \"smart contracts/v2-core-master/contracts/UniswapV2Factory.sol\":566:652  constructor(address _feeToSetter) public {\r... */\n  callvalue\n    /* \"--CODEGEN--\":8:17   */\n  dup1\n    /* \"--CODEGEN--\":5:7   */\n  iszero\n  tag_1\n  jumpi\n    /* \"--CODEGEN--\":30:31   */\n  0x00\n    /* \"--CODEGEN--\":27:28   */\n  dup1\n    /* \"--CODEGEN--\":20:32   */\n  revert\n    /* \"--CODEGEN--\":5:7   */\ntag_1:\n    /* \"smart contracts/v2-core-master/contracts/UniswapV2Factory.sol\":566:652  constructor(address _feeToSetter) public {\r... */\n  pop\n  mload(0x40)\n  sub(codesize, bytecodeSize)\n  dup1\n  bytecodeSize\n  dup4\n  codecopy\n  dup2\n  dup2\n  add\n  0x40\n  mstore\n    /* \"--CODEGEN--\":13:15   */\n  0x20\n    /* \"--CODEGEN--\":8:11   */\n  dup2\n    /* \"--CODEGEN--\":5:16   */\n  lt\n    /* \"--CODEGEN--\":2:4   */\n  iszero\n  tag_2\n  jumpi\n    /* \"--CODEGEN--\":29:30   */\n  0x00\n    /* \"--CODEGEN--\":26:27   */\n  dup1\n    /* \"--CODEGEN--\":19:31   */\n  revert\n    /* \"--CODEGEN--\":2:4   */\ntag_2:\n  pop\n    /* \"smart contracts/v2-core-master/contracts/UniswapV2Factory.sol\":566:652  constructor(address _feeToSetter) public {\r... */\n  mload\n    /* \"smart contracts/v2-core-master/contracts/UniswapV2Factory.sol\":618:629  feeToSetter */\n  0x02\n    /* \"smart contracts/v2-core-master/contracts/UniswapV2Factory.sol\":618:644  feeToSetter = _feeToSetter */\n  dup1\n  sload\n  not(sub(shl(0xa0, 0x01), 0x01))\n  and\n  sub(shl(0xa0, 0x01), 0x01)\n  swap1\n  swap3\n  and\n  swap2\n  swap1\n  swap2\n  or\n  swap1\n  sstore\n    /* \"smart contracts/v2-core-master/contracts/UniswapV2Factory.sol\":108:2241  contract UniswapV2Factory is IUniswapV2Factory {\r... */\n  dataSize(sub_0)\n  dup1\n  dataOffset(sub_0)\n  0x00\n  codecopy\n  0x00\n  return\nstop\n\nsub_0: assembly {\n        /* \"smart contracts/v2-core-master/contracts/UniswapV2Factory.sol\":108:2241  contract UniswapV2Factory is IUniswapV2Factory {\r... */\n      mstore(0x40, 0x80)\n      callvalue\n        /* \"--CODEGEN--\":8:17   */\n      dup1\n        /* \"--CODEGEN--\":5:7   */\n      iszero\n      tag_1\n      jumpi\n        /* \"--CODEGEN--\":30:31   */\n      0x00\n        /* \"--CODEGEN--\":27:28   */\n      dup1\n        /* \"--CODEGEN--\":20:32   */\n      revert\n        /* \"--CODEGEN--\":5:7   */\n    tag_1:\n        /* \"smart contracts/v2-core-master/contracts/UniswapV2Factory.sol\":108:2241  contract UniswapV2Factory is IUniswapV2Factory {\r... */\n      pop\n      jumpi(tag_2, lt(calldatasize, 0x04))\n      shr(0xe0, calldataload(0x00))\n      dup1\n      0x574f2ba3\n      gt\n      tag_14\n      jumpi\n      dup1\n      0x574f2ba3\n      eq\n      tag_8\n      jumpi\n      dup1\n      0x9ebaeb4c\n      eq\n      tag_9\n      jumpi\n      dup1\n      0xa2e74af6\n      eq\n      tag_10\n      jumpi\n      dup1\n      0xc9c65396\n      eq\n      tag_11\n      jumpi\n      dup1\n      0xe6a43905\n      eq\n      tag_12\n      jumpi\n      dup1\n      0xf46901ed\n      eq\n      tag_13\n      jumpi\n      jump(tag_2)\n    tag_14:\n      dup1\n      0x017e7e58\n      eq\n      tag_3\n      jumpi\n      dup1\n      0x063058b3\n      eq\n      tag_4\n      jumpi\n      dup1\n      0x094b7415\n      eq\n      tag_5\n      jumpi\n      dup1\n      0x1e3dd18b\n      eq\n      tag_6\n      jumpi\n      dup1\n      0x257671f5\n      eq\n      tag_7\n      jumpi\n    tag_2:\n      0x00\n      dup1\n      revert\n        /* \"smart contracts/v2-core-master/contracts/UniswapV2Factory.sol\":162:182  address public feeTo */\n    tag_3:\n      tag_15\n      tag_16\n      jump\t// in\n    tag_15:\n      0x40\n      dup1\n      mload\n      sub(shl(0xa0, 0x01), 0x01)\n      swap1\n      swap3\n      and\n      dup3\n      mstore\n      mload\n      swap1\n      dup2\n      swap1\n      sub\n      0x20\n      add\n      swap1\n      return\n        /* \"smart contracts/v2-core-master/contracts/UniswapV2Factory.sol\":1888:2061  function setFeeToCharity(address _feeToCharity) external {\r... */\n    tag_4:\n      tag_17\n      0x04\n      dup1\n      calldatasize\n      sub\n        /* \"--CODEGEN--\":13:15   */\n      0x20\n        /* \"--CODEGEN--\":8:11   */\n      dup2\n        /* \"--CODEGEN--\":5:16   */\n      lt\n        /* \"--CODEGEN--\":2:4   */\n      iszero\n      tag_18\n      jumpi\n        /* \"--CODEGEN--\":29:30   */\n      0x00\n        /* \"--CODEGEN--\":26:27   */\n      dup1\n        /* \"--CODEGEN--\":19:31   */\n      revert\n        /* \"--CODEGEN--\":2:4   */\n    tag_18:\n      pop\n        /* \"smart contracts/v2-core-master/contracts/UniswapV2Factory.sol\":1888:2061  function setFeeToCharity(address _feeToCharity) external {\r... */\n      calldataload\n      sub(shl(0xa0, 0x01), 0x01)\n      and\n      tag_19\n      jump\t// in\n    tag_17:\n      stop\n        /* \"smart contracts/v2-core-master/contracts/UniswapV2Factory.sol\":223:249  address public feeToSetter */\n    tag_5:\n      tag_15\n      tag_21\n      jump\t// in\n        /* \"smart contracts/v2-core-master/contracts/UniswapV2Factory.sol\":438:463  address[] public allPairs */\n    tag_6:\n      tag_15\n      0x04\n      dup1\n      calldatasize\n      sub\n        /* \"--CODEGEN--\":13:15   */\n      0x20\n        /* \"--CODEGEN--\":8:11   */\n      dup2\n        /* \"--CODEGEN--\":5:16   */\n      lt\n        /* \"--CODEGEN--\":2:4   */\n      iszero\n      tag_23\n      jumpi\n        /* \"--CODEGEN--\":29:30   */\n      0x00\n        /* \"--CODEGEN--\":26:27   */\n      dup1\n        /* \"--CODEGEN--\":19:31   */\n      revert\n        /* \"--CODEGEN--\":2:4   */\n    tag_23:\n      pop\n        /* \"smart contracts/v2-core-master/contracts/UniswapV2Factory.sol\":438:463  address[] public allPairs */\n      calldataload\n      tag_24\n      jump\t// in\n        /* \"smart contracts/v2-core-master/contracts/UniswapV2Factory.sol\":258:360  bytes32 public constant INIT_CODE_HASH = keccak256(abi.encodePacked(type(UniswapV2Pair).creationCode)) */\n    tag_7:\n      tag_25\n      tag_26\n      jump\t// in\n    tag_25:\n      0x40\n      dup1\n      mload\n      swap2\n      dup3\n      mstore\n      mload\n      swap1\n      dup2\n      swap1\n      sub\n      0x20\n      add\n      swap1\n      return\n        /* \"smart contracts/v2-core-master/contracts/UniswapV2Factory.sol\":660:756  function allPairsLength() external view returns (uint) {\r... */\n    tag_8:\n      tag_25\n      tag_28\n      jump\t// in\n        /* \"smart contracts/v2-core-master/contracts/UniswapV2Factory.sol\":189:216  address public feeToCharity */\n    tag_9:\n      tag_15\n      tag_30\n      jump\t// in\n        /* \"smart contracts/v2-core-master/contracts/UniswapV2Factory.sol\":2069:2238  function setFeeToSetter(address _feeToSetter) external {\r... */\n    tag_10:\n      tag_17\n      0x04\n      dup1\n      calldatasize\n      sub\n        /* \"--CODEGEN--\":13:15   */\n      0x20\n        /* \"--CODEGEN--\":8:11   */\n      dup2\n        /* \"--CODEGEN--\":5:16   */\n      lt\n        /* \"--CODEGEN--\":2:4   */\n      iszero\n      tag_32\n      jumpi\n        /* \"--CODEGEN--\":29:30   */\n      0x00\n        /* \"--CODEGEN--\":26:27   */\n      dup1\n        /* \"--CODEGEN--\":19:31   */\n      revert\n        /* \"--CODEGEN--\":2:4   */\n    tag_32:\n      pop\n        /* \"smart contracts/v2-core-master/contracts/UniswapV2Factory.sol\":2069:2238  function setFeeToSetter(address _feeToSetter) external {\r... */\n      calldataload\n      sub(shl(0xa0, 0x01), 0x01)\n      and\n      tag_33\n      jump\t// in\n        /* \"smart contracts/v2-core-master/contracts/UniswapV2Factory.sol\":764:1727  function createPair(address tokenA, address tokenB) external returns (address pair) {\r... */\n    tag_11:\n      tag_15\n      0x04\n      dup1\n      calldatasize\n      sub\n        /* \"--CODEGEN--\":13:15   */\n      0x40\n        /* \"--CODEGEN--\":8:11   */\n      dup2\n        /* \"--CODEGEN--\":5:16   */\n      lt\n        /* \"--CODEGEN--\":2:4   */\n      iszero\n      tag_35\n      jumpi\n        /* \"--CODEGEN--\":29:30   */\n      0x00\n        /* \"--CODEGEN--\":26:27   */\n      dup1\n        /* \"--CODEGEN--\":19:31   */\n      revert\n        /* \"--CODEGEN--\":2:4   */\n    tag_35:\n      pop\n      sub(shl(0xa0, 0x01), 0x01)\n        /* \"smart contracts/v2-core-master/contracts/UniswapV2Factory.sol\":764:1727  function createPair(address tokenA, address tokenB) external returns (address pair) {\r... */\n      dup2\n      calldataload\n      dup2\n      and\n      swap2\n      0x20\n      add\n      calldataload\n      and\n      tag_36\n      jump\t// in\n        /* \"smart contracts/v2-core-master/contracts/UniswapV2Factory.sol\":369:431  mapping(address => mapping(address => address)) public getPair */\n    tag_12:\n      tag_15\n      0x04\n      dup1\n      calldatasize\n      sub\n        /* \"--CODEGEN--\":13:15   */\n      0x40\n        /* \"--CODEGEN--\":8:11   */\n      dup2\n        /* \"--CODEGEN--\":5:16   */\n      lt\n        /* \"--CODEGEN--\":2:4   */\n      iszero\n      tag_38\n      jumpi\n        /* \"--CODEGEN--\":29:30   */\n      0x00\n        /* \"--CODEGEN--\":26:27   */\n      dup1\n        /* \"--CODEGEN--\":19:31   */\n      revert\n        /* \"--CODEGEN--\":2:4   */\n    tag_38:\n      pop\n      sub(shl(0xa0, 0x01), 0x01)\n        /* \"smart contracts/v2-core-master/contracts/UniswapV2Factory.sol\":369:431  mapping(address => mapping(address => address)) public getPair */\n      dup2\n      calldataload\n      dup2\n      and\n      swap2\n      0x20\n      add\n      calldataload\n      and\n      tag_39\n      jump\t// in\n        /* \"smart contracts/v2-core-master/contracts/UniswapV2Factory.sol\":1735:1880  function setFeeTo(address _feeTo) external {\r... */\n    tag_13:\n      tag_17\n      0x04\n      dup1\n      calldatasize\n      sub\n        /* \"--CODEGEN--\":13:15   */\n      0x20\n        /* \"--CODEGEN--\":8:11   */\n      dup2\n        /* \"--CODEGEN--\":5:16   */\n      lt\n        /* \"--CODEGEN--\":2:4   */\n      iszero\n      tag_41\n      jumpi\n        /* \"--CODEGEN--\":29:30   */\n      0x00\n        /* \"--CODEGEN--\":26:27   */\n      dup1\n        /* \"--CODEGEN--\":19:31   */\n      revert\n        /* \"--CODEGEN--\":2:4   */\n    tag_41:\n      pop\n        /* \"smart contracts/v2-core-master/contracts/UniswapV2Factory.sol\":1735:1880  function setFeeTo(address _feeTo) external {\r... */\n      calldataload\n      sub(shl(0xa0, 0x01), 0x01)\n      and\n      tag_42\n      jump\t// in\n        /* \"smart contracts/v2-core-master/contracts/UniswapV2Factory.sol\":162:182  address public feeTo */\n    tag_16:\n      and(sub(shl(0xa0, 0x01), 0x01), sload(0x00))\n      dup2\n      jump\t// out\n        /* \"smart contracts/v2-core-master/contracts/UniswapV2Factory.sol\":1888:2061  function setFeeToCharity(address _feeToCharity) external {\r... */\n    tag_19:\n        /* \"smart contracts/v2-core-master/contracts/UniswapV2Factory.sol\":1978:1989  feeToSetter */\n      and(sub(shl(0xa0, 0x01), 0x01), sload(0x02))\n        /* \"smart contracts/v2-core-master/contracts/UniswapV2Factory.sol\":1964:1974  msg.sender */\n      caller\n        /* \"smart contracts/v2-core-master/contracts/UniswapV2Factory.sol\":1964:1989  msg.sender == feeToSetter */\n      eq\n        /* \"smart contracts/v2-core-master/contracts/UniswapV2Factory.sol\":1956:2014  require(msg.sender == feeToSetter, 'UniswapV2: FORBIDDEN') */\n      tag_44\n      jumpi\n      0x40\n      dup1\n      mload\n      shl(0xe5, 0x461bcd)\n      dup2\n      mstore\n      0x20\n      0x04\n      dup3\n      add\n      mstore\n      0x14\n      0x24\n      dup3\n      add\n      mstore\n      shl(0x61, 0x2ab734b9bbb0b82b191d102327a92124a22222a7)\n      0x44\n      dup3\n      add\n      mstore\n      swap1\n      mload\n      swap1\n      dup2\n      swap1\n      sub\n      0x64\n      add\n      swap1\n      revert\n    tag_44:\n        /* \"smart contracts/v2-core-master/contracts/UniswapV2Factory.sol\":2025:2037  feeToCharity */\n      0x01\n        /* \"smart contracts/v2-core-master/contracts/UniswapV2Factory.sol\":2025:2053  feeToCharity = _feeToCharity */\n      dup1\n      sload\n      not(sub(shl(0xa0, 0x01), 0x01))\n      and\n      sub(shl(0xa0, 0x01), 0x01)\n      swap3\n      swap1\n      swap3\n      and\n      swap2\n      swap1\n      swap2\n      or\n      swap1\n      sstore\n        /* \"smart contracts/v2-core-master/contracts/UniswapV2Factory.sol\":1888:2061  function setFeeToCharity(address _feeToCharity) external {\r... */\n      jump\t// out\n        /* \"smart contracts/v2-core-master/contracts/UniswapV2Factory.sol\":223:249  address public feeToSetter */\n    tag_21:\n      and(sub(shl(0xa0, 0x01), 0x01), sload(0x02))\n      dup2\n      jump\t// out\n        /* \"smart contracts/v2-core-master/contracts/UniswapV2Factory.sol\":438:463  address[] public allPairs */\n    tag_24:\n      0x04\n      dup2\n      dup2\n      sload\n      dup2\n      lt\n      tag_45\n      jumpi\n      invalid\n    tag_45:\n      0x00\n      swap2\n      dup3\n      mstore\n      0x20\n      swap1\n      swap2\n      keccak256\n      add\n      sload\n      sub(shl(0xa0, 0x01), 0x01)\n      and\n      swap1\n      pop\n      dup2\n      jump\t// out\n        /* \"smart contracts/v2-core-master/contracts/UniswapV2Factory.sol\":258:360  bytes32 public constant INIT_CODE_HASH = keccak256(abi.encodePacked(type(UniswapV2Pair).creationCode)) */\n    tag_26:\n        /* \"smart contracts/v2-core-master/contracts/UniswapV2Factory.sol\":326:358  type(UniswapV2Pair).creationCode */\n      mload(0x40)\n      tag_47\n      0x20\n      dup3\n      add\n      tag_48\n      jump\t// in\n    tag_47:\n        /* \"--CODEGEN--\":41:45   */\n      0x20\n        /* \"--CODEGEN--\":34:39   */\n      dup3\n        /* \"--CODEGEN--\":30:46   */\n      add\n        /* \"--CODEGEN--\":25:28   */\n      dup2\n        /* \"--CODEGEN--\":21:47   */\n      sub\n        /* \"--CODEGEN--\":14:19   */\n      dup3\n        /* \"--CODEGEN--\":7:48   */\n      mstore\n        /* \"--CODEGEN--\":87:89   */\n      0x1f\n        /* \"--CODEGEN--\":83:90   */\n      not\n        /* \"--CODEGEN--\":78:80   */\n      0x1f\n        /* \"--CODEGEN--\":73:76   */\n      dup3\n        /* \"--CODEGEN--\":69:81   */\n      add\n        /* \"--CODEGEN--\":65:91   */\n      and\n        /* \"--CODEGEN--\":61:63   */\n      0x40\n        /* \"--CODEGEN--\":54:92   */\n      mstore\n        /* \"smart contracts/v2-core-master/contracts/UniswapV2Factory.sol\":326:358  type(UniswapV2Pair).creationCode */\n      pop\n        /* \"smart contracts/v2-core-master/contracts/UniswapV2Factory.sol\":309:359  abi.encodePacked(type(UniswapV2Pair).creationCode) */\n      add(0x20, mload(0x40))\n      dup1\n      dup3\n      dup1\n      mload\n      swap1\n      0x20\n      add\n      swap1\n      dup1\n      dup4\n      dup4\n        /* \"--CODEGEN--\":36:189   */\n    tag_49:\n        /* \"--CODEGEN--\":66:68   */\n      0x20\n        /* \"--CODEGEN--\":61:64   */\n      dup4\n        /* \"--CODEGEN--\":58:69   */\n      lt\n        /* \"--CODEGEN--\":36:189   */\n      tag_51\n      jumpi\n        /* \"--CODEGEN--\":176:186   */\n      dup1\n      mload\n        /* \"--CODEGEN--\":164:187   */\n      dup3\n      mstore\n      not(0x1f)\n        /* \"--CODEGEN--\":139:151   */\n      swap1\n      swap3\n      add\n      swap2\n        /* \"--CODEGEN--\":98:100   */\n      0x20\n        /* \"--CODEGEN--\":89:101   */\n      swap2\n      dup3\n      add\n      swap2\n        /* \"--CODEGEN--\":114:126   */\n      add\n        /* \"--CODEGEN--\":36:189   */\n      jump(tag_49)\n    tag_51:\n        /* \"--CODEGEN--\":274:275   */\n      0x01\n        /* \"--CODEGEN--\":267:270   */\n      dup4\n        /* \"--CODEGEN--\":263:265   */\n      0x20\n        /* \"--CODEGEN--\":259:271   */\n      sub\n        /* \"--CODEGEN--\":254:257   */\n      0x0100\n        /* \"--CODEGEN--\":250:272   */\n      exp\n        /* \"--CODEGEN--\":246:276   */\n      sub\n        /* \"--CODEGEN--\":315:319   */\n      dup1\n        /* \"--CODEGEN--\":311:320   */\n      not\n        /* \"--CODEGEN--\":305:308   */\n      dup3\n        /* \"--CODEGEN--\":299:309   */\n      mload\n        /* \"--CODEGEN--\":295:321   */\n      and\n        /* \"--CODEGEN--\":356:360   */\n      dup2\n        /* \"--CODEGEN--\":350:353   */\n      dup5\n        /* \"--CODEGEN--\":344:354   */\n      mload\n        /* \"--CODEGEN--\":340:361   */\n      and\n        /* \"--CODEGEN--\":389:396   */\n      dup1\n        /* \"--CODEGEN--\":380:387   */\n      dup3\n        /* \"--CODEGEN--\":377:397   */\n      or\n        /* \"--CODEGEN--\":372:375   */\n      dup6\n        /* \"--CODEGEN--\":365:398   */\n      mstore\n        /* \"--CODEGEN--\":3:402   */\n      pop\n      pop\n      pop\n        /* \"smart contracts/v2-core-master/contracts/UniswapV2Factory.sol\":309:359  abi.encodePacked(type(UniswapV2Pair).creationCode) */\n      pop\n      pop\n      pop\n      swap1\n      pop\n      add\n      swap2\n      pop\n      pop\n      mload(0x40)\n        /* \"--CODEGEN--\":49:53   */\n      0x20\n        /* \"--CODEGEN--\":39:46   */\n      dup2\n        /* \"--CODEGEN--\":30:37   */\n      dup4\n        /* \"--CODEGEN--\":26:47   */\n      sub\n        /* \"--CODEGEN--\":22:54   */\n      sub\n        /* \"--CODEGEN--\":13:20   */\n      dup2\n        /* \"--CODEGEN--\":6:55   */\n      mstore\n        /* \"smart contracts/v2-core-master/contracts/UniswapV2Factory.sol\":309:359  abi.encodePacked(type(UniswapV2Pair).creationCode) */\n      swap1\n      0x40\n      mstore\n        /* \"smart contracts/v2-core-master/contracts/UniswapV2Factory.sol\":299:360  keccak256(abi.encodePacked(type(UniswapV2Pair).creationCode)) */\n      dup1\n      mload\n      swap1\n      0x20\n      add\n      keccak256\n        /* \"smart contracts/v2-core-master/contracts/UniswapV2Factory.sol\":258:360  bytes32 public constant INIT_CODE_HASH = keccak256(abi.encodePacked(type(UniswapV2Pair).creationCode)) */\n      dup2\n      jump\t// out\n        /* \"smart contracts/v2-core-master/contracts/UniswapV2Factory.sol\":660:756  function allPairsLength() external view returns (uint) {\r... */\n    tag_28:\n        /* \"smart contracts/v2-core-master/contracts/UniswapV2Factory.sol\":733:741  allPairs */\n      0x04\n        /* \"smart contracts/v2-core-master/contracts/UniswapV2Factory.sol\":733:748  allPairs.length */\n      sload\n        /* \"smart contracts/v2-core-master/contracts/UniswapV2Factory.sol\":660:756  function allPairsLength() external view returns (uint) {\r... */\n      swap1\n      jump\t// out\n        /* \"smart contracts/v2-core-master/contracts/UniswapV2Factory.sol\":189:216  address public feeToCharity */\n    tag_30:\n      and(sub(shl(0xa0, 0x01), 0x01), sload(0x01))\n      dup2\n      jump\t// out\n        /* \"smart contracts/v2-core-master/contracts/UniswapV2Factory.sol\":2069:2238  function setFeeToSetter(address _feeToSetter) external {\r... */\n    tag_33:\n        /* \"smart contracts/v2-core-master/contracts/UniswapV2Factory.sol\":2157:2168  feeToSetter */\n      and(sub(shl(0xa0, 0x01), 0x01), sload(0x02))\n        /* \"smart contracts/v2-core-master/contracts/UniswapV2Factory.sol\":2143:2153  msg.sender */\n      caller\n        /* \"smart contracts/v2-core-master/contracts/UniswapV2Factory.sol\":2143:2168  msg.sender == feeToSetter */\n      eq\n        /* \"smart contracts/v2-core-master/contracts/UniswapV2Factory.sol\":2135:2193  require(msg.sender == feeToSetter, 'UniswapV2: FORBIDDEN') */\n      tag_54\n      jumpi\n      0x40\n      dup1\n      mload\n      shl(0xe5, 0x461bcd)\n      dup2\n      mstore\n      0x20\n      0x04\n      dup3\n      add\n      mstore\n      0x14\n      0x24\n      dup3\n      add\n      mstore\n      shl(0x61, 0x2ab734b9bbb0b82b191d102327a92124a22222a7)\n      0x44\n      dup3\n      add\n      mstore\n      swap1\n      mload\n      swap1\n      dup2\n      swap1\n      sub\n      0x64\n      add\n      swap1\n      revert\n    tag_54:\n        /* \"smart contracts/v2-core-master/contracts/UniswapV2Factory.sol\":2204:2215  feeToSetter */\n      0x02\n        /* \"smart contracts/v2-core-master/contracts/UniswapV2Factory.sol\":2204:2230  feeToSetter = _feeToSetter */\n      dup1\n      sload\n      not(sub(shl(0xa0, 0x01), 0x01))\n      and\n      sub(shl(0xa0, 0x01), 0x01)\n      swap3\n      swap1\n      swap3\n      and\n      swap2\n      swap1\n      swap2\n      or\n      swap1\n      sstore\n        /* \"smart contracts/v2-core-master/contracts/UniswapV2Factory.sol\":2069:2238  function setFeeToSetter(address _feeToSetter) external {\r... */\n      jump\t// out\n        /* \"smart contracts/v2-core-master/contracts/UniswapV2Factory.sol\":764:1727  function createPair(address tokenA, address tokenB) external returns (address pair) {\r... */\n    tag_36:\n        /* \"smart contracts/v2-core-master/contracts/UniswapV2Factory.sol\":834:846  address pair */\n      0x00\n        /* \"smart contracts/v2-core-master/contracts/UniswapV2Factory.sol\":877:883  tokenB */\n      dup2\n      sub(shl(0xa0, 0x01), 0x01)\n        /* \"smart contracts/v2-core-master/contracts/UniswapV2Factory.sol\":867:883  tokenA != tokenB */\n      and\n        /* \"smart contracts/v2-core-master/contracts/UniswapV2Factory.sol\":867:873  tokenA */\n      dup4\n      sub(shl(0xa0, 0x01), 0x01)\n        /* \"smart contracts/v2-core-master/contracts/UniswapV2Factory.sol\":867:883  tokenA != tokenB */\n      and\n      eq\n      iszero\n        /* \"smart contracts/v2-core-master/contracts/UniswapV2Factory.sol\":859:918  require(tokenA != tokenB, 'UniswapV2: IDENTICAL_ADDRESSES') */\n      tag_56\n      jumpi\n      0x40\n      dup1\n      mload\n      shl(0xe5, 0x461bcd)\n      dup2\n      mstore\n      0x20\n      0x04\n      dup3\n      add\n      mstore\n      0x1e\n      0x24\n      dup3\n      add\n      mstore\n      0x556e697377617056323a204944454e544943414c5f4144445245535345530000\n      0x44\n      dup3\n      add\n      mstore\n      swap1\n      mload\n      swap1\n      dup2\n      swap1\n      sub\n      0x64\n      add\n      swap1\n      revert\n    tag_56:\n        /* \"smart contracts/v2-core-master/contracts/UniswapV2Factory.sol\":930:944  address token0 */\n      0x00\n        /* \"smart contracts/v2-core-master/contracts/UniswapV2Factory.sol\":946:960  address token1 */\n      dup1\n        /* \"smart contracts/v2-core-master/contracts/UniswapV2Factory.sol\":973:979  tokenB */\n      dup4\n      sub(shl(0xa0, 0x01), 0x01)\n        /* \"smart contracts/v2-core-master/contracts/UniswapV2Factory.sol\":964:979  tokenA < tokenB */\n      and\n        /* \"smart contracts/v2-core-master/contracts/UniswapV2Factory.sol\":964:970  tokenA */\n      dup6\n      sub(shl(0xa0, 0x01), 0x01)\n        /* \"smart contracts/v2-core-master/contracts/UniswapV2Factory.sol\":964:979  tokenA < tokenB */\n      and\n      lt\n        /* \"smart contracts/v2-core-master/contracts/UniswapV2Factory.sol\":964:1017  tokenA < tokenB ? (tokenA, tokenB) : (tokenB, tokenA) */\n      tag_57\n      jumpi\n        /* \"smart contracts/v2-core-master/contracts/UniswapV2Factory.sol\":1002:1008  tokenB */\n      dup4\n        /* \"smart contracts/v2-core-master/contracts/UniswapV2Factory.sol\":1010:1016  tokenA */\n      dup6\n        /* \"smart contracts/v2-core-master/contracts/UniswapV2Factory.sol\":964:1017  tokenA < tokenB ? (tokenA, tokenB) : (tokenB, tokenA) */\n      jump(tag_58)\n    tag_57:\n        /* \"smart contracts/v2-core-master/contracts/UniswapV2Factory.sol\":983:989  tokenA */\n      dup5\n        /* \"smart contracts/v2-core-master/contracts/UniswapV2Factory.sol\":991:997  tokenB */\n      dup5\n        /* \"smart contracts/v2-core-master/contracts/UniswapV2Factory.sol\":964:1017  tokenA < tokenB ? (tokenA, tokenB) : (tokenB, tokenA) */\n    tag_58:\n        /* \"smart contracts/v2-core-master/contracts/UniswapV2Factory.sol\":929:1017  (address token0, address token1) = tokenA < tokenB ? (tokenA, tokenB) : (tokenB, tokenA) */\n      swap1\n      swap3\n      pop\n      swap1\n      pop\n      sub(shl(0xa0, 0x01), 0x01)\n        /* \"smart contracts/v2-core-master/contracts/UniswapV2Factory.sol\":1036:1056  token0 != address(0) */\n      dup3\n      and\n        /* \"smart contracts/v2-core-master/contracts/UniswapV2Factory.sol\":1028:1084  require(token0 != address(0), 'UniswapV2: ZERO_ADDRESS') */\n      tag_59\n      jumpi\n      0x40\n      dup1\n      mload\n      shl(0xe5, 0x461bcd)\n      dup2\n      mstore\n      0x20\n      0x04\n      dup3\n      add\n      mstore\n      0x17\n      0x24\n      dup3\n      add\n      mstore\n      0x556e697377617056323a205a45524f5f41444452455353000000000000000000\n      0x44\n      dup3\n      add\n      mstore\n      swap1\n      mload\n      swap1\n      dup2\n      swap1\n      sub\n      0x64\n      add\n      swap1\n      revert\n    tag_59:\n      sub(shl(0xa0, 0x01), 0x01)\n        /* \"smart contracts/v2-core-master/contracts/UniswapV2Factory.sol\":1103:1118  getPair[token0] */\n      dup3\n      dup2\n      and\n        /* \"smart contracts/v2-core-master/contracts/UniswapV2Factory.sol\":1138:1139  0 */\n      0x00\n        /* \"smart contracts/v2-core-master/contracts/UniswapV2Factory.sol\":1103:1118  getPair[token0] */\n      swap1\n      dup2\n      mstore\n        /* \"smart contracts/v2-core-master/contracts/UniswapV2Factory.sol\":1103:1110  getPair */\n      0x03\n        /* \"smart contracts/v2-core-master/contracts/UniswapV2Factory.sol\":1103:1118  getPair[token0] */\n      0x20\n      swap1\n      dup2\n      mstore\n      0x40\n      dup1\n      dup4\n      keccak256\n        /* \"smart contracts/v2-core-master/contracts/UniswapV2Factory.sol\":1103:1126  getPair[token0][token1] */\n      dup6\n      dup6\n      and\n      dup5\n      mstore\n      swap1\n      swap2\n      mstore\n      swap1\n      keccak256\n      sload\n      and\n        /* \"smart contracts/v2-core-master/contracts/UniswapV2Factory.sol\":1103:1140  getPair[token0][token1] == address(0) */\n      iszero\n        /* \"smart contracts/v2-core-master/contracts/UniswapV2Factory.sol\":1095:1167  require(getPair[token0][token1] == address(0), 'UniswapV2: PAIR_EXISTS') */\n      tag_60\n      jumpi\n      0x40\n      dup1\n      mload\n      shl(0xe5, 0x461bcd)\n      dup2\n      mstore\n      0x20\n      0x04\n      dup3\n      add\n      mstore\n      0x16\n      0x24\n      dup3\n      add\n      mstore\n      shl(0x50, 0x556e697377617056323a20504149525f455849535453)\n      0x44\n      dup3\n      add\n      mstore\n      swap1\n      mload\n      swap1\n      dup2\n      swap1\n      sub\n      0x64\n      add\n      swap1\n      revert\n    tag_60:\n        /* \"smart contracts/v2-core-master/contracts/UniswapV2Factory.sol\":1208:1229  bytes memory bytecode */\n      0x60\n        /* \"smart contracts/v2-core-master/contracts/UniswapV2Factory.sol\":1232:1264  type(UniswapV2Pair).creationCode */\n      mload(0x40)\n      dup1\n      0x20\n      add\n      tag_61\n      swap1\n      tag_48\n      jump\t// in\n    tag_61:\n        /* \"--CODEGEN--\":41:45   */\n      0x20\n        /* \"--CODEGEN--\":34:39   */\n      dup3\n        /* \"--CODEGEN--\":30:46   */\n      add\n        /* \"--CODEGEN--\":25:28   */\n      dup2\n        /* \"--CODEGEN--\":21:47   */\n      sub\n        /* \"--CODEGEN--\":14:19   */\n      dup3\n        /* \"--CODEGEN--\":7:48   */\n      mstore\n        /* \"--CODEGEN--\":87:89   */\n      0x1f\n        /* \"--CODEGEN--\":83:90   */\n      not\n        /* \"--CODEGEN--\":78:80   */\n      0x1f\n        /* \"--CODEGEN--\":73:76   */\n      dup3\n        /* \"--CODEGEN--\":69:81   */\n      add\n        /* \"--CODEGEN--\":65:91   */\n      and\n        /* \"--CODEGEN--\":61:63   */\n      0x40\n        /* \"--CODEGEN--\":54:92   */\n      mstore\n        /* \"smart contracts/v2-core-master/contracts/UniswapV2Factory.sol\":1232:1264  type(UniswapV2Pair).creationCode */\n      pop\n        /* \"smart contracts/v2-core-master/contracts/UniswapV2Factory.sol\":1208:1264  bytes memory bytecode = type(UniswapV2Pair).creationCode */\n      swap1\n      pop\n        /* \"smart contracts/v2-core-master/contracts/UniswapV2Factory.sol\":1275:1287  bytes32 salt */\n      0x00\n        /* \"smart contracts/v2-core-master/contracts/UniswapV2Factory.sol\":1317:1323  token0 */\n      dup4\n        /* \"smart contracts/v2-core-master/contracts/UniswapV2Factory.sol\":1325:1331  token1 */\n      dup4\n        /* \"smart contracts/v2-core-master/contracts/UniswapV2Factory.sol\":1300:1332  abi.encodePacked(token0, token1) */\n      add(0x20, mload(0x40))\n      dup1\n      dup4\n      sub(shl(0xa0, 0x01), 0x01)\n      and\n      sub(shl(0xa0, 0x01), 0x01)\n      and\n      0x60\n      shl\n      dup2\n      mstore\n      0x14\n      add\n      dup3\n      sub(shl(0xa0, 0x01), 0x01)\n      and\n      sub(shl(0xa0, 0x01), 0x01)\n      and\n      0x60\n      shl\n      dup2\n      mstore\n      0x14\n      add\n      swap3\n      pop\n      pop\n      pop\n      mload(0x40)\n        /* \"--CODEGEN--\":49:53   */\n      0x20\n        /* \"--CODEGEN--\":39:46   */\n      dup2\n        /* \"--CODEGEN--\":30:37   */\n      dup4\n        /* \"--CODEGEN--\":26:47   */\n      sub\n        /* \"--CODEGEN--\":22:54   */\n      sub\n        /* \"--CODEGEN--\":13:20   */\n      dup2\n        /* \"--CODEGEN--\":6:55   */\n      mstore\n        /* \"smart contracts/v2-core-master/contracts/UniswapV2Factory.sol\":1300:1332  abi.encodePacked(token0, token1) */\n      swap1\n      0x40\n      mstore\n        /* \"smart contracts/v2-core-master/contracts/UniswapV2Factory.sol\":1290:1333  keccak256(abi.encodePacked(token0, token1)) */\n      dup1\n      mload\n      swap1\n      0x20\n      add\n      keccak256\n        /* \"smart contracts/v2-core-master/contracts/UniswapV2Factory.sol\":1275:1333  bytes32 salt = keccak256(abi.encodePacked(token0, token1)) */\n      swap1\n      pop\n        /* \"smart contracts/v2-core-master/contracts/UniswapV2Factory.sol\":1423:1427  salt */\n      dup1\n        /* \"smart contracts/v2-core-master/contracts/UniswapV2Factory.sol\":1412:1420  bytecode */\n      dup3\n        /* \"smart contracts/v2-core-master/contracts/UniswapV2Factory.sol\":1406:1421  mload(bytecode) */\n      mload\n        /* \"smart contracts/v2-core-master/contracts/UniswapV2Factory.sol\":1401:1403  32 */\n      0x20\n        /* \"smart contracts/v2-core-master/contracts/UniswapV2Factory.sol\":1391:1399  bytecode */\n      dup5\n        /* \"smart contracts/v2-core-master/contracts/UniswapV2Factory.sol\":1387:1404  add(bytecode, 32) */\n      add\n        /* \"smart contracts/v2-core-master/contracts/UniswapV2Factory.sol\":1384:1385  0 */\n      0x00\n        /* \"smart contracts/v2-core-master/contracts/UniswapV2Factory.sol\":1376:1428  create2(0, add(bytecode, 32), mload(bytecode), salt) */\n      create2\n        /* \"smart contracts/v2-core-master/contracts/UniswapV2Factory.sol\":1449:1496  IUniswapV2Pair(pair).initialize(token0, token1) */\n      0x40\n      dup1\n      mload\n      shl(0xe0, 0x485cc955)\n      dup2\n      mstore\n      sub(shl(0xa0, 0x01), 0x01)\n      dup8\n      dup2\n      and\n      0x04\n      dup4\n      add\n      mstore\n      dup7\n      dup2\n      and\n      0x24\n      dup4\n      add\n      mstore\n      swap2\n      mload\n        /* \"smart contracts/v2-core-master/contracts/UniswapV2Factory.sol\":1368:1428  pair := create2(0, add(bytecode, 32), mload(bytecode), salt) */\n      swap3\n      swap8\n      pop\n        /* \"smart contracts/v2-core-master/contracts/UniswapV2Factory.sol\":1449:1480  IUniswapV2Pair(pair).initialize */\n      swap1\n      dup8\n      and\n      swap2\n      0x485cc955\n      swap2\n        /* \"smart contracts/v2-core-master/contracts/UniswapV2Factory.sol\":1449:1496  IUniswapV2Pair(pair).initialize(token0, token1) */\n      0x44\n      dup1\n      dup3\n      add\n      swap3\n      0x00\n      swap3\n      swap1\n      swap2\n      swap1\n      dup3\n      swap1\n      sub\n      add\n      dup2\n      dup4\n        /* \"smart contracts/v2-core-master/contracts/UniswapV2Factory.sol\":1449:1480  IUniswapV2Pair(pair).initialize */\n      dup8\n        /* \"smart contracts/v2-core-master/contracts/UniswapV2Factory.sol\":1449:1496  IUniswapV2Pair(pair).initialize(token0, token1) */\n      dup1\n      extcodesize\n      iszero\n        /* \"--CODEGEN--\":5:7   */\n      dup1\n      iszero\n      tag_62\n      jumpi\n        /* \"--CODEGEN--\":30:31   */\n      0x00\n        /* \"--CODEGEN--\":27:28   */\n      dup1\n        /* \"--CODEGEN--\":20:32   */\n      revert\n        /* \"--CODEGEN--\":5:7   */\n    tag_62:\n        /* \"smart contracts/v2-core-master/contracts/UniswapV2Factory.sol\":1449:1496  IUniswapV2Pair(pair).initialize(token0, token1) */\n      pop\n      gas\n      call\n      iszero\n        /* \"--CODEGEN--\":8:17   */\n      dup1\n        /* \"--CODEGEN--\":5:7   */\n      iszero\n      tag_63\n      jumpi\n        /* \"--CODEGEN--\":45:61   */\n      returndatasize\n        /* \"--CODEGEN--\":42:43   */\n      0x00\n        /* \"--CODEGEN--\":39:40   */\n      dup1\n        /* \"--CODEGEN--\":24:62   */\n      returndatacopy\n        /* \"--CODEGEN--\":77:93   */\n      returndatasize\n        /* \"--CODEGEN--\":74:75   */\n      0x00\n        /* \"--CODEGEN--\":67:94   */\n      revert\n        /* \"--CODEGEN--\":5:7   */\n    tag_63:\n      pop\n      pop\n      pop\n      pop\n      sub(shl(0xa0, 0x01), 0x01)\n        /* \"smart contracts/v2-core-master/contracts/UniswapV2Factory.sol\":1507:1522  getPair[token0] */\n      dup5\n      dup2\n      and\n      0x00\n      dup2\n      dup2\n      mstore\n        /* \"smart contracts/v2-core-master/contracts/UniswapV2Factory.sol\":1507:1514  getPair */\n      0x03\n        /* \"smart contracts/v2-core-master/contracts/UniswapV2Factory.sol\":1507:1522  getPair[token0] */\n      0x20\n      dup2\n      dup2\n      mstore\n      0x40\n      dup1\n      dup5\n      keccak256\n        /* \"smart contracts/v2-core-master/contracts/UniswapV2Factory.sol\":1507:1530  getPair[token0][token1] */\n      dup10\n      dup8\n      and\n      dup1\n      dup7\n      mstore\n      swap1\n      dup4\n      mstore\n      dup2\n      dup6\n      keccak256\n        /* \"smart contracts/v2-core-master/contracts/UniswapV2Factory.sol\":1507:1537  getPair[token0][token1] = pair */\n      dup1\n      sload\n      swap8\n      dup14\n      and\n      not(sub(shl(0xa0, 0x01), 0x01))\n      swap9\n      dup10\n      and\n      dup2\n      or\n      swap1\n      swap2\n      sstore\n        /* \"smart contracts/v2-core-master/contracts/UniswapV2Factory.sol\":1548:1563  getPair[token1] */\n      swap4\n      dup4\n      mstore\n      dup2\n      dup6\n      keccak256\n        /* \"smart contracts/v2-core-master/contracts/UniswapV2Factory.sol\":1548:1571  getPair[token1][token0] */\n      dup7\n      dup7\n      mstore\n      dup4\n      mstore\n      dup2\n      dup6\n      keccak256\n        /* \"smart contracts/v2-core-master/contracts/UniswapV2Factory.sol\":1548:1578  getPair[token1][token0] = pair */\n      dup1\n      sload\n      dup9\n      and\n      dup6\n      or\n      swap1\n      sstore\n        /* \"smart contracts/v2-core-master/contracts/UniswapV2Factory.sol\":1634:1642  allPairs */\n      0x04\n        /* \"--CODEGEN--\":27:37   */\n      dup1\n      sload\n      0x01\n        /* \"--CODEGEN--\":23:41   */\n      dup2\n      add\n        /* \"--CODEGEN--\":45:68   */\n      dup3\n      sstore\n        /* \"smart contracts/v2-core-master/contracts/UniswapV2Factory.sol\":1634:1653  allPairs.push(pair) */\n      swap6\n      dup2\n      swap1\n      mstore\n      0x8a35acfbc15ff81a39ae7d344fd709f28e8600b4aa8c65c6b64bfe7fe36bd19b\n      swap1\n      swap6\n      add\n      dup1\n      sload\n      swap1\n      swap8\n      and\n      dup5\n      or\n      swap1\n      swap7\n      sstore\n        /* \"smart contracts/v2-core-master/contracts/UniswapV2Factory.sol\":1703:1718  allPairs.length */\n      swap3\n      sload\n        /* \"smart contracts/v2-core-master/contracts/UniswapV2Factory.sol\":1669:1719  PairCreated(token0, token1, pair, allPairs.length) */\n      dup4\n      mload\n      swap3\n      dup4\n      mstore\n      swap1\n      dup3\n      add\n      mstore\n      dup2\n      mload\n      0x0d3648bd0f6ba80134a33ba9275ac585d9d315f0ad8355cddefde31afa28d0e9\n      swap3\n      swap2\n      dup2\n      swap1\n      sub\n      swap1\n      swap2\n      add\n      swap1\n      log3\n        /* \"smart contracts/v2-core-master/contracts/UniswapV2Factory.sol\":764:1727  function createPair(address tokenA, address tokenB) external returns (address pair) {\r... */\n      pop\n      pop\n      pop\n      pop\n      swap3\n      swap2\n      pop\n      pop\n      jump\t// out\n        /* \"smart contracts/v2-core-master/contracts/UniswapV2Factory.sol\":369:431  mapping(address => mapping(address => address)) public getPair */\n    tag_39:\n      0x03\n      0x20\n      swap1\n      dup2\n      mstore\n      0x00\n      swap3\n      dup4\n      mstore\n      0x40\n      dup1\n      dup5\n      keccak256\n      swap1\n      swap2\n      mstore\n      swap1\n      dup3\n      mstore\n      swap1\n      keccak256\n      sload\n      sub(shl(0xa0, 0x01), 0x01)\n      and\n      dup2\n      jump\t// out\n        /* \"smart contracts/v2-core-master/contracts/UniswapV2Factory.sol\":1735:1880  function setFeeTo(address _feeTo) external {\r... */\n    tag_42:\n        /* \"smart contracts/v2-core-master/contracts/UniswapV2Factory.sol\":1811:1822  feeToSetter */\n      and(sub(shl(0xa0, 0x01), 0x01), sload(0x02))\n        /* \"smart contracts/v2-core-master/contracts/UniswapV2Factory.sol\":1797:1807  msg.sender */\n      caller\n        /* \"smart contracts/v2-core-master/contracts/UniswapV2Factory.sol\":1797:1822  msg.sender == feeToSetter */\n      eq\n        /* \"smart contracts/v2-core-master/contracts/UniswapV2Factory.sol\":1789:1847  require(msg.sender == feeToSetter, 'UniswapV2: FORBIDDEN') */\n      tag_66\n      jumpi\n      0x40\n      dup1\n      mload\n      shl(0xe5, 0x461bcd)\n      dup2\n      mstore\n      0x20\n      0x04\n      dup3\n      add\n      mstore\n      0x14\n      0x24\n      dup3\n      add\n      mstore\n      shl(0x61, 0x2ab734b9bbb0b82b191d102327a92124a22222a7)\n      0x44\n      dup3\n      add\n      mstore\n      swap1\n      mload\n      swap1\n      dup2\n      swap1\n      sub\n      0x64\n      add\n      swap1\n      revert\n    tag_66:\n        /* \"smart contracts/v2-core-master/contracts/UniswapV2Factory.sol\":1858:1863  feeTo */\n      0x00\n        /* \"smart contracts/v2-core-master/contracts/UniswapV2Factory.sol\":1858:1872  feeTo = _feeTo */\n      dup1\n      sload\n      not(sub(shl(0xa0, 0x01), 0x01))\n      and\n      sub(shl(0xa0, 0x01), 0x01)\n      swap3\n      swap1\n      swap3\n      and\n      swap2\n      swap1\n      swap2\n      or\n      swap1\n      sstore\n        /* \"smart contracts/v2-core-master/contracts/UniswapV2Factory.sol\":1735:1880  function setFeeTo(address _feeTo) external {\r... */\n      jump\t// out\n        /* \"smart contracts/v2-core-master/contracts/UniswapV2Factory.sol\":108:2241  contract UniswapV2Factory is IUniswapV2Factory {\r... */\n    tag_48:\n      dataSize(sub_0)\n      dup1\n      dataOffset(sub_0)\n      dup4\n      codecopy\n      add\n      swap1\n      jump\t// out\n    stop\n\n    sub_0: assembly {\n            /* \"smart contracts/v2-core-master/contracts/UniswapV2Pair.sol\":301:10467  contract UniswapV2Pair is IUniswapV2Pair, UniswapV2ERC20 {\r... */\n          mstore(0x40, 0x80)\n            /* \"smart contracts/v2-core-master/contracts/UniswapV2Pair.sol\":1170:1171  1 */\n          0x01\n            /* \"smart contracts/v2-core-master/contracts/UniswapV2Pair.sol\":1146:1171  uint private unlocked = 1 */\n          0x0c\n          sstore\n            /* \"smart contracts/v2-core-master/contracts/UniswapV2Pair.sol\":2257:2317  constructor() public {\r... */\n          callvalue\n            /* \"--CODEGEN--\":8:17   */\n          dup1\n            /* \"--CODEGEN--\":5:7   */\n          iszero\n          tag_1\n          jumpi\n            /* \"--CODEGEN--\":30:31   */\n          0x00\n            /* \"--CODEGEN--\":27:28   */\n          dup1\n            /* \"--CODEGEN--\":20:32   */\n          revert\n            /* \"--CODEGEN--\":5:7   */\n        tag_1:\n          pop\n            /* \"smart contracts/v2-core-master/contracts/UniswapV2ERC20.sol\":1131:1226  keccak256('EIP712Domain(string name,string version,uint256 chainId,address verifyingContract)') */\n          mload(0x40)\n            /* \"smart contracts/v2-core-master/contracts/UniswapV2ERC20.sol\":1031:1038  chainid */\n          chainid\n          swap1\n            /* \"smart contracts/v2-core-master/contracts/UniswapV2ERC20.sol\":1131:1226  keccak256('EIP712Domain(string name,string version,uint256 chainId,address verifyingContract)') */\n          dup1\n          0x52\n          data_8b73c3c69bb8fe3d512ecc4cf759cc79239f7b179b0ffacaa9a75d522b39400f\n          dup3\n          codecopy\n          0x40\n          dup1\n          mload\n          swap2\n          dup3\n          swap1\n          sub\n          0x52\n          add\n          dup3\n          keccak256\n            /* \"smart contracts/v2-core-master/contracts/UniswapV2ERC20.sol\":1261:1265  name */\n          dup3\n          dup3\n          add\n          dup3\n          mstore\n          0x0a\n          dup4\n          mstore\n          shl(0xb1, 0x2432bc3c102a37b5b2b7)\n          0x20\n          swap4\n          dup5\n          add\n          mstore\n            /* \"smart contracts/v2-core-master/contracts/UniswapV2ERC20.sol\":1296:1306  bytes('1') */\n          dup2\n          mload\n          dup1\n          dup4\n          add\n          dup4\n          mstore\n          0x01\n          dup2\n          mstore\n          shl(0xf8, 0x31)\n          swap1\n          dup5\n          add\n          mstore\n            /* \"smart contracts/v2-core-master/contracts/UniswapV2ERC20.sol\":1102:1380  abi.encode(\r... */\n          dup2\n          mload\n          dup1\n          dup5\n          add\n          swap2\n          swap1\n          swap2\n          mstore\n            /* \"smart contracts/v2-core-master/contracts/UniswapV2ERC20.sol\":1245:1267  keccak256(bytes(name)) */\n          0xc752079a5b46b20bb2d74ca8b56c765da37034eb5f30423e0c854747bc9a645d\n            /* \"smart contracts/v2-core-master/contracts/UniswapV2ERC20.sol\":1102:1380  abi.encode(\r... */\n          dup2\n          dup4\n          add\n          mstore\n            /* \"smart contracts/v2-core-master/contracts/UniswapV2ERC20.sol\":1286:1307  keccak256(bytes('1')) */\n          0xc89efdaa54c0f20c7adf612882df0950f5a951637e0307cdcb4c672f298b8bc6\n            /* \"smart contracts/v2-core-master/contracts/UniswapV2ERC20.sol\":1102:1380  abi.encode(\r... */\n          0x60\n          dup3\n          add\n          mstore\n          0x80\n          dup2\n          add\n          swap5\n          swap1\n          swap5\n          mstore\n            /* \"smart contracts/v2-core-master/contracts/UniswapV2ERC20.sol\":1360:1364  this */\n          address\n            /* \"smart contracts/v2-core-master/contracts/UniswapV2ERC20.sol\":1102:1380  abi.encode(\r... */\n          0xa0\n          dup1\n          dup7\n          add\n          swap2\n          swap1\n          swap2\n          mstore\n          dup2\n          mload\n            /* \"--CODEGEN--\":26:47   */\n          dup1\n          dup7\n          sub\n            /* \"--CODEGEN--\":22:54   */\n          swap1\n          swap2\n          add\n            /* \"--CODEGEN--\":6:55   */\n          dup2\n          mstore\n            /* \"smart contracts/v2-core-master/contracts/UniswapV2ERC20.sol\":1102:1380  abi.encode(\r... */\n          0xc0\n          swap1\n          swap5\n          add\n          swap1\n          mstore\n            /* \"smart contracts/v2-core-master/contracts/UniswapV2ERC20.sol\":1078:1391  keccak256(\r... */\n          dup3\n          mload\n          swap3\n          add\n          swap2\n          swap1\n          swap2\n          keccak256\n            /* \"smart contracts/v2-core-master/contracts/UniswapV2ERC20.sol\":1059:1075  DOMAIN_SEPARATOR */\n          0x03\n            /* \"smart contracts/v2-core-master/contracts/UniswapV2ERC20.sol\":1059:1391  DOMAIN_SEPARATOR = keccak256(\r... */\n          sstore\n          pop\n            /* \"smart contracts/v2-core-master/contracts/UniswapV2Pair.sol\":2289:2296  factory */\n          0x05\n            /* \"smart contracts/v2-core-master/contracts/UniswapV2Pair.sol\":2289:2309  factory = msg.sender */\n          dup1\n          sload\n          not(sub(shl(0xa0, 0x01), 0x01))\n          and\n            /* \"smart contracts/v2-core-master/contracts/UniswapV2Pair.sol\":2299:2309  msg.sender */\n          caller\n            /* \"smart contracts/v2-core-master/contracts/UniswapV2Pair.sol\":2289:2309  factory = msg.sender */\n          or\n          swap1\n          sstore\n          0x2330\n          dup1\n            /* \"smart contracts/v2-core-master/contracts/UniswapV2Pair.sol\":301:10467  contract UniswapV2Pair is IUniswapV2Pair, UniswapV2ERC20 {\r... */\n          dataOffset(sub_0)\n          0x00\n          codecopy\n          0x00\n          return\n        stop\n        data_8b73c3c69bb8fe3d512ecc4cf759cc79239f7b179b0ffacaa9a75d522b39400f 454950373132446f6d61696e28737472696e67206e616d652c737472696e672076657273696f6e2c75696e7432353620636861696e49642c6164647265737320766572696679696e67436f6e747261637429\n\n        sub_0: assembly {\n                /* \"smart contracts/v2-core-master/contracts/UniswapV2Pair.sol\":301:10467  contract UniswapV2Pair is IUniswapV2Pair, UniswapV2ERC20 {\r... */\n              mstore(0x40, 0x80)\n              callvalue\n                /* \"--CODEGEN--\":8:17   */\n              dup1\n                /* \"--CODEGEN--\":5:7   */\n              iszero\n              tag_1\n              jumpi\n                /* \"--CODEGEN--\":30:31   */\n              0x00\n                /* \"--CODEGEN--\":27:28   */\n              dup1\n                /* \"--CODEGEN--\":20:32   */\n              revert\n                /* \"--CODEGEN--\":5:7   */\n            tag_1:\n                /* \"smart contracts/v2-core-master/contracts/UniswapV2Pair.sol\":301:10467  contract UniswapV2Pair is IUniswapV2Pair, UniswapV2ERC20 {\r... */\n              pop\n              jumpi(tag_2, lt(calldatasize, 0x04))\n              shr(0xe0, calldataload(0x00))\n              dup1\n              0x6a627842\n              gt\n              tag_30\n              jumpi\n              dup1\n              0xba9a7a56\n              gt\n              tag_31\n              jumpi\n              dup1\n              0xd21220a7\n              gt\n              tag_32\n              jumpi\n              dup1\n              0xd21220a7\n              eq\n              tag_26\n              jumpi\n              dup1\n              0xd505accf\n              eq\n              tag_27\n              jumpi\n              dup1\n              0xdd62ed3e\n              eq\n              tag_28\n              jumpi\n              dup1\n              0xfff6cae9\n              eq\n              tag_29\n              jumpi\n              jump(tag_2)\n            tag_32:\n              dup1\n              0xba9a7a56\n              eq\n              tag_23\n              jumpi\n              dup1\n              0xbc25cf77\n              eq\n              tag_24\n              jumpi\n              dup1\n              0xc45a0155\n              eq\n              tag_25\n              jumpi\n              jump(tag_2)\n            tag_31:\n              dup1\n              0x7ecebe00\n              gt\n              tag_33\n              jumpi\n              dup1\n              0x7ecebe00\n              eq\n              tag_19\n              jumpi\n              dup1\n              0x89afcb44\n              eq\n              tag_20\n              jumpi\n              dup1\n              0x95d89b41\n              eq\n              tag_21\n              jumpi\n              dup1\n              0xa9059cbb\n              eq\n              tag_22\n              jumpi\n              jump(tag_2)\n            tag_33:\n              dup1\n              0x6a627842\n              eq\n              tag_16\n              jumpi\n              dup1\n              0x70a08231\n              eq\n              tag_17\n              jumpi\n              dup1\n              0x7464fc3d\n              eq\n              tag_18\n              jumpi\n              jump(tag_2)\n            tag_30:\n              dup1\n              0x23b872dd\n              gt\n              tag_34\n              jumpi\n              dup1\n              0x3644e515\n              gt\n              tag_35\n              jumpi\n              dup1\n              0x3644e515\n              eq\n              tag_12\n              jumpi\n              dup1\n              0x485cc955\n              eq\n              tag_13\n              jumpi\n              dup1\n              0x5909c0d5\n              eq\n              tag_14\n              jumpi\n              dup1\n              0x5a3d5493\n              eq\n              tag_15\n              jumpi\n              jump(tag_2)\n            tag_35:\n              dup1\n              0x23b872dd\n              eq\n              tag_9\n              jumpi\n              dup1\n              0x30adf81f\n              eq\n              tag_10\n              jumpi\n              dup1\n              0x313ce567\n              eq\n              tag_11\n              jumpi\n              jump(tag_2)\n            tag_34:\n              dup1\n              0x022c0d9f\n              eq\n              tag_3\n              jumpi\n              dup1\n              0x06fdde03\n              eq\n              tag_4\n              jumpi\n              dup1\n              0x0902f1ac\n              eq\n              tag_5\n              jumpi\n              dup1\n              0x095ea7b3\n              eq\n              tag_6\n              jumpi\n              dup1\n              0x0dfe1681\n              eq\n              tag_7\n              jumpi\n              dup1\n              0x18160ddd\n              eq\n              tag_8\n              jumpi\n            tag_2:\n              0x00\n              dup1\n              revert\n                /* \"smart contracts/v2-core-master/contracts/UniswapV2Pair.sol\":7985:9874  function swap(uint amount0Out, uint amount1Out, address to, bytes calldata data) external lock {\r... */\n            tag_3:\n              tag_36\n              0x04\n              dup1\n              calldatasize\n              sub\n                /* \"--CODEGEN--\":13:16   */\n              0x80\n                /* \"--CODEGEN--\":8:11   */\n              dup2\n                /* \"--CODEGEN--\":5:17   */\n              lt\n                /* \"--CODEGEN--\":2:4   */\n              iszero\n              tag_37\n              jumpi\n                /* \"--CODEGEN--\":30:31   */\n              0x00\n                /* \"--CODEGEN--\":27:28   */\n              dup1\n                /* \"--CODEGEN--\":20:32   */\n              revert\n                /* \"--CODEGEN--\":2:4   */\n            tag_37:\n                /* \"smart contracts/v2-core-master/contracts/UniswapV2Pair.sol\":7985:9874  function swap(uint amount0Out, uint amount1Out, address to, bytes calldata data) external lock {\r... */\n              dup2\n              calldataload\n              swap2\n              0x20\n              dup2\n              add\n              calldataload\n              swap2\n              0x40\n              dup3\n              add\n              calldataload\n              sub(shl(0xa0, 0x01), 0x01)\n              and\n              swap2\n              swap1\n              dup2\n              add\n              swap1\n              0x80\n              dup2\n              add\n              0x60\n              dup3\n              add\n              calldataload\n                /* \"--CODEGEN--\":21:32   */\n              0x0100000000\n                /* \"--CODEGEN--\":5:33   */\n              dup2\n              gt\n                /* \"--CODEGEN--\":2:4   */\n              iszero\n              tag_38\n              jumpi\n                /* \"--CODEGEN--\":46:47   */\n              0x00\n                /* \"--CODEGEN--\":43:44   */\n              dup1\n                /* \"--CODEGEN--\":36:48   */\n              revert\n                /* \"--CODEGEN--\":2:4   */\n            tag_38:\n                /* \"smart contracts/v2-core-master/contracts/UniswapV2Pair.sol\":7985:9874  function swap(uint amount0Out, uint amount1Out, address to, bytes calldata data) external lock {\r... */\n              dup3\n              add\n                /* \"--CODEGEN--\":35:44   */\n              dup4\n                /* \"--CODEGEN--\":28:32   */\n              0x20\n                /* \"--CODEGEN--\":12:26   */\n              dup3\n                /* \"--CODEGEN--\":8:33   */\n              add\n                /* \"--CODEGEN--\":5:45   */\n              gt\n                /* \"--CODEGEN--\":2:4   */\n              iszero\n              tag_39\n              jumpi\n                /* \"--CODEGEN--\":58:59   */\n              0x00\n                /* \"--CODEGEN--\":55:56   */\n              dup1\n                /* \"--CODEGEN--\":48:60   */\n              revert\n                /* \"--CODEGEN--\":2:4   */\n            tag_39:\n                /* \"smart contracts/v2-core-master/contracts/UniswapV2Pair.sol\":7985:9874  function swap(uint amount0Out, uint amount1Out, address to, bytes calldata data) external lock {\r... */\n              dup1\n              calldataload\n              swap1\n              0x20\n              add\n              swap2\n                /* \"--CODEGEN--\":100:109   */\n              dup5\n                /* \"--CODEGEN--\":95:96   */\n              0x01\n                /* \"--CODEGEN--\":81:93   */\n              dup4\n                /* \"--CODEGEN--\":77:97   */\n              mul\n                /* \"--CODEGEN--\":67:75   */\n              dup5\n                /* \"--CODEGEN--\":63:98   */\n              add\n                /* \"--CODEGEN--\":60:110   */\n              gt\n                /* \"--CODEGEN--\":39:50   */\n              0x0100000000\n                /* \"--CODEGEN--\":25:37   */\n              dup4\n                /* \"--CODEGEN--\":22:51   */\n              gt\n                /* \"--CODEGEN--\":11:118   */\n              or\n                /* \"--CODEGEN--\":8:10   */\n              iszero\n              tag_40\n              jumpi\n                /* \"--CODEGEN--\":131:132   */\n              0x00\n                /* \"--CODEGEN--\":128:129   */\n              dup1\n                /* \"--CODEGEN--\":121:133   */\n              revert\n                /* \"--CODEGEN--\":8:10   */\n            tag_40:\n              pop\n                /* \"smart contracts/v2-core-master/contracts/UniswapV2Pair.sol\":7985:9874  function swap(uint amount0Out, uint amount1Out, address to, bytes calldata data) external lock {\r... */\n              swap1\n              swap3\n              pop\n              swap1\n              pop\n              tag_41\n              jump\t// in\n            tag_36:\n              stop\n                /* \"smart contracts/v2-core-master/contracts/UniswapV2ERC20.sol\":193:235  string public constant name = 'Hexx Token' */\n            tag_4:\n              tag_42\n              tag_43\n              jump\t// in\n            tag_42:\n              0x40\n              dup1\n              mload\n              0x20\n              dup1\n              dup3\n              mstore\n              dup4\n              mload\n              dup2\n              dup4\n              add\n              mstore\n              dup4\n              mload\n              swap2\n              swap3\n              dup4\n              swap3\n              swap1\n              dup4\n              add\n              swap2\n              dup6\n              add\n              swap1\n              dup1\n              dup4\n              dup4\n              0x00\n                /* \"--CODEGEN--\":8:108   */\n            tag_44:\n                /* \"--CODEGEN--\":33:36   */\n              dup4\n                /* \"--CODEGEN--\":30:31   */\n              dup2\n                /* \"--CODEGEN--\":27:37   */\n              lt\n                /* \"--CODEGEN--\":8:108   */\n              iszero\n              tag_46\n              jumpi\n                /* \"--CODEGEN--\":90:101   */\n              dup2\n              dup2\n              add\n                /* \"--CODEGEN--\":84:102   */\n              mload\n                /* \"--CODEGEN--\":71:82   */\n              dup4\n              dup3\n              add\n                /* \"--CODEGEN--\":64:103   */\n              mstore\n                /* \"--CODEGEN--\":52:54   */\n              0x20\n                /* \"--CODEGEN--\":45:55   */\n              add\n                /* \"--CODEGEN--\":8:108   */\n              jump(tag_44)\n            tag_46:\n                /* \"--CODEGEN--\":12:26   */\n              pop\n                /* \"smart contracts/v2-core-master/contracts/UniswapV2ERC20.sol\":193:235  string public constant name = 'Hexx Token' */\n              pop\n              pop\n              pop\n              swap1\n              pop\n              swap1\n              dup2\n              add\n              swap1\n              0x1f\n              and\n              dup1\n              iszero\n              tag_47\n              jumpi\n              dup1\n              dup3\n              sub\n              dup1\n              mload\n              0x01\n              dup4\n              0x20\n              sub\n              0x0100\n              exp\n              sub\n              not\n              and\n              dup2\n              mstore\n              0x20\n              add\n              swap2\n              pop\n            tag_47:\n              pop\n              swap3\n              pop\n              pop\n              pop\n              mload(0x40)\n              dup1\n              swap2\n              sub\n              swap1\n              return\n                /* \"smart contracts/v2-core-master/contracts/UniswapV2Pair.sol\":1322:1553  function getReserves() public view returns (uint112 _reserve0, uint112 _reserve1, uint32 _blockTimestampLast) {\r... */\n            tag_5:\n              tag_48\n              tag_49\n              jump\t// in\n            tag_48:\n              0x40\n              dup1\n              mload\n              sub(shl(0x70, 0x01), 0x01)\n              swap5\n              dup6\n              and\n              dup2\n              mstore\n              swap3\n              swap1\n              swap4\n              and\n              0x20\n              dup4\n              add\n              mstore\n              0xffffffff\n              and\n              dup2\n              dup4\n              add\n              mstore\n              swap1\n              mload\n              swap1\n              dup2\n              swap1\n              sub\n              0x60\n              add\n              swap1\n              return\n                /* \"smart contracts/v2-core-master/contracts/UniswapV2ERC20.sol\":2238:2385  function approve(address spender, uint value) external returns (bool) {\r... */\n            tag_6:\n              tag_50\n              0x04\n              dup1\n              calldatasize\n              sub\n                /* \"--CODEGEN--\":13:15   */\n              0x40\n                /* \"--CODEGEN--\":8:11   */\n              dup2\n                /* \"--CODEGEN--\":5:16   */\n              lt\n                /* \"--CODEGEN--\":2:4   */\n              iszero\n              tag_51\n              jumpi\n                /* \"--CODEGEN--\":29:30   */\n              0x00\n                /* \"--CODEGEN--\":26:27   */\n              dup1\n                /* \"--CODEGEN--\":19:31   */\n              revert\n                /* \"--CODEGEN--\":2:4   */\n            tag_51:\n              pop\n                /* \"smart contracts/v2-core-master/contracts/UniswapV2ERC20.sol\":2238:2385  function approve(address spender, uint value) external returns (bool) {\r... */\n              dup1\n              calldataload\n              sub(shl(0xa0, 0x01), 0x01)\n              and\n              swap1\n              0x20\n              add\n              calldataload\n              tag_52\n              jump\t// in\n            tag_50:\n              0x40\n              dup1\n              mload\n              swap2\n              iszero\n              iszero\n              dup3\n              mstore\n              mload\n              swap1\n              dup2\n              swap1\n              sub\n              0x20\n              add\n              swap1\n              return\n                /* \"smart contracts/v2-core-master/contracts/UniswapV2Pair.sol\":611:632  address public token0 */\n            tag_7:\n              tag_53\n              tag_54\n              jump\t// in\n            tag_53:\n              0x40\n              dup1\n              mload\n              0x01\n              dup1\n              0xa0\n              shl\n              sub\n              swap1\n              swap3\n              and\n              dup3\n              mstore\n              mload\n              swap1\n              dup2\n              swap1\n              sub\n              0x20\n              add\n              swap1\n              return\n                /* \"smart contracts/v2-core-master/contracts/UniswapV2ERC20.sol\":329:353  uint  public totalSupply */\n            tag_8:\n              tag_55\n              tag_56\n              jump\t// in\n            tag_55:\n              0x40\n              dup1\n              mload\n              swap2\n              dup3\n              mstore\n              mload\n              swap1\n              dup2\n              swap1\n              sub\n              0x20\n              add\n              swap1\n              return\n                /* \"smart contracts/v2-core-master/contracts/UniswapV2ERC20.sol\":2540:2841  function transferFrom(address from, address to, uint value) external returns (bool) {\r... */\n            tag_9:\n              tag_50\n              0x04\n              dup1\n              calldatasize\n              sub\n                /* \"--CODEGEN--\":13:15   */\n              0x60\n                /* \"--CODEGEN--\":8:11   */\n              dup2\n                /* \"--CODEGEN--\":5:16   */\n              lt\n                /* \"--CODEGEN--\":2:4   */\n              iszero\n              tag_58\n              jumpi\n                /* \"--CODEGEN--\":29:30   */\n              0x00\n                /* \"--CODEGEN--\":26:27   */\n              dup1\n                /* \"--CODEGEN--\":19:31   */\n              revert\n                /* \"--CODEGEN--\":2:4   */\n            tag_58:\n              pop\n              sub(shl(0xa0, 0x01), 0x01)\n                /* \"smart contracts/v2-core-master/contracts/UniswapV2ERC20.sol\":2540:2841  function transferFrom(address from, address to, uint value) external returns (bool) {\r... */\n              dup2\n              calldataload\n              dup2\n              and\n              swap2\n              0x20\n              dup2\n              add\n              calldataload\n              swap1\n              swap2\n              and\n              swap1\n              0x40\n              add\n              calldataload\n              tag_59\n              jump\t// in\n                /* \"smart contracts/v2-core-master/contracts/UniswapV2ERC20.sol\":621:729  bytes32 public constant PERMIT_TYPEHASH = 0x6e71edae12b1b97f4d1f60370fef10105fa2faae0126114a169c64845d6126c9 */\n            tag_10:\n              tag_55\n              tag_61\n              jump\t// in\n                /* \"smart contracts/v2-core-master/contracts/UniswapV2ERC20.sol\":287:322  uint8 public constant decimals = 18 */\n            tag_11:\n              tag_62\n              tag_63\n              jump\t// in\n            tag_62:\n              0x40\n              dup1\n              mload\n              0xff\n              swap1\n              swap3\n              and\n              dup3\n              mstore\n              mload\n              swap1\n              dup2\n              swap1\n              sub\n              0x20\n              add\n              swap1\n              return\n                /* \"smart contracts/v2-core-master/contracts/UniswapV2ERC20.sol\":478:509  bytes32 public DOMAIN_SEPARATOR */\n            tag_12:\n              tag_55\n              tag_65\n              jump\t// in\n                /* \"smart contracts/v2-core-master/contracts/UniswapV2Pair.sol\":2382:2592  function initialize(address _token0, address _token1) external {\r... */\n            tag_13:\n              tag_36\n              0x04\n              dup1\n              calldatasize\n              sub\n                /* \"--CODEGEN--\":13:15   */\n              0x40\n                /* \"--CODEGEN--\":8:11   */\n              dup2\n                /* \"--CODEGEN--\":5:16   */\n              lt\n                /* \"--CODEGEN--\":2:4   */\n              iszero\n              tag_67\n              jumpi\n                /* \"--CODEGEN--\":29:30   */\n              0x00\n                /* \"--CODEGEN--\":26:27   */\n              dup1\n                /* \"--CODEGEN--\":19:31   */\n              revert\n                /* \"--CODEGEN--\":2:4   */\n            tag_67:\n              pop\n              sub(shl(0xa0, 0x01), 0x01)\n                /* \"smart contracts/v2-core-master/contracts/UniswapV2Pair.sol\":2382:2592  function initialize(address _token0, address _token1) external {\r... */\n              dup2\n              calldataload\n              dup2\n              and\n              swap2\n              0x20\n              add\n              calldataload\n              and\n              tag_68\n              jump\t// in\n                /* \"smart contracts/v2-core-master/contracts/UniswapV2Pair.sol\":962:994  uint public price0CumulativeLast */\n            tag_14:\n              tag_55\n              tag_70\n              jump\t// in\n                /* \"smart contracts/v2-core-master/contracts/UniswapV2Pair.sol\":1001:1033  uint public price1CumulativeLast */\n            tag_15:\n              tag_55\n              tag_72\n              jump\t// in\n                /* \"smart contracts/v2-core-master/contracts/UniswapV2Pair.sol\":5055:6295  function mint(address to) external lock returns (uint liquidity) {\r... */\n            tag_16:\n              tag_55\n              0x04\n              dup1\n              calldatasize\n              sub\n                /* \"--CODEGEN--\":13:15   */\n              0x20\n                /* \"--CODEGEN--\":8:11   */\n              dup2\n                /* \"--CODEGEN--\":5:16   */\n              lt\n                /* \"--CODEGEN--\":2:4   */\n              iszero\n              tag_74\n              jumpi\n                /* \"--CODEGEN--\":29:30   */\n              0x00\n                /* \"--CODEGEN--\":26:27   */\n              dup1\n                /* \"--CODEGEN--\":19:31   */\n              revert\n                /* \"--CODEGEN--\":2:4   */\n            tag_74:\n              pop\n                /* \"smart contracts/v2-core-master/contracts/UniswapV2Pair.sol\":5055:6295  function mint(address to) external lock returns (uint liquidity) {\r... */\n              calldataload\n              sub(shl(0xa0, 0x01), 0x01)\n              and\n              tag_75\n              jump\t// in\n                /* \"smart contracts/v2-core-master/contracts/UniswapV2ERC20.sol\":360:401  mapping(address => uint) public balanceOf */\n            tag_17:\n              tag_55\n              0x04\n              dup1\n              calldatasize\n              sub\n                /* \"--CODEGEN--\":13:15   */\n              0x20\n                /* \"--CODEGEN--\":8:11   */\n              dup2\n                /* \"--CODEGEN--\":5:16   */\n              lt\n                /* \"--CODEGEN--\":2:4   */\n              iszero\n              tag_77\n              jumpi\n                /* \"--CODEGEN--\":29:30   */\n              0x00\n                /* \"--CODEGEN--\":26:27   */\n              dup1\n                /* \"--CODEGEN--\":19:31   */\n              revert\n                /* \"--CODEGEN--\":2:4   */\n            tag_77:\n              pop\n                /* \"smart contracts/v2-core-master/contracts/UniswapV2ERC20.sol\":360:401  mapping(address => uint) public balanceOf */\n              calldataload\n              sub(shl(0xa0, 0x01), 0x01)\n              and\n              tag_78\n              jump\t// in\n                /* \"smart contracts/v2-core-master/contracts/UniswapV2Pair.sol\":1040:1057  uint public kLast */\n            tag_18:\n              tag_55\n              tag_80\n              jump\t// in\n                /* \"smart contracts/v2-core-master/contracts/UniswapV2ERC20.sol\":736:774  mapping(address => uint) public nonces */\n            tag_19:\n              tag_55\n              0x04\n              dup1\n              calldatasize\n              sub\n                /* \"--CODEGEN--\":13:15   */\n              0x20\n                /* \"--CODEGEN--\":8:11   */\n              dup2\n                /* \"--CODEGEN--\":5:16   */\n              lt\n                /* \"--CODEGEN--\":2:4   */\n              iszero\n              tag_82\n              jumpi\n                /* \"--CODEGEN--\":29:30   */\n              0x00\n                /* \"--CODEGEN--\":26:27   */\n              dup1\n                /* \"--CODEGEN--\":19:31   */\n              revert\n                /* \"--CODEGEN--\":2:4   */\n            tag_82:\n              pop\n                /* \"smart contracts/v2-core-master/contracts/UniswapV2ERC20.sol\":736:774  mapping(address => uint) public nonces */\n              calldataload\n              sub(shl(0xa0, 0x01), 0x01)\n              and\n              tag_83\n              jump\t// in\n                /* \"smart contracts/v2-core-master/contracts/UniswapV2Pair.sol\":6407:7873  function burn(address to) external lock returns (uint amount0, uint amount1) {\r... */\n            tag_20:\n              tag_84\n              0x04\n              dup1\n              calldatasize\n              sub\n                /* \"--CODEGEN--\":13:15   */\n              0x20\n                /* \"--CODEGEN--\":8:11   */\n              dup2\n                /* \"--CODEGEN--\":5:16   */\n              lt\n                /* \"--CODEGEN--\":2:4   */\n              iszero\n              tag_85\n              jumpi\n                /* \"--CODEGEN--\":29:30   */\n              0x00\n                /* \"--CODEGEN--\":26:27   */\n              dup1\n                /* \"--CODEGEN--\":19:31   */\n              revert\n                /* \"--CODEGEN--\":2:4   */\n            tag_85:\n              pop\n                /* \"smart contracts/v2-core-master/contracts/UniswapV2Pair.sol\":6407:7873  function burn(address to) external lock returns (uint amount0, uint amount1) {\r... */\n              calldataload\n              sub(shl(0xa0, 0x01), 0x01)\n              and\n              tag_86\n              jump\t// in\n            tag_84:\n              0x40\n              dup1\n              mload\n              swap3\n              dup4\n              mstore\n              0x20\n              dup4\n              add\n              swap2\n              swap1\n              swap2\n              mstore\n              dup1\n              mload\n              swap2\n              dup3\n              swap1\n              sub\n              add\n              swap1\n              return\n                /* \"smart contracts/v2-core-master/contracts/UniswapV2ERC20.sol\":242:280  string public constant symbol = 'HEXX' */\n            tag_21:\n              tag_42\n              tag_88\n              jump\t// in\n                /* \"smart contracts/v2-core-master/contracts/UniswapV2ERC20.sol\":2393:2532  function transfer(address to, uint value) external returns (bool) {\r... */\n            tag_22:\n              tag_50\n              0x04\n              dup1\n              calldatasize\n              sub\n                /* \"--CODEGEN--\":13:15   */\n              0x40\n                /* \"--CODEGEN--\":8:11   */\n              dup2\n                /* \"--CODEGEN--\":5:16   */\n              lt\n                /* \"--CODEGEN--\":2:4   */\n              iszero\n              tag_94\n              jumpi\n                /* \"--CODEGEN--\":29:30   */\n              0x00\n                /* \"--CODEGEN--\":26:27   */\n              dup1\n                /* \"--CODEGEN--\":19:31   */\n              revert\n                /* \"--CODEGEN--\":2:4   */\n            tag_94:\n              pop\n                /* \"smart contracts/v2-core-master/contracts/UniswapV2ERC20.sol\":2393:2532  function transfer(address to, uint value) external returns (bool) {\r... */\n              dup1\n              calldataload\n              sub(shl(0xa0, 0x01), 0x01)\n              and\n              swap1\n              0x20\n              add\n              calldataload\n              tag_95\n              jump\t// in\n                /* \"smart contracts/v2-core-master/contracts/UniswapV2Pair.sol\":432:478  uint public constant MINIMUM_LIQUIDITY = 10**3 */\n            tag_23:\n              tag_55\n              tag_97\n              jump\t// in\n                /* \"smart contracts/v2-core-master/contracts/UniswapV2Pair.sol\":9923:10257  function skim(address to) external lock {\r... */\n            tag_24:\n              tag_36\n              0x04\n              dup1\n              calldatasize\n              sub\n                /* \"--CODEGEN--\":13:15   */\n              0x20\n                /* \"--CODEGEN--\":8:11   */\n              dup2\n                /* \"--CODEGEN--\":5:16   */\n              lt\n                /* \"--CODEGEN--\":2:4   */\n              iszero\n              tag_99\n              jumpi\n                /* \"--CODEGEN--\":29:30   */\n              0x00\n                /* \"--CODEGEN--\":26:27   */\n              dup1\n                /* \"--CODEGEN--\":19:31   */\n              revert\n                /* \"--CODEGEN--\":2:4   */\n            tag_99:\n              pop\n                /* \"smart contracts/v2-core-master/contracts/UniswapV2Pair.sol\":9923:10257  function skim(address to) external lock {\r... */\n              calldataload\n              sub(shl(0xa0, 0x01), 0x01)\n              and\n              tag_100\n              jump\t// in\n                /* \"smart contracts/v2-core-master/contracts/UniswapV2Pair.sol\":582:604  address public factory */\n            tag_25:\n              tag_53\n              tag_102\n              jump\t// in\n                /* \"smart contracts/v2-core-master/contracts/UniswapV2Pair.sol\":639:660  address public token1 */\n            tag_26:\n              tag_53\n              tag_104\n              jump\t// in\n                /* \"smart contracts/v2-core-master/contracts/UniswapV2ERC20.sol\":2849:3523  function permit(address owner, address spender, uint value, uint deadline, uint8 v, bytes32 r, bytes32 s) external {\r... */\n            tag_27:\n              tag_36\n              0x04\n              dup1\n              calldatasize\n              sub\n                /* \"--CODEGEN--\":13:16   */\n              0xe0\n                /* \"--CODEGEN--\":8:11   */\n              dup2\n                /* \"--CODEGEN--\":5:17   */\n              lt\n                /* \"--CODEGEN--\":2:4   */\n              iszero\n              tag_106\n              jumpi\n                /* \"--CODEGEN--\":30:31   */\n              0x00\n                /* \"--CODEGEN--\":27:28   */\n              dup1\n                /* \"--CODEGEN--\":20:32   */\n              revert\n                /* \"--CODEGEN--\":2:4   */\n            tag_106:\n              pop\n              sub(shl(0xa0, 0x01), 0x01)\n                /* \"smart contracts/v2-core-master/contracts/UniswapV2ERC20.sol\":2849:3523  function permit(address owner, address spender, uint value, uint deadline, uint8 v, bytes32 r, bytes32 s) external {\r... */\n              dup2\n              calldataload\n              dup2\n              and\n              swap2\n              0x20\n              dup2\n              add\n              calldataload\n              swap1\n              swap2\n              and\n              swap1\n              0x40\n              dup2\n              add\n              calldataload\n              swap1\n              0x60\n              dup2\n              add\n              calldataload\n              swap1\n              0xff\n              0x80\n              dup3\n              add\n              calldataload\n              and\n              swap1\n              0xa0\n              dup2\n              add\n              calldataload\n              swap1\n              0xc0\n              add\n              calldataload\n              tag_107\n              jump\t// in\n                /* \"smart contracts/v2-core-master/contracts/UniswapV2ERC20.sol\":408:469  mapping(address => mapping(address => uint)) public allowance */\n            tag_28:\n              tag_55\n              0x04\n              dup1\n              calldatasize\n              sub\n                /* \"--CODEGEN--\":13:15   */\n              0x40\n                /* \"--CODEGEN--\":8:11   */\n              dup2\n                /* \"--CODEGEN--\":5:16   */\n              lt\n                /* \"--CODEGEN--\":2:4   */\n              iszero\n              tag_109\n              jumpi\n                /* \"--CODEGEN--\":29:30   */\n              0x00\n                /* \"--CODEGEN--\":26:27   */\n              dup1\n                /* \"--CODEGEN--\":19:31   */\n              revert\n                /* \"--CODEGEN--\":2:4   */\n            tag_109:\n              pop\n              sub(shl(0xa0, 0x01), 0x01)\n                /* \"smart contracts/v2-core-master/contracts/UniswapV2ERC20.sol\":408:469  mapping(address => mapping(address => uint)) public allowance */\n              dup2\n              calldataload\n              dup2\n              and\n              swap2\n              0x20\n              add\n              calldataload\n              and\n              tag_110\n              jump\t// in\n                /* \"smart contracts/v2-core-master/contracts/UniswapV2Pair.sol\":10306:10464  function sync() external lock {\r... */\n            tag_29:\n              tag_36\n              tag_112\n              jump\t// in\n                /* \"smart contracts/v2-core-master/contracts/UniswapV2Pair.sol\":7985:9874  function swap(uint amount0Out, uint amount1Out, address to, bytes calldata data) external lock {\r... */\n            tag_41:\n                /* \"smart contracts/v2-core-master/contracts/UniswapV2Pair.sol\":1213:1221  unlocked */\n              sload(0x0c)\n                /* \"smart contracts/v2-core-master/contracts/UniswapV2Pair.sol\":1225:1226  1 */\n              0x01\n                /* \"smart contracts/v2-core-master/contracts/UniswapV2Pair.sol\":1213:1226  unlocked == 1 */\n              eq\n                /* \"smart contracts/v2-core-master/contracts/UniswapV2Pair.sol\":1205:1248  require(unlocked == 1, 'UniswapV2: LOCKED') */\n              tag_114\n              jumpi\n              0x40\n              dup1\n              mload\n              shl(0xe5, 0x461bcd)\n              dup2\n              mstore\n              0x20\n              0x04\n              dup3\n              add\n              mstore\n              0x11\n              0x24\n              dup3\n              add\n              mstore\n              shl(0x7a, 0x155b9a5cddd85c158c8e881313d0d2d151)\n              0x44\n              dup3\n              add\n              mstore\n              swap1\n              mload\n              swap1\n              dup2\n              swap1\n              sub\n              0x64\n              add\n              swap1\n              revert\n            tag_114:\n                /* \"smart contracts/v2-core-master/contracts/UniswapV2Pair.sol\":1270:1271  0 */\n              0x00\n                /* \"smart contracts/v2-core-master/contracts/UniswapV2Pair.sol\":1259:1267  unlocked */\n              0x0c\n                /* \"smart contracts/v2-core-master/contracts/UniswapV2Pair.sol\":1259:1271  unlocked = 0 */\n              sstore\n                /* \"smart contracts/v2-core-master/contracts/UniswapV2Pair.sol\":8099:8113  amount0Out > 0 */\n              dup5\n              iszero\n              iszero\n              dup1\n                /* \"smart contracts/v2-core-master/contracts/UniswapV2Pair.sol\":8099:8131  amount0Out > 0 || amount1Out > 0 */\n              tag_116\n              jumpi\n              pop\n                /* \"smart contracts/v2-core-master/contracts/UniswapV2Pair.sol\":8130:8131  0 */\n              0x00\n                /* \"smart contracts/v2-core-master/contracts/UniswapV2Pair.sol\":8117:8127  amount1Out */\n              dup5\n                /* \"smart contracts/v2-core-master/contracts/UniswapV2Pair.sol\":8117:8131  amount1Out > 0 */\n              gt\n                /* \"smart contracts/v2-core-master/contracts/UniswapV2Pair.sol\":8099:8131  amount0Out > 0 || amount1Out > 0 */\n            tag_116:\n                /* \"smart contracts/v2-core-master/contracts/UniswapV2Pair.sol\":8091:8173  require(amount0Out > 0 || amount1Out > 0, 'UniswapV2: INSUFFICIENT_OUTPUT_AMOUNT') */\n              tag_117\n              jumpi\n              mload(0x40)\n              shl(0xe5, 0x461bcd)\n              dup2\n              mstore\n              0x04\n              add\n              dup1\n              dup1\n              0x20\n              add\n              dup3\n              dup2\n              sub\n              dup3\n              mstore\n              0x25\n              dup2\n              mstore\n              0x20\n              add\n              dup1\n              data_05339493da7e2cbe77e17beadf6b91132eb307939495f5f1797bf88d95539e83\n              0x25\n              swap2\n              codecopy\n              0x40\n              add\n              swap2\n              pop\n              pop\n              mload(0x40)\n              dup1\n              swap2\n              sub\n              swap1\n              revert\n            tag_117:\n                /* \"smart contracts/v2-core-master/contracts/UniswapV2Pair.sol\":8185:8202  uint112 _reserve0 */\n              0x00\n                /* \"smart contracts/v2-core-master/contracts/UniswapV2Pair.sol\":8204:8221  uint112 _reserve1 */\n              dup1\n                /* \"smart contracts/v2-core-master/contracts/UniswapV2Pair.sol\":8226:8239  getReserves() */\n              tag_118\n                /* \"smart contracts/v2-core-master/contracts/UniswapV2Pair.sol\":8226:8237  getReserves */\n              tag_49\n                /* \"smart contracts/v2-core-master/contracts/UniswapV2Pair.sol\":8226:8239  getReserves() */\n              jump\t// in\n            tag_118:\n              pop\n                /* \"smart contracts/v2-core-master/contracts/UniswapV2Pair.sol\":8184:8239  (uint112 _reserve0, uint112 _reserve1,) = getReserves() */\n              swap1\n              swap3\n              pop\n              swap1\n              pop\n              sub(shl(0x70, 0x01), 0x01)\n                /* \"smart contracts/v2-core-master/contracts/UniswapV2Pair.sol\":8273:8295  amount0Out < _reserve0 */\n              dup3\n              and\n              dup8\n              lt\n                /* \"smart contracts/v2-core-master/contracts/UniswapV2Pair.sol\":8273:8321  amount0Out < _reserve0 && amount1Out < _reserve1 */\n              dup1\n              iszero\n              tag_119\n              jumpi\n              pop\n              sub(shl(0x70, 0x01), 0x01)\n                /* \"smart contracts/v2-core-master/contracts/UniswapV2Pair.sol\":8299:8321  amount1Out < _reserve1 */\n              dup2\n              and\n              dup7\n              lt\n                /* \"smart contracts/v2-core-master/contracts/UniswapV2Pair.sol\":8273:8321  amount0Out < _reserve0 && amount1Out < _reserve1 */\n            tag_119:\n                /* \"smart contracts/v2-core-master/contracts/UniswapV2Pair.sol\":8265:8359  require(amount0Out < _reserve0 && amount1Out < _reserve1, 'UniswapV2: INSUFFICIENT_LIQUIDITY') */\n              tag_120\n              jumpi\n              mload(0x40)\n              shl(0xe5, 0x461bcd)\n              dup2\n              mstore\n              0x04\n              add\n              dup1\n              dup1\n              0x20\n              add\n              dup3\n              dup2\n              sub\n              dup3\n              mstore\n              0x21\n              dup2\n              mstore\n              0x20\n              add\n              dup1\n              data_3f354ef449b2a9b081220ce21f57691008110b653edc191d8288e60cef58bb5f\n              0x21\n              swap2\n              codecopy\n              0x40\n              add\n              swap2\n              pop\n              pop\n              mload(0x40)\n              dup1\n              swap2\n              sub\n              swap1\n              revert\n            tag_120:\n                /* \"smart contracts/v2-core-master/contracts/UniswapV2Pair.sol\":8504:8510  token0 */\n              sload(0x06)\n                /* \"smart contracts/v2-core-master/contracts/UniswapV2Pair.sol\":8539:8545  token1 */\n              sload(0x07)\n                /* \"smart contracts/v2-core-master/contracts/UniswapV2Pair.sol\":8372:8385  uint balance0 */\n              0x00\n              swap2\n              dup3\n              swap2\n              sub(shl(0xa0, 0x01), 0x01)\n                /* \"smart contracts/v2-core-master/contracts/UniswapV2Pair.sol\":8504:8510  token0 */\n              swap2\n              dup3\n              and\n              swap2\n                /* \"smart contracts/v2-core-master/contracts/UniswapV2Pair.sol\":8539:8545  token1 */\n              swap1\n              dup2\n              and\n              swap1\n                /* \"smart contracts/v2-core-master/contracts/UniswapV2Pair.sol\":8564:8577  to != _token0 */\n              dup10\n              and\n              dup3\n              eq\n              dup1\n              iszero\n              swap1\n                /* \"smart contracts/v2-core-master/contracts/UniswapV2Pair.sol\":8564:8594  to != _token0 && to != _token1 */\n              tag_121\n              jumpi\n              pop\n              sub(shl(0xa0, 0x01), 0x01)\n                /* \"smart contracts/v2-core-master/contracts/UniswapV2Pair.sol\":8581:8594  to != _token1 */\n              dup10\n              dup2\n              and\n              swap1\n              dup3\n              and\n              eq\n              iszero\n                /* \"smart contracts/v2-core-master/contracts/UniswapV2Pair.sol\":8564:8594  to != _token0 && to != _token1 */\n            tag_121:\n                /* \"smart contracts/v2-core-master/contracts/UniswapV2Pair.sol\":8556:8620  require(to != _token0 && to != _token1, 'UniswapV2: INVALID_TO') */\n              tag_122\n              jumpi\n              0x40\n              dup1\n              mload\n              shl(0xe5, 0x461bcd)\n              dup2\n              mstore\n              0x20\n              0x04\n              dup3\n              add\n              mstore\n              0x15\n              0x24\n              dup3\n              add\n              mstore\n              shl(0x58, 0x556e697377617056323a20494e56414c49445f544f)\n              0x44\n              dup3\n              add\n              mstore\n              swap1\n              mload\n              swap1\n              dup2\n              swap1\n              sub\n              0x64\n              add\n              swap1\n              revert\n            tag_122:\n                /* \"smart contracts/v2-core-master/contracts/UniswapV2Pair.sol\":8635:8649  amount0Out > 0 */\n              dup11\n              iszero\n                /* \"smart contracts/v2-core-master/contracts/UniswapV2Pair.sol\":8631:8689  if (amount0Out > 0) _safeTransfer(_token0, to, amount0Out) */\n              tag_124\n              jumpi\n                /* \"smart contracts/v2-core-master/contracts/UniswapV2Pair.sol\":8651:8689  _safeTransfer(_token0, to, amount0Out) */\n              tag_124\n                /* \"smart contracts/v2-core-master/contracts/UniswapV2Pair.sol\":8665:8672  _token0 */\n              dup3\n                /* \"smart contracts/v2-core-master/contracts/UniswapV2Pair.sol\":8674:8676  to */\n              dup11\n                /* \"smart contracts/v2-core-master/contracts/UniswapV2Pair.sol\":8678:8688  amount0Out */\n              dup14\n                /* \"smart contracts/v2-core-master/contracts/UniswapV2Pair.sol\":8651:8664  _safeTransfer */\n              tag_125\n                /* \"smart contracts/v2-core-master/contracts/UniswapV2Pair.sol\":8651:8689  _safeTransfer(_token0, to, amount0Out) */\n              jump\t// in\n            tag_124:\n                /* \"smart contracts/v2-core-master/contracts/UniswapV2Pair.sol\":8738:8752  amount1Out > 0 */\n              dup10\n              iszero\n                /* \"smart contracts/v2-core-master/contracts/UniswapV2Pair.sol\":8734:8792  if (amount1Out > 0) _safeTransfer(_token1, to, amount1Out) */\n              tag_127\n              jumpi\n                /* \"smart contracts/v2-core-master/contracts/UniswapV2Pair.sol\":8754:8792  _safeTransfer(_token1, to, amount1Out) */\n              tag_127\n                /* \"smart contracts/v2-core-master/contracts/UniswapV2Pair.sol\":8768:8775  _token1 */\n              dup2\n                /* \"smart contracts/v2-core-master/contracts/UniswapV2Pair.sol\":8777:8779  to */\n              dup11\n                /* \"smart contracts/v2-core-master/contracts/UniswapV2Pair.sol\":8781:8791  amount1Out */\n              dup13\n                /* \"smart contracts/v2-core-master/contracts/UniswapV2Pair.sol\":8754:8767  _safeTransfer */\n              tag_125\n                /* \"smart contracts/v2-core-master/contracts/UniswapV2Pair.sol\":8754:8792  _safeTransfer(_token1, to, amount1Out) */\n              jump\t// in\n            tag_127:\n                /* \"smart contracts/v2-core-master/contracts/UniswapV2Pair.sol\":8841:8856  data.length > 0 */\n              dup7\n              iszero\n                /* \"smart contracts/v2-core-master/contracts/UniswapV2Pair.sol\":8837:8934  if (data.length > 0) IUniswapV2Callee(to).uniswapV2Call(msg.sender, amount0Out, amount1Out, data) */\n              tag_128\n              jumpi\n                /* \"smart contracts/v2-core-master/contracts/UniswapV2Pair.sol\":8875:8877  to */\n              dup9\n              0x01\n              dup1\n              0xa0\n              shl\n              sub\n                /* \"smart contracts/v2-core-master/contracts/UniswapV2Pair.sol\":8858:8892  IUniswapV2Callee(to).uniswapV2Call */\n              and\n              0x10d1e85c\n                /* \"smart contracts/v2-core-master/contracts/UniswapV2Pair.sol\":8893:8903  msg.sender */\n              caller\n                /* \"smart contracts/v2-core-master/contracts/UniswapV2Pair.sol\":8905:8915  amount0Out */\n              dup14\n                /* \"smart contracts/v2-core-master/contracts/UniswapV2Pair.sol\":8917:8927  amount1Out */\n              dup14\n                /* \"smart contracts/v2-core-master/contracts/UniswapV2Pair.sol\":8929:8933  data */\n              dup13\n              dup13\n                /* \"smart contracts/v2-core-master/contracts/UniswapV2Pair.sol\":8858:8934  IUniswapV2Callee(to).uniswapV2Call(msg.sender, amount0Out, amount1Out, data) */\n              mload(0x40)\n              dup7\n              0xffffffff\n              and\n              0xe0\n              shl\n              dup2\n              mstore\n              0x04\n              add\n              dup1\n              dup7\n              0x01\n              dup1\n              0xa0\n              shl\n              sub\n              and\n              0x01\n              dup1\n              0xa0\n              shl\n              sub\n              and\n              dup2\n              mstore\n              0x20\n              add\n              dup6\n              dup2\n              mstore\n              0x20\n              add\n              dup5\n              dup2\n              mstore\n              0x20\n              add\n              dup1\n              0x20\n              add\n              dup3\n              dup2\n              sub\n              dup3\n              mstore\n              dup5\n              dup5\n              dup3\n              dup2\n              dup2\n              mstore\n              0x20\n              add\n              swap3\n              pop\n                /* \"--CODEGEN--\":30:33   */\n              dup1\n                /* \"--CODEGEN--\":22:28   */\n              dup3\n                /* \"--CODEGEN--\":14:20   */\n              dup5\n                /* \"--CODEGEN--\":1:34   */\n              calldatacopy\n                /* \"--CODEGEN--\":99:100   */\n              0x00\n                /* \"--CODEGEN--\":93:96   */\n              dup2\n                /* \"--CODEGEN--\":85:91   */\n              dup5\n                /* \"--CODEGEN--\":81:97   */\n              add\n                /* \"--CODEGEN--\":74:101   */\n              mstore\n                /* \"--CODEGEN--\":137:141   */\n              0x1f\n                /* \"--CODEGEN--\":133:142   */\n              not\n                /* \"--CODEGEN--\":126:130   */\n              0x1f\n                /* \"--CODEGEN--\":121:124   */\n              dup3\n                /* \"--CODEGEN--\":117:131   */\n              add\n                /* \"--CODEGEN--\":113:143   */\n              and\n                /* \"--CODEGEN--\":106:143   */\n              swap1\n              pop\n                /* \"--CODEGEN--\":169:172   */\n              dup1\n                /* \"--CODEGEN--\":161:167   */\n              dup4\n                /* \"--CODEGEN--\":157:173   */\n              add\n                /* \"--CODEGEN--\":147:173   */\n              swap3\n              pop\n                /* \"smart contracts/v2-core-master/contracts/UniswapV2Pair.sol\":8858:8934  IUniswapV2Callee(to).uniswapV2Call(msg.sender, amount0Out, amount1Out, data) */\n              pop\n              pop\n              swap7\n              pop\n              pop\n              pop\n              pop\n              pop\n              pop\n              pop\n              0x00\n              mload(0x40)\n              dup1\n              dup4\n              sub\n              dup2\n              0x00\n              dup8\n              dup1\n              extcodesize\n              iszero\n                /* \"--CODEGEN--\":8:17   */\n              dup1\n                /* \"--CODEGEN--\":5:7   */\n              iszero\n              tag_129\n              jumpi\n                /* \"--CODEGEN--\":30:31   */\n              0x00\n                /* \"--CODEGEN--\":27:28   */\n              dup1\n                /* \"--CODEGEN--\":20:32   */\n              revert\n                /* \"--CODEGEN--\":5:7   */\n            tag_129:\n                /* \"smart contracts/v2-core-master/contracts/UniswapV2Pair.sol\":8858:8934  IUniswapV2Callee(to).uniswapV2Call(msg.sender, amount0Out, amount1Out, data) */\n              pop\n              gas\n              call\n              iszero\n                /* \"--CODEGEN--\":8:17   */\n              dup1\n                /* \"--CODEGEN--\":5:7   */\n              iszero\n              tag_130\n              jumpi\n                /* \"--CODEGEN--\":45:61   */\n              returndatasize\n                /* \"--CODEGEN--\":42:43   */\n              0x00\n                /* \"--CODEGEN--\":39:40   */\n              dup1\n                /* \"--CODEGEN--\":24:62   */\n              returndatacopy\n                /* \"--CODEGEN--\":77:93   */\n              returndatasize\n                /* \"--CODEGEN--\":74:75   */\n              0x00\n                /* \"--CODEGEN--\":67:94   */\n              revert\n                /* \"--CODEGEN--\":5:7   */\n            tag_130:\n                /* \"smart contracts/v2-core-master/contracts/UniswapV2Pair.sol\":8858:8934  IUniswapV2Callee(to).uniswapV2Call(msg.sender, amount0Out, amount1Out, data) */\n              pop\n              pop\n              pop\n              pop\n                /* \"smart contracts/v2-core-master/contracts/UniswapV2Pair.sol\":8837:8934  if (data.length > 0) IUniswapV2Callee(to).uniswapV2Call(msg.sender, amount0Out, amount1Out, data) */\n            tag_128:\n                /* \"smart contracts/v2-core-master/contracts/UniswapV2Pair.sol\":8956:8996  IERC20(_token0).balanceOf(address(this)) */\n              0x40\n              dup1\n              mload\n              shl(0xe0, 0x70a08231)\n              dup2\n              mstore\n                /* \"smart contracts/v2-core-master/contracts/UniswapV2Pair.sol\":8990:8994  this */\n              address\n                /* \"smart contracts/v2-core-master/contracts/UniswapV2Pair.sol\":8956:8996  IERC20(_token0).balanceOf(address(this)) */\n              0x04\n              dup3\n              add\n              mstore\n              swap1\n              mload\n              sub(shl(0xa0, 0x01), 0x01)\n                /* \"smart contracts/v2-core-master/contracts/UniswapV2Pair.sol\":8956:8981  IERC20(_token0).balanceOf */\n              dup5\n              and\n              swap2\n              0x70a08231\n              swap2\n                /* \"smart contracts/v2-core-master/contracts/UniswapV2Pair.sol\":8956:8996  IERC20(_token0).balanceOf(address(this)) */\n              0x24\n              dup1\n              dup4\n              add\n              swap3\n              0x20\n              swap3\n              swap2\n              swap1\n              dup3\n              swap1\n              sub\n              add\n              dup2\n                /* \"smart contracts/v2-core-master/contracts/UniswapV2Pair.sol\":8956:8981  IERC20(_token0).balanceOf */\n              dup7\n                /* \"smart contracts/v2-core-master/contracts/UniswapV2Pair.sol\":8956:8996  IERC20(_token0).balanceOf(address(this)) */\n              dup1\n              extcodesize\n              iszero\n                /* \"--CODEGEN--\":5:7   */\n              dup1\n              iszero\n              tag_131\n              jumpi\n                /* \"--CODEGEN--\":30:31   */\n              0x00\n                /* \"--CODEGEN--\":27:28   */\n              dup1\n                /* \"--CODEGEN--\":20:32   */\n              revert\n                /* \"--CODEGEN--\":5:7   */\n            tag_131:\n                /* \"smart contracts/v2-core-master/contracts/UniswapV2Pair.sol\":8956:8996  IERC20(_token0).balanceOf(address(this)) */\n              pop\n              gas\n              staticcall\n              iszero\n                /* \"--CODEGEN--\":8:17   */\n              dup1\n                /* \"--CODEGEN--\":5:7   */\n              iszero\n              tag_132\n              jumpi\n                /* \"--CODEGEN--\":45:61   */\n              returndatasize\n                /* \"--CODEGEN--\":42:43   */\n              0x00\n                /* \"--CODEGEN--\":39:40   */\n              dup1\n                /* \"--CODEGEN--\":24:62   */\n              returndatacopy\n                /* \"--CODEGEN--\":77:93   */\n              returndatasize\n                /* \"--CODEGEN--\":74:75   */\n              0x00\n                /* \"--CODEGEN--\":67:94   */\n              revert\n                /* \"--CODEGEN--\":5:7   */\n            tag_132:\n                /* \"smart contracts/v2-core-master/contracts/UniswapV2Pair.sol\":8956:8996  IERC20(_token0).balanceOf(address(this)) */\n              pop\n              pop\n              pop\n              pop\n              mload(0x40)\n              returndatasize\n                /* \"--CODEGEN--\":13:15   */\n              0x20\n                /* \"--CODEGEN--\":8:11   */\n              dup2\n                /* \"--CODEGEN--\":5:16   */\n              lt\n                /* \"--CODEGEN--\":2:4   */\n              iszero\n              tag_133\n              jumpi\n                /* \"--CODEGEN--\":29:30   */\n              0x00\n                /* \"--CODEGEN--\":26:27   */\n              dup1\n                /* \"--CODEGEN--\":19:31   */\n              revert\n                /* \"--CODEGEN--\":2:4   */\n            tag_133:\n              pop\n                /* \"smart contracts/v2-core-master/contracts/UniswapV2Pair.sol\":8956:8996  IERC20(_token0).balanceOf(address(this)) */\n              mload\n                /* \"smart contracts/v2-core-master/contracts/UniswapV2Pair.sol\":9018:9058  IERC20(_token1).balanceOf(address(this)) */\n              0x40\n              dup1\n              mload\n              shl(0xe0, 0x70a08231)\n              dup2\n              mstore\n                /* \"smart contracts/v2-core-master/contracts/UniswapV2Pair.sol\":9052:9056  this */\n              address\n                /* \"smart contracts/v2-core-master/contracts/UniswapV2Pair.sol\":9018:9058  IERC20(_token1).balanceOf(address(this)) */\n              0x04\n              dup3\n              add\n              mstore\n              swap1\n              mload\n                /* \"smart contracts/v2-core-master/contracts/UniswapV2Pair.sol\":8956:8996  IERC20(_token0).balanceOf(address(this)) */\n              swap2\n              swap6\n              pop\n              sub(shl(0xa0, 0x01), 0x01)\n                /* \"smart contracts/v2-core-master/contracts/UniswapV2Pair.sol\":9018:9043  IERC20(_token1).balanceOf */\n              dup4\n              and\n              swap2\n              0x70a08231\n              swap2\n                /* \"smart contracts/v2-core-master/contracts/UniswapV2Pair.sol\":9018:9058  IERC20(_token1).balanceOf(address(this)) */\n              0x24\n              dup1\n              dup3\n              add\n              swap3\n                /* \"smart contracts/v2-core-master/contracts/UniswapV2Pair.sol\":8956:8996  IERC20(_token0).balanceOf(address(this)) */\n              0x20\n              swap3\n                /* \"smart contracts/v2-core-master/contracts/UniswapV2Pair.sol\":9018:9058  IERC20(_token1).balanceOf(address(this)) */\n              swap1\n              swap2\n              swap1\n              dup3\n              swap1\n              sub\n              add\n              dup2\n                /* \"smart contracts/v2-core-master/contracts/UniswapV2Pair.sol\":9018:9043  IERC20(_token1).balanceOf */\n              dup7\n                /* \"smart contracts/v2-core-master/contracts/UniswapV2Pair.sol\":9018:9058  IERC20(_token1).balanceOf(address(this)) */\n              dup1\n              extcodesize\n              iszero\n                /* \"--CODEGEN--\":5:7   */\n              dup1\n              iszero\n              tag_134\n              jumpi\n                /* \"--CODEGEN--\":30:31   */\n              0x00\n                /* \"--CODEGEN--\":27:28   */\n              dup1\n                /* \"--CODEGEN--\":20:32   */\n              revert\n                /* \"--CODEGEN--\":5:7   */\n            tag_134:\n                /* \"smart contracts/v2-core-master/contracts/UniswapV2Pair.sol\":9018:9058  IERC20(_token1).balanceOf(address(this)) */\n              pop\n              gas\n              staticcall\n              iszero\n                /* \"--CODEGEN--\":8:17   */\n              dup1\n                /* \"--CODEGEN--\":5:7   */\n              iszero\n              tag_135\n              jumpi\n                /* \"--CODEGEN--\":45:61   */\n              returndatasize\n                /* \"--CODEGEN--\":42:43   */\n              0x00\n                /* \"--CODEGEN--\":39:40   */\n              dup1\n                /* \"--CODEGEN--\":24:62   */\n              returndatacopy\n                /* \"--CODEGEN--\":77:93   */\n              returndatasize\n                /* \"--CODEGEN--\":74:75   */\n              0x00\n                /* \"--CODEGEN--\":67:94   */\n              revert\n                /* \"--CODEGEN--\":5:7   */\n            tag_135:\n                /* \"smart contracts/v2-core-master/contracts/UniswapV2Pair.sol\":9018:9058  IERC20(_token1).balanceOf(address(this)) */\n              pop\n              pop\n              pop\n              pop\n              mload(0x40)\n              returndatasize\n                /* \"--CODEGEN--\":13:15   */\n              0x20\n                /* \"--CODEGEN--\":8:11   */\n              dup2\n                /* \"--CODEGEN--\":5:16   */\n              lt\n                /* \"--CODEGEN--\":2:4   */\n              iszero\n              tag_136\n              jumpi\n                /* \"--CODEGEN--\":29:30   */\n              0x00\n                /* \"--CODEGEN--\":26:27   */\n              dup1\n                /* \"--CODEGEN--\":19:31   */\n              revert\n                /* \"--CODEGEN--\":2:4   */\n            tag_136:\n              pop\n                /* \"smart contracts/v2-core-master/contracts/UniswapV2Pair.sol\":9018:9058  IERC20(_token1).balanceOf(address(this)) */\n              mload\n              swap3\n              pop\n                /* \"smart contracts/v2-core-master/contracts/UniswapV2Pair.sol\":9080:9094  uint amount0In */\n              0x00\n              swap2\n              pop\n              pop\n              sub(shl(0x70, 0x01), 0x01)\n                /* \"smart contracts/v2-core-master/contracts/UniswapV2Pair.sol\":9108:9130  _reserve0 - amount0Out */\n              dup6\n              and\n              dup11\n              swap1\n              sub\n                /* \"smart contracts/v2-core-master/contracts/UniswapV2Pair.sol\":9097:9130  balance0 > _reserve0 - amount0Out */\n              dup4\n              gt\n                /* \"smart contracts/v2-core-master/contracts/UniswapV2Pair.sol\":9097:9172  balance0 > _reserve0 - amount0Out ? balance0 - (_reserve0 - amount0Out) : 0 */\n              tag_137\n              jumpi\n                /* \"smart contracts/v2-core-master/contracts/UniswapV2Pair.sol\":9171:9172  0 */\n              0x00\n                /* \"smart contracts/v2-core-master/contracts/UniswapV2Pair.sol\":9097:9172  balance0 > _reserve0 - amount0Out ? balance0 - (_reserve0 - amount0Out) : 0 */\n              jump(tag_138)\n            tag_137:\n              sub(shl(0x70, 0x01), 0x01)\n                /* \"smart contracts/v2-core-master/contracts/UniswapV2Pair.sol\":9145:9167  _reserve0 - amount0Out */\n              dup6\n              and\n              dup11\n              swap1\n              sub\n                /* \"smart contracts/v2-core-master/contracts/UniswapV2Pair.sol\":9133:9168  balance0 - (_reserve0 - amount0Out) */\n              dup4\n              sub\n                /* \"smart contracts/v2-core-master/contracts/UniswapV2Pair.sol\":9097:9172  balance0 > _reserve0 - amount0Out ? balance0 - (_reserve0 - amount0Out) : 0 */\n            tag_138:\n                /* \"smart contracts/v2-core-master/contracts/UniswapV2Pair.sol\":9080:9172  uint amount0In = balance0 > _reserve0 - amount0Out ? balance0 - (_reserve0 - amount0Out) : 0 */\n              swap1\n              pop\n                /* \"smart contracts/v2-core-master/contracts/UniswapV2Pair.sol\":9183:9197  uint amount1In */\n              0x00\n              sub(shl(0x70, 0x01), 0x01)\n                /* \"smart contracts/v2-core-master/contracts/UniswapV2Pair.sol\":9211:9233  _reserve1 - amount1Out */\n              dup6\n              and\n              dup11\n              swap1\n              sub\n                /* \"smart contracts/v2-core-master/contracts/UniswapV2Pair.sol\":9200:9233  balance1 > _reserve1 - amount1Out */\n              dup4\n              gt\n                /* \"smart contracts/v2-core-master/contracts/UniswapV2Pair.sol\":9200:9275  balance1 > _reserve1 - amount1Out ? balance1 - (_reserve1 - amount1Out) : 0 */\n              tag_139\n              jumpi\n                /* \"smart contracts/v2-core-master/contracts/UniswapV2Pair.sol\":9274:9275  0 */\n              0x00\n                /* \"smart contracts/v2-core-master/contracts/UniswapV2Pair.sol\":9200:9275  balance1 > _reserve1 - amount1Out ? balance1 - (_reserve1 - amount1Out) : 0 */\n              jump(tag_140)\n            tag_139:\n              sub(shl(0x70, 0x01), 0x01)\n                /* \"smart contracts/v2-core-master/contracts/UniswapV2Pair.sol\":9248:9270  _reserve1 - amount1Out */\n              dup6\n              and\n              dup11\n              swap1\n              sub\n                /* \"smart contracts/v2-core-master/contracts/UniswapV2Pair.sol\":9236:9271  balance1 - (_reserve1 - amount1Out) */\n              dup4\n              sub\n                /* \"smart contracts/v2-core-master/contracts/UniswapV2Pair.sol\":9200:9275  balance1 > _reserve1 - amount1Out ? balance1 - (_reserve1 - amount1Out) : 0 */\n            tag_140:\n                /* \"smart contracts/v2-core-master/contracts/UniswapV2Pair.sol\":9183:9275  uint amount1In = balance1 > _reserve1 - amount1Out ? balance1 - (_reserve1 - amount1Out) : 0 */\n              swap1\n              pop\n                /* \"smart contracts/v2-core-master/contracts/UniswapV2Pair.sol\":9306:9307  0 */\n              0x00\n                /* \"smart contracts/v2-core-master/contracts/UniswapV2Pair.sol\":9294:9303  amount0In */\n              dup3\n                /* \"smart contracts/v2-core-master/contracts/UniswapV2Pair.sol\":9294:9307  amount0In > 0 */\n              gt\n                /* \"smart contracts/v2-core-master/contracts/UniswapV2Pair.sol\":9294:9324  amount0In > 0 || amount1In > 0 */\n              dup1\n              tag_141\n              jumpi\n              pop\n                /* \"smart contracts/v2-core-master/contracts/UniswapV2Pair.sol\":9323:9324  0 */\n              0x00\n                /* \"smart contracts/v2-core-master/contracts/UniswapV2Pair.sol\":9311:9320  amount1In */\n              dup2\n                /* \"smart contracts/v2-core-master/contracts/UniswapV2Pair.sol\":9311:9324  amount1In > 0 */\n              gt\n                /* \"smart contracts/v2-core-master/contracts/UniswapV2Pair.sol\":9294:9324  amount0In > 0 || amount1In > 0 */\n            tag_141:\n                /* \"smart contracts/v2-core-master/contracts/UniswapV2Pair.sol\":9286:9365  require(amount0In > 0 || amount1In > 0, 'UniswapV2: INSUFFICIENT_INPUT_AMOUNT') */\n              tag_142\n              jumpi\n              mload(0x40)\n              shl(0xe5, 0x461bcd)\n              dup2\n              mstore\n              0x04\n              add\n              dup1\n              dup1\n              0x20\n              add\n              dup3\n              dup2\n              sub\n              dup3\n              mstore\n              0x24\n              dup2\n              mstore\n              0x20\n              add\n              dup1\n              data_10e2efc32d8a31d3b2c11a545b3ed09c2dbabc58ef6de4033929d0002e425b67\n              0x24\n              swap2\n              codecopy\n              0x40\n              add\n              swap2\n              pop\n              pop\n              mload(0x40)\n              dup1\n              swap2\n              sub\n              swap1\n              revert\n            tag_142:\n                /* \"smart contracts/v2-core-master/contracts/UniswapV2Pair.sol\":9451:9472  uint balance0Adjusted */\n              0x00\n                /* \"smart contracts/v2-core-master/contracts/UniswapV2Pair.sol\":9475:9515  balance0.mul(1000).sub(amount0In.mul(5)) */\n              tag_143\n                /* \"smart contracts/v2-core-master/contracts/UniswapV2Pair.sol\":9498:9514  amount0In.mul(5) */\n              tag_144\n                /* \"smart contracts/v2-core-master/contracts/UniswapV2Pair.sol\":9498:9507  amount0In */\n              dup5\n                /* \"smart contracts/v2-core-master/contracts/UniswapV2Pair.sol\":9512:9513  5 */\n              0x05\n                /* \"smart contracts/v2-core-master/contracts/UniswapV2Pair.sol\":9498:9514  amount0In.mul(5) */\n              0xffffffff\n                /* \"smart contracts/v2-core-master/contracts/UniswapV2Pair.sol\":9498:9511  amount0In.mul */\n              tag_145\n                /* \"smart contracts/v2-core-master/contracts/UniswapV2Pair.sol\":9498:9514  amount0In.mul(5) */\n              and\n              jump\t// in\n            tag_144:\n                /* \"smart contracts/v2-core-master/contracts/UniswapV2Pair.sol\":9475:9493  balance0.mul(1000) */\n              tag_146\n                /* \"smart contracts/v2-core-master/contracts/UniswapV2Pair.sol\":9475:9483  balance0 */\n              dup8\n                /* \"smart contracts/v2-core-master/contracts/UniswapV2Pair.sol\":9488:9492  1000 */\n              0x03e8\n                /* \"smart contracts/v2-core-master/contracts/UniswapV2Pair.sol\":9475:9493  balance0.mul(1000) */\n              0xffffffff\n                /* \"smart contracts/v2-core-master/contracts/UniswapV2Pair.sol\":9475:9487  balance0.mul */\n              tag_145\n                /* \"smart contracts/v2-core-master/contracts/UniswapV2Pair.sol\":9475:9493  balance0.mul(1000) */\n              and\n              jump\t// in\n            tag_146:\n                /* \"smart contracts/v2-core-master/contracts/UniswapV2Pair.sol\":9475:9497  balance0.mul(1000).sub */\n              swap1\n                /* \"smart contracts/v2-core-master/contracts/UniswapV2Pair.sol\":9475:9515  balance0.mul(1000).sub(amount0In.mul(5)) */\n              0xffffffff\n                /* \"smart contracts/v2-core-master/contracts/UniswapV2Pair.sol\":9475:9497  balance0.mul(1000).sub */\n              tag_147\n                /* \"smart contracts/v2-core-master/contracts/UniswapV2Pair.sol\":9475:9515  balance0.mul(1000).sub(amount0In.mul(5)) */\n              and\n              jump\t// in\n            tag_143:\n                /* \"smart contracts/v2-core-master/contracts/UniswapV2Pair.sol\":9451:9515  uint balance0Adjusted = balance0.mul(1000).sub(amount0In.mul(5)) */\n              swap1\n              pop\n                /* \"smart contracts/v2-core-master/contracts/UniswapV2Pair.sol\":9526:9547  uint balance1Adjusted */\n              0x00\n                /* \"smart contracts/v2-core-master/contracts/UniswapV2Pair.sol\":9550:9590  balance1.mul(1000).sub(amount1In.mul(5)) */\n              tag_148\n                /* \"smart contracts/v2-core-master/contracts/UniswapV2Pair.sol\":9573:9589  amount1In.mul(5) */\n              tag_144\n                /* \"smart contracts/v2-core-master/contracts/UniswapV2Pair.sol\":9573:9582  amount1In */\n              dup5\n                /* \"smart contracts/v2-core-master/contracts/UniswapV2Pair.sol\":9587:9588  5 */\n              0x05\n                /* \"smart contracts/v2-core-master/contracts/UniswapV2Pair.sol\":9573:9589  amount1In.mul(5) */\n              0xffffffff\n                /* \"smart contracts/v2-core-master/contracts/UniswapV2Pair.sol\":9573:9586  amount1In.mul */\n              tag_145\n                /* \"smart contracts/v2-core-master/contracts/UniswapV2Pair.sol\":9573:9589  amount1In.mul(5) */\n              and\n              jump\t// in\n                /* \"smart contracts/v2-core-master/contracts/UniswapV2Pair.sol\":9550:9590  balance1.mul(1000).sub(amount1In.mul(5)) */\n            tag_148:\n                /* \"smart contracts/v2-core-master/contracts/UniswapV2Pair.sol\":9526:9590  uint balance1Adjusted = balance1.mul(1000).sub(amount1In.mul(5)) */\n              swap1\n              pop\n                /* \"smart contracts/v2-core-master/contracts/UniswapV2Pair.sol\":9651:9694  uint(_reserve0).mul(_reserve1).mul(1000**2) */\n              tag_151\n                /* \"smart contracts/v2-core-master/contracts/UniswapV2Pair.sol\":9686:9693  1000**2 */\n              0x0f4240\n                /* \"smart contracts/v2-core-master/contracts/UniswapV2Pair.sol\":9651:9681  uint(_reserve0).mul(_reserve1) */\n              tag_152\n              sub(shl(0x70, 0x01), 0x01)\n                /* \"smart contracts/v2-core-master/contracts/UniswapV2Pair.sol\":9651:9666  uint(_reserve0) */\n              dup12\n              dup2\n              and\n              swap1\n                /* \"smart contracts/v2-core-master/contracts/UniswapV2Pair.sol\":9651:9681  uint(_reserve0).mul(_reserve1) */\n              dup12\n              and\n                /* \"smart contracts/v2-core-master/contracts/UniswapV2Pair.sol\":9651:9670  uint(_reserve0).mul */\n              tag_145\n                /* \"smart contracts/v2-core-master/contracts/UniswapV2Pair.sol\":9651:9681  uint(_reserve0).mul(_reserve1) */\n              jump\t// in\n            tag_152:\n                /* \"smart contracts/v2-core-master/contracts/UniswapV2Pair.sol\":9651:9685  uint(_reserve0).mul(_reserve1).mul */\n              swap1\n                /* \"smart contracts/v2-core-master/contracts/UniswapV2Pair.sol\":9651:9694  uint(_reserve0).mul(_reserve1).mul(1000**2) */\n              0xffffffff\n                /* \"smart contracts/v2-core-master/contracts/UniswapV2Pair.sol\":9651:9685  uint(_reserve0).mul(_reserve1).mul */\n              tag_145\n                /* \"smart contracts/v2-core-master/contracts/UniswapV2Pair.sol\":9651:9694  uint(_reserve0).mul(_reserve1).mul(1000**2) */\n              and\n              jump\t// in\n            tag_151:\n                /* \"smart contracts/v2-core-master/contracts/UniswapV2Pair.sol\":9609:9647  balance0Adjusted.mul(balance1Adjusted) */\n              tag_153\n                /* \"smart contracts/v2-core-master/contracts/UniswapV2Pair.sol\":9609:9625  balance0Adjusted */\n              dup4\n                /* \"smart contracts/v2-core-master/contracts/UniswapV2Pair.sol\":9630:9646  balance1Adjusted */\n              dup4\n                /* \"smart contracts/v2-core-master/contracts/UniswapV2Pair.sol\":9609:9647  balance0Adjusted.mul(balance1Adjusted) */\n              0xffffffff\n                /* \"smart contracts/v2-core-master/contracts/UniswapV2Pair.sol\":9609:9629  balance0Adjusted.mul */\n              tag_145\n                /* \"smart contracts/v2-core-master/contracts/UniswapV2Pair.sol\":9609:9647  balance0Adjusted.mul(balance1Adjusted) */\n              and\n              jump\t// in\n            tag_153:\n                /* \"smart contracts/v2-core-master/contracts/UniswapV2Pair.sol\":9609:9694  balance0Adjusted.mul(balance1Adjusted) >= uint(_reserve0).mul(_reserve1).mul(1000**2) */\n              lt\n              iszero\n                /* \"smart contracts/v2-core-master/contracts/UniswapV2Pair.sol\":9601:9711  require(balance0Adjusted.mul(balance1Adjusted) >= uint(_reserve0).mul(_reserve1).mul(1000**2), 'UniswapV2: K') */\n              tag_154\n              jumpi\n              0x40\n              dup1\n              mload\n              shl(0xe5, 0x461bcd)\n              dup2\n              mstore\n              0x20\n              0x04\n              dup3\n              add\n              mstore\n              0x0c\n              0x24\n              dup3\n              add\n              mstore\n              shl(0xa0, 0x556e697377617056323a204b)\n              0x44\n              dup3\n              add\n              mstore\n              swap1\n              mload\n              swap1\n              dup2\n              swap1\n              sub\n              0x64\n              add\n              swap1\n              revert\n            tag_154:\n                /* \"smart contracts/v2-core-master/contracts/UniswapV2Pair.sol\":1282:1283  _ */\n              pop\n              pop\n                /* \"smart contracts/v2-core-master/contracts/UniswapV2Pair.sol\":9735:9784  _update(balance0, balance1, _reserve0, _reserve1) */\n              tag_155\n                /* \"smart contracts/v2-core-master/contracts/UniswapV2Pair.sol\":9743:9751  balance0 */\n              dup5\n                /* \"smart contracts/v2-core-master/contracts/UniswapV2Pair.sol\":9753:9761  balance1 */\n              dup5\n                /* \"smart contracts/v2-core-master/contracts/UniswapV2Pair.sol\":9763:9772  _reserve0 */\n              dup9\n                /* \"smart contracts/v2-core-master/contracts/UniswapV2Pair.sol\":9774:9783  _reserve1 */\n              dup9\n                /* \"smart contracts/v2-core-master/contracts/UniswapV2Pair.sol\":9735:9742  _update */\n              tag_156\n                /* \"smart contracts/v2-core-master/contracts/UniswapV2Pair.sol\":9735:9784  _update(balance0, balance1, _reserve0, _reserve1) */\n              jump\t// in\n            tag_155:\n                /* \"smart contracts/v2-core-master/contracts/UniswapV2Pair.sol\":9800:9866  Swap(msg.sender, amount0In, amount1In, amount0Out, amount1Out, to) */\n              0x40\n              dup1\n              mload\n              dup4\n              dup2\n              mstore\n              0x20\n              dup2\n              add\n              dup4\n              swap1\n              mstore\n              dup1\n              dup3\n              add\n              dup14\n              swap1\n              mstore\n              0x60\n              dup2\n              add\n              dup13\n              swap1\n              mstore\n              swap1\n              mload\n              sub(shl(0xa0, 0x01), 0x01)\n              dup12\n              and\n              swap2\n                /* \"smart contracts/v2-core-master/contracts/UniswapV2Pair.sol\":9805:9815  msg.sender */\n              caller\n              swap2\n                /* \"smart contracts/v2-core-master/contracts/UniswapV2Pair.sol\":9800:9866  Swap(msg.sender, amount0In, amount1In, amount0Out, amount1Out, to) */\n              0xd78ad95fa46c994b6551d0da85fc275fe613ce37657fb8d5e3d130840159d822\n              swap2\n              dup2\n              swap1\n              sub\n              0x80\n              add\n              swap1\n              log3\n              pop\n              pop\n                /* \"smart contracts/v2-core-master/contracts/UniswapV2Pair.sol\":1305:1306  1 */\n              0x01\n                /* \"smart contracts/v2-core-master/contracts/UniswapV2Pair.sol\":1294:1302  unlocked */\n              0x0c\n                /* \"smart contracts/v2-core-master/contracts/UniswapV2Pair.sol\":1294:1306  unlocked = 1 */\n              sstore\n              pop\n              pop\n              pop\n              pop\n              pop\n              pop\n              pop\n              pop\n              pop\n                /* \"smart contracts/v2-core-master/contracts/UniswapV2Pair.sol\":7985:9874  function swap(uint amount0Out, uint amount1Out, address to, bytes calldata data) external lock {\r... */\n              jump\t// out\n                /* \"smart contracts/v2-core-master/contracts/UniswapV2ERC20.sol\":193:235  string public constant name = 'Hexx Token' */\n            tag_43:\n              0x40\n              dup1\n              mload\n              dup1\n              dup3\n              add\n              swap1\n              swap2\n              mstore\n              0x0a\n              dup2\n              mstore\n              shl(0xb1, 0x2432bc3c102a37b5b2b7)\n              0x20\n              dup3\n              add\n              mstore\n              dup2\n              jump\t// out\n                /* \"smart contracts/v2-core-master/contracts/UniswapV2Pair.sol\":1322:1553  function getReserves() public view returns (uint112 _reserve0, uint112 _reserve1, uint32 _blockTimestampLast) {\r... */\n            tag_49:\n                /* \"smart contracts/v2-core-master/contracts/UniswapV2Pair.sol\":1455:1463  reserve0 */\n              sload(0x08)\n              sub(shl(0x70, 0x01), 0x01)\n              dup1\n              dup3\n              and\n              swap3\n              shl(0x70, 0x01)\n                /* \"smart contracts/v2-core-master/contracts/UniswapV2Pair.sol\":1486:1494  reserve1 */\n              dup4\n              div\n              swap1\n              swap2\n              and\n              swap2\n              shl(0xe0, 0x01)\n                /* \"smart contracts/v2-core-master/contracts/UniswapV2Pair.sol\":1527:1545  blockTimestampLast */\n              swap1\n              div\n              0xffffffff\n              and\n              swap1\n                /* \"smart contracts/v2-core-master/contracts/UniswapV2Pair.sol\":1322:1553  function getReserves() public view returns (uint112 _reserve0, uint112 _reserve1, uint32 _blockTimestampLast) {\r... */\n              jump\t// out\n                /* \"smart contracts/v2-core-master/contracts/UniswapV2ERC20.sol\":2238:2385  function approve(address spender, uint value) external returns (bool) {\r... */\n            tag_52:\n                /* \"smart contracts/v2-core-master/contracts/UniswapV2ERC20.sol\":2302:2306  bool */\n              0x00\n                /* \"smart contracts/v2-core-master/contracts/UniswapV2ERC20.sol\":2319:2355  _approve(msg.sender, spender, value) */\n              tag_159\n                /* \"smart contracts/v2-core-master/contracts/UniswapV2ERC20.sol\":2328:2338  msg.sender */\n              caller\n                /* \"smart contracts/v2-core-master/contracts/UniswapV2ERC20.sol\":2340:2347  spender */\n              dup5\n                /* \"smart contracts/v2-core-master/contracts/UniswapV2ERC20.sol\":2349:2354  value */\n              dup5\n                /* \"smart contracts/v2-core-master/contracts/UniswapV2ERC20.sol\":2319:2327  _approve */\n              tag_160\n                /* \"smart contracts/v2-core-master/contracts/UniswapV2ERC20.sol\":2319:2355  _approve(msg.sender, spender, value) */\n              jump\t// in\n            tag_159:\n              pop\n                /* \"smart contracts/v2-core-master/contracts/UniswapV2ERC20.sol\":2373:2377  true */\n              0x01\n                /* \"smart contracts/v2-core-master/contracts/UniswapV2ERC20.sol\":2238:2385  function approve(address spender, uint value) external returns (bool) {\r... */\n            tag_158:\n              swap3\n              swap2\n              pop\n              pop\n              jump\t// out\n                /* \"smart contracts/v2-core-master/contracts/UniswapV2Pair.sol\":611:632  address public token0 */\n            tag_54:\n              and(sub(shl(0xa0, 0x01), 0x01), sload(0x06))\n              dup2\n              jump\t// out\n                /* \"smart contracts/v2-core-master/contracts/UniswapV2ERC20.sol\":329:353  uint  public totalSupply */\n            tag_56:\n              sload(0x00)\n              dup2\n              jump\t// out\n                /* \"smart contracts/v2-core-master/contracts/UniswapV2ERC20.sol\":2540:2841  function transferFrom(address from, address to, uint value) external returns (bool) {\r... */\n            tag_59:\n              sub(shl(0xa0, 0x01), 0x01)\n                /* \"smart contracts/v2-core-master/contracts/UniswapV2ERC20.sol\":2639:2654  allowance[from] */\n              dup4\n              and\n                /* \"smart contracts/v2-core-master/contracts/UniswapV2ERC20.sol\":2618:2622  bool */\n              0x00\n                /* \"smart contracts/v2-core-master/contracts/UniswapV2ERC20.sol\":2639:2654  allowance[from] */\n              swap1\n              dup2\n              mstore\n                /* \"smart contracts/v2-core-master/contracts/UniswapV2ERC20.sol\":2639:2648  allowance */\n              0x02\n                /* \"smart contracts/v2-core-master/contracts/UniswapV2ERC20.sol\":2639:2654  allowance[from] */\n              0x20\n              swap1\n              dup2\n              mstore\n              0x40\n              dup1\n              dup4\n              keccak256\n                /* \"smart contracts/v2-core-master/contracts/UniswapV2ERC20.sol\":2655:2665  msg.sender */\n              caller\n                /* \"smart contracts/v2-core-master/contracts/UniswapV2ERC20.sol\":2639:2666  allowance[from][msg.sender] */\n              dup5\n              mstore\n              swap1\n              swap2\n              mstore\n              dup2\n              keccak256\n              sload\n              not(0x00)\n                /* \"smart contracts/v2-core-master/contracts/UniswapV2ERC20.sol\":2639:2678  allowance[from][msg.sender] != uint(-1) */\n              eq\n                /* \"smart contracts/v2-core-master/contracts/UniswapV2ERC20.sol\":2635:2775  if (allowance[from][msg.sender] != uint(-1)) {\r... */\n              tag_162\n              jumpi\n              sub(shl(0xa0, 0x01), 0x01)\n                /* \"smart contracts/v2-core-master/contracts/UniswapV2ERC20.sol\":2725:2740  allowance[from] */\n              dup5\n              and\n              0x00\n              swap1\n              dup2\n              mstore\n                /* \"smart contracts/v2-core-master/contracts/UniswapV2ERC20.sol\":2725:2734  allowance */\n              0x02\n                /* \"smart contracts/v2-core-master/contracts/UniswapV2ERC20.sol\":2725:2740  allowance[from] */\n              0x20\n              swap1\n              dup2\n              mstore\n              0x40\n              dup1\n              dup4\n              keccak256\n                /* \"smart contracts/v2-core-master/contracts/UniswapV2ERC20.sol\":2741:2751  msg.sender */\n              caller\n                /* \"smart contracts/v2-core-master/contracts/UniswapV2ERC20.sol\":2725:2752  allowance[from][msg.sender] */\n              dup5\n              mstore\n              swap1\n              swap2\n              mstore\n              swap1\n              keccak256\n              sload\n                /* \"smart contracts/v2-core-master/contracts/UniswapV2ERC20.sol\":2725:2763  allowance[from][msg.sender].sub(value) */\n              tag_163\n              swap1\n                /* \"smart contracts/v2-core-master/contracts/UniswapV2ERC20.sol\":2757:2762  value */\n              dup4\n                /* \"smart contracts/v2-core-master/contracts/UniswapV2ERC20.sol\":2725:2756  allowance[from][msg.sender].sub */\n              tag_147\n                /* \"smart contracts/v2-core-master/contracts/UniswapV2ERC20.sol\":2725:2763  allowance[from][msg.sender].sub(value) */\n              jump\t// in\n            tag_163:\n              sub(shl(0xa0, 0x01), 0x01)\n                /* \"smart contracts/v2-core-master/contracts/UniswapV2ERC20.sol\":2695:2710  allowance[from] */\n              dup6\n              and\n              0x00\n              swap1\n              dup2\n              mstore\n                /* \"smart contracts/v2-core-master/contracts/UniswapV2ERC20.sol\":2695:2704  allowance */\n              0x02\n                /* \"smart contracts/v2-core-master/contracts/UniswapV2ERC20.sol\":2695:2710  allowance[from] */\n              0x20\n              swap1\n              dup2\n              mstore\n              0x40\n              dup1\n              dup4\n              keccak256\n                /* \"smart contracts/v2-core-master/contracts/UniswapV2ERC20.sol\":2711:2721  msg.sender */\n              caller\n                /* \"smart contracts/v2-core-master/contracts/UniswapV2ERC20.sol\":2695:2722  allowance[from][msg.sender] */\n              dup5\n              mstore\n              swap1\n              swap2\n              mstore\n              swap1\n              keccak256\n                /* \"smart contracts/v2-core-master/contracts/UniswapV2ERC20.sol\":2695:2763  allowance[from][msg.sender] = allowance[from][msg.sender].sub(value) */\n              sstore\n                /* \"smart contracts/v2-core-master/contracts/UniswapV2ERC20.sol\":2635:2775  if (allowance[from][msg.sender] != uint(-1)) {\r... */\n            tag_162:\n                /* \"smart contracts/v2-core-master/contracts/UniswapV2ERC20.sol\":2785:2811  _transfer(from, to, value) */\n              tag_164\n                /* \"smart contracts/v2-core-master/contracts/UniswapV2ERC20.sol\":2795:2799  from */\n              dup5\n                /* \"smart contracts/v2-core-master/contracts/UniswapV2ERC20.sol\":2801:2803  to */\n              dup5\n                /* \"smart contracts/v2-core-master/contracts/UniswapV2ERC20.sol\":2805:2810  value */\n              dup5\n                /* \"smart contracts/v2-core-master/contracts/UniswapV2ERC20.sol\":2785:2794  _transfer */\n              tag_165\n                /* \"smart contracts/v2-core-master/contracts/UniswapV2ERC20.sol\":2785:2811  _transfer(from, to, value) */\n              jump\t// in\n            tag_164:\n              pop\n                /* \"smart contracts/v2-core-master/contracts/UniswapV2ERC20.sol\":2829:2833  true */\n              0x01\n                /* \"smart contracts/v2-core-master/contracts/UniswapV2ERC20.sol\":2540:2841  function transferFrom(address from, address to, uint value) external returns (bool) {\r... */\n              swap4\n              swap3\n              pop\n              pop\n              pop\n              jump\t// out\n                /* \"smart contracts/v2-core-master/contracts/UniswapV2ERC20.sol\":621:729  bytes32 public constant PERMIT_TYPEHASH = 0x6e71edae12b1b97f4d1f60370fef10105fa2faae0126114a169c64845d6126c9 */\n            tag_61:\n                /* \"smart contracts/v2-core-master/contracts/UniswapV2ERC20.sol\":663:729  0x6e71edae12b1b97f4d1f60370fef10105fa2faae0126114a169c64845d6126c9 */\n              0x6e71edae12b1b97f4d1f60370fef10105fa2faae0126114a169c64845d6126c9\n                /* \"smart contracts/v2-core-master/contracts/UniswapV2ERC20.sol\":621:729  bytes32 public constant PERMIT_TYPEHASH = 0x6e71edae12b1b97f4d1f60370fef10105fa2faae0126114a169c64845d6126c9 */\n              dup2\n              jump\t// out\n                /* \"smart contracts/v2-core-master/contracts/UniswapV2ERC20.sol\":287:322  uint8 public constant decimals = 18 */\n            tag_63:\n                /* \"smart contracts/v2-core-master/contracts/UniswapV2ERC20.sol\":320:322  18 */\n              0x12\n                /* \"smart contracts/v2-core-master/contracts/UniswapV2ERC20.sol\":287:322  uint8 public constant decimals = 18 */\n              dup2\n              jump\t// out\n                /* \"smart contracts/v2-core-master/contracts/UniswapV2ERC20.sol\":478:509  bytes32 public DOMAIN_SEPARATOR */\n            tag_65:\n              sload(0x03)\n              dup2\n              jump\t// out\n                /* \"smart contracts/v2-core-master/contracts/UniswapV2Pair.sol\":2382:2592  function initialize(address _token0, address _token1) external {\r... */\n            tag_68:\n                /* \"smart contracts/v2-core-master/contracts/UniswapV2Pair.sol\":2478:2485  factory */\n              and(sub(shl(0xa0, 0x01), 0x01), sload(0x05))\n                /* \"smart contracts/v2-core-master/contracts/UniswapV2Pair.sol\":2464:2474  msg.sender */\n              caller\n                /* \"smart contracts/v2-core-master/contracts/UniswapV2Pair.sol\":2464:2485  msg.sender == factory */\n              eq\n                /* \"smart contracts/v2-core-master/contracts/UniswapV2Pair.sol\":2456:2510  require(msg.sender == factory, 'UniswapV2: FORBIDDEN') */\n              tag_167\n              jumpi\n              0x40\n              dup1\n              mload\n              shl(0xe5, 0x461bcd)\n              dup2\n              mstore\n              0x20\n              0x04\n              dup3\n              add\n              mstore\n              0x14\n              0x24\n              dup3\n              add\n              mstore\n              shl(0x61, 0x2ab734b9bbb0b82b191d102327a92124a22222a7)\n              0x44\n              dup3\n              add\n              mstore\n              swap1\n              mload\n              swap1\n              dup2\n              swap1\n              sub\n              0x64\n              add\n              swap1\n              revert\n            tag_167:\n                /* \"smart contracts/v2-core-master/contracts/UniswapV2Pair.sol\":2541:2547  token0 */\n              0x06\n                /* \"smart contracts/v2-core-master/contracts/UniswapV2Pair.sol\":2541:2557  token0 = _token0 */\n              dup1\n              sload\n              sub(shl(0xa0, 0x01), 0x01)\n              swap4\n              dup5\n              and\n              not(sub(shl(0xa0, 0x01), 0x01))\n              swap2\n              dup3\n              and\n              or\n              swap1\n              swap2\n              sstore\n                /* \"smart contracts/v2-core-master/contracts/UniswapV2Pair.sol\":2568:2574  token1 */\n              0x07\n                /* \"smart contracts/v2-core-master/contracts/UniswapV2Pair.sol\":2568:2584  token1 = _token1 */\n              dup1\n              sload\n              swap3\n              swap1\n              swap4\n              and\n              swap2\n              and\n              or\n              swap1\n              sstore\n                /* \"smart contracts/v2-core-master/contracts/UniswapV2Pair.sol\":2382:2592  function initialize(address _token0, address _token1) external {\r... */\n              jump\t// out\n                /* \"smart contracts/v2-core-master/contracts/UniswapV2Pair.sol\":962:994  uint public price0CumulativeLast */\n            tag_70:\n              sload(0x09)\n              dup2\n              jump\t// out\n                /* \"smart contracts/v2-core-master/contracts/UniswapV2Pair.sol\":1001:1033  uint public price1CumulativeLast */\n            tag_72:\n              sload(0x0a)\n              dup2\n              jump\t// out\n                /* \"smart contracts/v2-core-master/contracts/UniswapV2Pair.sol\":5055:6295  function mint(address to) external lock returns (uint liquidity) {\r... */\n            tag_75:\n                /* \"smart contracts/v2-core-master/contracts/UniswapV2Pair.sol\":5104:5118  uint liquidity */\n              0x00\n                /* \"smart contracts/v2-core-master/contracts/UniswapV2Pair.sol\":1213:1221  unlocked */\n              sload(0x0c)\n                /* \"smart contracts/v2-core-master/contracts/UniswapV2Pair.sol\":1225:1226  1 */\n              0x01\n                /* \"smart contracts/v2-core-master/contracts/UniswapV2Pair.sol\":1213:1226  unlocked == 1 */\n              eq\n                /* \"smart contracts/v2-core-master/contracts/UniswapV2Pair.sol\":1205:1248  require(unlocked == 1, 'UniswapV2: LOCKED') */\n              tag_169\n              jumpi\n              0x40\n              dup1\n              mload\n              shl(0xe5, 0x461bcd)\n              dup2\n              mstore\n              0x20\n              0x04\n              dup3\n              add\n              mstore\n              0x11\n              0x24\n              dup3\n              add\n              mstore\n              shl(0x7a, 0x155b9a5cddd85c158c8e881313d0d2d151)\n              0x44\n              dup3\n              add\n              mstore\n              swap1\n              mload\n              swap1\n              dup2\n              swap1\n              sub\n              0x64\n              add\n              swap1\n              revert\n            tag_169:\n                /* \"smart contracts/v2-core-master/contracts/UniswapV2Pair.sol\":1270:1271  0 */\n              0x00\n                /* \"smart contracts/v2-core-master/contracts/UniswapV2Pair.sol\":1259:1267  unlocked */\n              0x0c\n                /* \"smart contracts/v2-core-master/contracts/UniswapV2Pair.sol\":1259:1271  unlocked = 0 */\n              dup2\n              swap1\n              sstore\n                /* \"smart contracts/v2-core-master/contracts/UniswapV2Pair.sol\":1270:1271  0 */\n              dup1\n                /* \"smart contracts/v2-core-master/contracts/UniswapV2Pair.sol\":5173:5186  getReserves() */\n              tag_171\n                /* \"smart contracts/v2-core-master/contracts/UniswapV2Pair.sol\":5173:5184  getReserves */\n              tag_49\n                /* \"smart contracts/v2-core-master/contracts/UniswapV2Pair.sol\":5173:5186  getReserves() */\n              jump\t// in\n            tag_171:\n              pop\n                /* \"smart contracts/v2-core-master/contracts/UniswapV2Pair.sol\":5235:5241  token0 */\n              sload(0x06)\n                /* \"smart contracts/v2-core-master/contracts/UniswapV2Pair.sol\":5228:5267  IERC20(token0).balanceOf(address(this)) */\n              0x40\n              dup1\n              mload\n              shl(0xe0, 0x70a08231)\n              dup2\n              mstore\n                /* \"smart contracts/v2-core-master/contracts/UniswapV2Pair.sol\":5261:5265  this */\n              address\n                /* \"smart contracts/v2-core-master/contracts/UniswapV2Pair.sol\":5228:5267  IERC20(token0).balanceOf(address(this)) */\n              0x04\n              dup3\n              add\n              mstore\n              swap1\n              mload\n                /* \"smart contracts/v2-core-master/contracts/UniswapV2Pair.sol\":5131:5186  (uint112 _reserve0, uint112 _reserve1,) = getReserves() */\n              swap4\n              swap6\n              pop\n              swap2\n              swap4\n              pop\n              0x00\n              swap3\n              sub(shl(0xa0, 0x01), 0x01)\n                /* \"smart contracts/v2-core-master/contracts/UniswapV2Pair.sol\":5235:5241  token0 */\n              swap1\n              swap2\n              and\n              swap2\n              0x70a08231\n              swap2\n                /* \"smart contracts/v2-core-master/contracts/UniswapV2Pair.sol\":5228:5267  IERC20(token0).balanceOf(address(this)) */\n              0x24\n              dup1\n              dup4\n              add\n              swap3\n              0x20\n              swap3\n              swap2\n              swap1\n              dup3\n              swap1\n              sub\n              add\n              dup2\n                /* \"smart contracts/v2-core-master/contracts/UniswapV2Pair.sol\":5235:5241  token0 */\n              dup7\n                /* \"smart contracts/v2-core-master/contracts/UniswapV2Pair.sol\":5228:5267  IERC20(token0).balanceOf(address(this)) */\n              dup1\n              extcodesize\n              iszero\n                /* \"--CODEGEN--\":5:7   */\n              dup1\n              iszero\n              tag_172\n              jumpi\n                /* \"--CODEGEN--\":30:31   */\n              0x00\n                /* \"--CODEGEN--\":27:28   */\n              dup1\n                /* \"--CODEGEN--\":20:32   */\n              revert\n                /* \"--CODEGEN--\":5:7   */\n            tag_172:\n                /* \"smart contracts/v2-core-master/contracts/UniswapV2Pair.sol\":5228:5267  IERC20(token0).balanceOf(address(this)) */\n              pop\n              gas\n              staticcall\n              iszero\n                /* \"--CODEGEN--\":8:17   */\n              dup1\n                /* \"--CODEGEN--\":5:7   */\n              iszero\n              tag_173\n              jumpi\n                /* \"--CODEGEN--\":45:61   */\n              returndatasize\n                /* \"--CODEGEN--\":42:43   */\n              0x00\n                /* \"--CODEGEN--\":39:40   */\n              dup1\n                /* \"--CODEGEN--\":24:62   */\n              returndatacopy\n                /* \"--CODEGEN--\":77:93   */\n              returndatasize\n                /* \"--CODEGEN--\":74:75   */\n              0x00\n                /* \"--CODEGEN--\":67:94   */\n              revert\n                /* \"--CODEGEN--\":5:7   */\n            tag_173:\n                /* \"smart contracts/v2-core-master/contracts/UniswapV2Pair.sol\":5228:5267  IERC20(token0).balanceOf(address(this)) */\n              pop\n              pop\n              pop\n              pop\n              mload(0x40)\n              returndatasize\n                /* \"--CODEGEN--\":13:15   */\n              0x20\n                /* \"--CODEGEN--\":8:11   */\n              dup2\n                /* \"--CODEGEN--\":5:16   */\n              lt\n                /* \"--CODEGEN--\":2:4   */\n              iszero\n              tag_174\n              jumpi\n                /* \"--CODEGEN--\":29:30   */\n              0x00\n                /* \"--CODEGEN--\":26:27   */\n              dup1\n                /* \"--CODEGEN--\":19:31   */\n              revert\n                /* \"--CODEGEN--\":2:4   */\n            tag_174:\n              pop\n                /* \"smart contracts/v2-core-master/contracts/UniswapV2Pair.sol\":5228:5267  IERC20(token0).balanceOf(address(this)) */\n              mload\n                /* \"smart contracts/v2-core-master/contracts/UniswapV2Pair.sol\":5301:5307  token1 */\n              sload(0x07)\n                /* \"smart contracts/v2-core-master/contracts/UniswapV2Pair.sol\":5294:5333  IERC20(token1).balanceOf(address(this)) */\n              0x40\n              dup1\n              mload\n              shl(0xe0, 0x70a08231)\n              dup2\n              mstore\n                /* \"smart contracts/v2-core-master/contracts/UniswapV2Pair.sol\":5327:5331  this */\n              address\n                /* \"smart contracts/v2-core-master/contracts/UniswapV2Pair.sol\":5294:5333  IERC20(token1).balanceOf(address(this)) */\n              0x04\n              dup3\n              add\n              mstore\n              swap1\n              mload\n                /* \"smart contracts/v2-core-master/contracts/UniswapV2Pair.sol\":5228:5267  IERC20(token0).balanceOf(address(this)) */\n              swap3\n              swap4\n              pop\n              0x00\n              swap3\n              sub(shl(0xa0, 0x01), 0x01)\n                /* \"smart contracts/v2-core-master/contracts/UniswapV2Pair.sol\":5301:5307  token1 */\n              swap1\n              swap3\n              and\n              swap2\n              0x70a08231\n              swap2\n                /* \"smart contracts/v2-core-master/contracts/UniswapV2Pair.sol\":5294:5333  IERC20(token1).balanceOf(address(this)) */\n              0x24\n              dup1\n              dup3\n              add\n              swap3\n                /* \"smart contracts/v2-core-master/contracts/UniswapV2Pair.sol\":5228:5267  IERC20(token0).balanceOf(address(this)) */\n              0x20\n              swap3\n                /* \"smart contracts/v2-core-master/contracts/UniswapV2Pair.sol\":5294:5333  IERC20(token1).balanceOf(address(this)) */\n              swap1\n              swap2\n              swap1\n              dup3\n              swap1\n              sub\n              add\n              dup2\n                /* \"smart contracts/v2-core-master/contracts/UniswapV2Pair.sol\":5301:5307  token1 */\n              dup7\n                /* \"smart contracts/v2-core-master/contracts/UniswapV2Pair.sol\":5294:5333  IERC20(token1).balanceOf(address(this)) */\n              dup1\n              extcodesize\n              iszero\n                /* \"--CODEGEN--\":5:7   */\n              dup1\n              iszero\n              tag_175\n              jumpi\n                /* \"--CODEGEN--\":30:31   */\n              0x00\n                /* \"--CODEGEN--\":27:28   */\n              dup1\n                /* \"--CODEGEN--\":20:32   */\n              revert\n                /* \"--CODEGEN--\":5:7   */\n            tag_175:\n                /* \"smart contracts/v2-core-master/contracts/UniswapV2Pair.sol\":5294:5333  IERC20(token1).balanceOf(address(this)) */\n              pop\n              gas\n              staticcall\n              iszero\n                /* \"--CODEGEN--\":8:17   */\n              dup1\n                /* \"--CODEGEN--\":5:7   */\n              iszero\n              tag_176\n              jumpi\n                /* \"--CODEGEN--\":45:61   */\n              returndatasize\n                /* \"--CODEGEN--\":42:43   */\n              0x00\n                /* \"--CODEGEN--\":39:40   */\n              dup1\n                /* \"--CODEGEN--\":24:62   */\n              returndatacopy\n                /* \"--CODEGEN--\":77:93   */\n              returndatasize\n                /* \"--CODEGEN--\":74:75   */\n              0x00\n                /* \"--CODEGEN--\":67:94   */\n              revert\n                /* \"--CODEGEN--\":5:7   */\n            tag_176:\n                /* \"smart contracts/v2-core-master/contracts/UniswapV2Pair.sol\":5294:5333  IERC20(token1).balanceOf(address(this)) */\n              pop\n              pop\n              pop\n              pop\n              mload(0x40)\n              returndatasize\n                /* \"--CODEGEN--\":13:15   */\n              0x20\n                /* \"--CODEGEN--\":8:11   */\n              dup2\n                /* \"--CODEGEN--\":5:16   */\n              lt\n                /* \"--CODEGEN--\":2:4   */\n              iszero\n              tag_177\n              jumpi\n                /* \"--CODEGEN--\":29:30   */\n              0x00\n                /* \"--CODEGEN--\":26:27   */\n              dup1\n                /* \"--CODEGEN--\":19:31   */\n              revert\n                /* \"--CODEGEN--\":2:4   */\n            tag_177:\n              pop\n                /* \"smart contracts/v2-core-master/contracts/UniswapV2Pair.sol\":5294:5333  IERC20(token1).balanceOf(address(this)) */\n              mload\n              swap1\n              pop\n                /* \"smart contracts/v2-core-master/contracts/UniswapV2Pair.sol\":5344:5356  uint amount0 */\n              0x00\n                /* \"smart contracts/v2-core-master/contracts/UniswapV2Pair.sol\":5359:5382  balance0.sub(_reserve0) */\n              tag_178\n                /* \"smart contracts/v2-core-master/contracts/UniswapV2Pair.sol\":5359:5367  balance0 */\n              dup4\n              sub(shl(0x70, 0x01), 0x01)\n                /* \"smart contracts/v2-core-master/contracts/UniswapV2Pair.sol\":5359:5382  balance0.sub(_reserve0) */\n              dup8\n              and\n                /* \"smart contracts/v2-core-master/contracts/UniswapV2Pair.sol\":5359:5371  balance0.sub */\n              tag_147\n                /* \"smart contracts/v2-core-master/contracts/UniswapV2Pair.sol\":5359:5382  balance0.sub(_reserve0) */\n              jump\t// in\n            tag_178:\n                /* \"smart contracts/v2-core-master/contracts/UniswapV2Pair.sol\":5344:5382  uint amount0 = balance0.sub(_reserve0) */\n              swap1\n              pop\n                /* \"smart contracts/v2-core-master/contracts/UniswapV2Pair.sol\":5393:5405  uint amount1 */\n              0x00\n                /* \"smart contracts/v2-core-master/contracts/UniswapV2Pair.sol\":5408:5431  balance1.sub(_reserve1) */\n              tag_179\n                /* \"smart contracts/v2-core-master/contracts/UniswapV2Pair.sol\":5408:5416  balance1 */\n              dup4\n              sub(shl(0x70, 0x01), 0x01)\n                /* \"smart contracts/v2-core-master/contracts/UniswapV2Pair.sol\":5408:5431  balance1.sub(_reserve1) */\n              dup8\n              and\n                /* \"smart contracts/v2-core-master/contracts/UniswapV2Pair.sol\":5408:5420  balance1.sub */\n              tag_147\n                /* \"smart contracts/v2-core-master/contracts/UniswapV2Pair.sol\":5408:5431  balance1.sub(_reserve1) */\n              jump\t// in\n            tag_179:\n                /* \"smart contracts/v2-core-master/contracts/UniswapV2Pair.sol\":5393:5431  uint amount1 = balance1.sub(_reserve1) */\n              swap1\n              pop\n                /* \"smart contracts/v2-core-master/contracts/UniswapV2Pair.sol\":5444:5454  bool feeOn */\n              0x00\n                /* \"smart contracts/v2-core-master/contracts/UniswapV2Pair.sol\":5457:5487  _mintFee(_reserve0, _reserve1) */\n              tag_180\n                /* \"smart contracts/v2-core-master/contracts/UniswapV2Pair.sol\":5466:5475  _reserve0 */\n              dup8\n                /* \"smart contracts/v2-core-master/contracts/UniswapV2Pair.sol\":5477:5486  _reserve1 */\n              dup8\n                /* \"smart contracts/v2-core-master/contracts/UniswapV2Pair.sol\":5457:5465  _mintFee */\n              tag_181\n                /* \"smart contracts/v2-core-master/contracts/UniswapV2Pair.sol\":5457:5487  _mintFee(_reserve0, _reserve1) */\n              jump\t// in\n            tag_180:\n                /* \"smart contracts/v2-core-master/contracts/UniswapV2Pair.sol\":5498:5515  uint _totalSupply */\n              0x00\n                /* \"smart contracts/v2-core-master/contracts/UniswapV2Pair.sol\":5518:5529  totalSupply */\n              sload\n                /* \"smart contracts/v2-core-master/contracts/UniswapV2Pair.sol\":5444:5487  bool feeOn = _mintFee(_reserve0, _reserve1) */\n              swap1\n              swap2\n              pop\n                /* \"smart contracts/v2-core-master/contracts/UniswapV2Pair.sol\":5622:5639  _totalSupply == 0 */\n              dup1\n                /* \"smart contracts/v2-core-master/contracts/UniswapV2Pair.sol\":5618:5970  if (_totalSupply == 0) {\r... */\n              tag_182\n              jumpi\n                /* \"smart contracts/v2-core-master/contracts/UniswapV2Pair.sol\":5668:5722  Math.sqrt(amount0.mul(amount1)).sub(MINIMUM_LIQUIDITY) */\n              tag_183\n                /* \"smart contracts/v2-core-master/contracts/UniswapV2Pair.sol\":473:478  10**3 */\n              0x03e8\n                /* \"smart contracts/v2-core-master/contracts/UniswapV2Pair.sol\":5668:5699  Math.sqrt(amount0.mul(amount1)) */\n              tag_146\n                /* \"smart contracts/v2-core-master/contracts/UniswapV2Pair.sol\":5678:5698  amount0.mul(amount1) */\n              tag_185\n                /* \"smart contracts/v2-core-master/contracts/UniswapV2Pair.sol\":5678:5685  amount0 */\n              dup8\n                /* \"smart contracts/v2-core-master/contracts/UniswapV2Pair.sol\":5690:5697  amount1 */\n              dup8\n                /* \"smart contracts/v2-core-master/contracts/UniswapV2Pair.sol\":5678:5698  amount0.mul(amount1) */\n              0xffffffff\n                /* \"smart contracts/v2-core-master/contracts/UniswapV2Pair.sol\":5678:5689  amount0.mul */\n              tag_145\n                /* \"smart contracts/v2-core-master/contracts/UniswapV2Pair.sol\":5678:5698  amount0.mul(amount1) */\n              and\n              jump\t// in\n            tag_185:\n                /* \"smart contracts/v2-core-master/contracts/UniswapV2Pair.sol\":5668:5677  Math.sqrt */\n              tag_186\n                /* \"smart contracts/v2-core-master/contracts/UniswapV2Pair.sol\":5668:5699  Math.sqrt(amount0.mul(amount1)) */\n              jump\t// in\n                /* \"smart contracts/v2-core-master/contracts/UniswapV2Pair.sol\":5668:5722  Math.sqrt(amount0.mul(amount1)).sub(MINIMUM_LIQUIDITY) */\n            tag_183:\n                /* \"smart contracts/v2-core-master/contracts/UniswapV2Pair.sol\":5656:5722  liquidity = Math.sqrt(amount0.mul(amount1)).sub(MINIMUM_LIQUIDITY) */\n              swap9\n              pop\n                /* \"smart contracts/v2-core-master/contracts/UniswapV2Pair.sol\":5736:5772  _mint(address(0), MINIMUM_LIQUIDITY) */\n              tag_187\n                /* \"smart contracts/v2-core-master/contracts/UniswapV2Pair.sol\":5750:5751  0 */\n              0x00\n                /* \"smart contracts/v2-core-master/contracts/UniswapV2Pair.sol\":473:478  10**3 */\n              0x03e8\n                /* \"smart contracts/v2-core-master/contracts/UniswapV2Pair.sol\":5736:5741  _mint */\n              tag_188\n                /* \"smart contracts/v2-core-master/contracts/UniswapV2Pair.sol\":5736:5772  _mint(address(0), MINIMUM_LIQUIDITY) */\n              jump\t// in\n            tag_187:\n                /* \"smart contracts/v2-core-master/contracts/UniswapV2Pair.sol\":5618:5970  if (_totalSupply == 0) {\r... */\n              jump(tag_189)\n            tag_182:\n                /* \"smart contracts/v2-core-master/contracts/UniswapV2Pair.sol\":5872:5958  Math.min(amount0.mul(_totalSupply) / _reserve0, amount1.mul(_totalSupply) / _reserve1) */\n              tag_190\n              sub(shl(0x70, 0x01), 0x01)\n                /* \"smart contracts/v2-core-master/contracts/UniswapV2Pair.sol\":5881:5918  amount0.mul(_totalSupply) / _reserve0 */\n              dup10\n              and\n                /* \"smart contracts/v2-core-master/contracts/UniswapV2Pair.sol\":5881:5906  amount0.mul(_totalSupply) */\n              tag_191\n                /* \"smart contracts/v2-core-master/contracts/UniswapV2Pair.sol\":5881:5888  amount0 */\n              dup7\n                /* \"smart contracts/v2-core-master/contracts/UniswapV2Pair.sol\":5893:5905  _totalSupply */\n              dup5\n                /* \"smart contracts/v2-core-master/contracts/UniswapV2Pair.sol\":5881:5892  amount0.mul */\n              tag_145\n                /* \"smart contracts/v2-core-master/contracts/UniswapV2Pair.sol\":5881:5906  amount0.mul(_totalSupply) */\n              jump\t// in\n            tag_191:\n                /* \"smart contracts/v2-core-master/contracts/UniswapV2Pair.sol\":5881:5918  amount0.mul(_totalSupply) / _reserve0 */\n              dup2\n              tag_192\n              jumpi\n              invalid\n            tag_192:\n              div\n              sub(shl(0x70, 0x01), 0x01)\n                /* \"smart contracts/v2-core-master/contracts/UniswapV2Pair.sol\":5920:5957  amount1.mul(_totalSupply) / _reserve1 */\n              dup10\n              and\n                /* \"smart contracts/v2-core-master/contracts/UniswapV2Pair.sol\":5920:5945  amount1.mul(_totalSupply) */\n              tag_193\n                /* \"smart contracts/v2-core-master/contracts/UniswapV2Pair.sol\":5920:5927  amount1 */\n              dup7\n                /* \"smart contracts/v2-core-master/contracts/UniswapV2Pair.sol\":5932:5944  _totalSupply */\n              dup6\n                /* \"smart contracts/v2-core-master/contracts/UniswapV2Pair.sol\":5920:5931  amount1.mul */\n              tag_145\n                /* \"smart contracts/v2-core-master/contracts/UniswapV2Pair.sol\":5920:5945  amount1.mul(_totalSupply) */\n              jump\t// in\n            tag_193:\n                /* \"smart contracts/v2-core-master/contracts/UniswapV2Pair.sol\":5920:5957  amount1.mul(_totalSupply) / _reserve1 */\n              dup2\n              tag_194\n              jumpi\n              invalid\n            tag_194:\n              div\n                /* \"smart contracts/v2-core-master/contracts/UniswapV2Pair.sol\":5872:5880  Math.min */\n              tag_195\n                /* \"smart contracts/v2-core-master/contracts/UniswapV2Pair.sol\":5872:5958  Math.min(amount0.mul(_totalSupply) / _reserve0, amount1.mul(_totalSupply) / _reserve1) */\n              jump\t// in\n            tag_190:\n                /* \"smart contracts/v2-core-master/contracts/UniswapV2Pair.sol\":5860:5958  liquidity = Math.min(amount0.mul(_totalSupply) / _reserve0, amount1.mul(_totalSupply) / _reserve1) */\n              swap9\n              pop\n                /* \"smart contracts/v2-core-master/contracts/UniswapV2Pair.sol\":5618:5970  if (_totalSupply == 0) {\r... */\n            tag_189:\n                /* \"smart contracts/v2-core-master/contracts/UniswapV2Pair.sol\":6000:6001  0 */\n              0x00\n                /* \"smart contracts/v2-core-master/contracts/UniswapV2Pair.sol\":5988:5997  liquidity */\n              dup10\n                /* \"smart contracts/v2-core-master/contracts/UniswapV2Pair.sol\":5988:6001  liquidity > 0 */\n              gt\n                /* \"smart contracts/v2-core-master/contracts/UniswapV2Pair.sol\":5980:6046  require(liquidity > 0, 'UniswapV2: INSUFFICIENT_LIQUIDITY_MINTED') */\n              tag_196\n              jumpi\n              mload(0x40)\n              shl(0xe5, 0x461bcd)\n              dup2\n              mstore\n              0x04\n              add\n              dup1\n              dup1\n              0x20\n              add\n              dup3\n              dup2\n              sub\n              dup3\n              mstore\n              0x28\n              dup2\n              mstore\n              0x20\n              add\n              dup1\n              data_6591c9f5bf1fefaad109b76a20e25c857b696080c952191f86220f001a83663e\n              0x28\n              swap2\n              codecopy\n              0x40\n              add\n              swap2\n              pop\n              pop\n              mload(0x40)\n              dup1\n              swap2\n              sub\n              swap1\n              revert\n            tag_196:\n                /* \"smart contracts/v2-core-master/contracts/UniswapV2Pair.sol\":6057:6077  _mint(to, liquidity) */\n              tag_197\n                /* \"smart contracts/v2-core-master/contracts/UniswapV2Pair.sol\":6063:6065  to */\n              dup11\n                /* \"smart contracts/v2-core-master/contracts/UniswapV2Pair.sol\":6067:6076  liquidity */\n              dup11\n                /* \"smart contracts/v2-core-master/contracts/UniswapV2Pair.sol\":6057:6062  _mint */\n              tag_188\n                /* \"smart contracts/v2-core-master/contracts/UniswapV2Pair.sol\":6057:6077  _mint(to, liquidity) */\n              jump\t// in\n            tag_197:\n                /* \"smart contracts/v2-core-master/contracts/UniswapV2Pair.sol\":6090:6139  _update(balance0, balance1, _reserve0, _reserve1) */\n              tag_198\n                /* \"smart contracts/v2-core-master/contracts/UniswapV2Pair.sol\":6098:6106  balance0 */\n              dup7\n                /* \"smart contracts/v2-core-master/contracts/UniswapV2Pair.sol\":6108:6116  balance1 */\n              dup7\n                /* \"smart contracts/v2-core-master/contracts/UniswapV2Pair.sol\":6118:6127  _reserve0 */\n              dup11\n                /* \"smart contracts/v2-core-master/contracts/UniswapV2Pair.sol\":6129:6138  _reserve1 */\n              dup11\n                /* \"smart contracts/v2-core-master/contracts/UniswapV2Pair.sol\":6090:6097  _update */\n              tag_156\n                /* \"smart contracts/v2-core-master/contracts/UniswapV2Pair.sol\":6090:6139  _update(balance0, balance1, _reserve0, _reserve1) */\n              jump\t// in\n            tag_198:\n                /* \"smart contracts/v2-core-master/contracts/UniswapV2Pair.sol\":6154:6159  feeOn */\n              dup2\n                /* \"smart contracts/v2-core-master/contracts/UniswapV2Pair.sol\":6150:6197  if (feeOn) kLast = uint(reserve0).mul(reserve1) */\n              iszero\n              tag_199\n              jumpi\n                /* \"smart contracts/v2-core-master/contracts/UniswapV2Pair.sol\":6188:6196  reserve1 */\n              sload(0x08)\n                /* \"smart contracts/v2-core-master/contracts/UniswapV2Pair.sol\":6169:6197  uint(reserve0).mul(reserve1) */\n              tag_200\n              swap1\n              sub(shl(0x70, 0x01), 0x01)\n                /* \"smart contracts/v2-core-master/contracts/UniswapV2Pair.sol\":6174:6182  reserve0 */\n              dup1\n              dup3\n              and\n              swap2\n              shl(0x70, 0x01)\n                /* \"smart contracts/v2-core-master/contracts/UniswapV2Pair.sol\":6188:6196  reserve1 */\n              swap1\n              div\n              and\n                /* \"smart contracts/v2-core-master/contracts/UniswapV2Pair.sol\":6169:6187  uint(reserve0).mul */\n              tag_145\n                /* \"smart contracts/v2-core-master/contracts/UniswapV2Pair.sol\":6169:6197  uint(reserve0).mul(reserve1) */\n              jump\t// in\n            tag_200:\n                /* \"smart contracts/v2-core-master/contracts/UniswapV2Pair.sol\":6161:6166  kLast */\n              0x0b\n                /* \"smart contracts/v2-core-master/contracts/UniswapV2Pair.sol\":6161:6197  kLast = uint(reserve0).mul(reserve1) */\n              sstore\n                /* \"smart contracts/v2-core-master/contracts/UniswapV2Pair.sol\":6150:6197  if (feeOn) kLast = uint(reserve0).mul(reserve1) */\n            tag_199:\n                /* \"smart contracts/v2-core-master/contracts/UniswapV2Pair.sol\":6253:6287  Mint(msg.sender, amount0, amount1) */\n              0x40\n              dup1\n              mload\n              dup6\n              dup2\n              mstore\n              0x20\n              dup2\n              add\n              dup6\n              swap1\n              mstore\n              dup2\n              mload\n                /* \"smart contracts/v2-core-master/contracts/UniswapV2Pair.sol\":6258:6268  msg.sender */\n              caller\n              swap3\n                /* \"smart contracts/v2-core-master/contracts/UniswapV2Pair.sol\":6253:6287  Mint(msg.sender, amount0, amount1) */\n              0x4c209b5fc8ad50758f13e2e1088ba56a560dff690a1c6fef26394f4c03821c4f\n              swap3\n              dup3\n              swap1\n              sub\n              add\n              swap1\n              log2\n              pop\n              pop\n                /* \"smart contracts/v2-core-master/contracts/UniswapV2Pair.sol\":1305:1306  1 */\n              0x01\n                /* \"smart contracts/v2-core-master/contracts/UniswapV2Pair.sol\":1294:1302  unlocked */\n              0x0c\n                /* \"smart contracts/v2-core-master/contracts/UniswapV2Pair.sol\":1294:1306  unlocked = 1 */\n              sstore\n              pop\n                /* \"smart contracts/v2-core-master/contracts/UniswapV2Pair.sol\":5055:6295  function mint(address to) external lock returns (uint liquidity) {\r... */\n              swap5\n              swap7\n              swap6\n              pop\n              pop\n              pop\n              pop\n              pop\n              pop\n              jump\t// out\n                /* \"smart contracts/v2-core-master/contracts/UniswapV2ERC20.sol\":360:401  mapping(address => uint) public balanceOf */\n            tag_78:\n              mstore(0x20, 0x01)\n              0x00\n              swap1\n              dup2\n              mstore\n              0x40\n              swap1\n              keccak256\n              sload\n              dup2\n              jump\t// out\n                /* \"smart contracts/v2-core-master/contracts/UniswapV2Pair.sol\":1040:1057  uint public kLast */\n            tag_80:\n              sload(0x0b)\n              dup2\n              jump\t// out\n                /* \"smart contracts/v2-core-master/contracts/UniswapV2ERC20.sol\":736:774  mapping(address => uint) public nonces */\n            tag_83:\n              mstore(0x20, 0x04)\n              0x00\n              swap1\n              dup2\n              mstore\n              0x40\n              swap1\n              keccak256\n              sload\n              dup2\n              jump\t// out\n                /* \"smart contracts/v2-core-master/contracts/UniswapV2Pair.sol\":6407:7873  function burn(address to) external lock returns (uint amount0, uint amount1) {\r... */\n            tag_86:\n                /* \"smart contracts/v2-core-master/contracts/UniswapV2Pair.sol\":6456:6468  uint amount0 */\n              0x00\n                /* \"smart contracts/v2-core-master/contracts/UniswapV2Pair.sol\":6470:6482  uint amount1 */\n              dup1\n                /* \"smart contracts/v2-core-master/contracts/UniswapV2Pair.sol\":1213:1221  unlocked */\n              sload(0x0c)\n                /* \"smart contracts/v2-core-master/contracts/UniswapV2Pair.sol\":1225:1226  1 */\n              0x01\n                /* \"smart contracts/v2-core-master/contracts/UniswapV2Pair.sol\":1213:1226  unlocked == 1 */\n              eq\n                /* \"smart contracts/v2-core-master/contracts/UniswapV2Pair.sol\":1205:1248  require(unlocked == 1, 'UniswapV2: LOCKED') */\n              tag_202\n              jumpi\n              0x40\n              dup1\n              mload\n              shl(0xe5, 0x461bcd)\n              dup2\n              mstore\n              0x20\n              0x04\n              dup3\n              add\n              mstore\n              0x11\n              0x24\n              dup3\n              add\n              mstore\n              shl(0x7a, 0x155b9a5cddd85c158c8e881313d0d2d151)\n              0x44\n              dup3\n              add\n              mstore\n              swap1\n              mload\n              swap1\n              dup2\n              swap1\n              sub\n              0x64\n              add\n              swap1\n              revert\n            tag_202:\n                /* \"smart contracts/v2-core-master/contracts/UniswapV2Pair.sol\":1270:1271  0 */\n              0x00\n                /* \"smart contracts/v2-core-master/contracts/UniswapV2Pair.sol\":1259:1267  unlocked */\n              0x0c\n                /* \"smart contracts/v2-core-master/contracts/UniswapV2Pair.sol\":1259:1271  unlocked = 0 */\n              dup2\n              swap1\n              sstore\n                /* \"smart contracts/v2-core-master/contracts/UniswapV2Pair.sol\":1270:1271  0 */\n              dup1\n                /* \"smart contracts/v2-core-master/contracts/UniswapV2Pair.sol\":6537:6550  getReserves() */\n              tag_204\n                /* \"smart contracts/v2-core-master/contracts/UniswapV2Pair.sol\":6537:6548  getReserves */\n              tag_49\n                /* \"smart contracts/v2-core-master/contracts/UniswapV2Pair.sol\":6537:6550  getReserves() */\n              jump\t// in\n            tag_204:\n              pop\n                /* \"smart contracts/v2-core-master/contracts/UniswapV2Pair.sol\":6594:6600  token0 */\n              sload(0x06)\n                /* \"smart contracts/v2-core-master/contracts/UniswapV2Pair.sol\":6675:6681  token1 */\n              sload(0x07)\n                /* \"smart contracts/v2-core-master/contracts/UniswapV2Pair.sol\":6754:6794  IERC20(_token0).balanceOf(address(this)) */\n              0x40\n              dup1\n              mload\n              shl(0xe0, 0x70a08231)\n              dup2\n              mstore\n                /* \"smart contracts/v2-core-master/contracts/UniswapV2Pair.sol\":6788:6792  this */\n              address\n                /* \"smart contracts/v2-core-master/contracts/UniswapV2Pair.sol\":6754:6794  IERC20(_token0).balanceOf(address(this)) */\n              0x04\n              dup3\n              add\n              mstore\n              swap1\n              mload\n                /* \"smart contracts/v2-core-master/contracts/UniswapV2Pair.sol\":6495:6550  (uint112 _reserve0, uint112 _reserve1,) = getReserves() */\n              swap5\n              swap7\n              pop\n              swap3\n              swap5\n              pop\n              sub(shl(0xa0, 0x01), 0x01)\n                /* \"smart contracts/v2-core-master/contracts/UniswapV2Pair.sol\":6594:6600  token0 */\n              swap2\n              dup3\n              and\n              swap4\n                /* \"smart contracts/v2-core-master/contracts/UniswapV2Pair.sol\":6675:6681  token1 */\n              swap2\n              and\n              swap2\n              0x00\n              swap2\n                /* \"smart contracts/v2-core-master/contracts/UniswapV2Pair.sol\":6594:6600  token0 */\n              dup5\n              swap2\n              0x70a08231\n              swap2\n                /* \"smart contracts/v2-core-master/contracts/UniswapV2Pair.sol\":6754:6794  IERC20(_token0).balanceOf(address(this)) */\n              0x24\n              dup1\n              dup4\n              add\n              swap3\n              0x20\n              swap3\n              swap2\n              swap1\n              dup3\n              swap1\n              sub\n              add\n              dup2\n                /* \"smart contracts/v2-core-master/contracts/UniswapV2Pair.sol\":6594:6600  token0 */\n              dup7\n                /* \"smart contracts/v2-core-master/contracts/UniswapV2Pair.sol\":6754:6794  IERC20(_token0).balanceOf(address(this)) */\n              dup1\n              extcodesize\n              iszero\n                /* \"--CODEGEN--\":5:7   */\n              dup1\n              iszero\n              tag_205\n              jumpi\n                /* \"--CODEGEN--\":30:31   */\n              0x00\n                /* \"--CODEGEN--\":27:28   */\n              dup1\n                /* \"--CODEGEN--\":20:32   */\n              revert\n                /* \"--CODEGEN--\":5:7   */\n            tag_205:\n                /* \"smart contracts/v2-core-master/contracts/UniswapV2Pair.sol\":6754:6794  IERC20(_token0).balanceOf(address(this)) */\n              pop\n              gas\n              staticcall\n              iszero\n                /* \"--CODEGEN--\":8:17   */\n              dup1\n                /* \"--CODEGEN--\":5:7   */\n              iszero\n              tag_206\n              jumpi\n                /* \"--CODEGEN--\":45:61   */\n              returndatasize\n                /* \"--CODEGEN--\":42:43   */\n              0x00\n                /* \"--CODEGEN--\":39:40   */\n              dup1\n                /* \"--CODEGEN--\":24:62   */\n              returndatacopy\n                /* \"--CODEGEN--\":77:93   */\n              returndatasize\n                /* \"--CODEGEN--\":74:75   */\n              0x00\n                /* \"--CODEGEN--\":67:94   */\n              revert\n                /* \"--CODEGEN--\":5:7   */\n            tag_206:\n                /* \"smart contracts/v2-core-master/contracts/UniswapV2Pair.sol\":6754:6794  IERC20(_token0).balanceOf(address(this)) */\n              pop\n              pop\n              pop\n              pop\n              mload(0x40)\n              returndatasize\n                /* \"--CODEGEN--\":13:15   */\n              0x20\n                /* \"--CODEGEN--\":8:11   */\n              dup2\n                /* \"--CODEGEN--\":5:16   */\n              lt\n                /* \"--CODEGEN--\":2:4   */\n              iszero\n              tag_207\n              jumpi\n                /* \"--CODEGEN--\":29:30   */\n              0x00\n                /* \"--CODEGEN--\":26:27   */\n              dup1\n                /* \"--CODEGEN--\":19:31   */\n              revert\n                /* \"--CODEGEN--\":2:4   */\n            tag_207:\n              pop\n                /* \"smart contracts/v2-core-master/contracts/UniswapV2Pair.sol\":6754:6794  IERC20(_token0).balanceOf(address(this)) */\n              mload\n                /* \"smart contracts/v2-core-master/contracts/UniswapV2Pair.sol\":6821:6861  IERC20(_token1).balanceOf(address(this)) */\n              0x40\n              dup1\n              mload\n              shl(0xe0, 0x70a08231)\n              dup2\n              mstore\n                /* \"smart contracts/v2-core-master/contracts/UniswapV2Pair.sol\":6855:6859  this */\n              address\n                /* \"smart contracts/v2-core-master/contracts/UniswapV2Pair.sol\":6821:6861  IERC20(_token1).balanceOf(address(this)) */\n              0x04\n              dup3\n              add\n              mstore\n              swap1\n              mload\n                /* \"smart contracts/v2-core-master/contracts/UniswapV2Pair.sol\":6754:6794  IERC20(_token0).balanceOf(address(this)) */\n              swap2\n              swap3\n              pop\n              0x00\n              swap2\n              sub(shl(0xa0, 0x01), 0x01)\n                /* \"smart contracts/v2-core-master/contracts/UniswapV2Pair.sol\":6821:6846  IERC20(_token1).balanceOf */\n              dup6\n              and\n              swap2\n              0x70a08231\n              swap2\n                /* \"smart contracts/v2-core-master/contracts/UniswapV2Pair.sol\":6821:6861  IERC20(_token1).balanceOf(address(this)) */\n              0x24\n              dup1\n              dup4\n              add\n              swap3\n                /* \"smart contracts/v2-core-master/contracts/UniswapV2Pair.sol\":6754:6794  IERC20(_token0).balanceOf(address(this)) */\n              0x20\n              swap3\n                /* \"smart contracts/v2-core-master/contracts/UniswapV2Pair.sol\":6821:6861  IERC20(_token1).balanceOf(address(this)) */\n              swap2\n              swap1\n              dup3\n              swap1\n              sub\n              add\n              dup2\n                /* \"smart contracts/v2-core-master/contracts/UniswapV2Pair.sol\":6821:6846  IERC20(_token1).balanceOf */\n              dup7\n                /* \"smart contracts/v2-core-master/contracts/UniswapV2Pair.sol\":6821:6861  IERC20(_token1).balanceOf(address(this)) */\n              dup1\n              extcodesize\n              iszero\n                /* \"--CODEGEN--\":5:7   */\n              dup1\n              iszero\n              tag_208\n              jumpi\n                /* \"--CODEGEN--\":30:31   */\n              0x00\n                /* \"--CODEGEN--\":27:28   */\n              dup1\n                /* \"--CODEGEN--\":20:32   */\n              revert\n                /* \"--CODEGEN--\":5:7   */\n            tag_208:\n                /* \"smart contracts/v2-core-master/contracts/UniswapV2Pair.sol\":6821:6861  IERC20(_token1).balanceOf(address(this)) */\n              pop\n              gas\n              staticcall\n              iszero\n                /* \"--CODEGEN--\":8:17   */\n              dup1\n                /* \"--CODEGEN--\":5:7   */\n              iszero\n              tag_209\n              jumpi\n                /* \"--CODEGEN--\":45:61   */\n              returndatasize\n                /* \"--CODEGEN--\":42:43   */\n              0x00\n                /* \"--CODEGEN--\":39:40   */\n              dup1\n                /* \"--CODEGEN--\":24:62   */\n              returndatacopy\n                /* \"--CODEGEN--\":77:93   */\n              returndatasize\n                /* \"--CODEGEN--\":74:75   */\n              0x00\n                /* \"--CODEGEN--\":67:94   */\n              revert\n                /* \"--CODEGEN--\":5:7   */\n            tag_209:\n                /* \"smart contracts/v2-core-master/contracts/UniswapV2Pair.sol\":6821:6861  IERC20(_token1).balanceOf(address(this)) */\n              pop\n              pop\n              pop\n              pop\n              mload(0x40)\n              returndatasize\n                /* \"--CODEGEN--\":13:15   */\n              0x20\n                /* \"--CODEGEN--\":8:11   */\n              dup2\n                /* \"--CODEGEN--\":5:16   */\n              lt\n                /* \"--CODEGEN--\":2:4   */\n              iszero\n              tag_210\n              jumpi\n                /* \"--CODEGEN--\":29:30   */\n              0x00\n                /* \"--CODEGEN--\":26:27   */\n              dup1\n                /* \"--CODEGEN--\":19:31   */\n              revert\n                /* \"--CODEGEN--\":2:4   */\n            tag_210:\n              pop\n                /* \"smart contracts/v2-core-master/contracts/UniswapV2Pair.sol\":6821:6861  IERC20(_token1).balanceOf(address(this)) */\n              mload\n                /* \"smart contracts/v2-core-master/contracts/UniswapV2Pair.sol\":6907:6911  this */\n              address\n                /* \"smart contracts/v2-core-master/contracts/UniswapV2Pair.sol\":6872:6886  uint liquidity */\n              0x00\n                /* \"smart contracts/v2-core-master/contracts/UniswapV2Pair.sol\":6889:6913  balanceOf[address(this)] */\n              swap1\n              dup2\n              mstore\n                /* \"smart contracts/v2-core-master/contracts/UniswapV2Pair.sol\":6889:6898  balanceOf */\n              0x01\n                /* \"smart contracts/v2-core-master/contracts/UniswapV2Pair.sol\":6821:6861  IERC20(_token1).balanceOf(address(this)) */\n              0x20\n                /* \"smart contracts/v2-core-master/contracts/UniswapV2Pair.sol\":6889:6913  balanceOf[address(this)] */\n              mstore\n              0x40\n              dup2\n              keccak256\n              sload\n                /* \"smart contracts/v2-core-master/contracts/UniswapV2Pair.sol\":6821:6861  IERC20(_token1).balanceOf(address(this)) */\n              swap2\n              swap3\n              pop\n                /* \"smart contracts/v2-core-master/contracts/UniswapV2Pair.sol\":6939:6969  _mintFee(_reserve0, _reserve1) */\n              tag_211\n                /* \"smart contracts/v2-core-master/contracts/UniswapV2Pair.sol\":6948:6957  _reserve0 */\n              dup9\n                /* \"smart contracts/v2-core-master/contracts/UniswapV2Pair.sol\":6959:6968  _reserve1 */\n              dup9\n                /* \"smart contracts/v2-core-master/contracts/UniswapV2Pair.sol\":6939:6947  _mintFee */\n              tag_181\n                /* \"smart contracts/v2-core-master/contracts/UniswapV2Pair.sol\":6939:6969  _mintFee(_reserve0, _reserve1) */\n              jump\t// in\n            tag_211:\n                /* \"smart contracts/v2-core-master/contracts/UniswapV2Pair.sol\":6980:6997  uint _totalSupply */\n              0x00\n                /* \"smart contracts/v2-core-master/contracts/UniswapV2Pair.sol\":7000:7011  totalSupply */\n              sload\n                /* \"smart contracts/v2-core-master/contracts/UniswapV2Pair.sol\":6926:6969  bool feeOn = _mintFee(_reserve0, _reserve1) */\n              swap1\n              swap2\n              pop\n                /* \"smart contracts/v2-core-master/contracts/UniswapV2Pair.sol\":7000:7011  totalSupply */\n              dup1\n                /* \"smart contracts/v2-core-master/contracts/UniswapV2Pair.sol\":7110:7133  liquidity.mul(balance0) */\n              tag_212\n                /* \"smart contracts/v2-core-master/contracts/UniswapV2Pair.sol\":7110:7119  liquidity */\n              dup5\n                /* \"smart contracts/v2-core-master/contracts/UniswapV2Pair.sol\":7124:7132  balance0 */\n              dup8\n                /* \"smart contracts/v2-core-master/contracts/UniswapV2Pair.sol\":7110:7133  liquidity.mul(balance0) */\n              0xffffffff\n                /* \"smart contracts/v2-core-master/contracts/UniswapV2Pair.sol\":7110:7123  liquidity.mul */\n              tag_145\n                /* \"smart contracts/v2-core-master/contracts/UniswapV2Pair.sol\":7110:7133  liquidity.mul(balance0) */\n              and\n              jump\t// in\n            tag_212:\n                /* \"smart contracts/v2-core-master/contracts/UniswapV2Pair.sol\":7110:7148  liquidity.mul(balance0) / _totalSupply */\n              dup2\n              tag_213\n              jumpi\n              invalid\n            tag_213:\n              div\n              swap11\n              pop\n                /* \"smart contracts/v2-core-master/contracts/UniswapV2Pair.sol\":7243:7255  _totalSupply */\n              dup1\n                /* \"smart contracts/v2-core-master/contracts/UniswapV2Pair.sol\":7217:7240  liquidity.mul(balance1) */\n              tag_214\n                /* \"smart contracts/v2-core-master/contracts/UniswapV2Pair.sol\":7217:7226  liquidity */\n              dup5\n                /* \"smart contracts/v2-core-master/contracts/UniswapV2Pair.sol\":7231:7239  balance1 */\n              dup7\n                /* \"smart contracts/v2-core-master/contracts/UniswapV2Pair.sol\":7217:7240  liquidity.mul(balance1) */\n              0xffffffff\n                /* \"smart contracts/v2-core-master/contracts/UniswapV2Pair.sol\":7217:7230  liquidity.mul */\n              tag_145\n                /* \"smart contracts/v2-core-master/contracts/UniswapV2Pair.sol\":7217:7240  liquidity.mul(balance1) */\n              and\n              jump\t// in\n            tag_214:\n                /* \"smart contracts/v2-core-master/contracts/UniswapV2Pair.sol\":7217:7255  liquidity.mul(balance1) / _totalSupply */\n              dup2\n              tag_215\n              jumpi\n              invalid\n            tag_215:\n              div\n                /* \"smart contracts/v2-core-master/contracts/UniswapV2Pair.sol\":7207:7255  amount1 = liquidity.mul(balance1) / _totalSupply */\n              swap10\n              pop\n                /* \"smart contracts/v2-core-master/contracts/UniswapV2Pair.sol\":7332:7333  0 */\n              0x00\n                /* \"smart contracts/v2-core-master/contracts/UniswapV2Pair.sol\":7322:7329  amount0 */\n              dup12\n                /* \"smart contracts/v2-core-master/contracts/UniswapV2Pair.sol\":7322:7333  amount0 > 0 */\n              gt\n                /* \"smart contracts/v2-core-master/contracts/UniswapV2Pair.sol\":7322:7348  amount0 > 0 && amount1 > 0 */\n              dup1\n              iszero\n              tag_216\n              jumpi\n              pop\n                /* \"smart contracts/v2-core-master/contracts/UniswapV2Pair.sol\":7347:7348  0 */\n              0x00\n                /* \"smart contracts/v2-core-master/contracts/UniswapV2Pair.sol\":7337:7344  amount1 */\n              dup11\n                /* \"smart contracts/v2-core-master/contracts/UniswapV2Pair.sol\":7337:7348  amount1 > 0 */\n              gt\n                /* \"smart contracts/v2-core-master/contracts/UniswapV2Pair.sol\":7322:7348  amount0 > 0 && amount1 > 0 */\n            tag_216:\n                /* \"smart contracts/v2-core-master/contracts/UniswapV2Pair.sol\":7314:7393  require(amount0 > 0 && amount1 > 0, 'UniswapV2: INSUFFICIENT_LIQUIDITY_BURNED') */\n              tag_217\n              jumpi\n              mload(0x40)\n              shl(0xe5, 0x461bcd)\n              dup2\n              mstore\n              0x04\n              add\n              dup1\n              dup1\n              0x20\n              add\n              dup3\n              dup2\n              sub\n              dup3\n              mstore\n              0x28\n              dup2\n              mstore\n              0x20\n              add\n              dup1\n              data_57ebfb4dd8b5082cdba0f23c17077e3b0ecb9782a51e0e9a15e9bc8c4b30c562\n              0x28\n              swap2\n              codecopy\n              0x40\n              add\n              swap2\n              pop\n              pop\n              mload(0x40)\n              dup1\n              swap2\n              sub\n              swap1\n              revert\n            tag_217:\n                /* \"smart contracts/v2-core-master/contracts/UniswapV2Pair.sol\":7404:7435  _burn(address(this), liquidity) */\n              tag_218\n                /* \"smart contracts/v2-core-master/contracts/UniswapV2Pair.sol\":7418:7422  this */\n              address\n                /* \"smart contracts/v2-core-master/contracts/UniswapV2Pair.sol\":7425:7434  liquidity */\n              dup5\n                /* \"smart contracts/v2-core-master/contracts/UniswapV2Pair.sol\":7404:7409  _burn */\n              tag_219\n                /* \"smart contracts/v2-core-master/contracts/UniswapV2Pair.sol\":7404:7435  _burn(address(this), liquidity) */\n              jump\t// in\n            tag_218:\n                /* \"smart contracts/v2-core-master/contracts/UniswapV2Pair.sol\":7446:7481  _safeTransfer(_token0, to, amount0) */\n              tag_220\n                /* \"smart contracts/v2-core-master/contracts/UniswapV2Pair.sol\":7460:7467  _token0 */\n              dup8\n                /* \"smart contracts/v2-core-master/contracts/UniswapV2Pair.sol\":7469:7471  to */\n              dup14\n                /* \"smart contracts/v2-core-master/contracts/UniswapV2Pair.sol\":7473:7480  amount0 */\n              dup14\n                /* \"smart contracts/v2-core-master/contracts/UniswapV2Pair.sol\":7446:7459  _safeTransfer */\n              tag_125\n                /* \"smart contracts/v2-core-master/contracts/UniswapV2Pair.sol\":7446:7481  _safeTransfer(_token0, to, amount0) */\n              jump\t// in\n            tag_220:\n                /* \"smart contracts/v2-core-master/contracts/UniswapV2Pair.sol\":7492:7527  _safeTransfer(_token1, to, amount1) */\n              tag_221\n                /* \"smart contracts/v2-core-master/contracts/UniswapV2Pair.sol\":7506:7513  _token1 */\n              dup7\n                /* \"smart contracts/v2-core-master/contracts/UniswapV2Pair.sol\":7515:7517  to */\n              dup14\n                /* \"smart contracts/v2-core-master/contracts/UniswapV2Pair.sol\":7519:7526  amount1 */\n              dup13\n                /* \"smart contracts/v2-core-master/contracts/UniswapV2Pair.sol\":7492:7505  _safeTransfer */\n              tag_125\n                /* \"smart contracts/v2-core-master/contracts/UniswapV2Pair.sol\":7492:7527  _safeTransfer(_token1, to, amount1) */\n              jump\t// in\n            tag_221:\n                /* \"smart contracts/v2-core-master/contracts/UniswapV2Pair.sol\":7549:7589  IERC20(_token0).balanceOf(address(this)) */\n              0x40\n              dup1\n              mload\n              shl(0xe0, 0x70a08231)\n              dup2\n              mstore\n                /* \"smart contracts/v2-core-master/contracts/UniswapV2Pair.sol\":7583:7587  this */\n              address\n                /* \"smart contracts/v2-core-master/contracts/UniswapV2Pair.sol\":7549:7589  IERC20(_token0).balanceOf(address(this)) */\n              0x04\n              dup3\n              add\n              mstore\n              swap1\n              mload\n              sub(shl(0xa0, 0x01), 0x01)\n                /* \"smart contracts/v2-core-master/contracts/UniswapV2Pair.sol\":7549:7574  IERC20(_token0).balanceOf */\n              dup10\n              and\n              swap2\n              0x70a08231\n              swap2\n                /* \"smart contracts/v2-core-master/contracts/UniswapV2Pair.sol\":7549:7589  IERC20(_token0).balanceOf(address(this)) */\n              0x24\n              dup1\n              dup4\n              add\n              swap3\n              0x20\n              swap3\n              swap2\n              swap1\n              dup3\n              swap1\n              sub\n              add\n              dup2\n                /* \"smart contracts/v2-core-master/contracts/UniswapV2Pair.sol\":7549:7574  IERC20(_token0).balanceOf */\n              dup7\n                /* \"smart contracts/v2-core-master/contracts/UniswapV2Pair.sol\":7549:7589  IERC20(_token0).balanceOf(address(this)) */\n              dup1\n              extcodesize\n              iszero\n                /* \"--CODEGEN--\":5:7   */\n              dup1\n              iszero\n              tag_222\n              jumpi\n                /* \"--CODEGEN--\":30:31   */\n              0x00\n                /* \"--CODEGEN--\":27:28   */\n              dup1\n                /* \"--CODEGEN--\":20:32   */\n              revert\n                /* \"--CODEGEN--\":5:7   */\n            tag_222:\n                /* \"smart contracts/v2-core-master/contracts/UniswapV2Pair.sol\":7549:7589  IERC20(_token0).balanceOf(address(this)) */\n              pop\n              gas\n              staticcall\n              iszero\n                /* \"--CODEGEN--\":8:17   */\n              dup1\n                /* \"--CODEGEN--\":5:7   */\n              iszero\n              tag_223\n              jumpi\n                /* \"--CODEGEN--\":45:61   */\n              returndatasize\n                /* \"--CODEGEN--\":42:43   */\n              0x00\n                /* \"--CODEGEN--\":39:40   */\n              dup1\n                /* \"--CODEGEN--\":24:62   */\n              returndatacopy\n                /* \"--CODEGEN--\":77:93   */\n              returndatasize\n                /* \"--CODEGEN--\":74:75   */\n              0x00\n                /* \"--CODEGEN--\":67:94   */\n              revert\n                /* \"--CODEGEN--\":5:7   */\n            tag_223:\n                /* \"smart contracts/v2-core-master/contracts/UniswapV2Pair.sol\":7549:7589  IERC20(_token0).balanceOf(address(this)) */\n              pop\n              pop\n              pop\n              pop\n              mload(0x40)\n              returndatasize\n                /* \"--CODEGEN--\":13:15   */\n              0x20\n                /* \"--CODEGEN--\":8:11   */\n              dup2\n                /* \"--CODEGEN--\":5:16   */\n              lt\n                /* \"--CODEGEN--\":2:4   */\n              iszero\n              tag_224\n              jumpi\n                /* \"--CODEGEN--\":29:30   */\n              0x00\n                /* \"--CODEGEN--\":26:27   */\n              dup1\n                /* \"--CODEGEN--\":19:31   */\n              revert\n                /* \"--CODEGEN--\":2:4   */\n            tag_224:\n              pop\n                /* \"smart contracts/v2-core-master/contracts/UniswapV2Pair.sol\":7549:7589  IERC20(_token0).balanceOf(address(this)) */\n              mload\n                /* \"smart contracts/v2-core-master/contracts/UniswapV2Pair.sol\":7611:7651  IERC20(_token1).balanceOf(address(this)) */\n              0x40\n              dup1\n              mload\n              shl(0xe0, 0x70a08231)\n              dup2\n              mstore\n                /* \"smart contracts/v2-core-master/contracts/UniswapV2Pair.sol\":7645:7649  this */\n              address\n                /* \"smart contracts/v2-core-master/contracts/UniswapV2Pair.sol\":7611:7651  IERC20(_token1).balanceOf(address(this)) */\n              0x04\n              dup3\n              add\n              mstore\n              swap1\n              mload\n                /* \"smart contracts/v2-core-master/contracts/UniswapV2Pair.sol\":7549:7589  IERC20(_token0).balanceOf(address(this)) */\n              swap2\n              swap7\n              pop\n              sub(shl(0xa0, 0x01), 0x01)\n                /* \"smart contracts/v2-core-master/contracts/UniswapV2Pair.sol\":7611:7636  IERC20(_token1).balanceOf */\n              dup9\n              and\n              swap2\n              0x70a08231\n              swap2\n                /* \"smart contracts/v2-core-master/contracts/UniswapV2Pair.sol\":7611:7651  IERC20(_token1).balanceOf(address(this)) */\n              0x24\n              dup1\n              dup3\n              add\n              swap3\n                /* \"smart contracts/v2-core-master/contracts/UniswapV2Pair.sol\":7549:7589  IERC20(_token0).balanceOf(address(this)) */\n              0x20\n              swap3\n                /* \"smart contracts/v2-core-master/contracts/UniswapV2Pair.sol\":7611:7651  IERC20(_token1).balanceOf(address(this)) */\n              swap1\n              swap2\n              swap1\n              dup3\n              swap1\n              sub\n              add\n              dup2\n                /* \"smart contracts/v2-core-master/contracts/UniswapV2Pair.sol\":7611:7636  IERC20(_token1).balanceOf */\n              dup7\n                /* \"smart contracts/v2-core-master/contracts/UniswapV2Pair.sol\":7611:7651  IERC20(_token1).balanceOf(address(this)) */\n              dup1\n              extcodesize\n              iszero\n                /* \"--CODEGEN--\":5:7   */\n              dup1\n              iszero\n              tag_225\n              jumpi\n                /* \"--CODEGEN--\":30:31   */\n              0x00\n                /* \"--CODEGEN--\":27:28   */\n              dup1\n                /* \"--CODEGEN--\":20:32   */\n              revert\n                /* \"--CODEGEN--\":5:7   */\n            tag_225:\n                /* \"smart contracts/v2-core-master/contracts/UniswapV2Pair.sol\":7611:7651  IERC20(_token1).balanceOf(address(this)) */\n              pop\n              gas\n              staticcall\n              iszero\n                /* \"--CODEGEN--\":8:17   */\n              dup1\n                /* \"--CODEGEN--\":5:7   */\n              iszero\n              tag_226\n              jumpi\n                /* \"--CODEGEN--\":45:61   */\n              returndatasize\n                /* \"--CODEGEN--\":42:43   */\n              0x00\n                /* \"--CODEGEN--\":39:40   */\n              dup1\n                /* \"--CODEGEN--\":24:62   */\n              returndatacopy\n                /* \"--CODEGEN--\":77:93   */\n              returndatasize\n                /* \"--CODEGEN--\":74:75   */\n              0x00\n                /* \"--CODEGEN--\":67:94   */\n              revert\n                /* \"--CODEGEN--\":5:7   */\n            tag_226:\n                /* \"smart contracts/v2-core-master/contracts/UniswapV2Pair.sol\":7611:7651  IERC20(_token1).balanceOf(address(this)) */\n              pop\n              pop\n              pop\n              pop\n              mload(0x40)\n              returndatasize\n                /* \"--CODEGEN--\":13:15   */\n              0x20\n                /* \"--CODEGEN--\":8:11   */\n              dup2\n                /* \"--CODEGEN--\":5:16   */\n              lt\n                /* \"--CODEGEN--\":2:4   */\n              iszero\n              tag_227\n              jumpi\n                /* \"--CODEGEN--\":29:30   */\n              0x00\n                /* \"--CODEGEN--\":26:27   */\n              dup1\n                /* \"--CODEGEN--\":19:31   */\n              revert\n                /* \"--CODEGEN--\":2:4   */\n            tag_227:\n              pop\n                /* \"smart contracts/v2-core-master/contracts/UniswapV2Pair.sol\":7611:7651  IERC20(_token1).balanceOf(address(this)) */\n              mload\n              swap4\n              pop\n                /* \"smart contracts/v2-core-master/contracts/UniswapV2Pair.sol\":7664:7713  _update(balance0, balance1, _reserve0, _reserve1) */\n              tag_228\n                /* \"smart contracts/v2-core-master/contracts/UniswapV2Pair.sol\":7672:7680  balance0 */\n              dup6\n                /* \"smart contracts/v2-core-master/contracts/UniswapV2Pair.sol\":7611:7651  IERC20(_token1).balanceOf(address(this)) */\n              dup6\n                /* \"smart contracts/v2-core-master/contracts/UniswapV2Pair.sol\":7692:7701  _reserve0 */\n              dup12\n                /* \"smart contracts/v2-core-master/contracts/UniswapV2Pair.sol\":7703:7712  _reserve1 */\n              dup12\n                /* \"smart contracts/v2-core-master/contracts/UniswapV2Pair.sol\":7664:7671  _update */\n              tag_156\n                /* \"smart contracts/v2-core-master/contracts/UniswapV2Pair.sol\":7664:7713  _update(balance0, balance1, _reserve0, _reserve1) */\n              jump\t// in\n            tag_228:\n                /* \"smart contracts/v2-core-master/contracts/UniswapV2Pair.sol\":7728:7733  feeOn */\n              dup2\n                /* \"smart contracts/v2-core-master/contracts/UniswapV2Pair.sol\":7724:7771  if (feeOn) kLast = uint(reserve0).mul(reserve1) */\n              iszero\n              tag_229\n              jumpi\n                /* \"smart contracts/v2-core-master/contracts/UniswapV2Pair.sol\":7762:7770  reserve1 */\n              sload(0x08)\n                /* \"smart contracts/v2-core-master/contracts/UniswapV2Pair.sol\":7743:7771  uint(reserve0).mul(reserve1) */\n              tag_230\n              swap1\n              sub(shl(0x70, 0x01), 0x01)\n                /* \"smart contracts/v2-core-master/contracts/UniswapV2Pair.sol\":7748:7756  reserve0 */\n              dup1\n              dup3\n              and\n              swap2\n              shl(0x70, 0x01)\n                /* \"smart contracts/v2-core-master/contracts/UniswapV2Pair.sol\":7762:7770  reserve1 */\n              swap1\n              div\n              and\n                /* \"smart contracts/v2-core-master/contracts/UniswapV2Pair.sol\":7743:7761  uint(reserve0).mul */\n              tag_145\n                /* \"smart contracts/v2-core-master/contracts/UniswapV2Pair.sol\":7743:7771  uint(reserve0).mul(reserve1) */\n              jump\t// in\n            tag_230:\n                /* \"smart contracts/v2-core-master/contracts/UniswapV2Pair.sol\":7735:7740  kLast */\n              0x0b\n                /* \"smart contracts/v2-core-master/contracts/UniswapV2Pair.sol\":7735:7771  kLast = uint(reserve0).mul(reserve1) */\n              sstore\n                /* \"smart contracts/v2-core-master/contracts/UniswapV2Pair.sol\":7724:7771  if (feeOn) kLast = uint(reserve0).mul(reserve1) */\n            tag_229:\n                /* \"smart contracts/v2-core-master/contracts/UniswapV2Pair.sol\":7827:7865  Burn(msg.sender, amount0, amount1, to) */\n              0x40\n              dup1\n              mload\n              dup13\n              dup2\n              mstore\n              0x20\n              dup2\n              add\n              dup13\n              swap1\n              mstore\n              dup2\n              mload\n              sub(shl(0xa0, 0x01), 0x01)\n              dup16\n              and\n              swap3\n                /* \"smart contracts/v2-core-master/contracts/UniswapV2Pair.sol\":7832:7842  msg.sender */\n              caller\n              swap3\n                /* \"smart contracts/v2-core-master/contracts/UniswapV2Pair.sol\":7827:7865  Burn(msg.sender, amount0, amount1, to) */\n              0xdccd412f0b1252819cb1fd330b93224ca42612892bb3f4f789976e6d81936496\n              swap3\n              swap1\n              dup2\n              swap1\n              sub\n              swap1\n              swap2\n              add\n              swap1\n              log3\n                /* \"smart contracts/v2-core-master/contracts/UniswapV2Pair.sol\":1282:1283  _ */\n              pop\n              pop\n              pop\n              pop\n              pop\n              pop\n              pop\n              pop\n              pop\n                /* \"smart contracts/v2-core-master/contracts/UniswapV2Pair.sol\":1305:1306  1 */\n              0x01\n                /* \"smart contracts/v2-core-master/contracts/UniswapV2Pair.sol\":1294:1302  unlocked */\n              0x0c\n                /* \"smart contracts/v2-core-master/contracts/UniswapV2Pair.sol\":1294:1306  unlocked = 1 */\n              dup2\n              swap1\n              sstore\n              pop\n                /* \"smart contracts/v2-core-master/contracts/UniswapV2Pair.sol\":6407:7873  function burn(address to) external lock returns (uint amount0, uint amount1) {\r... */\n              swap2\n              pop\n              swap2\n              jump\t// out\n                /* \"smart contracts/v2-core-master/contracts/UniswapV2ERC20.sol\":242:280  string public constant symbol = 'HEXX' */\n            tag_88:\n              0x40\n              dup1\n              mload\n              dup1\n              dup3\n              add\n              swap1\n              swap2\n              mstore\n              0x04\n              dup2\n              mstore\n              shl(0xe3, 0x0908ab0b)\n              0x20\n              dup3\n              add\n              mstore\n              dup2\n              jump\t// out\n                /* \"smart contracts/v2-core-master/contracts/UniswapV2ERC20.sol\":2393:2532  function transfer(address to, uint value) external returns (bool) {\r... */\n            tag_95:\n                /* \"smart contracts/v2-core-master/contracts/UniswapV2ERC20.sol\":2453:2457  bool */\n              0x00\n                /* \"smart contracts/v2-core-master/contracts/UniswapV2ERC20.sol\":2470:2502  _transfer(msg.sender, to, value) */\n              tag_159\n                /* \"smart contracts/v2-core-master/contracts/UniswapV2ERC20.sol\":2480:2490  msg.sender */\n              caller\n                /* \"smart contracts/v2-core-master/contracts/UniswapV2ERC20.sol\":2492:2494  to */\n              dup5\n                /* \"smart contracts/v2-core-master/contracts/UniswapV2ERC20.sol\":2496:2501  value */\n              dup5\n                /* \"smart contracts/v2-core-master/contracts/UniswapV2ERC20.sol\":2470:2479  _transfer */\n              tag_165\n                /* \"smart contracts/v2-core-master/contracts/UniswapV2ERC20.sol\":2470:2502  _transfer(msg.sender, to, value) */\n              jump\t// in\n                /* \"smart contracts/v2-core-master/contracts/UniswapV2Pair.sol\":432:478  uint public constant MINIMUM_LIQUIDITY = 10**3 */\n            tag_97:\n                /* \"smart contracts/v2-core-master/contracts/UniswapV2Pair.sol\":473:478  10**3 */\n              0x03e8\n                /* \"smart contracts/v2-core-master/contracts/UniswapV2Pair.sol\":432:478  uint public constant MINIMUM_LIQUIDITY = 10**3 */\n              dup2\n              jump\t// out\n                /* \"smart contracts/v2-core-master/contracts/UniswapV2Pair.sol\":9923:10257  function skim(address to) external lock {\r... */\n            tag_100:\n                /* \"smart contracts/v2-core-master/contracts/UniswapV2Pair.sol\":1213:1221  unlocked */\n              sload(0x0c)\n                /* \"smart contracts/v2-core-master/contracts/UniswapV2Pair.sol\":1225:1226  1 */\n              0x01\n                /* \"smart contracts/v2-core-master/contracts/UniswapV2Pair.sol\":1213:1226  unlocked == 1 */\n              eq\n                /* \"smart contracts/v2-core-master/contracts/UniswapV2Pair.sol\":1205:1248  require(unlocked == 1, 'UniswapV2: LOCKED') */\n              tag_234\n              jumpi\n              0x40\n              dup1\n              mload\n              shl(0xe5, 0x461bcd)\n              dup2\n              mstore\n              0x20\n              0x04\n              dup3\n              add\n              mstore\n              0x11\n              0x24\n              dup3\n              add\n              mstore\n              shl(0x7a, 0x155b9a5cddd85c158c8e881313d0d2d151)\n              0x44\n              dup3\n              add\n              mstore\n              swap1\n              mload\n              swap1\n              dup2\n              swap1\n              sub\n              0x64\n              add\n              swap1\n              revert\n            tag_234:\n                /* \"smart contracts/v2-core-master/contracts/UniswapV2Pair.sol\":1270:1271  0 */\n              0x00\n                /* \"smart contracts/v2-core-master/contracts/UniswapV2Pair.sol\":1259:1267  unlocked */\n              0x0c\n                /* \"smart contracts/v2-core-master/contracts/UniswapV2Pair.sol\":1259:1271  unlocked = 0 */\n              sstore\n                /* \"smart contracts/v2-core-master/contracts/UniswapV2Pair.sol\":9992:9998  token0 */\n              sload(0x06)\n                /* \"smart contracts/v2-core-master/contracts/UniswapV2Pair.sol\":10042:10048  token1 */\n              sload(0x07)\n                /* \"smart contracts/v2-core-master/contracts/UniswapV2Pair.sol\":10146:10154  reserve0 */\n              sload(0x08)\n                /* \"smart contracts/v2-core-master/contracts/UniswapV2Pair.sol\":10101:10141  IERC20(_token0).balanceOf(address(this)) */\n              0x40\n              dup1\n              mload\n              shl(0xe0, 0x70a08231)\n              dup2\n              mstore\n                /* \"smart contracts/v2-core-master/contracts/UniswapV2Pair.sol\":10135:10139  this */\n              address\n                /* \"smart contracts/v2-core-master/contracts/UniswapV2Pair.sol\":10101:10141  IERC20(_token0).balanceOf(address(this)) */\n              0x04\n              dup3\n              add\n              mstore\n              swap1\n              mload\n              sub(shl(0xa0, 0x01), 0x01)\n                /* \"smart contracts/v2-core-master/contracts/UniswapV2Pair.sol\":9992:9998  token0 */\n              swap5\n              dup6\n              and\n              swap5\n                /* \"smart contracts/v2-core-master/contracts/UniswapV2Pair.sol\":10042:10048  token1 */\n              swap1\n              swap4\n              and\n              swap3\n                /* \"smart contracts/v2-core-master/contracts/UniswapV2Pair.sol\":10074:10156  _safeTransfer(_token0, to, IERC20(_token0).balanceOf(address(this)).sub(reserve0)) */\n              tag_236\n              swap3\n                /* \"smart contracts/v2-core-master/contracts/UniswapV2Pair.sol\":9992:9998  token0 */\n              dup6\n              swap3\n                /* \"smart contracts/v2-core-master/contracts/UniswapV2Pair.sol\":10097:10099  to */\n              dup8\n              swap3\n                /* \"smart contracts/v2-core-master/contracts/UniswapV2Pair.sol\":10101:10155  IERC20(_token0).balanceOf(address(this)).sub(reserve0) */\n              tag_237\n              swap3\n              sub(shl(0x70, 0x01), 0x01)\n                /* \"smart contracts/v2-core-master/contracts/UniswapV2Pair.sol\":10146:10154  reserve0 */\n              and\n              swap2\n                /* \"smart contracts/v2-core-master/contracts/UniswapV2Pair.sol\":9992:9998  token0 */\n              dup6\n              swap2\n              0x70a08231\n              swap2\n                /* \"smart contracts/v2-core-master/contracts/UniswapV2Pair.sol\":10101:10141  IERC20(_token0).balanceOf(address(this)) */\n              0x24\n              dup1\n              dup3\n              add\n              swap3\n              0x20\n              swap3\n              swap1\n              swap2\n              swap1\n              dup3\n              swap1\n              sub\n              add\n              dup2\n                /* \"smart contracts/v2-core-master/contracts/UniswapV2Pair.sol\":9992:9998  token0 */\n              dup7\n                /* \"smart contracts/v2-core-master/contracts/UniswapV2Pair.sol\":10101:10141  IERC20(_token0).balanceOf(address(this)) */\n              dup1\n              extcodesize\n              iszero\n                /* \"--CODEGEN--\":5:7   */\n              dup1\n              iszero\n              tag_238\n              jumpi\n                /* \"--CODEGEN--\":30:31   */\n              0x00\n                /* \"--CODEGEN--\":27:28   */\n              dup1\n                /* \"--CODEGEN--\":20:32   */\n              revert\n                /* \"--CODEGEN--\":5:7   */\n            tag_238:\n                /* \"smart contracts/v2-core-master/contracts/UniswapV2Pair.sol\":10101:10141  IERC20(_token0).balanceOf(address(this)) */\n              pop\n              gas\n              staticcall\n              iszero\n                /* \"--CODEGEN--\":8:17   */\n              dup1\n                /* \"--CODEGEN--\":5:7   */\n              iszero\n              tag_239\n              jumpi\n                /* \"--CODEGEN--\":45:61   */\n              returndatasize\n                /* \"--CODEGEN--\":42:43   */\n              0x00\n                /* \"--CODEGEN--\":39:40   */\n              dup1\n                /* \"--CODEGEN--\":24:62   */\n              returndatacopy\n                /* \"--CODEGEN--\":77:93   */\n              returndatasize\n                /* \"--CODEGEN--\":74:75   */\n              0x00\n                /* \"--CODEGEN--\":67:94   */\n              revert\n                /* \"--CODEGEN--\":5:7   */\n            tag_239:\n                /* \"smart contracts/v2-core-master/contracts/UniswapV2Pair.sol\":10101:10141  IERC20(_token0).balanceOf(address(this)) */\n              pop\n              pop\n              pop\n              pop\n              mload(0x40)\n              returndatasize\n                /* \"--CODEGEN--\":13:15   */\n              0x20\n                /* \"--CODEGEN--\":8:11   */\n              dup2\n                /* \"--CODEGEN--\":5:16   */\n              lt\n                /* \"--CODEGEN--\":2:4   */\n              iszero\n              tag_240\n              jumpi\n                /* \"--CODEGEN--\":29:30   */\n              0x00\n                /* \"--CODEGEN--\":26:27   */\n              dup1\n                /* \"--CODEGEN--\":19:31   */\n              revert\n                /* \"--CODEGEN--\":2:4   */\n            tag_240:\n              pop\n                /* \"smart contracts/v2-core-master/contracts/UniswapV2Pair.sol\":10101:10141  IERC20(_token0).balanceOf(address(this)) */\n              mload\n              swap1\n                /* \"smart contracts/v2-core-master/contracts/UniswapV2Pair.sol\":10101:10155  IERC20(_token0).balanceOf(address(this)).sub(reserve0) */\n              0xffffffff\n                /* \"smart contracts/v2-core-master/contracts/UniswapV2Pair.sol\":10101:10145  IERC20(_token0).balanceOf(address(this)).sub */\n              tag_147\n                /* \"smart contracts/v2-core-master/contracts/UniswapV2Pair.sol\":10101:10155  IERC20(_token0).balanceOf(address(this)).sub(reserve0) */\n              and\n              jump\t// in\n            tag_237:\n                /* \"smart contracts/v2-core-master/contracts/UniswapV2Pair.sol\":10074:10087  _safeTransfer */\n              tag_125\n                /* \"smart contracts/v2-core-master/contracts/UniswapV2Pair.sol\":10074:10156  _safeTransfer(_token0, to, IERC20(_token0).balanceOf(address(this)).sub(reserve0)) */\n              jump\t// in\n            tag_236:\n                /* \"smart contracts/v2-core-master/contracts/UniswapV2Pair.sol\":10239:10247  reserve1 */\n              sload(0x08)\n                /* \"smart contracts/v2-core-master/contracts/UniswapV2Pair.sol\":10194:10234  IERC20(_token1).balanceOf(address(this)) */\n              0x40\n              dup1\n              mload\n              shl(0xe0, 0x70a08231)\n              dup2\n              mstore\n                /* \"smart contracts/v2-core-master/contracts/UniswapV2Pair.sol\":10228:10232  this */\n              address\n                /* \"smart contracts/v2-core-master/contracts/UniswapV2Pair.sol\":10194:10234  IERC20(_token1).balanceOf(address(this)) */\n              0x04\n              dup3\n              add\n              mstore\n              swap1\n              mload\n                /* \"smart contracts/v2-core-master/contracts/UniswapV2Pair.sol\":10167:10249  _safeTransfer(_token1, to, IERC20(_token1).balanceOf(address(this)).sub(reserve1)) */\n              tag_241\n              swap3\n                /* \"smart contracts/v2-core-master/contracts/UniswapV2Pair.sol\":10181:10188  _token1 */\n              dup5\n              swap3\n                /* \"smart contracts/v2-core-master/contracts/UniswapV2Pair.sol\":10190:10192  to */\n              dup8\n              swap3\n                /* \"smart contracts/v2-core-master/contracts/UniswapV2Pair.sol\":10194:10248  IERC20(_token1).balanceOf(address(this)).sub(reserve1) */\n              tag_237\n              swap3\n              shl(0x70, 0x01)\n                /* \"smart contracts/v2-core-master/contracts/UniswapV2Pair.sol\":10239:10247  reserve1 */\n              swap1\n              div\n              sub(shl(0x70, 0x01), 0x01)\n              and\n              swap2\n              sub(shl(0xa0, 0x01), 0x01)\n                /* \"smart contracts/v2-core-master/contracts/UniswapV2Pair.sol\":10194:10219  IERC20(_token1).balanceOf */\n              dup7\n              and\n              swap2\n              0x70a08231\n              swap2\n                /* \"smart contracts/v2-core-master/contracts/UniswapV2Pair.sol\":10194:10234  IERC20(_token1).balanceOf(address(this)) */\n              0x24\n              dup1\n              dup3\n              add\n              swap3\n              0x20\n              swap3\n              swap1\n              swap2\n              swap1\n              dup3\n              swap1\n              sub\n              add\n              dup2\n                /* \"smart contracts/v2-core-master/contracts/UniswapV2Pair.sol\":10194:10219  IERC20(_token1).balanceOf */\n              dup7\n                /* \"smart contracts/v2-core-master/contracts/UniswapV2Pair.sol\":10194:10234  IERC20(_token1).balanceOf(address(this)) */\n              dup1\n              extcodesize\n              iszero\n                /* \"--CODEGEN--\":5:7   */\n              dup1\n              iszero\n              tag_238\n              jumpi\n                /* \"--CODEGEN--\":30:31   */\n              0x00\n                /* \"--CODEGEN--\":27:28   */\n              dup1\n                /* \"--CODEGEN--\":20:32   */\n              revert\n                /* \"smart contracts/v2-core-master/contracts/UniswapV2Pair.sol\":10167:10249  _safeTransfer(_token1, to, IERC20(_token1).balanceOf(address(this)).sub(reserve1)) */\n            tag_241:\n              pop\n              pop\n                /* \"smart contracts/v2-core-master/contracts/UniswapV2Pair.sol\":1305:1306  1 */\n              0x01\n                /* \"smart contracts/v2-core-master/contracts/UniswapV2Pair.sol\":1294:1302  unlocked */\n              0x0c\n                /* \"smart contracts/v2-core-master/contracts/UniswapV2Pair.sol\":1294:1306  unlocked = 1 */\n              sstore\n              pop\n                /* \"smart contracts/v2-core-master/contracts/UniswapV2Pair.sol\":9923:10257  function skim(address to) external lock {\r... */\n              jump\t// out\n                /* \"smart contracts/v2-core-master/contracts/UniswapV2Pair.sol\":582:604  address public factory */\n            tag_102:\n              and(sub(shl(0xa0, 0x01), 0x01), sload(0x05))\n              dup2\n              jump\t// out\n                /* \"smart contracts/v2-core-master/contracts/UniswapV2Pair.sol\":639:660  address public token1 */\n            tag_104:\n              and(sub(shl(0xa0, 0x01), 0x01), sload(0x07))\n              dup2\n              jump\t// out\n                /* \"smart contracts/v2-core-master/contracts/UniswapV2ERC20.sol\":2849:3523  function permit(address owner, address spender, uint value, uint deadline, uint8 v, bytes32 r, bytes32 s) external {\r... */\n            tag_107:\n                /* \"smart contracts/v2-core-master/contracts/UniswapV2ERC20.sol\":2995:3010  block.timestamp */\n              timestamp\n                /* \"smart contracts/v2-core-master/contracts/UniswapV2ERC20.sol\":2983:2991  deadline */\n              dup5\n                /* \"smart contracts/v2-core-master/contracts/UniswapV2ERC20.sol\":2983:3010  deadline >= block.timestamp */\n              lt\n              iszero\n                /* \"smart contracts/v2-core-master/contracts/UniswapV2ERC20.sol\":2975:3033  require(deadline >= block.timestamp, 'UniswapV2: EXPIRED') */\n              tag_247\n              jumpi\n              0x40\n              dup1\n              mload\n              shl(0xe5, 0x461bcd)\n              dup2\n              mstore\n              0x20\n              0x04\n              dup3\n              add\n              mstore\n              0x12\n              0x24\n              dup3\n              add\n              mstore\n              shl(0x72, 0x155b9a5cddd85c158c8e8811561412549151)\n              0x44\n              dup3\n              add\n              mstore\n              swap1\n              mload\n              swap1\n              dup2\n              swap1\n              sub\n              0x64\n              add\n              swap1\n              revert\n            tag_247:\n                /* \"smart contracts/v2-core-master/contracts/UniswapV2ERC20.sol\":3149:3165  DOMAIN_SEPARATOR */\n              sload(0x03)\n              sub(shl(0xa0, 0x01), 0x01)\n                /* \"smart contracts/v2-core-master/contracts/UniswapV2ERC20.sol\":3245:3258  nonces[owner] */\n              dup9\n              dup2\n              and\n                /* \"smart contracts/v2-core-master/contracts/UniswapV2ERC20.sol\":3044:3058  bytes32 digest */\n              0x00\n                /* \"smart contracts/v2-core-master/contracts/UniswapV2ERC20.sol\":3245:3258  nonces[owner] */\n              dup2\n              dup2\n              mstore\n                /* \"smart contracts/v2-core-master/contracts/UniswapV2ERC20.sol\":3245:3251  nonces */\n              0x04\n                /* \"smart contracts/v2-core-master/contracts/UniswapV2ERC20.sol\":3245:3258  nonces[owner] */\n              0x20\n              swap1\n              dup2\n              mstore\n              0x40\n              dup1\n              dup4\n              keccak256\n                /* \"smart contracts/v2-core-master/contracts/UniswapV2ERC20.sol\":3245:3260  nonces[owner]++ */\n              dup1\n              sload\n              0x01\n              dup2\n              dup2\n              add\n              swap1\n              swap3\n              sstore\n                /* \"smart contracts/v2-core-master/contracts/UniswapV2ERC20.sol\":3194:3271  abi.encode(PERMIT_TYPEHASH, owner, spender, value, nonces[owner]++, deadline) */\n              dup3\n              mload\n                /* \"smart contracts/v2-core-master/contracts/UniswapV2ERC20.sol\":663:729  0x6e71edae12b1b97f4d1f60370fef10105fa2faae0126114a169c64845d6126c9 */\n              0x6e71edae12b1b97f4d1f60370fef10105fa2faae0126114a169c64845d6126c9\n                /* \"smart contracts/v2-core-master/contracts/UniswapV2ERC20.sol\":3194:3271  abi.encode(PERMIT_TYPEHASH, owner, spender, value, nonces[owner]++, deadline) */\n              dup2\n              dup7\n              add\n              mstore\n              dup1\n              dup5\n              add\n              swap7\n              swap1\n              swap7\n              mstore\n              swap6\n              dup14\n              and\n              0x60\n              dup7\n              add\n              mstore\n              0x80\n              dup6\n              add\n              dup13\n              swap1\n              mstore\n              0xa0\n              dup6\n              add\n              swap6\n              swap1\n              swap6\n              mstore\n              0xc0\n              dup1\n              dup6\n              add\n              dup12\n              swap1\n              mstore\n              dup2\n              mload\n                /* \"--CODEGEN--\":26:47   */\n              dup1\n              dup7\n              sub\n                /* \"--CODEGEN--\":22:54   */\n              swap1\n              swap2\n              add\n                /* \"--CODEGEN--\":6:55   */\n              dup2\n              mstore\n                /* \"smart contracts/v2-core-master/contracts/UniswapV2ERC20.sol\":3194:3271  abi.encode(PERMIT_TYPEHASH, owner, spender, value, nonces[owner]++, deadline) */\n              0xe0\n              dup6\n              add\n              dup3\n              mstore\n                /* \"smart contracts/v2-core-master/contracts/UniswapV2ERC20.sol\":3184:3272  keccak256(abi.encode(PERMIT_TYPEHASH, owner, spender, value, nonces[owner]++, deadline)) */\n              dup1\n              mload\n              swap1\n              dup4\n              add\n              keccak256\n              shl(0xf0, 0x1901)\n                /* \"smart contracts/v2-core-master/contracts/UniswapV2ERC20.sol\":3085:3287  abi.encodePacked(\r... */\n              0x0100\n              dup7\n              add\n              mstore\n              0x0102\n              dup6\n              add\n              swap7\n              swap1\n              swap7\n              mstore\n              0x0122\n              dup1\n              dup6\n              add\n              swap7\n              swap1\n              swap7\n              mstore\n              dup1\n              mload\n                /* \"--CODEGEN--\":26:47   */\n              dup1\n              dup6\n              sub\n                /* \"--CODEGEN--\":22:54   */\n              swap1\n              swap7\n              add\n                /* \"--CODEGEN--\":6:55   */\n              dup7\n              mstore\n                /* \"smart contracts/v2-core-master/contracts/UniswapV2ERC20.sol\":3085:3287  abi.encodePacked(\r... */\n              0x0142\n              dup5\n              add\n              dup1\n              dup3\n              mstore\n                /* \"smart contracts/v2-core-master/contracts/UniswapV2ERC20.sol\":3061:3298  keccak256(\r... */\n              dup7\n              mload\n              swap7\n              dup4\n              add\n              swap7\n              swap1\n              swap7\n              keccak256\n                /* \"smart contracts/v2-core-master/contracts/UniswapV2ERC20.sol\":3336:3362  ecrecover(digest, v, r, s) */\n              swap6\n              dup4\n              swap1\n              mstore\n              0x0162\n              dup5\n              add\n              dup1\n              dup3\n              mstore\n              dup7\n              swap1\n              mstore\n              0xff\n              dup10\n              and\n              0x0182\n              dup6\n              add\n              mstore\n              0x01a2\n              dup5\n              add\n              dup9\n              swap1\n              mstore\n              0x01c2\n              dup5\n              add\n              dup8\n              swap1\n              mstore\n              mload\n                /* \"smart contracts/v2-core-master/contracts/UniswapV2ERC20.sol\":3044:3058  bytes32 digest */\n              swap2\n              swap4\n              swap3\n                /* \"smart contracts/v2-core-master/contracts/UniswapV2ERC20.sol\":3336:3362  ecrecover(digest, v, r, s) */\n              0x01e2\n              dup1\n              dup3\n              add\n              swap4\n              not(0x1f)\n              dup2\n              add\n              swap3\n              dup2\n              swap1\n              sub\n              swap1\n              swap2\n              add\n              swap1\n              dup6\n              gas\n              staticcall\n              iszero\n                /* \"--CODEGEN--\":8:17   */\n              dup1\n                /* \"--CODEGEN--\":5:7   */\n              iszero\n              tag_248\n              jumpi\n                /* \"--CODEGEN--\":45:61   */\n              returndatasize\n                /* \"--CODEGEN--\":42:43   */\n              0x00\n                /* \"--CODEGEN--\":39:40   */\n              dup1\n                /* \"--CODEGEN--\":24:62   */\n              returndatacopy\n                /* \"--CODEGEN--\":77:93   */\n              returndatasize\n                /* \"--CODEGEN--\":74:75   */\n              0x00\n                /* \"--CODEGEN--\":67:94   */\n              revert\n                /* \"--CODEGEN--\":5:7   */\n            tag_248:\n              pop\n              pop\n                /* \"smart contracts/v2-core-master/contracts/UniswapV2ERC20.sol\":3336:3362  ecrecover(digest, v, r, s) */\n              mload(add(not(0x1f), mload(0x40)))\n              swap2\n              pop\n              pop\n              sub(shl(0xa0, 0x01), 0x01)\n                /* \"smart contracts/v2-core-master/contracts/UniswapV2ERC20.sol\":3381:3411  recoveredAddress != address(0) */\n              dup2\n              and\n              iszero\n              dup1\n              iszero\n              swap1\n                /* \"smart contracts/v2-core-master/contracts/UniswapV2ERC20.sol\":3381:3440  recoveredAddress != address(0) && recoveredAddress == owner */\n              tag_249\n              jumpi\n              pop\n              sub(shl(0xa0, 0x01), 0x01)\n                /* \"smart contracts/v2-core-master/contracts/UniswapV2ERC20.sol\":3415:3440  recoveredAddress == owner */\n              dup2\n              dup2\n              and\n              swap1\n              dup11\n              and\n              eq\n                /* \"smart contracts/v2-core-master/contracts/UniswapV2ERC20.sol\":3381:3440  recoveredAddress != address(0) && recoveredAddress == owner */\n            tag_249:\n                /* \"smart contracts/v2-core-master/contracts/UniswapV2ERC20.sol\":3373:3473  require(recoveredAddress != address(0) && recoveredAddress == owner, 'UniswapV2: INVALID_SIGNATURE') */\n              tag_250\n              jumpi\n              0x40\n              dup1\n              mload\n              shl(0xe5, 0x461bcd)\n              dup2\n              mstore\n              0x20\n              0x04\n              dup3\n              add\n              mstore\n              0x1c\n              0x24\n              dup3\n              add\n              mstore\n              0x556e697377617056323a20494e56414c49445f5349474e415455524500000000\n              0x44\n              dup3\n              add\n              mstore\n              swap1\n              mload\n              swap1\n              dup2\n              swap1\n              sub\n              0x64\n              add\n              swap1\n              revert\n            tag_250:\n                /* \"smart contracts/v2-core-master/contracts/UniswapV2ERC20.sol\":3484:3515  _approve(owner, spender, value) */\n              tag_251\n                /* \"smart contracts/v2-core-master/contracts/UniswapV2ERC20.sol\":3493:3498  owner */\n              dup10\n                /* \"smart contracts/v2-core-master/contracts/UniswapV2ERC20.sol\":3500:3507  spender */\n              dup10\n                /* \"smart contracts/v2-core-master/contracts/UniswapV2ERC20.sol\":3509:3514  value */\n              dup10\n                /* \"smart contracts/v2-core-master/contracts/UniswapV2ERC20.sol\":3484:3492  _approve */\n              tag_160\n                /* \"smart contracts/v2-core-master/contracts/UniswapV2ERC20.sol\":3484:3515  _approve(owner, spender, value) */\n              jump\t// in\n            tag_251:\n                /* \"smart contracts/v2-core-master/contracts/UniswapV2ERC20.sol\":2849:3523  function permit(address owner, address spender, uint value, uint deadline, uint8 v, bytes32 r, bytes32 s) external {\r... */\n              pop\n              pop\n              pop\n              pop\n              pop\n              pop\n              pop\n              pop\n              pop\n              jump\t// out\n                /* \"smart contracts/v2-core-master/contracts/UniswapV2ERC20.sol\":408:469  mapping(address => mapping(address => uint)) public allowance */\n            tag_110:\n              0x02\n              0x20\n              swap1\n              dup2\n              mstore\n              0x00\n              swap3\n              dup4\n              mstore\n              0x40\n              dup1\n              dup5\n              keccak256\n              swap1\n              swap2\n              mstore\n              swap1\n              dup3\n              mstore\n              swap1\n              keccak256\n              sload\n              dup2\n              jump\t// out\n                /* \"smart contracts/v2-core-master/contracts/UniswapV2Pair.sol\":10306:10464  function sync() external lock {\r... */\n            tag_112:\n                /* \"smart contracts/v2-core-master/contracts/UniswapV2Pair.sol\":1213:1221  unlocked */\n              sload(0x0c)\n                /* \"smart contracts/v2-core-master/contracts/UniswapV2Pair.sol\":1225:1226  1 */\n              0x01\n                /* \"smart contracts/v2-core-master/contracts/UniswapV2Pair.sol\":1213:1226  unlocked == 1 */\n              eq\n                /* \"smart contracts/v2-core-master/contracts/UniswapV2Pair.sol\":1205:1248  require(unlocked == 1, 'UniswapV2: LOCKED') */\n              tag_253\n              jumpi\n              0x40\n              dup1\n              mload\n              shl(0xe5, 0x461bcd)\n              dup2\n              mstore\n              0x20\n              0x04\n              dup3\n              add\n              mstore\n              0x11\n              0x24\n              dup3\n              add\n              mstore\n              shl(0x7a, 0x155b9a5cddd85c158c8e881313d0d2d151)\n              0x44\n              dup3\n              add\n              mstore\n              swap1\n              mload\n              swap1\n              dup2\n              swap1\n              sub\n              0x64\n              add\n              swap1\n              revert\n            tag_253:\n                /* \"smart contracts/v2-core-master/contracts/UniswapV2Pair.sol\":1270:1271  0 */\n              0x00\n                /* \"smart contracts/v2-core-master/contracts/UniswapV2Pair.sol\":1259:1267  unlocked */\n              0x0c\n                /* \"smart contracts/v2-core-master/contracts/UniswapV2Pair.sol\":1259:1271  unlocked = 0 */\n              sstore\n                /* \"smart contracts/v2-core-master/contracts/UniswapV2Pair.sol\":10362:10368  token0 */\n              sload(0x06)\n                /* \"smart contracts/v2-core-master/contracts/UniswapV2Pair.sol\":10355:10394  IERC20(token0).balanceOf(address(this)) */\n              0x40\n              dup1\n              mload\n              shl(0xe0, 0x70a08231)\n              dup2\n              mstore\n                /* \"smart contracts/v2-core-master/contracts/UniswapV2Pair.sol\":10388:10392  this */\n              address\n                /* \"smart contracts/v2-core-master/contracts/UniswapV2Pair.sol\":10355:10394  IERC20(token0).balanceOf(address(this)) */\n              0x04\n              dup3\n              add\n              mstore\n              swap1\n              mload\n                /* \"smart contracts/v2-core-master/contracts/UniswapV2Pair.sol\":10347:10456  _update(IERC20(token0).balanceOf(address(this)), IERC20(token1).balanceOf(address(this)), reserve0, reserve1) */\n              tag_255\n              swap3\n              sub(shl(0xa0, 0x01), 0x01)\n                /* \"smart contracts/v2-core-master/contracts/UniswapV2Pair.sol\":10362:10368  token0 */\n              and\n              swap2\n              0x70a08231\n              swap2\n                /* \"smart contracts/v2-core-master/contracts/UniswapV2Pair.sol\":10355:10394  IERC20(token0).balanceOf(address(this)) */\n              0x24\n              dup1\n              dup4\n              add\n              swap3\n              0x20\n              swap3\n              swap2\n              swap1\n              dup3\n              swap1\n              sub\n              add\n              dup2\n                /* \"smart contracts/v2-core-master/contracts/UniswapV2Pair.sol\":10362:10368  token0 */\n              dup7\n                /* \"smart contracts/v2-core-master/contracts/UniswapV2Pair.sol\":10355:10394  IERC20(token0).balanceOf(address(this)) */\n              dup1\n              extcodesize\n              iszero\n                /* \"--CODEGEN--\":5:7   */\n              dup1\n              iszero\n              tag_256\n              jumpi\n                /* \"--CODEGEN--\":30:31   */\n              0x00\n                /* \"--CODEGEN--\":27:28   */\n              dup1\n                /* \"--CODEGEN--\":20:32   */\n              revert\n                /* \"--CODEGEN--\":5:7   */\n            tag_256:\n                /* \"smart contracts/v2-core-master/contracts/UniswapV2Pair.sol\":10355:10394  IERC20(token0).balanceOf(address(this)) */\n              pop\n              gas\n              staticcall\n              iszero\n                /* \"--CODEGEN--\":8:17   */\n              dup1\n                /* \"--CODEGEN--\":5:7   */\n              iszero\n              tag_257\n              jumpi\n                /* \"--CODEGEN--\":45:61   */\n              returndatasize\n                /* \"--CODEGEN--\":42:43   */\n              0x00\n                /* \"--CODEGEN--\":39:40   */\n              dup1\n                /* \"--CODEGEN--\":24:62   */\n              returndatacopy\n                /* \"--CODEGEN--\":77:93   */\n              returndatasize\n                /* \"--CODEGEN--\":74:75   */\n              0x00\n                /* \"--CODEGEN--\":67:94   */\n              revert\n                /* \"--CODEGEN--\":5:7   */\n            tag_257:\n                /* \"smart contracts/v2-core-master/contracts/UniswapV2Pair.sol\":10355:10394  IERC20(token0).balanceOf(address(this)) */\n              pop\n              pop\n              pop\n              pop\n              mload(0x40)\n              returndatasize\n                /* \"--CODEGEN--\":13:15   */\n              0x20\n                /* \"--CODEGEN--\":8:11   */\n              dup2\n                /* \"--CODEGEN--\":5:16   */\n              lt\n                /* \"--CODEGEN--\":2:4   */\n              iszero\n              tag_258\n              jumpi\n                /* \"--CODEGEN--\":29:30   */\n              0x00\n                /* \"--CODEGEN--\":26:27   */\n              dup1\n                /* \"--CODEGEN--\":19:31   */\n              revert\n                /* \"--CODEGEN--\":2:4   */\n            tag_258:\n              pop\n                /* \"smart contracts/v2-core-master/contracts/UniswapV2Pair.sol\":10355:10394  IERC20(token0).balanceOf(address(this)) */\n              mload\n                /* \"smart contracts/v2-core-master/contracts/UniswapV2Pair.sol\":10403:10409  token1 */\n              sload(0x07)\n                /* \"smart contracts/v2-core-master/contracts/UniswapV2Pair.sol\":10396:10435  IERC20(token1).balanceOf(address(this)) */\n              0x40\n              dup1\n              mload\n              shl(0xe0, 0x70a08231)\n              dup2\n              mstore\n                /* \"smart contracts/v2-core-master/contracts/UniswapV2Pair.sol\":10429:10433  this */\n              address\n                /* \"smart contracts/v2-core-master/contracts/UniswapV2Pair.sol\":10396:10435  IERC20(token1).balanceOf(address(this)) */\n              0x04\n              dup3\n              add\n              mstore\n              swap1\n              mload\n              sub(shl(0xa0, 0x01), 0x01)\n                /* \"smart contracts/v2-core-master/contracts/UniswapV2Pair.sol\":10403:10409  token1 */\n              swap1\n              swap3\n              and\n              swap2\n              0x70a08231\n              swap2\n                /* \"smart contracts/v2-core-master/contracts/UniswapV2Pair.sol\":10396:10435  IERC20(token1).balanceOf(address(this)) */\n              0x24\n              dup1\n              dup3\n              add\n              swap3\n                /* \"smart contracts/v2-core-master/contracts/UniswapV2Pair.sol\":10355:10394  IERC20(token0).balanceOf(address(this)) */\n              0x20\n              swap3\n                /* \"smart contracts/v2-core-master/contracts/UniswapV2Pair.sol\":10396:10435  IERC20(token1).balanceOf(address(this)) */\n              swap1\n              swap2\n              swap1\n              dup3\n              swap1\n              sub\n              add\n              dup2\n                /* \"smart contracts/v2-core-master/contracts/UniswapV2Pair.sol\":10403:10409  token1 */\n              dup7\n                /* \"smart contracts/v2-core-master/contracts/UniswapV2Pair.sol\":10396:10435  IERC20(token1).balanceOf(address(this)) */\n              dup1\n              extcodesize\n              iszero\n                /* \"--CODEGEN--\":5:7   */\n              dup1\n              iszero\n              tag_259\n              jumpi\n                /* \"--CODEGEN--\":30:31   */\n              0x00\n                /* \"--CODEGEN--\":27:28   */\n              dup1\n                /* \"--CODEGEN--\":20:32   */\n              revert\n                /* \"--CODEGEN--\":5:7   */\n            tag_259:\n                /* \"smart contracts/v2-core-master/contracts/UniswapV2Pair.sol\":10396:10435  IERC20(token1).balanceOf(address(this)) */\n              pop\n              gas\n              staticcall\n              iszero\n                /* \"--CODEGEN--\":8:17   */\n              dup1\n                /* \"--CODEGEN--\":5:7   */\n              iszero\n              tag_260\n              jumpi\n                /* \"--CODEGEN--\":45:61   */\n              returndatasize\n                /* \"--CODEGEN--\":42:43   */\n              0x00\n                /* \"--CODEGEN--\":39:40   */\n              dup1\n                /* \"--CODEGEN--\":24:62   */\n              returndatacopy\n                /* \"--CODEGEN--\":77:93   */\n              returndatasize\n                /* \"--CODEGEN--\":74:75   */\n              0x00\n                /* \"--CODEGEN--\":67:94   */\n              revert\n                /* \"--CODEGEN--\":5:7   */\n            tag_260:\n                /* \"smart contracts/v2-core-master/contracts/UniswapV2Pair.sol\":10396:10435  IERC20(token1).balanceOf(address(this)) */\n              pop\n              pop\n              pop\n              pop\n              mload(0x40)\n              returndatasize\n                /* \"--CODEGEN--\":13:15   */\n              0x20\n                /* \"--CODEGEN--\":8:11   */\n              dup2\n                /* \"--CODEGEN--\":5:16   */\n              lt\n                /* \"--CODEGEN--\":2:4   */\n              iszero\n              tag_261\n              jumpi\n                /* \"--CODEGEN--\":29:30   */\n              0x00\n                /* \"--CODEGEN--\":26:27   */\n              dup1\n                /* \"--CODEGEN--\":19:31   */\n              revert\n                /* \"--CODEGEN--\":2:4   */\n            tag_261:\n              pop\n                /* \"smart contracts/v2-core-master/contracts/UniswapV2Pair.sol\":10396:10435  IERC20(token1).balanceOf(address(this)) */\n              mload\n                /* \"smart contracts/v2-core-master/contracts/UniswapV2Pair.sol\":10437:10445  reserve0 */\n              sload(0x08)\n              sub(shl(0x70, 0x01), 0x01)\n              dup1\n              dup3\n              and\n              swap2\n              shl(0x70, 0x01)\n                /* \"smart contracts/v2-core-master/contracts/UniswapV2Pair.sol\":10447:10455  reserve1 */\n              swap1\n              div\n              and\n                /* \"smart contracts/v2-core-master/contracts/UniswapV2Pair.sol\":10347:10354  _update */\n              tag_156\n                /* \"smart contracts/v2-core-master/contracts/UniswapV2Pair.sol\":10347:10456  _update(IERC20(token0).balanceOf(address(this)), IERC20(token1).balanceOf(address(this)), reserve0, reserve1) */\n              jump\t// in\n            tag_255:\n                /* \"smart contracts/v2-core-master/contracts/UniswapV2Pair.sol\":1305:1306  1 */\n              0x01\n                /* \"smart contracts/v2-core-master/contracts/UniswapV2Pair.sol\":1294:1302  unlocked */\n              0x0c\n                /* \"smart contracts/v2-core-master/contracts/UniswapV2Pair.sol\":1294:1306  unlocked = 1 */\n              sstore\n                /* \"smart contracts/v2-core-master/contracts/UniswapV2Pair.sol\":10306:10464  function sync() external lock {\r... */\n              jump\t// out\n                /* \"smart contracts/v2-core-master/contracts/UniswapV2Pair.sol\":1561:1848  function _safeTransfer(address token, address to, uint value) private {\r... */\n            tag_125:\n                /* \"smart contracts/v2-core-master/contracts/UniswapV2Pair.sol\":537:571  bytes('transfer(address,uint256)') */\n              0x40\n              dup1\n              mload\n              dup1\n              dup3\n              add\n              dup3\n              mstore\n              0x19\n              dup2\n              mstore\n              0x7472616e7366657228616464726573732c75696e743235362900000000000000\n              0x20\n              swap2\n              dup3\n              add\n              mstore\n                /* \"smart contracts/v2-core-master/contracts/UniswapV2Pair.sol\":1689:1732  abi.encodeWithSelector(SELECTOR, to, value) */\n              dup2\n              mload\n              sub(shl(0xa0, 0x01), 0x01)\n              dup6\n              dup2\n              and\n              0x24\n              dup4\n              add\n              mstore\n              0x44\n              dup1\n              dup4\n              add\n              dup7\n              swap1\n              mstore\n              dup5\n              mload\n                /* \"--CODEGEN--\":26:47   */\n              dup1\n              dup5\n              sub\n                /* \"--CODEGEN--\":22:54   */\n              swap1\n              swap2\n              add\n                /* \"--CODEGEN--\":6:55   */\n              dup2\n              mstore\n                /* \"smart contracts/v2-core-master/contracts/UniswapV2Pair.sol\":1689:1732  abi.encodeWithSelector(SELECTOR, to, value) */\n              0x64\n              swap1\n              swap3\n              add\n              dup5\n              mstore\n                /* \"--CODEGEN--\":25:43   */\n              swap2\n              dup2\n              add\n                /* \"--CODEGEN--\":61:78   */\n              dup1\n              mload\n              sub(shl(0xe0, 0x01), 0x01)\n                /* \"--CODEGEN--\":182:197   */\n              and\n              shl(0xe0, 0xa9059cbb)\n                /* \"--CODEGEN--\":179:208   */\n              or\n                /* \"--CODEGEN--\":160:209   */\n              dup2\n              mstore\n                /* \"smart contracts/v2-core-master/contracts/UniswapV2Pair.sol\":1678:1733  token.call(abi.encodeWithSelector(SELECTOR, to, value)) */\n              swap3\n              mload\n              dup2\n              mload\n              0x00\n              swap5\n                /* \"smart contracts/v2-core-master/contracts/UniswapV2Pair.sol\":1657:1674  bytes memory data */\n              0x60\n              swap5\n                /* \"smart contracts/v2-core-master/contracts/UniswapV2Pair.sol\":1678:1688  token.call */\n              dup10\n              and\n              swap4\n                /* \"smart contracts/v2-core-master/contracts/UniswapV2Pair.sol\":1689:1732  abi.encodeWithSelector(SELECTOR, to, value) */\n              swap3\n                /* \"smart contracts/v2-core-master/contracts/UniswapV2Pair.sol\":1678:1733  token.call(abi.encodeWithSelector(SELECTOR, to, value)) */\n              swap2\n              dup3\n              swap2\n                /* \"--CODEGEN--\":25:43   */\n              swap1\n                /* \"smart contracts/v2-core-master/contracts/UniswapV2Pair.sol\":1678:1733  token.call(abi.encodeWithSelector(SELECTOR, to, value)) */\n              dup1\n              dup4\n                /* \"--CODEGEN--\":25:43   */\n              dup4\n                /* \"--CODEGEN--\":36:189   */\n            tag_263:\n                /* \"--CODEGEN--\":66:68   */\n              0x20\n                /* \"--CODEGEN--\":61:64   */\n              dup4\n                /* \"--CODEGEN--\":58:69   */\n              lt\n                /* \"--CODEGEN--\":36:189   */\n              tag_265\n              jumpi\n                /* \"--CODEGEN--\":176:186   */\n              dup1\n              mload\n                /* \"--CODEGEN--\":164:187   */\n              dup3\n              mstore\n              not(0x1f)\n                /* \"--CODEGEN--\":139:151   */\n              swap1\n              swap3\n              add\n              swap2\n                /* \"--CODEGEN--\":98:100   */\n              0x20\n                /* \"--CODEGEN--\":89:101   */\n              swap2\n              dup3\n              add\n              swap2\n                /* \"--CODEGEN--\":114:126   */\n              add\n                /* \"--CODEGEN--\":36:189   */\n              jump(tag_263)\n            tag_265:\n                /* \"--CODEGEN--\":274:275   */\n              0x01\n                /* \"--CODEGEN--\":267:270   */\n              dup4\n                /* \"--CODEGEN--\":263:265   */\n              0x20\n                /* \"--CODEGEN--\":259:271   */\n              sub\n                /* \"--CODEGEN--\":254:257   */\n              0x0100\n                /* \"--CODEGEN--\":250:272   */\n              exp\n                /* \"--CODEGEN--\":246:276   */\n              sub\n                /* \"--CODEGEN--\":315:319   */\n              dup1\n                /* \"--CODEGEN--\":311:320   */\n              not\n                /* \"--CODEGEN--\":305:308   */\n              dup3\n                /* \"--CODEGEN--\":299:309   */\n              mload\n                /* \"--CODEGEN--\":295:321   */\n              and\n                /* \"--CODEGEN--\":356:360   */\n              dup2\n                /* \"--CODEGEN--\":350:353   */\n              dup5\n                /* \"--CODEGEN--\":344:354   */\n              mload\n                /* \"--CODEGEN--\":340:361   */\n              and\n                /* \"--CODEGEN--\":389:396   */\n              dup1\n                /* \"--CODEGEN--\":380:387   */\n              dup3\n                /* \"--CODEGEN--\":377:397   */\n              or\n                /* \"--CODEGEN--\":372:375   */\n              dup6\n                /* \"--CODEGEN--\":365:398   */\n              mstore\n                /* \"--CODEGEN--\":3:402   */\n              pop\n              pop\n              pop\n                /* \"smart contracts/v2-core-master/contracts/UniswapV2Pair.sol\":1678:1733  token.call(abi.encodeWithSelector(SELECTOR, to, value)) */\n              pop\n              pop\n              pop\n              swap1\n              pop\n              add\n              swap2\n              pop\n              pop\n              0x00\n              mload(0x40)\n              dup1\n              dup4\n              sub\n              dup2\n              0x00\n              dup7\n              gas\n              call\n              swap2\n              pop\n              pop\n              returndatasize\n                /* \"--CODEGEN--\":14:15   */\n              dup1\n                /* \"--CODEGEN--\":21:22   */\n              0x00\n                /* \"--CODEGEN--\":16:47   */\n              dup2\n              eq\n              tag_267\n              jumpi\n                /* \"--CODEGEN--\":75:79   */\n              0x40\n                /* \"--CODEGEN--\":69:80   */\n              mload\n                /* \"--CODEGEN--\":64:80   */\n              swap2\n              pop\n                /* \"--CODEGEN--\":144:148   */\n              0x1f\n                /* \"--CODEGEN--\":140:149   */\n              not\n                /* \"--CODEGEN--\":133:137   */\n              0x3f\n                /* \"--CODEGEN--\":115:131   */\n              returndatasize\n                /* \"--CODEGEN--\":111:138   */\n              add\n                /* \"--CODEGEN--\":107:150   */\n              and\n                /* \"--CODEGEN--\":104:105   */\n              dup3\n                /* \"--CODEGEN--\":100:151   */\n              add\n                /* \"--CODEGEN--\":94:98   */\n              0x40\n                /* \"--CODEGEN--\":87:152   */\n              mstore\n                /* \"--CODEGEN--\":169:185   */\n              returndatasize\n                /* \"--CODEGEN--\":166:167   */\n              dup3\n                /* \"--CODEGEN--\":159:186   */\n              mstore\n                /* \"--CODEGEN--\":225:241   */\n              returndatasize\n                /* \"--CODEGEN--\":222:223   */\n              0x00\n                /* \"--CODEGEN--\":215:219   */\n              0x20\n                /* \"--CODEGEN--\":212:213   */\n              dup5\n                /* \"--CODEGEN--\":208:220   */\n              add\n                /* \"--CODEGEN--\":193:242   */\n              returndatacopy\n                /* \"--CODEGEN--\":7:249   */\n              jump(tag_266)\n                /* \"--CODEGEN--\":16:47   */\n            tag_267:\n                /* \"--CODEGEN--\":36:40   */\n              0x60\n                /* \"--CODEGEN--\":31:40   */\n              swap2\n              pop\n                /* \"--CODEGEN--\":7:249   */\n            tag_266:\n              pop\n                /* \"smart contracts/v2-core-master/contracts/UniswapV2Pair.sol\":1642:1733  (bool success, bytes memory data) = token.call(abi.encodeWithSelector(SELECTOR, to, value)) */\n              swap2\n              pop\n              swap2\n              pop\n                /* \"smart contracts/v2-core-master/contracts/UniswapV2Pair.sol\":1752:1759  success */\n              dup2\n                /* \"smart contracts/v2-core-master/contracts/UniswapV2Pair.sol\":1752:1809  success && (data.length == 0 || abi.decode(data, (bool))) */\n              dup1\n              iszero\n              tag_269\n              jumpi\n              pop\n                /* \"smart contracts/v2-core-master/contracts/UniswapV2Pair.sol\":1764:1775  data.length */\n              dup1\n              mload\n                /* \"smart contracts/v2-core-master/contracts/UniswapV2Pair.sol\":1764:1780  data.length == 0 */\n              iszero\n              dup1\n                /* \"smart contracts/v2-core-master/contracts/UniswapV2Pair.sol\":1764:1808  data.length == 0 || abi.decode(data, (bool)) */\n              tag_269\n              jumpi\n              pop\n                /* \"smart contracts/v2-core-master/contracts/UniswapV2Pair.sol\":1795:1799  data */\n              dup1\n                /* \"smart contracts/v2-core-master/contracts/UniswapV2Pair.sol\":1784:1808  abi.decode(data, (bool)) */\n              dup1\n              0x20\n              add\n              swap1\n              mload\n                /* \"--CODEGEN--\":13:15   */\n              0x20\n                /* \"--CODEGEN--\":8:11   */\n              dup2\n                /* \"--CODEGEN--\":5:16   */\n              lt\n                /* \"--CODEGEN--\":2:4   */\n              iszero\n              tag_270\n              jumpi\n                /* \"--CODEGEN--\":29:30   */\n              0x00\n                /* \"--CODEGEN--\":26:27   */\n              dup1\n                /* \"--CODEGEN--\":19:31   */\n              revert\n                /* \"--CODEGEN--\":2:4   */\n            tag_270:\n              pop\n                /* \"smart contracts/v2-core-master/contracts/UniswapV2Pair.sol\":1784:1808  abi.decode(data, (bool)) */\n              mload\n                /* \"smart contracts/v2-core-master/contracts/UniswapV2Pair.sol\":1764:1808  data.length == 0 || abi.decode(data, (bool)) */\n            tag_269:\n                /* \"smart contracts/v2-core-master/contracts/UniswapV2Pair.sol\":1744:1840  require(success && (data.length == 0 || abi.decode(data, (bool))), 'UniswapV2: TRANSFER_FAILED') */\n              tag_271\n              jumpi\n              0x40\n              dup1\n              mload\n              shl(0xe5, 0x461bcd)\n              dup2\n              mstore\n              0x20\n              0x04\n              dup3\n              add\n              mstore\n              0x1a\n              0x24\n              dup3\n              add\n              mstore\n              0x556e697377617056323a205452414e534645525f4641494c4544000000000000\n              0x44\n              dup3\n              add\n              mstore\n              swap1\n              mload\n              swap1\n              dup2\n              swap1\n              sub\n              0x64\n              add\n              swap1\n              revert\n            tag_271:\n                /* \"smart contracts/v2-core-master/contracts/UniswapV2Pair.sol\":1561:1848  function _safeTransfer(address token, address to, uint value) private {\r... */\n              pop\n              pop\n              pop\n              pop\n              pop\n              jump\t// out\n                /* \"smart contracts/v2-core-master/contracts/libraries/SafeMath.sol\":434:576  function mul(uint x, uint y) internal pure returns (uint z) {\r... */\n            tag_145:\n                /* \"smart contracts/v2-core-master/contracts/libraries/SafeMath.sol\":486:492  uint z */\n              0x00\n                /* \"smart contracts/v2-core-master/contracts/libraries/SafeMath.sol\":513:519  y == 0 */\n              dup2\n              iszero\n              dup1\n                /* \"smart contracts/v2-core-master/contracts/libraries/SafeMath.sol\":513:543  y == 0 || (z = x * y) / y == x */\n              tag_273\n              jumpi\n              pop\n              pop\n                /* \"smart contracts/v2-core-master/contracts/libraries/SafeMath.sol\":528:533  x * y */\n              dup1\n              dup3\n              mul\n                /* \"smart contracts/v2-core-master/contracts/libraries/SafeMath.sol\":542:543  x */\n              dup3\n                /* \"smart contracts/v2-core-master/contracts/libraries/SafeMath.sol\":537:538  y */\n              dup3\n                /* \"smart contracts/v2-core-master/contracts/libraries/SafeMath.sol\":528:533  x * y */\n              dup3\n                /* \"smart contracts/v2-core-master/contracts/libraries/SafeMath.sol\":537:538  y */\n              dup2\n                /* \"smart contracts/v2-core-master/contracts/libraries/SafeMath.sol\":523:538  (z = x * y) / y */\n              tag_274\n              jumpi\n              invalid\n            tag_274:\n              div\n                /* \"smart contracts/v2-core-master/contracts/libraries/SafeMath.sol\":523:543  (z = x * y) / y == x */\n              eq\n                /* \"smart contracts/v2-core-master/contracts/libraries/SafeMath.sol\":513:543  y == 0 || (z = x * y) / y == x */\n            tag_273:\n                /* \"smart contracts/v2-core-master/contracts/libraries/SafeMath.sol\":505:568  require(y == 0 || (z = x * y) / y == x, 'ds-math-mul-overflow') */\n              tag_158\n              jumpi\n              0x40\n              dup1\n              mload\n              shl(0xe5, 0x461bcd)\n              dup2\n              mstore\n              0x20\n              0x04\n              dup3\n              add\n              mstore\n              0x14\n              0x24\n              dup3\n              add\n              mstore\n              shl(0x60, 0x64732d6d6174682d6d756c2d6f766572666c6f77)\n              0x44\n              dup3\n              add\n              mstore\n              swap1\n              mload\n              swap1\n              dup2\n              swap1\n              sub\n              0x64\n              add\n              swap1\n              revert\n                /* \"smart contracts/v2-core-master/contracts/libraries/SafeMath.sol\":297:426  function sub(uint x, uint y) internal pure returns (uint z) {\r... */\n            tag_147:\n                /* \"smart contracts/v2-core-master/contracts/libraries/SafeMath.sol\":381:386  x - y */\n              dup1\n              dup3\n              sub\n                /* \"smart contracts/v2-core-master/contracts/libraries/SafeMath.sol\":376:392  (z = x - y) <= x */\n              dup3\n              dup2\n              gt\n              iszero\n                /* \"smart contracts/v2-core-master/contracts/libraries/SafeMath.sol\":368:418  require((z = x - y) <= x, 'ds-math-sub-underflow') */\n              tag_158\n              jumpi\n              0x40\n              dup1\n              mload\n              shl(0xe5, 0x461bcd)\n              dup2\n              mstore\n              0x20\n              0x04\n              dup3\n              add\n              mstore\n              0x15\n              0x24\n              dup3\n              add\n              mstore\n              shl(0x58, 0x64732d6d6174682d7375622d756e646572666c6f77)\n              0x44\n              dup3\n              add\n              mstore\n              swap1\n              mload\n              swap1\n              dup2\n              swap1\n              sub\n              0x64\n              add\n              swap1\n              revert\n                /* \"smart contracts/v2-core-master/contracts/UniswapV2Pair.sol\":2677:3537  function _update(uint balance0, uint balance1, uint112 _reserve0, uint112 _reserve1) private {\r... */\n            tag_156:\n              sub(shl(0x70, 0x01), 0x01)\n                /* \"smart contracts/v2-core-master/contracts/UniswapV2Pair.sol\":2789:2812  balance0 <= uint112(-1) */\n              dup5\n              gt\n              dup1\n              iszero\n              swap1\n                /* \"smart contracts/v2-core-master/contracts/UniswapV2Pair.sol\":2789:2839  balance0 <= uint112(-1) && balance1 <= uint112(-1) */\n              tag_279\n              jumpi\n              pop\n              sub(shl(0x70, 0x01), 0x01)\n                /* \"smart contracts/v2-core-master/contracts/UniswapV2Pair.sol\":2816:2839  balance1 <= uint112(-1) */\n              dup4\n              gt\n              iszero\n                /* \"smart contracts/v2-core-master/contracts/UniswapV2Pair.sol\":2789:2839  balance0 <= uint112(-1) && balance1 <= uint112(-1) */\n            tag_279:\n                /* \"smart contracts/v2-core-master/contracts/UniswapV2Pair.sol\":2781:2863  require(balance0 <= uint112(-1) && balance1 <= uint112(-1), 'UniswapV2: OVERFLOW') */\n              tag_280\n              jumpi\n              0x40\n              dup1\n              mload\n              shl(0xe5, 0x461bcd)\n              dup2\n              mstore\n              0x20\n              0x04\n              dup3\n              add\n              mstore\n              0x13\n              0x24\n              dup3\n              add\n              mstore\n              shl(0x68, 0x556e697377617056323a204f564552464c4f57)\n              0x44\n              dup3\n              add\n              mstore\n              swap1\n              mload\n              swap1\n              dup2\n              swap1\n              sub\n              0x64\n              add\n              swap1\n              revert\n            tag_280:\n                /* \"smart contracts/v2-core-master/contracts/UniswapV2Pair.sol\":2978:2996  blockTimestampLast */\n              sload(0x08)\n                /* \"smart contracts/v2-core-master/contracts/UniswapV2Pair.sol\":2905:2928  block.timestamp % 2**32 */\n              0xffffffff\n                /* \"smart contracts/v2-core-master/contracts/UniswapV2Pair.sol\":2905:2920  block.timestamp */\n              timestamp\n                /* \"smart contracts/v2-core-master/contracts/UniswapV2Pair.sol\":2905:2928  block.timestamp % 2**32 */\n              dup2\n              and\n              swap2\n              shl(0xe0, 0x01)\n                /* \"smart contracts/v2-core-master/contracts/UniswapV2Pair.sol\":2978:2996  blockTimestampLast */\n              swap1\n              div\n              dup2\n              and\n                /* \"smart contracts/v2-core-master/contracts/UniswapV2Pair.sol\":2961:2996  blockTimestamp - blockTimestampLast */\n              dup3\n              sub\n              swap1\n                /* \"smart contracts/v2-core-master/contracts/UniswapV2Pair.sol\":3034:3049  timeElapsed > 0 */\n              dup2\n              and\n              iszero\n              dup1\n              iszero\n              swap1\n                /* \"smart contracts/v2-core-master/contracts/UniswapV2Pair.sol\":3034:3067  timeElapsed > 0 && _reserve0 != 0 */\n              tag_282\n              jumpi\n              pop\n              sub(shl(0x70, 0x01), 0x01)\n                /* \"smart contracts/v2-core-master/contracts/UniswapV2Pair.sol\":3053:3067  _reserve0 != 0 */\n              dup5\n              and\n              iszero\n              iszero\n                /* \"smart contracts/v2-core-master/contracts/UniswapV2Pair.sol\":3034:3067  timeElapsed > 0 && _reserve0 != 0 */\n            tag_282:\n                /* \"smart contracts/v2-core-master/contracts/UniswapV2Pair.sol\":3034:3085  timeElapsed > 0 && _reserve0 != 0 && _reserve1 != 0 */\n              dup1\n              iszero\n              tag_283\n              jumpi\n              pop\n              sub(shl(0x70, 0x01), 0x01)\n                /* \"smart contracts/v2-core-master/contracts/UniswapV2Pair.sol\":3071:3085  _reserve1 != 0 */\n              dup4\n              and\n              iszero\n              iszero\n                /* \"smart contracts/v2-core-master/contracts/UniswapV2Pair.sol\":3034:3085  timeElapsed > 0 && _reserve0 != 0 && _reserve1 != 0 */\n            tag_283:\n                /* \"smart contracts/v2-core-master/contracts/UniswapV2Pair.sol\":3030:3366  if (timeElapsed > 0 && _reserve0 != 0 && _reserve1 != 0) {\r... */\n              iszero\n              tag_284\n              jumpi\n                /* \"smart contracts/v2-core-master/contracts/UniswapV2Pair.sol\":3240:3251  timeElapsed */\n              dup1\n                /* \"smart contracts/v2-core-master/contracts/UniswapV2Pair.sol\":3187:3251  uint(UQ112x112.encode(_reserve1).uqdiv(_reserve0)) * timeElapsed */\n              0xffffffff\n              and\n                /* \"smart contracts/v2-core-master/contracts/UniswapV2Pair.sol\":3192:3236  UQ112x112.encode(_reserve1).uqdiv(_reserve0) */\n              tag_285\n                /* \"smart contracts/v2-core-master/contracts/UniswapV2Pair.sol\":3226:3235  _reserve0 */\n              dup6\n                /* \"smart contracts/v2-core-master/contracts/UniswapV2Pair.sol\":3192:3219  UQ112x112.encode(_reserve1) */\n              tag_286\n                /* \"smart contracts/v2-core-master/contracts/UniswapV2Pair.sol\":3209:3218  _reserve1 */\n              dup7\n                /* \"smart contracts/v2-core-master/contracts/UniswapV2Pair.sol\":3192:3208  UQ112x112.encode */\n              tag_287\n                /* \"smart contracts/v2-core-master/contracts/UniswapV2Pair.sol\":3192:3219  UQ112x112.encode(_reserve1) */\n              jump\t// in\n            tag_286:\n              sub(shl(0xe0, 0x01), 0x01)\n                /* \"smart contracts/v2-core-master/contracts/UniswapV2Pair.sol\":3192:3225  UQ112x112.encode(_reserve1).uqdiv */\n              and\n              swap1\n              tag_288\n                /* \"smart contracts/v2-core-master/contracts/UniswapV2Pair.sol\":3192:3236  UQ112x112.encode(_reserve1).uqdiv(_reserve0) */\n              jump\t// in\n            tag_285:\n                /* \"smart contracts/v2-core-master/contracts/UniswapV2Pair.sol\":3163:3183  price0CumulativeLast */\n              0x09\n                /* \"smart contracts/v2-core-master/contracts/UniswapV2Pair.sol\":3163:3251  price0CumulativeLast += uint(UQ112x112.encode(_reserve1).uqdiv(_reserve0)) * timeElapsed */\n              dup1\n              sload\n              sub(shl(0xe0, 0x01), 0x01)\n                /* \"smart contracts/v2-core-master/contracts/UniswapV2Pair.sol\":3187:3237  uint(UQ112x112.encode(_reserve1).uqdiv(_reserve0)) */\n              swap3\n              swap1\n              swap3\n              and\n                /* \"smart contracts/v2-core-master/contracts/UniswapV2Pair.sol\":3187:3251  uint(UQ112x112.encode(_reserve1).uqdiv(_reserve0)) * timeElapsed */\n              swap3\n              swap1\n              swap3\n              mul\n                /* \"smart contracts/v2-core-master/contracts/UniswapV2Pair.sol\":3163:3251  price0CumulativeLast += uint(UQ112x112.encode(_reserve1).uqdiv(_reserve0)) * timeElapsed */\n              add\n              swap1\n              sstore\n                /* \"smart contracts/v2-core-master/contracts/UniswapV2Pair.sol\":3290:3354  uint(UQ112x112.encode(_reserve0).uqdiv(_reserve1)) * timeElapsed */\n              0xffffffff\n              dup2\n              and\n                /* \"smart contracts/v2-core-master/contracts/UniswapV2Pair.sol\":3295:3339  UQ112x112.encode(_reserve0).uqdiv(_reserve1) */\n              tag_289\n                /* \"smart contracts/v2-core-master/contracts/UniswapV2Pair.sol\":3329:3338  _reserve1 */\n              dup5\n                /* \"smart contracts/v2-core-master/contracts/UniswapV2Pair.sol\":3295:3322  UQ112x112.encode(_reserve0) */\n              tag_286\n                /* \"smart contracts/v2-core-master/contracts/UniswapV2Pair.sol\":3312:3321  _reserve0 */\n              dup8\n                /* \"smart contracts/v2-core-master/contracts/UniswapV2Pair.sol\":3295:3311  UQ112x112.encode */\n              tag_287\n                /* \"smart contracts/v2-core-master/contracts/UniswapV2Pair.sol\":3295:3322  UQ112x112.encode(_reserve0) */\n              jump\t// in\n                /* \"smart contracts/v2-core-master/contracts/UniswapV2Pair.sol\":3295:3339  UQ112x112.encode(_reserve0).uqdiv(_reserve1) */\n            tag_289:\n                /* \"smart contracts/v2-core-master/contracts/UniswapV2Pair.sol\":3266:3286  price1CumulativeLast */\n              0x0a\n                /* \"smart contracts/v2-core-master/contracts/UniswapV2Pair.sol\":3266:3354  price1CumulativeLast += uint(UQ112x112.encode(_reserve0).uqdiv(_reserve1)) * timeElapsed */\n              dup1\n              sload\n              sub(shl(0xe0, 0x01), 0x01)\n                /* \"smart contracts/v2-core-master/contracts/UniswapV2Pair.sol\":3290:3340  uint(UQ112x112.encode(_reserve0).uqdiv(_reserve1)) */\n              swap3\n              swap1\n              swap3\n              and\n                /* \"smart contracts/v2-core-master/contracts/UniswapV2Pair.sol\":3290:3354  uint(UQ112x112.encode(_reserve0).uqdiv(_reserve1)) * timeElapsed */\n              swap3\n              swap1\n              swap3\n              mul\n                /* \"smart contracts/v2-core-master/contracts/UniswapV2Pair.sol\":3266:3354  price1CumulativeLast += uint(UQ112x112.encode(_reserve0).uqdiv(_reserve1)) * timeElapsed */\n              add\n              swap1\n              sstore\n                /* \"smart contracts/v2-core-master/contracts/UniswapV2Pair.sol\":3030:3366  if (timeElapsed > 0 && _reserve0 != 0 && _reserve1 != 0) {\r... */\n            tag_284:\n                /* \"smart contracts/v2-core-master/contracts/UniswapV2Pair.sol\":3376:3384  reserve0 */\n              0x08\n                /* \"smart contracts/v2-core-master/contracts/UniswapV2Pair.sol\":3376:3404  reserve0 = uint112(balance0) */\n              dup1\n              sload\n              not(0xffffffffffffffffffffffffffff)\n              and\n              sub(shl(0x70, 0x01), 0x01)\n              dup9\n              dup2\n              and\n              swap2\n              swap1\n              swap2\n              or\n              not(shl(0x70, 0xffffffffffffffffffffffffffff))\n                /* \"smart contracts/v2-core-master/contracts/UniswapV2Pair.sol\":3415:3443  reserve1 = uint112(balance1) */\n              and\n              shl(0x70, 0x01)\n              dup9\n              dup4\n              and\n              dup2\n              mul\n              swap2\n              swap1\n              swap2\n              or\n              sub(shl(0xe0, 0x01), 0x01)\n                /* \"smart contracts/v2-core-master/contracts/UniswapV2Pair.sol\":3454:3489  blockTimestampLast = blockTimestamp */\n              and\n              shl(0xe0, 0x01)\n              0xffffffff\n              dup8\n              and\n              mul\n              or\n              swap3\n              dup4\n              swap1\n              sstore\n                /* \"smart contracts/v2-core-master/contracts/UniswapV2Pair.sol\":3505:3529  Sync(reserve0, reserve1) */\n              0x40\n              dup1\n              mload\n                /* \"smart contracts/v2-core-master/contracts/UniswapV2Pair.sol\":3510:3518  reserve0 */\n              dup5\n              dup5\n              and\n                /* \"smart contracts/v2-core-master/contracts/UniswapV2Pair.sol\":3505:3529  Sync(reserve0, reserve1) */\n              dup2\n              mstore\n                /* \"smart contracts/v2-core-master/contracts/UniswapV2Pair.sol\":3520:3528  reserve1 */\n              swap2\n              swap1\n              swap4\n              div\n              swap1\n              swap2\n              and\n                /* \"smart contracts/v2-core-master/contracts/UniswapV2Pair.sol\":3505:3529  Sync(reserve0, reserve1) */\n              0x20\n              dup3\n              add\n              mstore\n              dup2\n              mload\n              0x1c411e9a96e071241c2f21f7726b17ae89e3cab4c78be50e062b03a9fffbbad1\n              swap3\n              swap2\n              dup2\n              swap1\n              sub\n              swap1\n              swap2\n              add\n              swap1\n              log1\n                /* \"smart contracts/v2-core-master/contracts/UniswapV2Pair.sol\":2677:3537  function _update(uint balance0, uint balance1, uint112 _reserve0, uint112 _reserve1) private {\r... */\n              pop\n              pop\n              pop\n              pop\n              pop\n              pop\n              jump\t// out\n                /* \"smart contracts/v2-core-master/contracts/UniswapV2ERC20.sol\":1833:2002  function _approve(address owner, address spender, uint value) private {\r... */\n            tag_160:\n              sub(shl(0xa0, 0x01), 0x01)\n                /* \"smart contracts/v2-core-master/contracts/UniswapV2ERC20.sol\":1914:1930  allowance[owner] */\n              dup4\n              dup2\n              and\n              0x00\n              dup2\n              dup2\n              mstore\n                /* \"smart contracts/v2-core-master/contracts/UniswapV2ERC20.sol\":1914:1923  allowance */\n              0x02\n                /* \"smart contracts/v2-core-master/contracts/UniswapV2ERC20.sol\":1914:1930  allowance[owner] */\n              0x20\n              swap1\n              dup2\n              mstore\n              0x40\n              dup1\n              dup4\n              keccak256\n                /* \"smart contracts/v2-core-master/contracts/UniswapV2ERC20.sol\":1914:1939  allowance[owner][spender] */\n              swap5\n              dup8\n              and\n              dup1\n              dup5\n              mstore\n              swap5\n              dup3\n              mstore\n              swap2\n              dup3\n              swap1\n              keccak256\n                /* \"smart contracts/v2-core-master/contracts/UniswapV2ERC20.sol\":1914:1947  allowance[owner][spender] = value */\n              dup6\n              swap1\n              sstore\n                /* \"smart contracts/v2-core-master/contracts/UniswapV2ERC20.sol\":1963:1994  Approval(owner, spender, value) */\n              dup2\n              mload\n              dup6\n              dup2\n              mstore\n              swap2\n              mload\n              0x8c5be1e5ebec7d5bd14f71427d1e84f3dd0314c0f7b2291e5b200ac8c7c3b925\n              swap3\n              dup2\n              swap1\n              sub\n              swap1\n              swap2\n              add\n              swap1\n              log3\n                /* \"smart contracts/v2-core-master/contracts/UniswapV2ERC20.sol\":1833:2002  function _approve(address owner, address spender, uint value) private {\r... */\n              pop\n              pop\n              pop\n              jump\t// out\n                /* \"smart contracts/v2-core-master/contracts/UniswapV2ERC20.sol\":2010:2230  function _transfer(address from, address to, uint value) private {\r... */\n            tag_165:\n              sub(shl(0xa0, 0x01), 0x01)\n                /* \"smart contracts/v2-core-master/contracts/UniswapV2ERC20.sol\":2104:2119  balanceOf[from] */\n              dup4\n              and\n              0x00\n              swap1\n              dup2\n              mstore\n              mstore(0x20, 0x01)\n              0x40\n              swap1\n              keccak256\n              sload\n                /* \"smart contracts/v2-core-master/contracts/UniswapV2ERC20.sol\":2104:2130  balanceOf[from].sub(value) */\n              tag_293\n              swap1\n                /* \"smart contracts/v2-core-master/contracts/UniswapV2ERC20.sol\":2124:2129  value */\n              dup3\n                /* \"smart contracts/v2-core-master/contracts/UniswapV2ERC20.sol\":2104:2123  balanceOf[from].sub */\n              tag_147\n                /* \"smart contracts/v2-core-master/contracts/UniswapV2ERC20.sol\":2104:2130  balanceOf[from].sub(value) */\n              jump\t// in\n            tag_293:\n              sub(shl(0xa0, 0x01), 0x01)\n                /* \"smart contracts/v2-core-master/contracts/UniswapV2ERC20.sol\":2086:2101  balanceOf[from] */\n              dup5\n              dup2\n              and\n              0x00\n              swap1\n              dup2\n              mstore\n              mstore(0x20, 0x01)\n              0x40\n              dup1\n              dup3\n              keccak256\n                /* \"smart contracts/v2-core-master/contracts/UniswapV2ERC20.sol\":2086:2130  balanceOf[from] = balanceOf[from].sub(value) */\n              swap4\n              swap1\n              swap4\n              sstore\n                /* \"smart contracts/v2-core-master/contracts/UniswapV2ERC20.sol\":2157:2170  balanceOf[to] */\n              swap1\n              dup5\n              and\n              dup2\n              mstore\n              keccak256\n              sload\n                /* \"smart contracts/v2-core-master/contracts/UniswapV2ERC20.sol\":2157:2181  balanceOf[to].add(value) */\n              tag_294\n              swap1\n                /* \"smart contracts/v2-core-master/contracts/UniswapV2ERC20.sol\":2175:2180  value */\n              dup3\n                /* \"smart contracts/v2-core-master/contracts/UniswapV2ERC20.sol\":2157:2174  balanceOf[to].add */\n              tag_295\n                /* \"smart contracts/v2-core-master/contracts/UniswapV2ERC20.sol\":2157:2181  balanceOf[to].add(value) */\n              jump\t// in\n            tag_294:\n              sub(shl(0xa0, 0x01), 0x01)\n                /* \"smart contracts/v2-core-master/contracts/UniswapV2ERC20.sol\":2141:2154  balanceOf[to] */\n              dup4\n              dup2\n              and\n              0x00\n              dup2\n              dup2\n              mstore\n              0x01\n              0x20\n              swap1\n              dup2\n              mstore\n              0x40\n              swap2\n              dup3\n              swap1\n              keccak256\n                /* \"smart contracts/v2-core-master/contracts/UniswapV2ERC20.sol\":2141:2181  balanceOf[to] = balanceOf[to].add(value) */\n              swap5\n              swap1\n              swap5\n              sstore\n                /* \"smart contracts/v2-core-master/contracts/UniswapV2ERC20.sol\":2197:2222  Transfer(from, to, value) */\n              dup1\n              mload\n              dup6\n              dup2\n              mstore\n              swap1\n              mload\n                /* \"smart contracts/v2-core-master/contracts/UniswapV2ERC20.sol\":2141:2154  balanceOf[to] */\n              swap2\n              swap4\n                /* \"smart contracts/v2-core-master/contracts/UniswapV2ERC20.sol\":2197:2222  Transfer(from, to, value) */\n              swap3\n              dup8\n              and\n              swap3\n              0xddf252ad1be2c89b69c2b068fc378daa952ba7f163c4a11628f55a4df523b3ef\n              swap3\n              swap2\n              dup3\n              swap1\n              sub\n              add\n              swap1\n              log3\n                /* \"smart contracts/v2-core-master/contracts/UniswapV2ERC20.sol\":2010:2230  function _transfer(address from, address to, uint value) private {\r... */\n              pop\n              pop\n              pop\n              jump\t// out\n                /* \"smart contracts/v2-core-master/contracts/UniswapV2Pair.sol\":3627:4943  function _mintFee(uint112 _reserve0, uint112 _reserve1) private returns (bool feeOn) {\r... */\n            tag_181:\n                /* \"smart contracts/v2-core-master/contracts/UniswapV2Pair.sol\":3757:3764  factory */\n              sload(0x05)\n                /* \"smart contracts/v2-core-master/contracts/UniswapV2Pair.sol\":3739:3773  IUniswapV2Factory(factory).feeTo() */\n              0x40\n              dup1\n              mload\n              shl(0xe3, 0x2fcfcb)\n              dup2\n              mstore\n              swap1\n              mload\n                /* \"smart contracts/v2-core-master/contracts/UniswapV2Pair.sol\":3700:3710  bool feeOn */\n              0x00\n              swap3\n              dup4\n              swap3\n              sub(shl(0xa0, 0x01), 0x01)\n                /* \"smart contracts/v2-core-master/contracts/UniswapV2Pair.sol\":3757:3764  factory */\n              swap1\n              swap2\n              and\n              swap2\n                /* \"smart contracts/v2-core-master/contracts/UniswapV2Pair.sol\":3739:3771  IUniswapV2Factory(factory).feeTo */\n              0x017e7e58\n              swap2\n                /* \"smart contracts/v2-core-master/contracts/UniswapV2Pair.sol\":3739:3773  IUniswapV2Factory(factory).feeTo() */\n              0x04\n              dup1\n              dup3\n              add\n              swap3\n              0x20\n              swap3\n              swap1\n              swap2\n              swap1\n              dup3\n              swap1\n              sub\n              add\n              dup2\n                /* \"smart contracts/v2-core-master/contracts/UniswapV2Pair.sol\":3757:3764  factory */\n              dup7\n                /* \"smart contracts/v2-core-master/contracts/UniswapV2Pair.sol\":3739:3773  IUniswapV2Factory(factory).feeTo() */\n              dup1\n              extcodesize\n              iszero\n                /* \"--CODEGEN--\":5:7   */\n              dup1\n              iszero\n              tag_297\n              jumpi\n                /* \"--CODEGEN--\":30:31   */\n              0x00\n                /* \"--CODEGEN--\":27:28   */\n              dup1\n                /* \"--CODEGEN--\":20:32   */\n              revert\n                /* \"--CODEGEN--\":5:7   */\n            tag_297:\n                /* \"smart contracts/v2-core-master/contracts/UniswapV2Pair.sol\":3739:3773  IUniswapV2Factory(factory).feeTo() */\n              pop\n              gas\n              staticcall\n              iszero\n                /* \"--CODEGEN--\":8:17   */\n              dup1\n                /* \"--CODEGEN--\":5:7   */\n              iszero\n              tag_298\n              jumpi\n                /* \"--CODEGEN--\":45:61   */\n              returndatasize\n                /* \"--CODEGEN--\":42:43   */\n              0x00\n                /* \"--CODEGEN--\":39:40   */\n              dup1\n                /* \"--CODEGEN--\":24:62   */\n              returndatacopy\n                /* \"--CODEGEN--\":77:93   */\n              returndatasize\n                /* \"--CODEGEN--\":74:75   */\n              0x00\n                /* \"--CODEGEN--\":67:94   */\n              revert\n                /* \"--CODEGEN--\":5:7   */\n            tag_298:\n                /* \"smart contracts/v2-core-master/contracts/UniswapV2Pair.sol\":3739:3773  IUniswapV2Factory(factory).feeTo() */\n              pop\n              pop\n              pop\n              pop\n              mload(0x40)\n              returndatasize\n                /* \"--CODEGEN--\":13:15   */\n              0x20\n                /* \"--CODEGEN--\":8:11   */\n              dup2\n                /* \"--CODEGEN--\":5:16   */\n              lt\n                /* \"--CODEGEN--\":2:4   */\n              iszero\n              tag_299\n              jumpi\n                /* \"--CODEGEN--\":29:30   */\n              0x00\n                /* \"--CODEGEN--\":26:27   */\n              dup1\n                /* \"--CODEGEN--\":19:31   */\n              revert\n                /* \"--CODEGEN--\":2:4   */\n            tag_299:\n              pop\n                /* \"smart contracts/v2-core-master/contracts/UniswapV2Pair.sol\":3739:3773  IUniswapV2Factory(factory).feeTo() */\n              mload\n                /* \"smart contracts/v2-core-master/contracts/UniswapV2Pair.sol\":3825:3832  factory */\n              sload(0x05)\n                /* \"smart contracts/v2-core-master/contracts/UniswapV2Pair.sol\":3807:3848  IUniswapV2Factory(factory).feeToCharity() */\n              0x40\n              dup1\n              mload\n              shl(0xe2, 0x27aebad3)\n              dup2\n              mstore\n              swap1\n              mload\n                /* \"smart contracts/v2-core-master/contracts/UniswapV2Pair.sol\":3739:3773  IUniswapV2Factory(factory).feeTo() */\n              swap3\n              swap4\n              pop\n                /* \"smart contracts/v2-core-master/contracts/UniswapV2Pair.sol\":3784:3804  address feeToCharity */\n              0x00\n              swap3\n              sub(shl(0xa0, 0x01), 0x01)\n                /* \"smart contracts/v2-core-master/contracts/UniswapV2Pair.sol\":3825:3832  factory */\n              swap1\n              swap3\n              and\n              swap2\n                /* \"smart contracts/v2-core-master/contracts/UniswapV2Pair.sol\":3807:3846  IUniswapV2Factory(factory).feeToCharity */\n              0x9ebaeb4c\n              swap2\n                /* \"smart contracts/v2-core-master/contracts/UniswapV2Pair.sol\":3807:3848  IUniswapV2Factory(factory).feeToCharity() */\n              0x04\n              dup1\n              dup3\n              add\n              swap3\n                /* \"smart contracts/v2-core-master/contracts/UniswapV2Pair.sol\":3739:3773  IUniswapV2Factory(factory).feeTo() */\n              0x20\n              swap3\n                /* \"smart contracts/v2-core-master/contracts/UniswapV2Pair.sol\":3807:3848  IUniswapV2Factory(factory).feeToCharity() */\n              swap1\n              swap2\n              swap1\n              dup3\n              swap1\n              sub\n              add\n              dup2\n                /* \"smart contracts/v2-core-master/contracts/UniswapV2Pair.sol\":3825:3832  factory */\n              dup7\n                /* \"smart contracts/v2-core-master/contracts/UniswapV2Pair.sol\":3807:3848  IUniswapV2Factory(factory).feeToCharity() */\n              dup1\n              extcodesize\n              iszero\n                /* \"--CODEGEN--\":5:7   */\n              dup1\n              iszero\n              tag_300\n              jumpi\n                /* \"--CODEGEN--\":30:31   */\n              0x00\n                /* \"--CODEGEN--\":27:28   */\n              dup1\n                /* \"--CODEGEN--\":20:32   */\n              revert\n                /* \"--CODEGEN--\":5:7   */\n            tag_300:\n                /* \"smart contracts/v2-core-master/contracts/UniswapV2Pair.sol\":3807:3848  IUniswapV2Factory(factory).feeToCharity() */\n              pop\n              gas\n              staticcall\n              iszero\n                /* \"--CODEGEN--\":8:17   */\n              dup1\n                /* \"--CODEGEN--\":5:7   */\n              iszero\n              tag_301\n              jumpi\n                /* \"--CODEGEN--\":45:61   */\n              returndatasize\n                /* \"--CODEGEN--\":42:43   */\n              0x00\n                /* \"--CODEGEN--\":39:40   */\n              dup1\n                /* \"--CODEGEN--\":24:62   */\n              returndatacopy\n                /* \"--CODEGEN--\":77:93   */\n              returndatasize\n                /* \"--CODEGEN--\":74:75   */\n              0x00\n                /* \"--CODEGEN--\":67:94   */\n              revert\n                /* \"--CODEGEN--\":5:7   */\n            tag_301:\n                /* \"smart contracts/v2-core-master/contracts/UniswapV2Pair.sol\":3807:3848  IUniswapV2Factory(factory).feeToCharity() */\n              pop\n              pop\n              pop\n              pop\n              mload(0x40)\n              returndatasize\n                /* \"--CODEGEN--\":13:15   */\n              0x20\n                /* \"--CODEGEN--\":8:11   */\n              dup2\n                /* \"--CODEGEN--\":5:16   */\n              lt\n                /* \"--CODEGEN--\":2:4   */\n              iszero\n              tag_302\n              jumpi\n                /* \"--CODEGEN--\":29:30   */\n              0x00\n                /* \"--CODEGEN--\":26:27   */\n              dup1\n                /* \"--CODEGEN--\":19:31   */\n              revert\n                /* \"--CODEGEN--\":2:4   */\n            tag_302:\n              pop\n                /* \"smart contracts/v2-core-master/contracts/UniswapV2Pair.sol\":3807:3848  IUniswapV2Factory(factory).feeToCharity() */\n              mload\n                /* \"smart contracts/v2-core-master/contracts/UniswapV2Pair.sol\":3911:3916  kLast */\n              sload(0x0b)\n              sub(shl(0xa0, 0x01), 0x01)\n                /* \"smart contracts/v2-core-master/contracts/UniswapV2Pair.sol\":3867:3886  feeTo != address(0) */\n              dup5\n              and\n              iszero\n              dup1\n              iszero\n              swap6\n              pop\n                /* \"smart contracts/v2-core-master/contracts/UniswapV2Pair.sol\":3807:3848  IUniswapV2Factory(factory).feeToCharity() */\n              swap2\n              swap3\n              pop\n                /* \"smart contracts/v2-core-master/contracts/UniswapV2Pair.sol\":3911:3916  kLast */\n              swap1\n                /* \"smart contracts/v2-core-master/contracts/UniswapV2Pair.sol\":3942:4936  if (feeOn) {\r... */\n              tag_303\n              jumpi\n                /* \"smart contracts/v2-core-master/contracts/UniswapV2Pair.sol\":3972:3983  _kLast != 0 */\n              dup1\n              iszero\n                /* \"smart contracts/v2-core-master/contracts/UniswapV2Pair.sol\":3968:4866  if (_kLast != 0) {\r... */\n              tag_304\n              jumpi\n                /* \"smart contracts/v2-core-master/contracts/UniswapV2Pair.sol\":4004:4014  uint rootK */\n              0x00\n                /* \"smart contracts/v2-core-master/contracts/UniswapV2Pair.sol\":4017:4058  Math.sqrt(uint(_reserve0).mul(_reserve1)) */\n              tag_305\n                /* \"smart contracts/v2-core-master/contracts/UniswapV2Pair.sol\":4027:4057  uint(_reserve0).mul(_reserve1) */\n              tag_185\n              sub(shl(0x70, 0x01), 0x01)\n                /* \"smart contracts/v2-core-master/contracts/UniswapV2Pair.sol\":4027:4042  uint(_reserve0) */\n              dup10\n              dup2\n              and\n              swap1\n                /* \"smart contracts/v2-core-master/contracts/UniswapV2Pair.sol\":4027:4057  uint(_reserve0).mul(_reserve1) */\n              dup10\n              and\n                /* \"smart contracts/v2-core-master/contracts/UniswapV2Pair.sol\":4027:4046  uint(_reserve0).mul */\n              tag_145\n                /* \"smart contracts/v2-core-master/contracts/UniswapV2Pair.sol\":4027:4057  uint(_reserve0).mul(_reserve1) */\n              jump\t// in\n                /* \"smart contracts/v2-core-master/contracts/UniswapV2Pair.sol\":4017:4058  Math.sqrt(uint(_reserve0).mul(_reserve1)) */\n            tag_305:\n                /* \"smart contracts/v2-core-master/contracts/UniswapV2Pair.sol\":4004:4058  uint rootK = Math.sqrt(uint(_reserve0).mul(_reserve1)) */\n              swap1\n              pop\n                /* \"smart contracts/v2-core-master/contracts/UniswapV2Pair.sol\":4077:4091  uint rootKLast */\n              0x00\n                /* \"smart contracts/v2-core-master/contracts/UniswapV2Pair.sol\":4094:4111  Math.sqrt(_kLast) */\n              tag_307\n                /* \"smart contracts/v2-core-master/contracts/UniswapV2Pair.sol\":4104:4110  _kLast */\n              dup4\n                /* \"smart contracts/v2-core-master/contracts/UniswapV2Pair.sol\":4094:4103  Math.sqrt */\n              tag_186\n                /* \"smart contracts/v2-core-master/contracts/UniswapV2Pair.sol\":4094:4111  Math.sqrt(_kLast) */\n              jump\t// in\n            tag_307:\n                /* \"smart contracts/v2-core-master/contracts/UniswapV2Pair.sol\":4077:4111  uint rootKLast = Math.sqrt(_kLast) */\n              swap1\n              pop\n                /* \"smart contracts/v2-core-master/contracts/UniswapV2Pair.sol\":4142:4151  rootKLast */\n              dup1\n                /* \"smart contracts/v2-core-master/contracts/UniswapV2Pair.sol\":4134:4139  rootK */\n              dup3\n                /* \"smart contracts/v2-core-master/contracts/UniswapV2Pair.sol\":4134:4151  rootK > rootKLast */\n              gt\n                /* \"smart contracts/v2-core-master/contracts/UniswapV2Pair.sol\":4130:4851  if (rootK > rootKLast) {\r... */\n              iszero\n              tag_308\n              jumpi\n                /* \"smart contracts/v2-core-master/contracts/UniswapV2Pair.sol\":4176:4190  uint numerator */\n              0x00\n                /* \"smart contracts/v2-core-master/contracts/UniswapV2Pair.sol\":4193:4230  totalSupply.mul(rootK.sub(rootKLast)) */\n              tag_309\n                /* \"smart contracts/v2-core-master/contracts/UniswapV2Pair.sol\":4209:4229  rootK.sub(rootKLast) */\n              tag_310\n                /* \"smart contracts/v2-core-master/contracts/UniswapV2Pair.sol\":4209:4214  rootK */\n              dup5\n                /* \"smart contracts/v2-core-master/contracts/UniswapV2Pair.sol\":4219:4228  rootKLast */\n              dup5\n                /* \"smart contracts/v2-core-master/contracts/UniswapV2Pair.sol\":4209:4229  rootK.sub(rootKLast) */\n              0xffffffff\n                /* \"smart contracts/v2-core-master/contracts/UniswapV2Pair.sol\":4209:4218  rootK.sub */\n              tag_147\n                /* \"smart contracts/v2-core-master/contracts/UniswapV2Pair.sol\":4209:4229  rootK.sub(rootKLast) */\n              and\n              jump\t// in\n            tag_310:\n                /* \"smart contracts/v2-core-master/contracts/UniswapV2Pair.sol\":4193:4204  totalSupply */\n              sload(0x00)\n              swap1\n                /* \"smart contracts/v2-core-master/contracts/UniswapV2Pair.sol\":4193:4230  totalSupply.mul(rootK.sub(rootKLast)) */\n              0xffffffff\n                /* \"smart contracts/v2-core-master/contracts/UniswapV2Pair.sol\":4193:4208  totalSupply.mul */\n              tag_145\n                /* \"smart contracts/v2-core-master/contracts/UniswapV2Pair.sol\":4193:4230  totalSupply.mul(rootK.sub(rootKLast)) */\n              and\n              jump\t// in\n            tag_309:\n                /* \"smart contracts/v2-core-master/contracts/UniswapV2Pair.sol\":4176:4230  uint numerator = totalSupply.mul(rootK.sub(rootKLast)) */\n              swap1\n              pop\n                /* \"smart contracts/v2-core-master/contracts/UniswapV2Pair.sol\":4253:4269  uint denominator */\n              0x00\n                /* \"smart contracts/v2-core-master/contracts/UniswapV2Pair.sol\":4272:4299  rootK.mul(4).add(rootKLast) */\n              tag_311\n                /* \"smart contracts/v2-core-master/contracts/UniswapV2Pair.sol\":4289:4298  rootKLast */\n              dup4\n                /* \"smart contracts/v2-core-master/contracts/UniswapV2Pair.sol\":4272:4284  rootK.mul(4) */\n              tag_312\n                /* \"smart contracts/v2-core-master/contracts/UniswapV2Pair.sol\":4272:4277  rootK */\n              dup7\n                /* \"smart contracts/v2-core-master/contracts/UniswapV2Pair.sol\":4282:4283  4 */\n              0x04\n                /* \"smart contracts/v2-core-master/contracts/UniswapV2Pair.sol\":4272:4284  rootK.mul(4) */\n              0xffffffff\n                /* \"smart contracts/v2-core-master/contracts/UniswapV2Pair.sol\":4272:4281  rootK.mul */\n              tag_145\n                /* \"smart contracts/v2-core-master/contracts/UniswapV2Pair.sol\":4272:4284  rootK.mul(4) */\n              and\n              jump\t// in\n            tag_312:\n                /* \"smart contracts/v2-core-master/contracts/UniswapV2Pair.sol\":4272:4288  rootK.mul(4).add */\n              swap1\n                /* \"smart contracts/v2-core-master/contracts/UniswapV2Pair.sol\":4272:4299  rootK.mul(4).add(rootKLast) */\n              0xffffffff\n                /* \"smart contracts/v2-core-master/contracts/UniswapV2Pair.sol\":4272:4288  rootK.mul(4).add */\n              tag_295\n                /* \"smart contracts/v2-core-master/contracts/UniswapV2Pair.sol\":4272:4299  rootK.mul(4).add(rootKLast) */\n              and\n              jump\t// in\n            tag_311:\n                /* \"smart contracts/v2-core-master/contracts/UniswapV2Pair.sol\":4253:4299  uint denominator = rootK.mul(4).add(rootKLast) */\n              swap1\n              pop\n                /* \"smart contracts/v2-core-master/contracts/UniswapV2Pair.sol\":4322:4336  uint liquidity */\n              0x00\n                /* \"smart contracts/v2-core-master/contracts/UniswapV2Pair.sol\":4351:4362  denominator */\n              dup2\n                /* \"smart contracts/v2-core-master/contracts/UniswapV2Pair.sol\":4339:4348  numerator */\n              dup4\n                /* \"smart contracts/v2-core-master/contracts/UniswapV2Pair.sol\":4339:4362  numerator / denominator */\n              dup2\n              tag_313\n              jumpi\n              invalid\n            tag_313:\n              div\n              swap1\n              pop\n                /* \"smart contracts/v2-core-master/contracts/UniswapV2Pair.sol\":4389:4402  liquidity > 0 */\n              dup1\n              iszero\n                /* \"smart contracts/v2-core-master/contracts/UniswapV2Pair.sol\":4385:4832  if (liquidity > 0) {\r... */\n              tag_317\n              jumpi\n              sub(shl(0xa0, 0x01), 0x01)\n                /* \"smart contracts/v2-core-master/contracts/UniswapV2Pair.sol\":4435:4461  feeToCharity == address(0) */\n              dup8\n              and\n                /* \"smart contracts/v2-core-master/contracts/UniswapV2Pair.sol\":4431:4809  if (feeToCharity == address(0)) {\r... */\n              tag_315\n              jumpi\n                /* \"smart contracts/v2-core-master/contracts/UniswapV2Pair.sol\":4494:4517  _mint(feeTo, liquidity) */\n              tag_316\n                /* \"smart contracts/v2-core-master/contracts/UniswapV2Pair.sol\":4500:4505  feeTo */\n              dup9\n                /* \"smart contracts/v2-core-master/contracts/UniswapV2Pair.sol\":4507:4516  liquidity */\n              dup3\n                /* \"smart contracts/v2-core-master/contracts/UniswapV2Pair.sol\":4494:4499  _mint */\n              tag_188\n                /* \"smart contracts/v2-core-master/contracts/UniswapV2Pair.sol\":4494:4517  _mint(feeTo, liquidity) */\n              jump\t// in\n            tag_316:\n                /* \"smart contracts/v2-core-master/contracts/UniswapV2Pair.sol\":4431:4809  if (feeToCharity == address(0)) {\r... */\n              jump(tag_317)\n            tag_315:\n                /* \"smart contracts/v2-core-master/contracts/UniswapV2Pair.sol\":4640:4642  10 */\n              0x0a\n                /* \"smart contracts/v2-core-master/contracts/UniswapV2Pair.sol\":4628:4642  liquidity*1/10 */\n              dup2\n              div\n                /* \"smart contracts/v2-core-master/contracts/UniswapV2Pair.sol\":4673:4708  _mint(feeTo, (new_liquidity*7)/100) */\n              tag_319\n                /* \"smart contracts/v2-core-master/contracts/UniswapV2Pair.sol\":4679:4684  feeTo */\n              dup10\n                /* \"smart contracts/v2-core-master/contracts/UniswapV2Pair.sol\":4704:4707  100 */\n              0x64\n                /* \"smart contracts/v2-core-master/contracts/UniswapV2Pair.sol\":4701:4702  7 */\n              0x07\n                /* \"smart contracts/v2-core-master/contracts/UniswapV2Pair.sol\":4687:4702  new_liquidity*7 */\n              dup5\n              mul\n                /* \"smart contracts/v2-core-master/contracts/UniswapV2Pair.sol\":4686:4707  (new_liquidity*7)/100 */\n            tag_320:\n              div\n                /* \"smart contracts/v2-core-master/contracts/UniswapV2Pair.sol\":4673:4678  _mint */\n              tag_188\n                /* \"smart contracts/v2-core-master/contracts/UniswapV2Pair.sol\":4673:4708  _mint(feeTo, (new_liquidity*7)/100) */\n              jump\t// in\n            tag_319:\n                /* \"smart contracts/v2-core-master/contracts/UniswapV2Pair.sol\":4739:4781  _mint(feeToCharity, (new_liquidity*3)/100) */\n              tag_321\n                /* \"smart contracts/v2-core-master/contracts/UniswapV2Pair.sol\":4745:4757  feeToCharity */\n              dup9\n                /* \"smart contracts/v2-core-master/contracts/UniswapV2Pair.sol\":4777:4780  100 */\n              0x64\n                /* \"smart contracts/v2-core-master/contracts/UniswapV2Pair.sol\":4774:4775  3 */\n              0x03\n                /* \"smart contracts/v2-core-master/contracts/UniswapV2Pair.sol\":4760:4775  new_liquidity*3 */\n              dup5\n              mul\n                /* \"smart contracts/v2-core-master/contracts/UniswapV2Pair.sol\":4759:4780  (new_liquidity*3)/100 */\n              jump(tag_320)\n                /* \"smart contracts/v2-core-master/contracts/UniswapV2Pair.sol\":4739:4781  _mint(feeToCharity, (new_liquidity*3)/100) */\n            tag_321:\n                /* \"smart contracts/v2-core-master/contracts/UniswapV2Pair.sol\":4431:4809  if (feeToCharity == address(0)) {\r... */\n              pop\n            tag_317:\n                /* \"smart contracts/v2-core-master/contracts/UniswapV2Pair.sol\":4130:4851  if (rootK > rootKLast) {\r... */\n              pop\n              pop\n              pop\n            tag_308:\n                /* \"smart contracts/v2-core-master/contracts/UniswapV2Pair.sol\":3968:4866  if (_kLast != 0) {\r... */\n              pop\n              pop\n            tag_304:\n                /* \"smart contracts/v2-core-master/contracts/UniswapV2Pair.sol\":3942:4936  if (feeOn) {\r... */\n              jump(tag_324)\n            tag_303:\n                /* \"smart contracts/v2-core-master/contracts/UniswapV2Pair.sol\":4887:4898  _kLast != 0 */\n              dup1\n              iszero\n                /* \"smart contracts/v2-core-master/contracts/UniswapV2Pair.sol\":4883:4936  if (_kLast != 0) {\r... */\n              tag_324\n              jumpi\n                /* \"smart contracts/v2-core-master/contracts/UniswapV2Pair.sol\":4923:4924  0 */\n              0x00\n                /* \"smart contracts/v2-core-master/contracts/UniswapV2Pair.sol\":4915:4920  kLast */\n              0x0b\n                /* \"smart contracts/v2-core-master/contracts/UniswapV2Pair.sol\":4915:4924  kLast = 0 */\n              sstore\n                /* \"smart contracts/v2-core-master/contracts/UniswapV2Pair.sol\":4883:4936  if (_kLast != 0) {\r... */\n            tag_324:\n                /* \"smart contracts/v2-core-master/contracts/UniswapV2Pair.sol\":3627:4943  function _mintFee(uint112 _reserve0, uint112 _reserve1) private returns (bool feeOn) {\r... */\n              pop\n              pop\n              pop\n              swap3\n              swap2\n              pop\n              pop\n              jump\t// out\n                /* \"smart contracts/v2-core-master/contracts/libraries/Math.sol\":317:620  function sqrt(uint y) internal pure returns (uint z) {\r... */\n            tag_186:\n                /* \"smart contracts/v2-core-master/contracts/libraries/Math.sol\":362:368  uint z */\n              0x00\n                /* \"smart contracts/v2-core-master/contracts/libraries/Math.sol\":389:390  3 */\n              0x03\n                /* \"smart contracts/v2-core-master/contracts/libraries/Math.sol\":385:386  y */\n              dup3\n                /* \"smart contracts/v2-core-master/contracts/libraries/Math.sol\":385:390  y > 3 */\n              gt\n                /* \"smart contracts/v2-core-master/contracts/libraries/Math.sol\":381:613  if (y > 3) {\r... */\n              iszero\n              tag_326\n              jumpi\n              pop\n                /* \"smart contracts/v2-core-master/contracts/libraries/Math.sol\":411:412  y */\n              dup1\n                /* \"smart contracts/v2-core-master/contracts/libraries/Math.sol\":444:445  1 */\n              0x01\n                /* \"smart contracts/v2-core-master/contracts/libraries/Math.sol\":440:441  2 */\n              0x02\n                /* \"smart contracts/v2-core-master/contracts/libraries/Math.sol\":436:441  y / 2 */\n              dup3\n              div\n                /* \"smart contracts/v2-core-master/contracts/libraries/Math.sol\":436:445  y / 2 + 1 */\n              add\n                /* \"smart contracts/v2-core-master/contracts/libraries/Math.sol\":460:552  while (x < z) {\r... */\n            tag_328:\n                /* \"smart contracts/v2-core-master/contracts/libraries/Math.sol\":471:472  z */\n              dup2\n                /* \"smart contracts/v2-core-master/contracts/libraries/Math.sol\":467:468  x */\n              dup2\n                /* \"smart contracts/v2-core-master/contracts/libraries/Math.sol\":467:472  x < z */\n              lt\n                /* \"smart contracts/v2-core-master/contracts/libraries/Math.sol\":460:552  while (x < z) {\r... */\n              iszero\n              tag_329\n              jumpi\n                /* \"smart contracts/v2-core-master/contracts/libraries/Math.sol\":497:498  x */\n              dup1\n                /* \"smart contracts/v2-core-master/contracts/libraries/Math.sol\":493:498  z = x */\n              swap2\n              pop\n                /* \"smart contracts/v2-core-master/contracts/libraries/Math.sol\":535:536  2 */\n              0x02\n                /* \"smart contracts/v2-core-master/contracts/libraries/Math.sol\":530:531  x */\n              dup2\n                /* \"smart contracts/v2-core-master/contracts/libraries/Math.sol\":526:527  x */\n              dup3\n                /* \"smart contracts/v2-core-master/contracts/libraries/Math.sol\":522:523  y */\n              dup6\n                /* \"smart contracts/v2-core-master/contracts/libraries/Math.sol\":522:527  y / x */\n              dup2\n              tag_330\n              jumpi\n              invalid\n            tag_330:\n              div\n                /* \"smart contracts/v2-core-master/contracts/libraries/Math.sol\":522:531  y / x + x */\n              add\n                /* \"smart contracts/v2-core-master/contracts/libraries/Math.sol\":521:536  (y / x + x) / 2 */\n              dup2\n              tag_331\n              jumpi\n              invalid\n            tag_331:\n              div\n                /* \"smart contracts/v2-core-master/contracts/libraries/Math.sol\":517:536  x = (y / x + x) / 2 */\n              swap1\n              pop\n                /* \"smart contracts/v2-core-master/contracts/libraries/Math.sol\":460:552  while (x < z) {\r... */\n              jump(tag_328)\n            tag_329:\n                /* \"smart contracts/v2-core-master/contracts/libraries/Math.sol\":381:613  if (y > 3) {\r... */\n              pop\n              jump(tag_333)\n            tag_326:\n                /* \"smart contracts/v2-core-master/contracts/libraries/Math.sol\":573:579  y != 0 */\n              dup2\n              iszero\n                /* \"smart contracts/v2-core-master/contracts/libraries/Math.sol\":569:613  if (y != 0) {\r... */\n              tag_333\n              jumpi\n              pop\n                /* \"smart contracts/v2-core-master/contracts/libraries/Math.sol\":600:601  1 */\n              0x01\n                /* \"smart contracts/v2-core-master/contracts/libraries/Math.sol\":569:613  if (y != 0) {\r... */\n            tag_333:\n                /* \"smart contracts/v2-core-master/contracts/libraries/Math.sol\":317:620  function sqrt(uint y) internal pure returns (uint z) {\r... */\n              swap2\n              swap1\n              pop\n              jump\t// out\n                /* \"smart contracts/v2-core-master/contracts/UniswapV2ERC20.sol\":1407:1608  function _mint(address to, uint value) internal {\r... */\n            tag_188:\n                /* \"smart contracts/v2-core-master/contracts/UniswapV2ERC20.sol\":1480:1491  totalSupply */\n              sload(0x00)\n                /* \"smart contracts/v2-core-master/contracts/UniswapV2ERC20.sol\":1480:1502  totalSupply.add(value) */\n              tag_335\n              swap1\n                /* \"smart contracts/v2-core-master/contracts/UniswapV2ERC20.sol\":1496:1501  value */\n              dup3\n                /* \"smart contracts/v2-core-master/contracts/UniswapV2ERC20.sol\":1480:1502  totalSupply.add(value) */\n              0xffffffff\n                /* \"smart contracts/v2-core-master/contracts/UniswapV2ERC20.sol\":1480:1495  totalSupply.add */\n              tag_295\n                /* \"smart contracts/v2-core-master/contracts/UniswapV2ERC20.sol\":1480:1502  totalSupply.add(value) */\n              and\n              jump\t// in\n            tag_335:\n                /* \"smart contracts/v2-core-master/contracts/UniswapV2ERC20.sol\":1466:1477  totalSupply */\n              0x00\n                /* \"smart contracts/v2-core-master/contracts/UniswapV2ERC20.sol\":1466:1502  totalSupply = totalSupply.add(value) */\n              swap1\n              dup2\n              sstore\n              sub(shl(0xa0, 0x01), 0x01)\n                /* \"smart contracts/v2-core-master/contracts/UniswapV2ERC20.sol\":1529:1542  balanceOf[to] */\n              dup4\n              and\n              dup2\n              mstore\n              mstore(0x20, 0x01)\n              0x40\n              swap1\n              keccak256\n              sload\n                /* \"smart contracts/v2-core-master/contracts/UniswapV2ERC20.sol\":1529:1553  balanceOf[to].add(value) */\n              tag_336\n              swap1\n                /* \"smart contracts/v2-core-master/contracts/UniswapV2ERC20.sol\":1547:1552  value */\n              dup3\n                /* \"smart contracts/v2-core-master/contracts/UniswapV2ERC20.sol\":1529:1546  balanceOf[to].add */\n              tag_295\n                /* \"smart contracts/v2-core-master/contracts/UniswapV2ERC20.sol\":1529:1553  balanceOf[to].add(value) */\n              jump\t// in\n            tag_336:\n              sub(shl(0xa0, 0x01), 0x01)\n                /* \"smart contracts/v2-core-master/contracts/UniswapV2ERC20.sol\":1513:1526  balanceOf[to] */\n              dup4\n              and\n              0x00\n              dup2\n              dup2\n              mstore\n              0x01\n              0x20\n              swap1\n              dup2\n              mstore\n              0x40\n              dup1\n              dup4\n              keccak256\n                /* \"smart contracts/v2-core-master/contracts/UniswapV2ERC20.sol\":1513:1553  balanceOf[to] = balanceOf[to].add(value) */\n              swap5\n              swap1\n              swap5\n              sstore\n                /* \"smart contracts/v2-core-master/contracts/UniswapV2ERC20.sol\":1569:1600  Transfer(address(0), to, value) */\n              dup4\n              mload\n              dup6\n              dup2\n              mstore\n              swap4\n              mload\n                /* \"smart contracts/v2-core-master/contracts/UniswapV2ERC20.sol\":1513:1526  balanceOf[to] */\n              swap3\n              swap4\n              swap2\n              swap3\n                /* \"smart contracts/v2-core-master/contracts/UniswapV2ERC20.sol\":1569:1600  Transfer(address(0), to, value) */\n              0xddf252ad1be2c89b69c2b068fc378daa952ba7f163c4a11628f55a4df523b3ef\n              swap3\n              dup2\n              swap1\n              sub\n              swap1\n              swap2\n              add\n              swap1\n              log3\n                /* \"smart contracts/v2-core-master/contracts/UniswapV2ERC20.sol\":1407:1608  function _mint(address to, uint value) internal {\r... */\n              pop\n              pop\n              jump\t// out\n                /* \"smart contracts/v2-core-master/contracts/libraries/Math.sol\":103:199  function min(uint x, uint y) internal pure returns (uint z) {\r... */\n            tag_195:\n                /* \"smart contracts/v2-core-master/contracts/libraries/Math.sol\":155:161  uint z */\n              0x00\n                /* \"smart contracts/v2-core-master/contracts/libraries/Math.sol\":182:183  y */\n              dup2\n                /* \"smart contracts/v2-core-master/contracts/libraries/Math.sol\":178:179  x */\n              dup4\n                /* \"smart contracts/v2-core-master/contracts/libraries/Math.sol\":178:183  x < y */\n              lt\n                /* \"smart contracts/v2-core-master/contracts/libraries/Math.sol\":178:191  x < y ? x : y */\n              tag_338\n              jumpi\n                /* \"smart contracts/v2-core-master/contracts/libraries/Math.sol\":190:191  y */\n              dup2\n                /* \"smart contracts/v2-core-master/contracts/libraries/Math.sol\":178:191  x < y ? x : y */\n              jump(tag_339)\n            tag_338:\n                /* \"smart contracts/v2-core-master/contracts/libraries/Math.sol\":186:187  x */\n              dup3\n                /* \"smart contracts/v2-core-master/contracts/libraries/Math.sol\":178:191  x < y ? x : y */\n            tag_339:\n                /* \"smart contracts/v2-core-master/contracts/libraries/Math.sol\":174:191  z = x < y ? x : y */\n              swap4\n                /* \"smart contracts/v2-core-master/contracts/libraries/Math.sol\":103:199  function min(uint x, uint y) internal pure returns (uint z) {\r... */\n              swap3\n              pop\n              pop\n              pop\n              jump\t// out\n                /* \"smart contracts/v2-core-master/contracts/UniswapV2ERC20.sol\":1616:1825  function _burn(address from, uint value) internal {\r... */\n            tag_219:\n              sub(shl(0xa0, 0x01), 0x01)\n                /* \"smart contracts/v2-core-master/contracts/UniswapV2ERC20.sol\":1695:1710  balanceOf[from] */\n              dup3\n              and\n              0x00\n              swap1\n              dup2\n              mstore\n              mstore(0x20, 0x01)\n              0x40\n              swap1\n              keccak256\n              sload\n                /* \"smart contracts/v2-core-master/contracts/UniswapV2ERC20.sol\":1695:1721  balanceOf[from].sub(value) */\n              tag_341\n              swap1\n                /* \"smart contracts/v2-core-master/contracts/UniswapV2ERC20.sol\":1715:1720  value */\n              dup3\n                /* \"smart contracts/v2-core-master/contracts/UniswapV2ERC20.sol\":1695:1714  balanceOf[from].sub */\n              tag_147\n                /* \"smart contracts/v2-core-master/contracts/UniswapV2ERC20.sol\":1695:1721  balanceOf[from].sub(value) */\n              jump\t// in\n            tag_341:\n              sub(shl(0xa0, 0x01), 0x01)\n                /* \"smart contracts/v2-core-master/contracts/UniswapV2ERC20.sol\":1677:1692  balanceOf[from] */\n              dup4\n              and\n              0x00\n              swap1\n              dup2\n              mstore\n              mstore(0x20, 0x01)\n              0x40\n              dup2\n              keccak256\n                /* \"smart contracts/v2-core-master/contracts/UniswapV2ERC20.sol\":1677:1721  balanceOf[from] = balanceOf[from].sub(value) */\n              swap2\n              swap1\n              swap2\n              sstore\n                /* \"smart contracts/v2-core-master/contracts/UniswapV2ERC20.sol\":1746:1757  totalSupply */\n              sload\n                /* \"smart contracts/v2-core-master/contracts/UniswapV2ERC20.sol\":1746:1768  totalSupply.sub(value) */\n              tag_342\n              swap1\n                /* \"smart contracts/v2-core-master/contracts/UniswapV2ERC20.sol\":1762:1767  value */\n              dup3\n                /* \"smart contracts/v2-core-master/contracts/UniswapV2ERC20.sol\":1746:1761  totalSupply.sub */\n              tag_147\n                /* \"smart contracts/v2-core-master/contracts/UniswapV2ERC20.sol\":1746:1768  totalSupply.sub(value) */\n              jump\t// in\n            tag_342:\n                /* \"smart contracts/v2-core-master/contracts/UniswapV2ERC20.sol\":1732:1743  totalSupply */\n              0x00\n                /* \"smart contracts/v2-core-master/contracts/UniswapV2ERC20.sol\":1732:1768  totalSupply = totalSupply.sub(value) */\n              swap1\n              dup2\n              sstore\n                /* \"smart contracts/v2-core-master/contracts/UniswapV2ERC20.sol\":1784:1817  Transfer(from, address(0), value) */\n              0x40\n              dup1\n              mload\n              dup4\n              dup2\n              mstore\n              swap1\n              mload\n              sub(shl(0xa0, 0x01), 0x01)\n              dup6\n              and\n              swap2\n              0xddf252ad1be2c89b69c2b068fc378daa952ba7f163c4a11628f55a4df523b3ef\n              swap2\n              swap1\n              dup2\n              swap1\n              sub\n              0x20\n              add\n              swap1\n              log3\n                /* \"smart contracts/v2-core-master/contracts/UniswapV2ERC20.sol\":1616:1825  function _burn(address from, uint value) internal {\r... */\n              pop\n              pop\n              jump\t// out\n                /* \"smart contracts/v2-core-master/contracts/libraries/UQ112x112.sol\":294:414  function encode(uint112 y) internal pure returns (uint224 z) {\r... */\n            tag_287:\n              sub(shl(0x70, 0x01), 0x01)\n                /* \"smart contracts/v2-core-master/contracts/libraries/UQ112x112.sol\":370:380  uint224(y) */\n              and\n              shl(0x70, 0x01)\n                /* \"smart contracts/v2-core-master/contracts/libraries/UQ112x112.sol\":370:387  uint224(y) * Q112 */\n              mul\n              swap1\n                /* \"smart contracts/v2-core-master/contracts/libraries/UQ112x112.sol\":294:414  function encode(uint112 y) internal pure returns (uint224 z) {\r... */\n              jump\t// out\n                /* \"smart contracts/v2-core-master/contracts/libraries/UQ112x112.sol\":485:593  function uqdiv(uint224 x, uint112 y) internal pure returns (uint224 z) {\r... */\n            tag_288:\n                /* \"smart contracts/v2-core-master/contracts/libraries/UQ112x112.sol\":545:554  uint224 z */\n              0x00\n              sub(shl(0x70, 0x01), 0x01)\n                /* \"smart contracts/v2-core-master/contracts/libraries/UQ112x112.sol\":575:585  uint224(y) */\n              dup3\n              and\n              sub(shl(0xe0, 0x01), 0x01)\n                /* \"smart contracts/v2-core-master/contracts/libraries/UQ112x112.sol\":571:585  x / uint224(y) */\n              dup5\n              and\n                /* \"smart contracts/v2-core-master/contracts/libraries/UQ112x112.sol\":575:585  uint224(y) */\n              dup2\n                /* \"smart contracts/v2-core-master/contracts/libraries/UQ112x112.sol\":571:585  x / uint224(y) */\n              tag_345\n              jumpi\n              invalid\n            tag_345:\n              div\n              swap4\n                /* \"smart contracts/v2-core-master/contracts/libraries/UQ112x112.sol\":485:593  function uqdiv(uint224 x, uint112 y) internal pure returns (uint224 z) {\r... */\n              swap3\n              pop\n              pop\n              pop\n              jump\t// out\n                /* \"smart contracts/v2-core-master/contracts/libraries/SafeMath.sol\":161:289  function add(uint x, uint y) internal pure returns (uint z) {\r... */\n            tag_295:\n                /* \"smart contracts/v2-core-master/contracts/libraries/SafeMath.sol\":245:250  x + y */\n              dup1\n              dup3\n              add\n                /* \"smart contracts/v2-core-master/contracts/libraries/SafeMath.sol\":240:256  (z = x + y) >= x */\n              dup3\n              dup2\n              lt\n              iszero\n                /* \"smart contracts/v2-core-master/contracts/libraries/SafeMath.sol\":232:281  require((z = x + y) >= x, 'ds-math-add-overflow') */\n              tag_158\n              jumpi\n              0x40\n              dup1\n              mload\n              shl(0xe5, 0x461bcd)\n              dup2\n              mstore\n              0x20\n              0x04\n              dup3\n              add\n              mstore\n              0x14\n              0x24\n              dup3\n              add\n              mstore\n              shl(0x60, 0x64732d6d6174682d6164642d6f766572666c6f77)\n              0x44\n              dup3\n              add\n              mstore\n              swap1\n              mload\n              swap1\n              dup2\n              swap1\n              sub\n              0x64\n              add\n              swap1\n              revert\n            stop\n            data_05339493da7e2cbe77e17beadf6b91132eb307939495f5f1797bf88d95539e83 556e697377617056323a20494e53554646494349454e545f4f55545055545f414d4f554e54\n            data_10e2efc32d8a31d3b2c11a545b3ed09c2dbabc58ef6de4033929d0002e425b67 556e697377617056323a20494e53554646494349454e545f494e5055545f414d4f554e54\n            data_3f354ef449b2a9b081220ce21f57691008110b653edc191d8288e60cef58bb5f 556e697377617056323a20494e53554646494349454e545f4c4951554944495459\n            data_57ebfb4dd8b5082cdba0f23c17077e3b0ecb9782a51e0e9a15e9bc8c4b30c562 556e697377617056323a20494e53554646494349454e545f4c49515549444954595f4255524e4544\n            data_6591c9f5bf1fefaad109b76a20e25c857b696080c952191f86220f001a83663e 556e697377617056323a20494e53554646494349454e545f4c49515549444954595f4d494e544544\n\n            auxdata: 0xa265627a7a72315820409f5ccd06b66c8d998eb9ac85247150b0b4c574578aaf6a71a406ed107dd17d64736f6c63430005100032\n        }\n    }\n\n    auxdata: 0xa265627a7a7231582019fda0df9b5098944ba57226b8d2e9d2ac51e89ceee095d8e8c0cf83b0000be564736f6c63430005100032\n}\n",
				"bytecode": {
					"linkReferences": {},
					"object": "608060405234801561001057600080fd5b50604051612cc9380380612cc98339818101604052602081101561003357600080fd5b5051600280546001600160a01b0319166001600160a01b03909216919091179055612c66806100636000396000f3fe608060405234801561001057600080fd5b50600436106100a95760003560e01c8063574f2ba311610071578063574f2ba3146101395780639ebaeb4c14610141578063a2e74af614610149578063c9c653961461016f578063e6a439051461019d578063f46901ed146101cb576100a9565b8063017e7e58146100ae578063063058b3146100d2578063094b7415146100fa5780631e3dd18b14610102578063257671f51461011f575b600080fd5b6100b66101f1565b604080516001600160a01b039092168252519081900360200190f35b6100f8600480360360208110156100e857600080fd5b50356001600160a01b0316610200565b005b6100b6610278565b6100b66004803603602081101561011857600080fd5b5035610287565b6101276102ae565b60408051918252519081900360200190f35b610127610341565b6100b6610347565b6100f86004803603602081101561015f57600080fd5b50356001600160a01b0316610356565b6100b66004803603604081101561018557600080fd5b506001600160a01b03813581169160200135166103ce565b6100b6600480360360408110156101b357600080fd5b506001600160a01b03813581169160200135166106ff565b6100f8600480360360208110156101e157600080fd5b50356001600160a01b0316610725565b6000546001600160a01b031681565b6002546001600160a01b03163314610256576040805162461bcd60e51b81526020600482015260146024820152732ab734b9bbb0b82b191d102327a92124a22222a760611b604482015290519081900360640190fd5b600180546001600160a01b0319166001600160a01b0392909216919091179055565b6002546001600160a01b031681565b6004818154811061029457fe5b6000918252602090912001546001600160a01b0316905081565b6040516102bd6020820161079d565b6020820181038252601f19601f820116604052506040516020018082805190602001908083835b602083106103035780518252601f1990920191602091820191016102e4565b6001836020036101000a0380198251168184511680821785525050505050509050019150506040516020818303038152906040528051906020012081565b60045490565b6001546001600160a01b031681565b6002546001600160a01b031633146103ac576040805162461bcd60e51b81526020600482015260146024820152732ab734b9bbb0b82b191d102327a92124a22222a760611b604482015290519081900360640190fd5b600280546001600160a01b0319166001600160a01b0392909216919091179055565b6000816001600160a01b0316836001600160a01b03161415610437576040805162461bcd60e51b815260206004820152601e60248201527f556e697377617056323a204944454e544943414c5f4144445245535345530000604482015290519081900360640190fd5b600080836001600160a01b0316856001600160a01b03161061045a57838561045d565b84845b90925090506001600160a01b0382166104bd576040805162461bcd60e51b815260206004820152601760248201527f556e697377617056323a205a45524f5f41444452455353000000000000000000604482015290519081900360640190fd5b6001600160a01b03828116600090815260036020908152604080832085851684529091529020541615610530576040805162461bcd60e51b8152602060048201526016602482015275556e697377617056323a20504149525f45584953545360501b604482015290519081900360640190fd5b6060604051806020016105429061079d565b6020820181038252601f19601f8201166040525090506000838360405160200180836001600160a01b03166001600160a01b031660601b8152601401826001600160a01b03166001600160a01b031660601b815260140192505050604051602081830303815290604052805190602001209050808251602084016000f56040805163485cc95560e01b81526001600160a01b038781166004830152868116602483015291519297509087169163485cc9559160448082019260009290919082900301818387803b15801561061557600080fd5b505af1158015610629573d6000803e3d6000fd5b505050506001600160a01b0384811660008181526003602081815260408084208987168086529083528185208054978d166001600160a01b031998891681179091559383528185208686528352818520805488168517905560048054600181018255958190527f8a35acfbc15ff81a39ae7d344fd709f28e8600b4aa8c65c6b64bfe7fe36bd19b90950180549097168417909655925483519283529082015281517f0d3648bd0f6ba80134a33ba9275ac585d9d315f0ad8355cddefde31afa28d0e9929181900390910190a35050505092915050565b60036020908152600092835260408084209091529082529020546001600160a01b031681565b6002546001600160a01b0316331461077b576040805162461bcd60e51b81526020600482015260146024820152732ab734b9bbb0b82b191d102327a92124a22222a760611b604482015290519081900360640190fd5b600080546001600160a01b0319166001600160a01b0392909216919091179055565b612487806107ab8339019056fe60806040526001600c5534801561001557600080fd5b5060405146908060526124358239604080519182900360520182208282018252600a8352692432bc3c102a37b5b2b760b11b6020938401528151808301835260018152603160f81b908401528151808401919091527fc752079a5b46b20bb2d74ca8b56c765da37034eb5f30423e0c854747bc9a645d818301527fc89efdaa54c0f20c7adf612882df0950f5a951637e0307cdcb4c672f298b8bc6606082015260808101949094523060a0808601919091528151808603909101815260c09094019052825192019190912060035550600580546001600160a01b03191633179055612330806101056000396000f3fe608060405234801561001057600080fd5b50600436106101a95760003560e01c80636a627842116100f9578063ba9a7a5611610097578063d21220a711610071578063d21220a714610534578063d505accf1461053c578063dd62ed3e1461058d578063fff6cae9146105bb576101a9565b8063ba9a7a56146104fe578063bc25cf7714610506578063c45a01551461052c576101a9565b80637ecebe00116100d35780637ecebe001461046557806389afcb441461048b57806395d89b41146104ca578063a9059cbb146104d2576101a9565b80636a6278421461041157806370a08231146104375780637464fc3d1461045d576101a9565b806323b872dd116101665780633644e515116101405780633644e515146103cb578063485cc955146103d35780635909c0d5146104015780635a3d549314610409576101a9565b806323b872dd1461036f57806330adf81f146103a5578063313ce567146103ad576101a9565b8063022c0d9f146101ae57806306fdde031461023c5780630902f1ac146102b9578063095ea7b3146102f15780630dfe16811461033157806318160ddd14610355575b600080fd5b61023a600480360360808110156101c457600080fd5b8135916020810135916001600160a01b0360408301351691908101906080810160608201356401000000008111156101fb57600080fd5b82018360208201111561020d57600080fd5b8035906020019184600183028401116401000000008311171561022f57600080fd5b5090925090506105c3565b005b610244610afe565b6040805160208082528351818301528351919283929083019185019080838360005b8381101561027e578181015183820152602001610266565b50505050905090810190601f1680156102ab5780820380516001836020036101000a031916815260200191505b509250505060405180910390f35b6102c1610b24565b604080516001600160701b03948516815292909316602083015263ffffffff168183015290519081900360600190f35b61031d6004803603604081101561030757600080fd5b506001600160a01b038135169060200135610b4e565b604080519115158252519081900360200190f35b610339610b65565b604080516001600160a01b039092168252519081900360200190f35b61035d610b74565b60408051918252519081900360200190f35b61031d6004803603606081101561038557600080fd5b506001600160a01b03813581169160208101359091169060400135610b7a565b61035d610c14565b6103b5610c38565b6040805160ff9092168252519081900360200190f35b61035d610c3d565b61023a600480360360408110156103e957600080fd5b506001600160a01b0381358116916020013516610c43565b61035d610cc7565b61035d610ccd565b61035d6004803603602081101561042757600080fd5b50356001600160a01b0316610cd3565b61035d6004803603602081101561044d57600080fd5b50356001600160a01b0316610fd3565b61035d610fe5565b61035d6004803603602081101561047b57600080fd5b50356001600160a01b0316610feb565b6104b1600480360360208110156104a157600080fd5b50356001600160a01b0316610ffd565b6040805192835260208301919091528051918290030190f35b6102446113a3565b61031d600480360360408110156104e857600080fd5b506001600160a01b0381351690602001356113c3565b61035d6113d0565b61023a6004803603602081101561051c57600080fd5b50356001600160a01b03166113d6565b610339611541565b610339611550565b61023a600480360360e081101561055257600080fd5b506001600160a01b03813581169160208101359091169060408101359060608101359060ff6080820135169060a08101359060c0013561155f565b61035d600480360360408110156105a357600080fd5b506001600160a01b0381358116916020013516611761565b61023a61177e565b600c5460011461060e576040805162461bcd60e51b8152602060048201526011602482015270155b9a5cddd85c158c8e881313d0d2d151607a1b604482015290519081900360640190fd5b6000600c55841515806106215750600084115b61065c5760405162461bcd60e51b81526004018080602001828103825260258152602001806122426025913960400191505060405180910390fd5b600080610667610b24565b5091509150816001600160701b03168710801561068c5750806001600160701b031686105b6106c75760405162461bcd60e51b815260040180806020018281038252602181526020018061228b6021913960400191505060405180910390fd5b60065460075460009182916001600160a01b039182169190811690891682148015906107055750806001600160a01b0316896001600160a01b031614155b61074e576040805162461bcd60e51b8152602060048201526015602482015274556e697377617056323a20494e56414c49445f544f60581b604482015290519081900360640190fd5b8a1561075f5761075f828a8d6118e0565b891561077057610770818a8c6118e0565b861561082b57886001600160a01b03166310d1e85c338d8d8c8c6040518663ffffffff1660e01b815260040180866001600160a01b03166001600160a01b03168152602001858152602001848152602001806020018281038252848482818152602001925080828437600081840152601f19601f8201169050808301925050509650505050505050600060405180830381600087803b15801561081257600080fd5b505af1158015610826573d6000803e3d6000fd5b505050505b604080516370a0823160e01b815230600482015290516001600160a01b038416916370a08231916024808301926020929190829003018186803b15801561087157600080fd5b505afa158015610885573d6000803e3d6000fd5b505050506040513d602081101561089b57600080fd5b5051604080516370a0823160e01b815230600482015290519195506001600160a01b038316916370a0823191602480820192602092909190829003018186803b1580156108e757600080fd5b505afa1580156108fb573d6000803e3d6000fd5b505050506040513d602081101561091157600080fd5b5051925060009150506001600160701b0385168a90038311610934576000610943565b89856001600160701b03160383035b9050600089856001600160701b031603831161096057600061096f565b89856001600160701b03160383035b905060008211806109805750600081115b6109bb5760405162461bcd60e51b81526004018080602001828103825260248152602001806122676024913960400191505060405180910390fd5b60006109ef6109d184600563ffffffff611a7a16565b6109e3876103e863ffffffff611a7a16565b9063ffffffff611add16565b90506000610a076109d184600563ffffffff611a7a16565b9050610a38620f4240610a2c6001600160701b038b8116908b1663ffffffff611a7a16565b9063ffffffff611a7a16565b610a48838363ffffffff611a7a16565b1015610a8a576040805162461bcd60e51b815260206004820152600c60248201526b556e697377617056323a204b60a01b604482015290519081900360640190fd5b5050610a9884848888611b2d565b60408051838152602081018390528082018d9052606081018c905290516001600160a01b038b169133917fd78ad95fa46c994b6551d0da85fc275fe613ce37657fb8d5e3d130840159d8229181900360800190a350506001600c55505050505050505050565b6040518060400160405280600a8152602001692432bc3c102a37b5b2b760b11b81525081565b6008546001600160701b0380821692600160701b830490911691600160e01b900463ffffffff1690565b6000610b5b338484611cf2565b5060015b92915050565b6006546001600160a01b031681565b60005481565b6001600160a01b038316600090815260026020908152604080832033845290915281205460001914610bff576001600160a01b0384166000908152600260209081526040808320338452909152902054610bda908363ffffffff611add16565b6001600160a01b03851660009081526002602090815260408083203384529091529020555b610c0a848484611d54565b5060019392505050565b7f6e71edae12b1b97f4d1f60370fef10105fa2faae0126114a169c64845d6126c981565b601281565b60035481565b6005546001600160a01b03163314610c99576040805162461bcd60e51b81526020600482015260146024820152732ab734b9bbb0b82b191d102327a92124a22222a760611b604482015290519081900360640190fd5b600680546001600160a01b039384166001600160a01b03199182161790915560078054929093169116179055565b60095481565b600a5481565b6000600c54600114610d20576040805162461bcd60e51b8152602060048201526011602482015270155b9a5cddd85c158c8e881313d0d2d151607a1b604482015290519081900360640190fd5b6000600c81905580610d30610b24565b50600654604080516370a0823160e01b815230600482015290519395509193506000926001600160a01b03909116916370a08231916024808301926020929190829003018186803b158015610d8457600080fd5b505afa158015610d98573d6000803e3d6000fd5b505050506040513d6020811015610dae57600080fd5b5051600754604080516370a0823160e01b815230600482015290519293506000926001600160a01b03909216916370a0823191602480820192602092909190829003018186803b158015610e0157600080fd5b505afa158015610e15573d6000803e3d6000fd5b505050506040513d6020811015610e2b57600080fd5b505190506000610e4a836001600160701b03871663ffffffff611add16565b90506000610e67836001600160701b03871663ffffffff611add16565b90506000610e758787611e0e565b60005490915080610eb257610e9e6103e86109e3610e99878763ffffffff611a7a16565b61201d565b9850610ead60006103e861206f565b610f01565b610efe6001600160701b038916610ecf868463ffffffff611a7a16565b81610ed657fe5b046001600160701b038916610ef1868563ffffffff611a7a16565b81610ef857fe5b04612105565b98505b60008911610f405760405162461bcd60e51b81526004018080602001828103825260288152602001806122d46028913960400191505060405180910390fd5b610f4a8a8a61206f565b610f5686868a8a611b2d565b8115610f8657600854610f82906001600160701b0380821691600160701b90041663ffffffff611a7a16565b600b555b6040805185815260208101859052815133927f4c209b5fc8ad50758f13e2e1088ba56a560dff690a1c6fef26394f4c03821c4f928290030190a250506001600c5550949695505050505050565b60016020526000908152604090205481565b600b5481565b60046020526000908152604090205481565b600080600c5460011461104b576040805162461bcd60e51b8152602060048201526011602482015270155b9a5cddd85c158c8e881313d0d2d151607a1b604482015290519081900360640190fd5b6000600c8190558061105b610b24565b50600654600754604080516370a0823160e01b815230600482015290519496509294506001600160a01b039182169391169160009184916370a08231916024808301926020929190829003018186803b1580156110b757600080fd5b505afa1580156110cb573d6000803e3d6000fd5b505050506040513d60208110156110e157600080fd5b5051604080516370a0823160e01b815230600482015290519192506000916001600160a01b038516916370a08231916024808301926020929190829003018186803b15801561112f57600080fd5b505afa158015611143573d6000803e3d6000fd5b505050506040513d602081101561115957600080fd5b5051306000908152600160205260408120549192506111788888611e0e565b6000549091508061118f848763ffffffff611a7a16565b8161119657fe5b049a50806111aa848663ffffffff611a7a16565b816111b157fe5b04995060008b1180156111c4575060008a115b6111ff5760405162461bcd60e51b81526004018080602001828103825260288152602001806122ac6028913960400191505060405180910390fd5b611209308461211d565b611214878d8d6118e0565b61121f868d8c6118e0565b604080516370a0823160e01b815230600482015290516001600160a01b038916916370a08231916024808301926020929190829003018186803b15801561126557600080fd5b505afa158015611279573d6000803e3d6000fd5b505050506040513d602081101561128f57600080fd5b5051604080516370a0823160e01b815230600482015290519196506001600160a01b038816916370a0823191602480820192602092909190829003018186803b1580156112db57600080fd5b505afa1580156112ef573d6000803e3d6000fd5b505050506040513d602081101561130557600080fd5b5051935061131585858b8b611b2d565b811561134557600854611341906001600160701b0380821691600160701b90041663ffffffff611a7a16565b600b555b604080518c8152602081018c905281516001600160a01b038f169233927fdccd412f0b1252819cb1fd330b93224ca42612892bb3f4f789976e6d81936496929081900390910190a35050505050505050506001600c81905550915091565b604051806040016040528060048152602001630908ab0b60e31b81525081565b6000610b5b338484611d54565b6103e881565b600c54600114611421576040805162461bcd60e51b8152602060048201526011602482015270155b9a5cddd85c158c8e881313d0d2d151607a1b604482015290519081900360640190fd5b6000600c55600654600754600854604080516370a0823160e01b815230600482015290516001600160a01b0394851694909316926114d092859287926114cb926001600160701b03169185916370a0823191602480820192602092909190829003018186803b15801561149357600080fd5b505afa1580156114a7573d6000803e3d6000fd5b505050506040513d60208110156114bd57600080fd5b50519063ffffffff611add16565b6118e0565b600854604080516370a0823160e01b8152306004820152905161153792849287926114cb92600160701b90046001600160701b0316916001600160a01b038616916370a0823191602480820192602092909190829003018186803b15801561149357600080fd5b50506001600c5550565b6005546001600160a01b031681565b6007546001600160a01b031681565b428410156115a9576040805162461bcd60e51b8152602060048201526012602482015271155b9a5cddd85c158c8e881156141254915160721b604482015290519081900360640190fd5b6003546001600160a01b0380891660008181526004602090815260408083208054600180820190925582517f6e71edae12b1b97f4d1f60370fef10105fa2faae0126114a169c64845d6126c98186015280840196909652958d166060860152608085018c905260a085019590955260c08085018b90528151808603909101815260e08501825280519083012061190160f01b6101008601526101028501969096526101228085019690965280518085039096018652610142840180825286519683019690962095839052610162840180825286905260ff89166101828501526101a284018890526101c28401879052519193926101e280820193601f1981019281900390910190855afa1580156116c4573d6000803e3d6000fd5b5050604051601f1901519150506001600160a01b038116158015906116fa5750886001600160a01b0316816001600160a01b0316145b61174b576040805162461bcd60e51b815260206004820152601c60248201527f556e697377617056323a20494e56414c49445f5349474e415455524500000000604482015290519081900360640190fd5b611756898989611cf2565b505050505050505050565b600260209081526000928352604080842090915290825290205481565b600c546001146117c9576040805162461bcd60e51b8152602060048201526011602482015270155b9a5cddd85c158c8e881313d0d2d151607a1b604482015290519081900360640190fd5b6000600c55600654604080516370a0823160e01b815230600482015290516118d9926001600160a01b0316916370a08231916024808301926020929190829003018186803b15801561181a57600080fd5b505afa15801561182e573d6000803e3d6000fd5b505050506040513d602081101561184457600080fd5b5051600754604080516370a0823160e01b815230600482015290516001600160a01b03909216916370a0823191602480820192602092909190829003018186803b15801561189157600080fd5b505afa1580156118a5573d6000803e3d6000fd5b505050506040513d60208110156118bb57600080fd5b50516008546001600160701b0380821691600160701b900416611b2d565b6001600c55565b604080518082018252601981527f7472616e7366657228616464726573732c75696e74323536290000000000000060209182015281516001600160a01b0385811660248301526044808301869052845180840390910181526064909201845291810180516001600160e01b031663a9059cbb60e01b1781529251815160009460609489169392918291908083835b6020831061198d5780518252601f19909201916020918201910161196e565b6001836020036101000a0380198251168184511680821785525050505050509050019150506000604051808303816000865af19150503d80600081146119ef576040519150601f19603f3d011682016040523d82523d6000602084013e6119f4565b606091505b5091509150818015611a22575080511580611a225750808060200190516020811015611a1f57600080fd5b50515b611a73576040805162461bcd60e51b815260206004820152601a60248201527f556e697377617056323a205452414e534645525f4641494c4544000000000000604482015290519081900360640190fd5b5050505050565b6000811580611a9557505080820282828281611a9257fe5b04145b610b5f576040805162461bcd60e51b815260206004820152601460248201527364732d6d6174682d6d756c2d6f766572666c6f7760601b604482015290519081900360640190fd5b80820382811115610b5f576040805162461bcd60e51b815260206004820152601560248201527464732d6d6174682d7375622d756e646572666c6f7760581b604482015290519081900360640190fd5b6001600160701b038411801590611b4b57506001600160701b038311155b611b92576040805162461bcd60e51b8152602060048201526013602482015272556e697377617056323a204f564552464c4f5760681b604482015290519081900360640190fd5b60085463ffffffff42811691600160e01b90048116820390811615801590611bc257506001600160701b03841615155b8015611bd657506001600160701b03831615155b15611c47578063ffffffff16611c0485611bef866121bb565b6001600160e01b03169063ffffffff6121cd16565b600980546001600160e01b03929092169290920201905563ffffffff8116611c2f84611bef876121bb565b600a80546001600160e01b0392909216929092020190555b600880546dffffffffffffffffffffffffffff19166001600160701b03888116919091176dffffffffffffffffffffffffffff60701b1916600160701b8883168102919091176001600160e01b0316600160e01b63ffffffff871602179283905560408051848416815291909304909116602082015281517f1c411e9a96e071241c2f21f7726b17ae89e3cab4c78be50e062b03a9fffbbad1929181900390910190a1505050505050565b6001600160a01b03808416600081815260026020908152604080832094871680845294825291829020859055815185815291517f8c5be1e5ebec7d5bd14f71427d1e84f3dd0314c0f7b2291e5b200ac8c7c3b9259281900390910190a3505050565b6001600160a01b038316600090815260016020526040902054611d7d908263ffffffff611add16565b6001600160a01b038085166000908152600160205260408082209390935590841681522054611db2908263ffffffff6121f216565b6001600160a01b0380841660008181526001602090815260409182902094909455805185815290519193928716927fddf252ad1be2c89b69c2b068fc378daa952ba7f163c4a11628f55a4df523b3ef92918290030190a3505050565b600080600560009054906101000a90046001600160a01b03166001600160a01b031663017e7e586040518163ffffffff1660e01b815260040160206040518083038186803b158015611e5f57600080fd5b505afa158015611e73573d6000803e3d6000fd5b505050506040513d6020811015611e8957600080fd5b5051600554604080516327aebad360e21b815290519293506000926001600160a01b0390921691639ebaeb4c91600480820192602092909190829003018186803b158015611ed657600080fd5b505afa158015611eea573d6000803e3d6000fd5b505050506040513d6020811015611f0057600080fd5b5051600b546001600160a01b038416158015955091925090612008578015612003576000611f43610e996001600160701b0389811690891663ffffffff611a7a16565b90506000611f508361201d565b905080821115612000576000611f7e611f6f848463ffffffff611add16565b6000549063ffffffff611a7a16565b90506000611fa383611f9786600463ffffffff611a7a16565b9063ffffffff6121f216565b90506000818381611fb057fe5b0490508015611ffc576001600160a01b038716611fd657611fd1888261206f565b611ffc565b600a8104611feb896064600784025b0461206f565b611ffa88606460038402611fe5565b505b5050505b50505b612014565b8015612014576000600b555b50505092915050565b60006003821115612060575080600160028204015b8181101561205a5780915060028182858161204957fe5b04018161205257fe5b049050612032565b5061206a565b811561206a575060015b919050565b600054612082908263ffffffff6121f216565b60009081556001600160a01b0383168152600160205260409020546120ad908263ffffffff6121f216565b6001600160a01b03831660008181526001602090815260408083209490945583518581529351929391927fddf252ad1be2c89b69c2b068fc378daa952ba7f163c4a11628f55a4df523b3ef9281900390910190a35050565b60008183106121145781612116565b825b9392505050565b6001600160a01b038216600090815260016020526040902054612146908263ffffffff611add16565b6001600160a01b03831660009081526001602052604081209190915554612173908263ffffffff611add16565b60009081556040805183815290516001600160a01b038516917fddf252ad1be2c89b69c2b068fc378daa952ba7f163c4a11628f55a4df523b3ef919081900360200190a35050565b6001600160701b0316600160701b0290565b60006001600160701b0382166001600160e01b038416816121ea57fe5b049392505050565b80820182811015610b5f576040805162461bcd60e51b815260206004820152601460248201527364732d6d6174682d6164642d6f766572666c6f7760601b604482015290519081900360640190fdfe556e697377617056323a20494e53554646494349454e545f4f55545055545f414d4f554e54556e697377617056323a20494e53554646494349454e545f494e5055545f414d4f554e54556e697377617056323a20494e53554646494349454e545f4c4951554944495459556e697377617056323a20494e53554646494349454e545f4c49515549444954595f4255524e4544556e697377617056323a20494e53554646494349454e545f4c49515549444954595f4d494e544544a265627a7a72315820409f5ccd06b66c8d998eb9ac85247150b0b4c574578aaf6a71a406ed107dd17d64736f6c63430005100032454950373132446f6d61696e28737472696e67206e616d652c737472696e672076657273696f6e2c75696e7432353620636861696e49642c6164647265737320766572696679696e67436f6e747261637429a265627a7a7231582019fda0df9b5098944ba57226b8d2e9d2ac51e89ceee095d8e8c0cf83b0000be564736f6c63430005100032",
					"opcodes": "PUSH1 0x80 PUSH1 0x40 MSTORE CALLVALUE DUP1 ISZERO PUSH2 0x10 JUMPI PUSH1 0x0 DUP1 REVERT JUMPDEST POP PUSH1 0x40 MLOAD PUSH2 0x2CC9 CODESIZE SUB DUP1 PUSH2 0x2CC9 DUP4 CODECOPY DUP2 DUP2 ADD PUSH1 0x40 MSTORE PUSH1 0x20 DUP2 LT ISZERO PUSH2 0x33 JUMPI PUSH1 0x0 DUP1 REVERT JUMPDEST POP MLOAD PUSH1 0x2 DUP1 SLOAD PUSH1 0x1 PUSH1 0x1 PUSH1 0xA0 SHL SUB NOT AND PUSH1 0x1 PUSH1 0x1 PUSH1 0xA0 SHL SUB SWAP1 SWAP3 AND SWAP2 SWAP1 SWAP2 OR SWAP1 SSTORE PUSH2 0x2C66 DUP1 PUSH2 0x63 PUSH1 0x0 CODECOPY PUSH1 0x0 RETURN INVALID PUSH1 0x80 PUSH1 0x40 MSTORE CALLVALUE DUP1 ISZERO PUSH2 0x10 JUMPI PUSH1 0x0 DUP1 REVERT JUMPDEST POP PUSH1 0x4 CALLDATASIZE LT PUSH2 0xA9 JUMPI PUSH1 0x0 CALLDATALOAD PUSH1 0xE0 SHR DUP1 PUSH4 0x574F2BA3 GT PUSH2 0x71 JUMPI DUP1 PUSH4 0x574F2BA3 EQ PUSH2 0x139 JUMPI DUP1 PUSH4 0x9EBAEB4C EQ PUSH2 0x141 JUMPI DUP1 PUSH4 0xA2E74AF6 EQ PUSH2 0x149 JUMPI DUP1 PUSH4 0xC9C65396 EQ PUSH2 0x16F JUMPI DUP1 PUSH4 0xE6A43905 EQ PUSH2 0x19D JUMPI DUP1 PUSH4 0xF46901ED EQ PUSH2 0x1CB JUMPI PUSH2 0xA9 JUMP JUMPDEST DUP1 PUSH4 0x17E7E58 EQ PUSH2 0xAE JUMPI DUP1 PUSH4 0x63058B3 EQ PUSH2 0xD2 JUMPI DUP1 PUSH4 0x94B7415 EQ PUSH2 0xFA JUMPI DUP1 PUSH4 0x1E3DD18B EQ PUSH2 0x102 JUMPI DUP1 PUSH4 0x257671F5 EQ PUSH2 0x11F JUMPI JUMPDEST PUSH1 0x0 DUP1 REVERT JUMPDEST PUSH2 0xB6 PUSH2 0x1F1 JUMP JUMPDEST PUSH1 0x40 DUP1 MLOAD PUSH1 0x1 PUSH1 0x1 PUSH1 0xA0 SHL SUB SWAP1 SWAP3 AND DUP3 MSTORE MLOAD SWAP1 DUP2 SWAP1 SUB PUSH1 0x20 ADD SWAP1 RETURN JUMPDEST PUSH2 0xF8 PUSH1 0x4 DUP1 CALLDATASIZE SUB PUSH1 0x20 DUP2 LT ISZERO PUSH2 0xE8 JUMPI PUSH1 0x0 DUP1 REVERT JUMPDEST POP CALLDATALOAD PUSH1 0x1 PUSH1 0x1 PUSH1 0xA0 SHL SUB AND PUSH2 0x200 JUMP JUMPDEST STOP JUMPDEST PUSH2 0xB6 PUSH2 0x278 JUMP JUMPDEST PUSH2 0xB6 PUSH1 0x4 DUP1 CALLDATASIZE SUB PUSH1 0x20 DUP2 LT ISZERO PUSH2 0x118 JUMPI PUSH1 0x0 DUP1 REVERT JUMPDEST POP CALLDATALOAD PUSH2 0x287 JUMP JUMPDEST PUSH2 0x127 PUSH2 0x2AE JUMP JUMPDEST PUSH1 0x40 DUP1 MLOAD SWAP2 DUP3 MSTORE MLOAD SWAP1 DUP2 SWAP1 SUB PUSH1 0x20 ADD SWAP1 RETURN JUMPDEST PUSH2 0x127 PUSH2 0x341 JUMP JUMPDEST PUSH2 0xB6 PUSH2 0x347 JUMP JUMPDEST PUSH2 0xF8 PUSH1 0x4 DUP1 CALLDATASIZE SUB PUSH1 0x20 DUP2 LT ISZERO PUSH2 0x15F JUMPI PUSH1 0x0 DUP1 REVERT JUMPDEST POP CALLDATALOAD PUSH1 0x1 PUSH1 0x1 PUSH1 0xA0 SHL SUB AND PUSH2 0x356 JUMP JUMPDEST PUSH2 0xB6 PUSH1 0x4 DUP1 CALLDATASIZE SUB PUSH1 0x40 DUP2 LT ISZERO PUSH2 0x185 JUMPI PUSH1 0x0 DUP1 REVERT JUMPDEST POP PUSH1 0x1 PUSH1 0x1 PUSH1 0xA0 SHL SUB DUP2 CALLDATALOAD DUP2 AND SWAP2 PUSH1 0x20 ADD CALLDATALOAD AND PUSH2 0x3CE JUMP JUMPDEST PUSH2 0xB6 PUSH1 0x4 DUP1 CALLDATASIZE SUB PUSH1 0x40 DUP2 LT ISZERO PUSH2 0x1B3 JUMPI PUSH1 0x0 DUP1 REVERT JUMPDEST POP PUSH1 0x1 PUSH1 0x1 PUSH1 0xA0 SHL SUB DUP2 CALLDATALOAD DUP2 AND SWAP2 PUSH1 0x20 ADD CALLDATALOAD AND PUSH2 0x6FF JUMP JUMPDEST PUSH2 0xF8 PUSH1 0x4 DUP1 CALLDATASIZE SUB PUSH1 0x20 DUP2 LT ISZERO PUSH2 0x1E1 JUMPI PUSH1 0x0 DUP1 REVERT JUMPDEST POP CALLDATALOAD PUSH1 0x1 PUSH1 0x1 PUSH1 0xA0 SHL SUB AND PUSH2 0x725 JUMP JUMPDEST PUSH1 0x0 SLOAD PUSH1 0x1 PUSH1 0x1 PUSH1 0xA0 SHL SUB AND DUP2 JUMP JUMPDEST PUSH1 0x2 SLOAD PUSH1 0x1 PUSH1 0x1 PUSH1 0xA0 SHL SUB AND CALLER EQ PUSH2 0x256 JUMPI PUSH1 0x40 DUP1 MLOAD PUSH3 0x461BCD PUSH1 0xE5 SHL DUP2 MSTORE PUSH1 0x20 PUSH1 0x4 DUP3 ADD MSTORE PUSH1 0x14 PUSH1 0x24 DUP3 ADD MSTORE PUSH20 0x2AB734B9BBB0B82B191D102327A92124A22222A7 PUSH1 0x61 SHL PUSH1 0x44 DUP3 ADD MSTORE SWAP1 MLOAD SWAP1 DUP2 SWAP1 SUB PUSH1 0x64 ADD SWAP1 REVERT JUMPDEST PUSH1 0x1 DUP1 SLOAD PUSH1 0x1 PUSH1 0x1 PUSH1 0xA0 SHL SUB NOT AND PUSH1 0x1 PUSH1 0x1 PUSH1 0xA0 SHL SUB SWAP3 SWAP1 SWAP3 AND SWAP2 SWAP1 SWAP2 OR SWAP1 SSTORE JUMP JUMPDEST PUSH1 0x2 SLOAD PUSH1 0x1 PUSH1 0x1 PUSH1 0xA0 SHL SUB AND DUP2 JUMP JUMPDEST PUSH1 0x4 DUP2 DUP2 SLOAD DUP2 LT PUSH2 0x294 JUMPI INVALID JUMPDEST PUSH1 0x0 SWAP2 DUP3 MSTORE PUSH1 0x20 SWAP1 SWAP2 KECCAK256 ADD SLOAD PUSH1 0x1 PUSH1 0x1 PUSH1 0xA0 SHL SUB AND SWAP1 POP DUP2 JUMP JUMPDEST PUSH1 0x40 MLOAD PUSH2 0x2BD PUSH1 0x20 DUP3 ADD PUSH2 0x79D JUMP JUMPDEST PUSH1 0x20 DUP3 ADD DUP2 SUB DUP3 MSTORE PUSH1 0x1F NOT PUSH1 0x1F DUP3 ADD AND PUSH1 0x40 MSTORE POP PUSH1 0x40 MLOAD PUSH1 0x20 ADD DUP1 DUP3 DUP1 MLOAD SWAP1 PUSH1 0x20 ADD SWAP1 DUP1 DUP4 DUP4 JUMPDEST PUSH1 0x20 DUP4 LT PUSH2 0x303 JUMPI DUP1 MLOAD DUP3 MSTORE PUSH1 0x1F NOT SWAP1 SWAP3 ADD SWAP2 PUSH1 0x20 SWAP2 DUP3 ADD SWAP2 ADD PUSH2 0x2E4 JUMP JUMPDEST PUSH1 0x1 DUP4 PUSH1 0x20 SUB PUSH2 0x100 EXP SUB DUP1 NOT DUP3 MLOAD AND DUP2 DUP5 MLOAD AND DUP1 DUP3 OR DUP6 MSTORE POP POP POP POP POP POP SWAP1 POP ADD SWAP2 POP POP PUSH1 0x40 MLOAD PUSH1 0x20 DUP2 DUP4 SUB SUB DUP2 MSTORE SWAP1 PUSH1 0x40 MSTORE DUP1 MLOAD SWAP1 PUSH1 0x20 ADD KECCAK256 DUP2 JUMP JUMPDEST PUSH1 0x4 SLOAD SWAP1 JUMP JUMPDEST PUSH1 0x1 SLOAD PUSH1 0x1 PUSH1 0x1 PUSH1 0xA0 SHL SUB AND DUP2 JUMP JUMPDEST PUSH1 0x2 SLOAD PUSH1 0x1 PUSH1 0x1 PUSH1 0xA0 SHL SUB AND CALLER EQ PUSH2 0x3AC JUMPI PUSH1 0x40 DUP1 MLOAD PUSH3 0x461BCD PUSH1 0xE5 SHL DUP2 MSTORE PUSH1 0x20 PUSH1 0x4 DUP3 ADD MSTORE PUSH1 0x14 PUSH1 0x24 DUP3 ADD MSTORE PUSH20 0x2AB734B9BBB0B82B191D102327A92124A22222A7 PUSH1 0x61 SHL PUSH1 0x44 DUP3 ADD MSTORE SWAP1 MLOAD SWAP1 DUP2 SWAP1 SUB PUSH1 0x64 ADD SWAP1 REVERT JUMPDEST PUSH1 0x2 DUP1 SLOAD PUSH1 0x1 PUSH1 0x1 PUSH1 0xA0 SHL SUB NOT AND PUSH1 0x1 PUSH1 0x1 PUSH1 0xA0 SHL SUB SWAP3 SWAP1 SWAP3 AND SWAP2 SWAP1 SWAP2 OR SWAP1 SSTORE JUMP JUMPDEST PUSH1 0x0 DUP2 PUSH1 0x1 PUSH1 0x1 PUSH1 0xA0 SHL SUB AND DUP4 PUSH1 0x1 PUSH1 0x1 PUSH1 0xA0 SHL SUB AND EQ ISZERO PUSH2 0x437 JUMPI PUSH1 0x40 DUP1 MLOAD PUSH3 0x461BCD PUSH1 0xE5 SHL DUP2 MSTORE PUSH1 0x20 PUSH1 0x4 DUP3 ADD MSTORE PUSH1 0x1E PUSH1 0x24 DUP3 ADD MSTORE PUSH32 0x556E697377617056323A204944454E544943414C5F4144445245535345530000 PUSH1 0x44 DUP3 ADD MSTORE SWAP1 MLOAD SWAP1 DUP2 SWAP1 SUB PUSH1 0x64 ADD SWAP1 REVERT JUMPDEST PUSH1 0x0 DUP1 DUP4 PUSH1 0x1 PUSH1 0x1 PUSH1 0xA0 SHL SUB AND DUP6 PUSH1 0x1 PUSH1 0x1 PUSH1 0xA0 SHL SUB AND LT PUSH2 0x45A JUMPI DUP4 DUP6 PUSH2 0x45D JUMP JUMPDEST DUP5 DUP5 JUMPDEST SWAP1 SWAP3 POP SWAP1 POP PUSH1 0x1 PUSH1 0x1 PUSH1 0xA0 SHL SUB DUP3 AND PUSH2 0x4BD JUMPI PUSH1 0x40 DUP1 MLOAD PUSH3 0x461BCD PUSH1 0xE5 SHL DUP2 MSTORE PUSH1 0x20 PUSH1 0x4 DUP3 ADD MSTORE PUSH1 0x17 PUSH1 0x24 DUP3 ADD MSTORE PUSH32 0x556E697377617056323A205A45524F5F41444452455353000000000000000000 PUSH1 0x44 DUP3 ADD MSTORE SWAP1 MLOAD SWAP1 DUP2 SWAP1 SUB PUSH1 0x64 ADD SWAP1 REVERT JUMPDEST PUSH1 0x1 PUSH1 0x1 PUSH1 0xA0 SHL SUB DUP3 DUP2 AND PUSH1 0x0 SWAP1 DUP2 MSTORE PUSH1 0x3 PUSH1 0x20 SWAP1 DUP2 MSTORE PUSH1 0x40 DUP1 DUP4 KECCAK256 DUP6 DUP6 AND DUP5 MSTORE SWAP1 SWAP2 MSTORE SWAP1 KECCAK256 SLOAD AND ISZERO PUSH2 0x530 JUMPI PUSH1 0x40 DUP1 MLOAD PUSH3 0x461BCD PUSH1 0xE5 SHL DUP2 MSTORE PUSH1 0x20 PUSH1 0x4 DUP3 ADD MSTORE PUSH1 0x16 PUSH1 0x24 DUP3 ADD MSTORE PUSH22 0x556E697377617056323A20504149525F455849535453 PUSH1 0x50 SHL PUSH1 0x44 DUP3 ADD MSTORE SWAP1 MLOAD SWAP1 DUP2 SWAP1 SUB PUSH1 0x64 ADD SWAP1 REVERT JUMPDEST PUSH1 0x60 PUSH1 0x40 MLOAD DUP1 PUSH1 0x20 ADD PUSH2 0x542 SWAP1 PUSH2 0x79D JUMP JUMPDEST PUSH1 0x20 DUP3 ADD DUP2 SUB DUP3 MSTORE PUSH1 0x1F NOT PUSH1 0x1F DUP3 ADD AND PUSH1 0x40 MSTORE POP SWAP1 POP PUSH1 0x0 DUP4 DUP4 PUSH1 0x40 MLOAD PUSH1 0x20 ADD DUP1 DUP4 PUSH1 0x1 PUSH1 0x1 PUSH1 0xA0 SHL SUB AND PUSH1 0x1 PUSH1 0x1 PUSH1 0xA0 SHL SUB AND PUSH1 0x60 SHL DUP2 MSTORE PUSH1 0x14 ADD DUP3 PUSH1 0x1 PUSH1 0x1 PUSH1 0xA0 SHL SUB AND PUSH1 0x1 PUSH1 0x1 PUSH1 0xA0 SHL SUB AND PUSH1 0x60 SHL DUP2 MSTORE PUSH1 0x14 ADD SWAP3 POP POP POP PUSH1 0x40 MLOAD PUSH1 0x20 DUP2 DUP4 SUB SUB DUP2 MSTORE SWAP1 PUSH1 0x40 MSTORE DUP1 MLOAD SWAP1 PUSH1 0x20 ADD KECCAK256 SWAP1 POP DUP1 DUP3 MLOAD PUSH1 0x20 DUP5 ADD PUSH1 0x0 CREATE2 PUSH1 0x40 DUP1 MLOAD PUSH4 0x485CC955 PUSH1 0xE0 SHL DUP2 MSTORE PUSH1 0x1 PUSH1 0x1 PUSH1 0xA0 SHL SUB DUP8 DUP2 AND PUSH1 0x4 DUP4 ADD MSTORE DUP7 DUP2 AND PUSH1 0x24 DUP4 ADD MSTORE SWAP2 MLOAD SWAP3 SWAP8 POP SWAP1 DUP8 AND SWAP2 PUSH4 0x485CC955 SWAP2 PUSH1 0x44 DUP1 DUP3 ADD SWAP3 PUSH1 0x0 SWAP3 SWAP1 SWAP2 SWAP1 DUP3 SWAP1 SUB ADD DUP2 DUP4 DUP8 DUP1 EXTCODESIZE ISZERO DUP1 ISZERO PUSH2 0x615 JUMPI PUSH1 0x0 DUP1 REVERT JUMPDEST POP GAS CALL ISZERO DUP1 ISZERO PUSH2 0x629 JUMPI RETURNDATASIZE PUSH1 0x0 DUP1 RETURNDATACOPY RETURNDATASIZE PUSH1 0x0 REVERT JUMPDEST POP POP POP POP PUSH1 0x1 PUSH1 0x1 PUSH1 0xA0 SHL SUB DUP5 DUP2 AND PUSH1 0x0 DUP2 DUP2 MSTORE PUSH1 0x3 PUSH1 0x20 DUP2 DUP2 MSTORE PUSH1 0x40 DUP1 DUP5 KECCAK256 DUP10 DUP8 AND DUP1 DUP7 MSTORE SWAP1 DUP4 MSTORE DUP2 DUP6 KECCAK256 DUP1 SLOAD SWAP8 DUP14 AND PUSH1 0x1 PUSH1 0x1 PUSH1 0xA0 SHL SUB NOT SWAP9 DUP10 AND DUP2 OR SWAP1 SWAP2 SSTORE SWAP4 DUP4 MSTORE DUP2 DUP6 KECCAK256 DUP7 DUP7 MSTORE DUP4 MSTORE DUP2 DUP6 KECCAK256 DUP1 SLOAD DUP9 AND DUP6 OR SWAP1 SSTORE PUSH1 0x4 DUP1 SLOAD PUSH1 0x1 DUP2 ADD DUP3 SSTORE SWAP6 DUP2 SWAP1 MSTORE PUSH32 0x8A35ACFBC15FF81A39AE7D344FD709F28E8600B4AA8C65C6B64BFE7FE36BD19B SWAP1 SWAP6 ADD DUP1 SLOAD SWAP1 SWAP8 AND DUP5 OR SWAP1 SWAP7 SSTORE SWAP3 SLOAD DUP4 MLOAD SWAP3 DUP4 MSTORE SWAP1 DUP3 ADD MSTORE DUP2 MLOAD PUSH32 0xD3648BD0F6BA80134A33BA9275AC585D9D315F0AD8355CDDEFDE31AFA28D0E9 SWAP3 SWAP2 DUP2 SWAP1 SUB SWAP1 SWAP2 ADD SWAP1 LOG3 POP POP POP POP SWAP3 SWAP2 POP POP JUMP JUMPDEST PUSH1 0x3 PUSH1 0x20 SWAP1 DUP2 MSTORE PUSH1 0x0 SWAP3 DUP4 MSTORE PUSH1 0x40 DUP1 DUP5 KECCAK256 SWAP1 SWAP2 MSTORE SWAP1 DUP3 MSTORE SWAP1 KECCAK256 SLOAD PUSH1 0x1 PUSH1 0x1 PUSH1 0xA0 SHL SUB AND DUP2 JUMP JUMPDEST PUSH1 0x2 SLOAD PUSH1 0x1 PUSH1 0x1 PUSH1 0xA0 SHL SUB AND CALLER EQ PUSH2 0x77B JUMPI PUSH1 0x40 DUP1 MLOAD PUSH3 0x461BCD PUSH1 0xE5 SHL DUP2 MSTORE PUSH1 0x20 PUSH1 0x4 DUP3 ADD MSTORE PUSH1 0x14 PUSH1 0x24 DUP3 ADD MSTORE PUSH20 0x2AB734B9BBB0B82B191D102327A92124A22222A7 PUSH1 0x61 SHL PUSH1 0x44 DUP3 ADD MSTORE SWAP1 MLOAD SWAP1 DUP2 SWAP1 SUB PUSH1 0x64 ADD SWAP1 REVERT JUMPDEST PUSH1 0x0 DUP1 SLOAD PUSH1 0x1 PUSH1 0x1 PUSH1 0xA0 SHL SUB NOT AND PUSH1 0x1 PUSH1 0x1 PUSH1 0xA0 SHL SUB SWAP3 SWAP1 SWAP3 AND SWAP2 SWAP1 SWAP2 OR SWAP1 SSTORE JUMP JUMPDEST PUSH2 0x2487 DUP1 PUSH2 0x7AB DUP4 CODECOPY ADD SWAP1 JUMP INVALID PUSH1 0x80 PUSH1 0x40 MSTORE PUSH1 0x1 PUSH1 0xC SSTORE CALLVALUE DUP1 ISZERO PUSH2 0x15 JUMPI PUSH1 0x0 DUP1 REVERT JUMPDEST POP PUSH1 0x40 MLOAD CHAINID SWAP1 DUP1 PUSH1 0x52 PUSH2 0x2435 DUP3 CODECOPY PUSH1 0x40 DUP1 MLOAD SWAP2 DUP3 SWAP1 SUB PUSH1 0x52 ADD DUP3 KECCAK256 DUP3 DUP3 ADD DUP3 MSTORE PUSH1 0xA DUP4 MSTORE PUSH10 0x2432BC3C102A37B5B2B7 PUSH1 0xB1 SHL PUSH1 0x20 SWAP4 DUP5 ADD MSTORE DUP2 MLOAD DUP1 DUP4 ADD DUP4 MSTORE PUSH1 0x1 DUP2 MSTORE PUSH1 0x31 PUSH1 0xF8 SHL SWAP1 DUP5 ADD MSTORE DUP2 MLOAD DUP1 DUP5 ADD SWAP2 SWAP1 SWAP2 MSTORE PUSH32 0xC752079A5B46B20BB2D74CA8B56C765DA37034EB5F30423E0C854747BC9A645D DUP2 DUP4 ADD MSTORE PUSH32 0xC89EFDAA54C0F20C7ADF612882DF0950F5A951637E0307CDCB4C672F298B8BC6 PUSH1 0x60 DUP3 ADD MSTORE PUSH1 0x80 DUP2 ADD SWAP5 SWAP1 SWAP5 MSTORE ADDRESS PUSH1 0xA0 DUP1 DUP7 ADD SWAP2 SWAP1 SWAP2 MSTORE DUP2 MLOAD DUP1 DUP7 SUB SWAP1 SWAP2 ADD DUP2 MSTORE PUSH1 0xC0 SWAP1 SWAP5 ADD SWAP1 MSTORE DUP3 MLOAD SWAP3 ADD SWAP2 SWAP1 SWAP2 KECCAK256 PUSH1 0x3 SSTORE POP PUSH1 0x5 DUP1 SLOAD PUSH1 0x1 PUSH1 0x1 PUSH1 0xA0 SHL SUB NOT AND CALLER OR SWAP1 SSTORE PUSH2 0x2330 DUP1 PUSH2 0x105 PUSH1 0x0 CODECOPY PUSH1 0x0 RETURN INVALID PUSH1 0x80 PUSH1 0x40 MSTORE CALLVALUE DUP1 ISZERO PUSH2 0x10 JUMPI PUSH1 0x0 DUP1 REVERT JUMPDEST POP PUSH1 0x4 CALLDATASIZE LT PUSH2 0x1A9 JUMPI PUSH1 0x0 CALLDATALOAD PUSH1 0xE0 SHR DUP1 PUSH4 0x6A627842 GT PUSH2 0xF9 JUMPI DUP1 PUSH4 0xBA9A7A56 GT PUSH2 0x97 JUMPI DUP1 PUSH4 0xD21220A7 GT PUSH2 0x71 JUMPI DUP1 PUSH4 0xD21220A7 EQ PUSH2 0x534 JUMPI DUP1 PUSH4 0xD505ACCF EQ PUSH2 0x53C JUMPI DUP1 PUSH4 0xDD62ED3E EQ PUSH2 0x58D JUMPI DUP1 PUSH4 0xFFF6CAE9 EQ PUSH2 0x5BB JUMPI PUSH2 0x1A9 JUMP JUMPDEST DUP1 PUSH4 0xBA9A7A56 EQ PUSH2 0x4FE JUMPI DUP1 PUSH4 0xBC25CF77 EQ PUSH2 0x506 JUMPI DUP1 PUSH4 0xC45A0155 EQ PUSH2 0x52C JUMPI PUSH2 0x1A9 JUMP JUMPDEST DUP1 PUSH4 0x7ECEBE00 GT PUSH2 0xD3 JUMPI DUP1 PUSH4 0x7ECEBE00 EQ PUSH2 0x465 JUMPI DUP1 PUSH4 0x89AFCB44 EQ PUSH2 0x48B JUMPI DUP1 PUSH4 0x95D89B41 EQ PUSH2 0x4CA JUMPI DUP1 PUSH4 0xA9059CBB EQ PUSH2 0x4D2 JUMPI PUSH2 0x1A9 JUMP JUMPDEST DUP1 PUSH4 0x6A627842 EQ PUSH2 0x411 JUMPI DUP1 PUSH4 0x70A08231 EQ PUSH2 0x437 JUMPI DUP1 PUSH4 0x7464FC3D EQ PUSH2 0x45D JUMPI PUSH2 0x1A9 JUMP JUMPDEST DUP1 PUSH4 0x23B872DD GT PUSH2 0x166 JUMPI DUP1 PUSH4 0x3644E515 GT PUSH2 0x140 JUMPI DUP1 PUSH4 0x3644E515 EQ PUSH2 0x3CB JUMPI DUP1 PUSH4 0x485CC955 EQ PUSH2 0x3D3 JUMPI DUP1 PUSH4 0x5909C0D5 EQ PUSH2 0x401 JUMPI DUP1 PUSH4 0x5A3D5493 EQ PUSH2 0x409 JUMPI PUSH2 0x1A9 JUMP JUMPDEST DUP1 PUSH4 0x23B872DD EQ PUSH2 0x36F JUMPI DUP1 PUSH4 0x30ADF81F EQ PUSH2 0x3A5 JUMPI DUP1 PUSH4 0x313CE567 EQ PUSH2 0x3AD JUMPI PUSH2 0x1A9 JUMP JUMPDEST DUP1 PUSH4 0x22C0D9F EQ PUSH2 0x1AE JUMPI DUP1 PUSH4 0x6FDDE03 EQ PUSH2 0x23C JUMPI DUP1 PUSH4 0x902F1AC EQ PUSH2 0x2B9 JUMPI DUP1 PUSH4 0x95EA7B3 EQ PUSH2 0x2F1 JUMPI DUP1 PUSH4 0xDFE1681 EQ PUSH2 0x331 JUMPI DUP1 PUSH4 0x18160DDD EQ PUSH2 0x355 JUMPI JUMPDEST PUSH1 0x0 DUP1 REVERT JUMPDEST PUSH2 0x23A PUSH1 0x4 DUP1 CALLDATASIZE SUB PUSH1 0x80 DUP2 LT ISZERO PUSH2 0x1C4 JUMPI PUSH1 0x0 DUP1 REVERT JUMPDEST DUP2 CALLDATALOAD SWAP2 PUSH1 0x20 DUP2 ADD CALLDATALOAD SWAP2 PUSH1 0x1 PUSH1 0x1 PUSH1 0xA0 SHL SUB PUSH1 0x40 DUP4 ADD CALLDATALOAD AND SWAP2 SWAP1 DUP2 ADD SWAP1 PUSH1 0x80 DUP2 ADD PUSH1 0x60 DUP3 ADD CALLDATALOAD PUSH5 0x100000000 DUP2 GT ISZERO PUSH2 0x1FB JUMPI PUSH1 0x0 DUP1 REVERT JUMPDEST DUP3 ADD DUP4 PUSH1 0x20 DUP3 ADD GT ISZERO PUSH2 0x20D JUMPI PUSH1 0x0 DUP1 REVERT JUMPDEST DUP1 CALLDATALOAD SWAP1 PUSH1 0x20 ADD SWAP2 DUP5 PUSH1 0x1 DUP4 MUL DUP5 ADD GT PUSH5 0x100000000 DUP4 GT OR ISZERO PUSH2 0x22F JUMPI PUSH1 0x0 DUP1 REVERT JUMPDEST POP SWAP1 SWAP3 POP SWAP1 POP PUSH2 0x5C3 JUMP JUMPDEST STOP JUMPDEST PUSH2 0x244 PUSH2 0xAFE JUMP JUMPDEST PUSH1 0x40 DUP1 MLOAD PUSH1 0x20 DUP1 DUP3 MSTORE DUP4 MLOAD DUP2 DUP4 ADD MSTORE DUP4 MLOAD SWAP2 SWAP3 DUP4 SWAP3 SWAP1 DUP4 ADD SWAP2 DUP6 ADD SWAP1 DUP1 DUP4 DUP4 PUSH1 0x0 JUMPDEST DUP4 DUP2 LT ISZERO PUSH2 0x27E JUMPI DUP2 DUP2 ADD MLOAD DUP4 DUP3 ADD MSTORE PUSH1 0x20 ADD PUSH2 0x266 JUMP JUMPDEST POP POP POP POP SWAP1 POP SWAP1 DUP2 ADD SWAP1 PUSH1 0x1F AND DUP1 ISZERO PUSH2 0x2AB JUMPI DUP1 DUP3 SUB DUP1 MLOAD PUSH1 0x1 DUP4 PUSH1 0x20 SUB PUSH2 0x100 EXP SUB NOT AND DUP2 MSTORE PUSH1 0x20 ADD SWAP2 POP JUMPDEST POP SWAP3 POP POP POP PUSH1 0x40 MLOAD DUP1 SWAP2 SUB SWAP1 RETURN JUMPDEST PUSH2 0x2C1 PUSH2 0xB24 JUMP JUMPDEST PUSH1 0x40 DUP1 MLOAD PUSH1 0x1 PUSH1 0x1 PUSH1 0x70 SHL SUB SWAP5 DUP6 AND DUP2 MSTORE SWAP3 SWAP1 SWAP4 AND PUSH1 0x20 DUP4 ADD MSTORE PUSH4 0xFFFFFFFF AND DUP2 DUP4 ADD MSTORE SWAP1 MLOAD SWAP1 DUP2 SWAP1 SUB PUSH1 0x60 ADD SWAP1 RETURN JUMPDEST PUSH2 0x31D PUSH1 0x4 DUP1 CALLDATASIZE SUB PUSH1 0x40 DUP2 LT ISZERO PUSH2 0x307 JUMPI PUSH1 0x0 DUP1 REVERT JUMPDEST POP PUSH1 0x1 PUSH1 0x1 PUSH1 0xA0 SHL SUB DUP2 CALLDATALOAD AND SWAP1 PUSH1 0x20 ADD CALLDATALOAD PUSH2 0xB4E JUMP JUMPDEST PUSH1 0x40 DUP1 MLOAD SWAP2 ISZERO ISZERO DUP3 MSTORE MLOAD SWAP1 DUP2 SWAP1 SUB PUSH1 0x20 ADD SWAP1 RETURN JUMPDEST PUSH2 0x339 PUSH2 0xB65 JUMP JUMPDEST PUSH1 0x40 DUP1 MLOAD PUSH1 0x1 PUSH1 0x1 PUSH1 0xA0 SHL SUB SWAP1 SWAP3 AND DUP3 MSTORE MLOAD SWAP1 DUP2 SWAP1 SUB PUSH1 0x20 ADD SWAP1 RETURN JUMPDEST PUSH2 0x35D PUSH2 0xB74 JUMP JUMPDEST PUSH1 0x40 DUP1 MLOAD SWAP2 DUP3 MSTORE MLOAD SWAP1 DUP2 SWAP1 SUB PUSH1 0x20 ADD SWAP1 RETURN JUMPDEST PUSH2 0x31D PUSH1 0x4 DUP1 CALLDATASIZE SUB PUSH1 0x60 DUP2 LT ISZERO PUSH2 0x385 JUMPI PUSH1 0x0 DUP1 REVERT JUMPDEST POP PUSH1 0x1 PUSH1 0x1 PUSH1 0xA0 SHL SUB DUP2 CALLDATALOAD DUP2 AND SWAP2 PUSH1 0x20 DUP2 ADD CALLDATALOAD SWAP1 SWAP2 AND SWAP1 PUSH1 0x40 ADD CALLDATALOAD PUSH2 0xB7A JUMP JUMPDEST PUSH2 0x35D PUSH2 0xC14 JUMP JUMPDEST PUSH2 0x3B5 PUSH2 0xC38 JUMP JUMPDEST PUSH1 0x40 DUP1 MLOAD PUSH1 0xFF SWAP1 SWAP3 AND DUP3 MSTORE MLOAD SWAP1 DUP2 SWAP1 SUB PUSH1 0x20 ADD SWAP1 RETURN JUMPDEST PUSH2 0x35D PUSH2 0xC3D JUMP JUMPDEST PUSH2 0x23A PUSH1 0x4 DUP1 CALLDATASIZE SUB PUSH1 0x40 DUP2 LT ISZERO PUSH2 0x3E9 JUMPI PUSH1 0x0 DUP1 REVERT JUMPDEST POP PUSH1 0x1 PUSH1 0x1 PUSH1 0xA0 SHL SUB DUP2 CALLDATALOAD DUP2 AND SWAP2 PUSH1 0x20 ADD CALLDATALOAD AND PUSH2 0xC43 JUMP JUMPDEST PUSH2 0x35D PUSH2 0xCC7 JUMP JUMPDEST PUSH2 0x35D PUSH2 0xCCD JUMP JUMPDEST PUSH2 0x35D PUSH1 0x4 DUP1 CALLDATASIZE SUB PUSH1 0x20 DUP2 LT ISZERO PUSH2 0x427 JUMPI PUSH1 0x0 DUP1 REVERT JUMPDEST POP CALLDATALOAD PUSH1 0x1 PUSH1 0x1 PUSH1 0xA0 SHL SUB AND PUSH2 0xCD3 JUMP JUMPDEST PUSH2 0x35D PUSH1 0x4 DUP1 CALLDATASIZE SUB PUSH1 0x20 DUP2 LT ISZERO PUSH2 0x44D JUMPI PUSH1 0x0 DUP1 REVERT JUMPDEST POP CALLDATALOAD PUSH1 0x1 PUSH1 0x1 PUSH1 0xA0 SHL SUB AND PUSH2 0xFD3 JUMP JUMPDEST PUSH2 0x35D PUSH2 0xFE5 JUMP JUMPDEST PUSH2 0x35D PUSH1 0x4 DUP1 CALLDATASIZE SUB PUSH1 0x20 DUP2 LT ISZERO PUSH2 0x47B JUMPI PUSH1 0x0 DUP1 REVERT JUMPDEST POP CALLDATALOAD PUSH1 0x1 PUSH1 0x1 PUSH1 0xA0 SHL SUB AND PUSH2 0xFEB JUMP JUMPDEST PUSH2 0x4B1 PUSH1 0x4 DUP1 CALLDATASIZE SUB PUSH1 0x20 DUP2 LT ISZERO PUSH2 0x4A1 JUMPI PUSH1 0x0 DUP1 REVERT JUMPDEST POP CALLDATALOAD PUSH1 0x1 PUSH1 0x1 PUSH1 0xA0 SHL SUB AND PUSH2 0xFFD JUMP JUMPDEST PUSH1 0x40 DUP1 MLOAD SWAP3 DUP4 MSTORE PUSH1 0x20 DUP4 ADD SWAP2 SWAP1 SWAP2 MSTORE DUP1 MLOAD SWAP2 DUP3 SWAP1 SUB ADD SWAP1 RETURN JUMPDEST PUSH2 0x244 PUSH2 0x13A3 JUMP JUMPDEST PUSH2 0x31D PUSH1 0x4 DUP1 CALLDATASIZE SUB PUSH1 0x40 DUP2 LT ISZERO PUSH2 0x4E8 JUMPI PUSH1 0x0 DUP1 REVERT JUMPDEST POP PUSH1 0x1 PUSH1 0x1 PUSH1 0xA0 SHL SUB DUP2 CALLDATALOAD AND SWAP1 PUSH1 0x20 ADD CALLDATALOAD PUSH2 0x13C3 JUMP JUMPDEST PUSH2 0x35D PUSH2 0x13D0 JUMP JUMPDEST PUSH2 0x23A PUSH1 0x4 DUP1 CALLDATASIZE SUB PUSH1 0x20 DUP2 LT ISZERO PUSH2 0x51C JUMPI PUSH1 0x0 DUP1 REVERT JUMPDEST POP CALLDATALOAD PUSH1 0x1 PUSH1 0x1 PUSH1 0xA0 SHL SUB AND PUSH2 0x13D6 JUMP JUMPDEST PUSH2 0x339 PUSH2 0x1541 JUMP JUMPDEST PUSH2 0x339 PUSH2 0x1550 JUMP JUMPDEST PUSH2 0x23A PUSH1 0x4 DUP1 CALLDATASIZE SUB PUSH1 0xE0 DUP2 LT ISZERO PUSH2 0x552 JUMPI PUSH1 0x0 DUP1 REVERT JUMPDEST POP PUSH1 0x1 PUSH1 0x1 PUSH1 0xA0 SHL SUB DUP2 CALLDATALOAD DUP2 AND SWAP2 PUSH1 0x20 DUP2 ADD CALLDATALOAD SWAP1 SWAP2 AND SWAP1 PUSH1 0x40 DUP2 ADD CALLDATALOAD SWAP1 PUSH1 0x60 DUP2 ADD CALLDATALOAD SWAP1 PUSH1 0xFF PUSH1 0x80 DUP3 ADD CALLDATALOAD AND SWAP1 PUSH1 0xA0 DUP2 ADD CALLDATALOAD SWAP1 PUSH1 0xC0 ADD CALLDATALOAD PUSH2 0x155F JUMP JUMPDEST PUSH2 0x35D PUSH1 0x4 DUP1 CALLDATASIZE SUB PUSH1 0x40 DUP2 LT ISZERO PUSH2 0x5A3 JUMPI PUSH1 0x0 DUP1 REVERT JUMPDEST POP PUSH1 0x1 PUSH1 0x1 PUSH1 0xA0 SHL SUB DUP2 CALLDATALOAD DUP2 AND SWAP2 PUSH1 0x20 ADD CALLDATALOAD AND PUSH2 0x1761 JUMP JUMPDEST PUSH2 0x23A PUSH2 0x177E JUMP JUMPDEST PUSH1 0xC SLOAD PUSH1 0x1 EQ PUSH2 0x60E JUMPI PUSH1 0x40 DUP1 MLOAD PUSH3 0x461BCD PUSH1 0xE5 SHL DUP2 MSTORE PUSH1 0x20 PUSH1 0x4 DUP3 ADD MSTORE PUSH1 0x11 PUSH1 0x24 DUP3 ADD MSTORE PUSH17 0x155B9A5CDDD85C158C8E881313D0D2D151 PUSH1 0x7A SHL PUSH1 0x44 DUP3 ADD MSTORE SWAP1 MLOAD SWAP1 DUP2 SWAP1 SUB PUSH1 0x64 ADD SWAP1 REVERT JUMPDEST PUSH1 0x0 PUSH1 0xC SSTORE DUP5 ISZERO ISZERO DUP1 PUSH2 0x621 JUMPI POP PUSH1 0x0 DUP5 GT JUMPDEST PUSH2 0x65C JUMPI PUSH1 0x40 MLOAD PUSH3 0x461BCD PUSH1 0xE5 SHL DUP2 MSTORE PUSH1 0x4 ADD DUP1 DUP1 PUSH1 0x20 ADD DUP3 DUP2 SUB DUP3 MSTORE PUSH1 0x25 DUP2 MSTORE PUSH1 0x20 ADD DUP1 PUSH2 0x2242 PUSH1 0x25 SWAP2 CODECOPY PUSH1 0x40 ADD SWAP2 POP POP PUSH1 0x40 MLOAD DUP1 SWAP2 SUB SWAP1 REVERT JUMPDEST PUSH1 0x0 DUP1 PUSH2 0x667 PUSH2 0xB24 JUMP JUMPDEST POP SWAP2 POP SWAP2 POP DUP2 PUSH1 0x1 PUSH1 0x1 PUSH1 0x70 SHL SUB AND DUP8 LT DUP1 ISZERO PUSH2 0x68C JUMPI POP DUP1 PUSH1 0x1 PUSH1 0x1 PUSH1 0x70 SHL SUB AND DUP7 LT JUMPDEST PUSH2 0x6C7 JUMPI PUSH1 0x40 MLOAD PUSH3 0x461BCD PUSH1 0xE5 SHL DUP2 MSTORE PUSH1 0x4 ADD DUP1 DUP1 PUSH1 0x20 ADD DUP3 DUP2 SUB DUP3 MSTORE PUSH1 0x21 DUP2 MSTORE PUSH1 0x20 ADD DUP1 PUSH2 0x228B PUSH1 0x21 SWAP2 CODECOPY PUSH1 0x40 ADD SWAP2 POP POP PUSH1 0x40 MLOAD DUP1 SWAP2 SUB SWAP1 REVERT JUMPDEST PUSH1 0x6 SLOAD PUSH1 0x7 SLOAD PUSH1 0x0 SWAP2 DUP3 SWAP2 PUSH1 0x1 PUSH1 0x1 PUSH1 0xA0 SHL SUB SWAP2 DUP3 AND SWAP2 SWAP1 DUP2 AND SWAP1 DUP10 AND DUP3 EQ DUP1 ISZERO SWAP1 PUSH2 0x705 JUMPI POP DUP1 PUSH1 0x1 PUSH1 0x1 PUSH1 0xA0 SHL SUB AND DUP10 PUSH1 0x1 PUSH1 0x1 PUSH1 0xA0 SHL SUB AND EQ ISZERO JUMPDEST PUSH2 0x74E JUMPI PUSH1 0x40 DUP1 MLOAD PUSH3 0x461BCD PUSH1 0xE5 SHL DUP2 MSTORE PUSH1 0x20 PUSH1 0x4 DUP3 ADD MSTORE PUSH1 0x15 PUSH1 0x24 DUP3 ADD MSTORE PUSH21 0x556E697377617056323A20494E56414C49445F544F PUSH1 0x58 SHL PUSH1 0x44 DUP3 ADD MSTORE SWAP1 MLOAD SWAP1 DUP2 SWAP1 SUB PUSH1 0x64 ADD SWAP1 REVERT JUMPDEST DUP11 ISZERO PUSH2 0x75F JUMPI PUSH2 0x75F DUP3 DUP11 DUP14 PUSH2 0x18E0 JUMP JUMPDEST DUP10 ISZERO PUSH2 0x770 JUMPI PUSH2 0x770 DUP2 DUP11 DUP13 PUSH2 0x18E0 JUMP JUMPDEST DUP7 ISZERO PUSH2 0x82B JUMPI DUP9 PUSH1 0x1 PUSH1 0x1 PUSH1 0xA0 SHL SUB AND PUSH4 0x10D1E85C CALLER DUP14 DUP14 DUP13 DUP13 PUSH1 0x40 MLOAD DUP7 PUSH4 0xFFFFFFFF AND PUSH1 0xE0 SHL DUP2 MSTORE PUSH1 0x4 ADD DUP1 DUP7 PUSH1 0x1 PUSH1 0x1 PUSH1 0xA0 SHL SUB AND PUSH1 0x1 PUSH1 0x1 PUSH1 0xA0 SHL SUB AND DUP2 MSTORE PUSH1 0x20 ADD DUP6 DUP2 MSTORE PUSH1 0x20 ADD DUP5 DUP2 MSTORE PUSH1 0x20 ADD DUP1 PUSH1 0x20 ADD DUP3 DUP2 SUB DUP3 MSTORE DUP5 DUP5 DUP3 DUP2 DUP2 MSTORE PUSH1 0x20 ADD SWAP3 POP DUP1 DUP3 DUP5 CALLDATACOPY PUSH1 0x0 DUP2 DUP5 ADD MSTORE PUSH1 0x1F NOT PUSH1 0x1F DUP3 ADD AND SWAP1 POP DUP1 DUP4 ADD SWAP3 POP POP POP SWAP7 POP POP POP POP POP POP POP PUSH1 0x0 PUSH1 0x40 MLOAD DUP1 DUP4 SUB DUP2 PUSH1 0x0 DUP8 DUP1 EXTCODESIZE ISZERO DUP1 ISZERO PUSH2 0x812 JUMPI PUSH1 0x0 DUP1 REVERT JUMPDEST POP GAS CALL ISZERO DUP1 ISZERO PUSH2 0x826 JUMPI RETURNDATASIZE PUSH1 0x0 DUP1 RETURNDATACOPY RETURNDATASIZE PUSH1 0x0 REVERT JUMPDEST POP POP POP POP JUMPDEST PUSH1 0x40 DUP1 MLOAD PUSH4 0x70A08231 PUSH1 0xE0 SHL DUP2 MSTORE ADDRESS PUSH1 0x4 DUP3 ADD MSTORE SWAP1 MLOAD PUSH1 0x1 PUSH1 0x1 PUSH1 0xA0 SHL SUB DUP5 AND SWAP2 PUSH4 0x70A08231 SWAP2 PUSH1 0x24 DUP1 DUP4 ADD SWAP3 PUSH1 0x20 SWAP3 SWAP2 SWAP1 DUP3 SWAP1 SUB ADD DUP2 DUP7 DUP1 EXTCODESIZE ISZERO DUP1 ISZERO PUSH2 0x871 JUMPI PUSH1 0x0 DUP1 REVERT JUMPDEST POP GAS STATICCALL ISZERO DUP1 ISZERO PUSH2 0x885 JUMPI RETURNDATASIZE PUSH1 0x0 DUP1 RETURNDATACOPY RETURNDATASIZE PUSH1 0x0 REVERT JUMPDEST POP POP POP POP PUSH1 0x40 MLOAD RETURNDATASIZE PUSH1 0x20 DUP2 LT ISZERO PUSH2 0x89B JUMPI PUSH1 0x0 DUP1 REVERT JUMPDEST POP MLOAD PUSH1 0x40 DUP1 MLOAD PUSH4 0x70A08231 PUSH1 0xE0 SHL DUP2 MSTORE ADDRESS PUSH1 0x4 DUP3 ADD MSTORE SWAP1 MLOAD SWAP2 SWAP6 POP PUSH1 0x1 PUSH1 0x1 PUSH1 0xA0 SHL SUB DUP4 AND SWAP2 PUSH4 0x70A08231 SWAP2 PUSH1 0x24 DUP1 DUP3 ADD SWAP3 PUSH1 0x20 SWAP3 SWAP1 SWAP2 SWAP1 DUP3 SWAP1 SUB ADD DUP2 DUP7 DUP1 EXTCODESIZE ISZERO DUP1 ISZERO PUSH2 0x8E7 JUMPI PUSH1 0x0 DUP1 REVERT JUMPDEST POP GAS STATICCALL ISZERO DUP1 ISZERO PUSH2 0x8FB JUMPI RETURNDATASIZE PUSH1 0x0 DUP1 RETURNDATACOPY RETURNDATASIZE PUSH1 0x0 REVERT JUMPDEST POP POP POP POP PUSH1 0x40 MLOAD RETURNDATASIZE PUSH1 0x20 DUP2 LT ISZERO PUSH2 0x911 JUMPI PUSH1 0x0 DUP1 REVERT JUMPDEST POP MLOAD SWAP3 POP PUSH1 0x0 SWAP2 POP POP PUSH1 0x1 PUSH1 0x1 PUSH1 0x70 SHL SUB DUP6 AND DUP11 SWAP1 SUB DUP4 GT PUSH2 0x934 JUMPI PUSH1 0x0 PUSH2 0x943 JUMP JUMPDEST DUP10 DUP6 PUSH1 0x1 PUSH1 0x1 PUSH1 0x70 SHL SUB AND SUB DUP4 SUB JUMPDEST SWAP1 POP PUSH1 0x0 DUP10 DUP6 PUSH1 0x1 PUSH1 0x1 PUSH1 0x70 SHL SUB AND SUB DUP4 GT PUSH2 0x960 JUMPI PUSH1 0x0 PUSH2 0x96F JUMP JUMPDEST DUP10 DUP6 PUSH1 0x1 PUSH1 0x1 PUSH1 0x70 SHL SUB AND SUB DUP4 SUB JUMPDEST SWAP1 POP PUSH1 0x0 DUP3 GT DUP1 PUSH2 0x980 JUMPI POP PUSH1 0x0 DUP2 GT JUMPDEST PUSH2 0x9BB JUMPI PUSH1 0x40 MLOAD PUSH3 0x461BCD PUSH1 0xE5 SHL DUP2 MSTORE PUSH1 0x4 ADD DUP1 DUP1 PUSH1 0x20 ADD DUP3 DUP2 SUB DUP3 MSTORE PUSH1 0x24 DUP2 MSTORE PUSH1 0x20 ADD DUP1 PUSH2 0x2267 PUSH1 0x24 SWAP2 CODECOPY PUSH1 0x40 ADD SWAP2 POP POP PUSH1 0x40 MLOAD DUP1 SWAP2 SUB SWAP1 REVERT JUMPDEST PUSH1 0x0 PUSH2 0x9EF PUSH2 0x9D1 DUP5 PUSH1 0x5 PUSH4 0xFFFFFFFF PUSH2 0x1A7A AND JUMP JUMPDEST PUSH2 0x9E3 DUP8 PUSH2 0x3E8 PUSH4 0xFFFFFFFF PUSH2 0x1A7A AND JUMP JUMPDEST SWAP1 PUSH4 0xFFFFFFFF PUSH2 0x1ADD AND JUMP JUMPDEST SWAP1 POP PUSH1 0x0 PUSH2 0xA07 PUSH2 0x9D1 DUP5 PUSH1 0x5 PUSH4 0xFFFFFFFF PUSH2 0x1A7A AND JUMP JUMPDEST SWAP1 POP PUSH2 0xA38 PUSH3 0xF4240 PUSH2 0xA2C PUSH1 0x1 PUSH1 0x1 PUSH1 0x70 SHL SUB DUP12 DUP2 AND SWAP1 DUP12 AND PUSH4 0xFFFFFFFF PUSH2 0x1A7A AND JUMP JUMPDEST SWAP1 PUSH4 0xFFFFFFFF PUSH2 0x1A7A AND JUMP JUMPDEST PUSH2 0xA48 DUP4 DUP4 PUSH4 0xFFFFFFFF PUSH2 0x1A7A AND JUMP JUMPDEST LT ISZERO PUSH2 0xA8A JUMPI PUSH1 0x40 DUP1 MLOAD PUSH3 0x461BCD PUSH1 0xE5 SHL DUP2 MSTORE PUSH1 0x20 PUSH1 0x4 DUP3 ADD MSTORE PUSH1 0xC PUSH1 0x24 DUP3 ADD MSTORE PUSH12 0x556E697377617056323A204B PUSH1 0xA0 SHL PUSH1 0x44 DUP3 ADD MSTORE SWAP1 MLOAD SWAP1 DUP2 SWAP1 SUB PUSH1 0x64 ADD SWAP1 REVERT JUMPDEST POP POP PUSH2 0xA98 DUP5 DUP5 DUP9 DUP9 PUSH2 0x1B2D JUMP JUMPDEST PUSH1 0x40 DUP1 MLOAD DUP4 DUP2 MSTORE PUSH1 0x20 DUP2 ADD DUP4 SWAP1 MSTORE DUP1 DUP3 ADD DUP14 SWAP1 MSTORE PUSH1 0x60 DUP2 ADD DUP13 SWAP1 MSTORE SWAP1 MLOAD PUSH1 0x1 PUSH1 0x1 PUSH1 0xA0 SHL SUB DUP12 AND SWAP2 CALLER SWAP2 PUSH32 0xD78AD95FA46C994B6551D0DA85FC275FE613CE37657FB8D5E3D130840159D822 SWAP2 DUP2 SWAP1 SUB PUSH1 0x80 ADD SWAP1 LOG3 POP POP PUSH1 0x1 PUSH1 0xC SSTORE POP POP POP POP POP POP POP POP POP JUMP JUMPDEST PUSH1 0x40 MLOAD DUP1 PUSH1 0x40 ADD PUSH1 0x40 MSTORE DUP1 PUSH1 0xA DUP2 MSTORE PUSH1 0x20 ADD PUSH10 0x2432BC3C102A37B5B2B7 PUSH1 0xB1 SHL DUP2 MSTORE POP DUP2 JUMP JUMPDEST PUSH1 0x8 SLOAD PUSH1 0x1 PUSH1 0x1 PUSH1 0x70 SHL SUB DUP1 DUP3 AND SWAP3 PUSH1 0x1 PUSH1 0x70 SHL DUP4 DIV SWAP1 SWAP2 AND SWAP2 PUSH1 0x1 PUSH1 0xE0 SHL SWAP1 DIV PUSH4 0xFFFFFFFF AND SWAP1 JUMP JUMPDEST PUSH1 0x0 PUSH2 0xB5B CALLER DUP5 DUP5 PUSH2 0x1CF2 JUMP JUMPDEST POP PUSH1 0x1 JUMPDEST SWAP3 SWAP2 POP POP JUMP JUMPDEST PUSH1 0x6 SLOAD PUSH1 0x1 PUSH1 0x1 PUSH1 0xA0 SHL SUB AND DUP2 JUMP JUMPDEST PUSH1 0x0 SLOAD DUP2 JUMP JUMPDEST PUSH1 0x1 PUSH1 0x1 PUSH1 0xA0 SHL SUB DUP4 AND PUSH1 0x0 SWAP1 DUP2 MSTORE PUSH1 0x2 PUSH1 0x20 SWAP1 DUP2 MSTORE PUSH1 0x40 DUP1 DUP4 KECCAK256 CALLER DUP5 MSTORE SWAP1 SWAP2 MSTORE DUP2 KECCAK256 SLOAD PUSH1 0x0 NOT EQ PUSH2 0xBFF JUMPI PUSH1 0x1 PUSH1 0x1 PUSH1 0xA0 SHL SUB DUP5 AND PUSH1 0x0 SWAP1 DUP2 MSTORE PUSH1 0x2 PUSH1 0x20 SWAP1 DUP2 MSTORE PUSH1 0x40 DUP1 DUP4 KECCAK256 CALLER DUP5 MSTORE SWAP1 SWAP2 MSTORE SWAP1 KECCAK256 SLOAD PUSH2 0xBDA SWAP1 DUP4 PUSH4 0xFFFFFFFF PUSH2 0x1ADD AND JUMP JUMPDEST PUSH1 0x1 PUSH1 0x1 PUSH1 0xA0 SHL SUB DUP6 AND PUSH1 0x0 SWAP1 DUP2 MSTORE PUSH1 0x2 PUSH1 0x20 SWAP1 DUP2 MSTORE PUSH1 0x40 DUP1 DUP4 KECCAK256 CALLER DUP5 MSTORE SWAP1 SWAP2 MSTORE SWAP1 KECCAK256 SSTORE JUMPDEST PUSH2 0xC0A DUP5 DUP5 DUP5 PUSH2 0x1D54 JUMP JUMPDEST POP PUSH1 0x1 SWAP4 SWAP3 POP POP POP JUMP JUMPDEST PUSH32 0x6E71EDAE12B1B97F4D1F60370FEF10105FA2FAAE0126114A169C64845D6126C9 DUP2 JUMP JUMPDEST PUSH1 0x12 DUP2 JUMP JUMPDEST PUSH1 0x3 SLOAD DUP2 JUMP JUMPDEST PUSH1 0x5 SLOAD PUSH1 0x1 PUSH1 0x1 PUSH1 0xA0 SHL SUB AND CALLER EQ PUSH2 0xC99 JUMPI PUSH1 0x40 DUP1 MLOAD PUSH3 0x461BCD PUSH1 0xE5 SHL DUP2 MSTORE PUSH1 0x20 PUSH1 0x4 DUP3 ADD MSTORE PUSH1 0x14 PUSH1 0x24 DUP3 ADD MSTORE PUSH20 0x2AB734B9BBB0B82B191D102327A92124A22222A7 PUSH1 0x61 SHL PUSH1 0x44 DUP3 ADD MSTORE SWAP1 MLOAD SWAP1 DUP2 SWAP1 SUB PUSH1 0x64 ADD SWAP1 REVERT JUMPDEST PUSH1 0x6 DUP1 SLOAD PUSH1 0x1 PUSH1 0x1 PUSH1 0xA0 SHL SUB SWAP4 DUP5 AND PUSH1 0x1 PUSH1 0x1 PUSH1 0xA0 SHL SUB NOT SWAP2 DUP3 AND OR SWAP1 SWAP2 SSTORE PUSH1 0x7 DUP1 SLOAD SWAP3 SWAP1 SWAP4 AND SWAP2 AND OR SWAP1 SSTORE JUMP JUMPDEST PUSH1 0x9 SLOAD DUP2 JUMP JUMPDEST PUSH1 0xA SLOAD DUP2 JUMP JUMPDEST PUSH1 0x0 PUSH1 0xC SLOAD PUSH1 0x1 EQ PUSH2 0xD20 JUMPI PUSH1 0x40 DUP1 MLOAD PUSH3 0x461BCD PUSH1 0xE5 SHL DUP2 MSTORE PUSH1 0x20 PUSH1 0x4 DUP3 ADD MSTORE PUSH1 0x11 PUSH1 0x24 DUP3 ADD MSTORE PUSH17 0x155B9A5CDDD85C158C8E881313D0D2D151 PUSH1 0x7A SHL PUSH1 0x44 DUP3 ADD MSTORE SWAP1 MLOAD SWAP1 DUP2 SWAP1 SUB PUSH1 0x64 ADD SWAP1 REVERT JUMPDEST PUSH1 0x0 PUSH1 0xC DUP2 SWAP1 SSTORE DUP1 PUSH2 0xD30 PUSH2 0xB24 JUMP JUMPDEST POP PUSH1 0x6 SLOAD PUSH1 0x40 DUP1 MLOAD PUSH4 0x70A08231 PUSH1 0xE0 SHL DUP2 MSTORE ADDRESS PUSH1 0x4 DUP3 ADD MSTORE SWAP1 MLOAD SWAP4 SWAP6 POP SWAP2 SWAP4 POP PUSH1 0x0 SWAP3 PUSH1 0x1 PUSH1 0x1 PUSH1 0xA0 SHL SUB SWAP1 SWAP2 AND SWAP2 PUSH4 0x70A08231 SWAP2 PUSH1 0x24 DUP1 DUP4 ADD SWAP3 PUSH1 0x20 SWAP3 SWAP2 SWAP1 DUP3 SWAP1 SUB ADD DUP2 DUP7 DUP1 EXTCODESIZE ISZERO DUP1 ISZERO PUSH2 0xD84 JUMPI PUSH1 0x0 DUP1 REVERT JUMPDEST POP GAS STATICCALL ISZERO DUP1 ISZERO PUSH2 0xD98 JUMPI RETURNDATASIZE PUSH1 0x0 DUP1 RETURNDATACOPY RETURNDATASIZE PUSH1 0x0 REVERT JUMPDEST POP POP POP POP PUSH1 0x40 MLOAD RETURNDATASIZE PUSH1 0x20 DUP2 LT ISZERO PUSH2 0xDAE JUMPI PUSH1 0x0 DUP1 REVERT JUMPDEST POP MLOAD PUSH1 0x7 SLOAD PUSH1 0x40 DUP1 MLOAD PUSH4 0x70A08231 PUSH1 0xE0 SHL DUP2 MSTORE ADDRESS PUSH1 0x4 DUP3 ADD MSTORE SWAP1 MLOAD SWAP3 SWAP4 POP PUSH1 0x0 SWAP3 PUSH1 0x1 PUSH1 0x1 PUSH1 0xA0 SHL SUB SWAP1 SWAP3 AND SWAP2 PUSH4 0x70A08231 SWAP2 PUSH1 0x24 DUP1 DUP3 ADD SWAP3 PUSH1 0x20 SWAP3 SWAP1 SWAP2 SWAP1 DUP3 SWAP1 SUB ADD DUP2 DUP7 DUP1 EXTCODESIZE ISZERO DUP1 ISZERO PUSH2 0xE01 JUMPI PUSH1 0x0 DUP1 REVERT JUMPDEST POP GAS STATICCALL ISZERO DUP1 ISZERO PUSH2 0xE15 JUMPI RETURNDATASIZE PUSH1 0x0 DUP1 RETURNDATACOPY RETURNDATASIZE PUSH1 0x0 REVERT JUMPDEST POP POP POP POP PUSH1 0x40 MLOAD RETURNDATASIZE PUSH1 0x20 DUP2 LT ISZERO PUSH2 0xE2B JUMPI PUSH1 0x0 DUP1 REVERT JUMPDEST POP MLOAD SWAP1 POP PUSH1 0x0 PUSH2 0xE4A DUP4 PUSH1 0x1 PUSH1 0x1 PUSH1 0x70 SHL SUB DUP8 AND PUSH4 0xFFFFFFFF PUSH2 0x1ADD AND JUMP JUMPDEST SWAP1 POP PUSH1 0x0 PUSH2 0xE67 DUP4 PUSH1 0x1 PUSH1 0x1 PUSH1 0x70 SHL SUB DUP8 AND PUSH4 0xFFFFFFFF PUSH2 0x1ADD AND JUMP JUMPDEST SWAP1 POP PUSH1 0x0 PUSH2 0xE75 DUP8 DUP8 PUSH2 0x1E0E JUMP JUMPDEST PUSH1 0x0 SLOAD SWAP1 SWAP2 POP DUP1 PUSH2 0xEB2 JUMPI PUSH2 0xE9E PUSH2 0x3E8 PUSH2 0x9E3 PUSH2 0xE99 DUP8 DUP8 PUSH4 0xFFFFFFFF PUSH2 0x1A7A AND JUMP JUMPDEST PUSH2 0x201D JUMP JUMPDEST SWAP9 POP PUSH2 0xEAD PUSH1 0x0 PUSH2 0x3E8 PUSH2 0x206F JUMP JUMPDEST PUSH2 0xF01 JUMP JUMPDEST PUSH2 0xEFE PUSH1 0x1 PUSH1 0x1 PUSH1 0x70 SHL SUB DUP10 AND PUSH2 0xECF DUP7 DUP5 PUSH4 0xFFFFFFFF PUSH2 0x1A7A AND JUMP JUMPDEST DUP2 PUSH2 0xED6 JUMPI INVALID JUMPDEST DIV PUSH1 0x1 PUSH1 0x1 PUSH1 0x70 SHL SUB DUP10 AND PUSH2 0xEF1 DUP7 DUP6 PUSH4 0xFFFFFFFF PUSH2 0x1A7A AND JUMP JUMPDEST DUP2 PUSH2 0xEF8 JUMPI INVALID JUMPDEST DIV PUSH2 0x2105 JUMP JUMPDEST SWAP9 POP JUMPDEST PUSH1 0x0 DUP10 GT PUSH2 0xF40 JUMPI PUSH1 0x40 MLOAD PUSH3 0x461BCD PUSH1 0xE5 SHL DUP2 MSTORE PUSH1 0x4 ADD DUP1 DUP1 PUSH1 0x20 ADD DUP3 DUP2 SUB DUP3 MSTORE PUSH1 0x28 DUP2 MSTORE PUSH1 0x20 ADD DUP1 PUSH2 0x22D4 PUSH1 0x28 SWAP2 CODECOPY PUSH1 0x40 ADD SWAP2 POP POP PUSH1 0x40 MLOAD DUP1 SWAP2 SUB SWAP1 REVERT JUMPDEST PUSH2 0xF4A DUP11 DUP11 PUSH2 0x206F JUMP JUMPDEST PUSH2 0xF56 DUP7 DUP7 DUP11 DUP11 PUSH2 0x1B2D JUMP JUMPDEST DUP2 ISZERO PUSH2 0xF86 JUMPI PUSH1 0x8 SLOAD PUSH2 0xF82 SWAP1 PUSH1 0x1 PUSH1 0x1 PUSH1 0x70 SHL SUB DUP1 DUP3 AND SWAP2 PUSH1 0x1 PUSH1 0x70 SHL SWAP1 DIV AND PUSH4 0xFFFFFFFF PUSH2 0x1A7A AND JUMP JUMPDEST PUSH1 0xB SSTORE JUMPDEST PUSH1 0x40 DUP1 MLOAD DUP6 DUP2 MSTORE PUSH1 0x20 DUP2 ADD DUP6 SWAP1 MSTORE DUP2 MLOAD CALLER SWAP3 PUSH32 0x4C209B5FC8AD50758F13E2E1088BA56A560DFF690A1C6FEF26394F4C03821C4F SWAP3 DUP3 SWAP1 SUB ADD SWAP1 LOG2 POP POP PUSH1 0x1 PUSH1 0xC SSTORE POP SWAP5 SWAP7 SWAP6 POP POP POP POP POP POP JUMP JUMPDEST PUSH1 0x1 PUSH1 0x20 MSTORE PUSH1 0x0 SWAP1 DUP2 MSTORE PUSH1 0x40 SWAP1 KECCAK256 SLOAD DUP2 JUMP JUMPDEST PUSH1 0xB SLOAD DUP2 JUMP JUMPDEST PUSH1 0x4 PUSH1 0x20 MSTORE PUSH1 0x0 SWAP1 DUP2 MSTORE PUSH1 0x40 SWAP1 KECCAK256 SLOAD DUP2 JUMP JUMPDEST PUSH1 0x0 DUP1 PUSH1 0xC SLOAD PUSH1 0x1 EQ PUSH2 0x104B JUMPI PUSH1 0x40 DUP1 MLOAD PUSH3 0x461BCD PUSH1 0xE5 SHL DUP2 MSTORE PUSH1 0x20 PUSH1 0x4 DUP3 ADD MSTORE PUSH1 0x11 PUSH1 0x24 DUP3 ADD MSTORE PUSH17 0x155B9A5CDDD85C158C8E881313D0D2D151 PUSH1 0x7A SHL PUSH1 0x44 DUP3 ADD MSTORE SWAP1 MLOAD SWAP1 DUP2 SWAP1 SUB PUSH1 0x64 ADD SWAP1 REVERT JUMPDEST PUSH1 0x0 PUSH1 0xC DUP2 SWAP1 SSTORE DUP1 PUSH2 0x105B PUSH2 0xB24 JUMP JUMPDEST POP PUSH1 0x6 SLOAD PUSH1 0x7 SLOAD PUSH1 0x40 DUP1 MLOAD PUSH4 0x70A08231 PUSH1 0xE0 SHL DUP2 MSTORE ADDRESS PUSH1 0x4 DUP3 ADD MSTORE SWAP1 MLOAD SWAP5 SWAP7 POP SWAP3 SWAP5 POP PUSH1 0x1 PUSH1 0x1 PUSH1 0xA0 SHL SUB SWAP2 DUP3 AND SWAP4 SWAP2 AND SWAP2 PUSH1 0x0 SWAP2 DUP5 SWAP2 PUSH4 0x70A08231 SWAP2 PUSH1 0x24 DUP1 DUP4 ADD SWAP3 PUSH1 0x20 SWAP3 SWAP2 SWAP1 DUP3 SWAP1 SUB ADD DUP2 DUP7 DUP1 EXTCODESIZE ISZERO DUP1 ISZERO PUSH2 0x10B7 JUMPI PUSH1 0x0 DUP1 REVERT JUMPDEST POP GAS STATICCALL ISZERO DUP1 ISZERO PUSH2 0x10CB JUMPI RETURNDATASIZE PUSH1 0x0 DUP1 RETURNDATACOPY RETURNDATASIZE PUSH1 0x0 REVERT JUMPDEST POP POP POP POP PUSH1 0x40 MLOAD RETURNDATASIZE PUSH1 0x20 DUP2 LT ISZERO PUSH2 0x10E1 JUMPI PUSH1 0x0 DUP1 REVERT JUMPDEST POP MLOAD PUSH1 0x40 DUP1 MLOAD PUSH4 0x70A08231 PUSH1 0xE0 SHL DUP2 MSTORE ADDRESS PUSH1 0x4 DUP3 ADD MSTORE SWAP1 MLOAD SWAP2 SWAP3 POP PUSH1 0x0 SWAP2 PUSH1 0x1 PUSH1 0x1 PUSH1 0xA0 SHL SUB DUP6 AND SWAP2 PUSH4 0x70A08231 SWAP2 PUSH1 0x24 DUP1 DUP4 ADD SWAP3 PUSH1 0x20 SWAP3 SWAP2 SWAP1 DUP3 SWAP1 SUB ADD DUP2 DUP7 DUP1 EXTCODESIZE ISZERO DUP1 ISZERO PUSH2 0x112F JUMPI PUSH1 0x0 DUP1 REVERT JUMPDEST POP GAS STATICCALL ISZERO DUP1 ISZERO PUSH2 0x1143 JUMPI RETURNDATASIZE PUSH1 0x0 DUP1 RETURNDATACOPY RETURNDATASIZE PUSH1 0x0 REVERT JUMPDEST POP POP POP POP PUSH1 0x40 MLOAD RETURNDATASIZE PUSH1 0x20 DUP2 LT ISZERO PUSH2 0x1159 JUMPI PUSH1 0x0 DUP1 REVERT JUMPDEST POP MLOAD ADDRESS PUSH1 0x0 SWAP1 DUP2 MSTORE PUSH1 0x1 PUSH1 0x20 MSTORE PUSH1 0x40 DUP2 KECCAK256 SLOAD SWAP2 SWAP3 POP PUSH2 0x1178 DUP9 DUP9 PUSH2 0x1E0E JUMP JUMPDEST PUSH1 0x0 SLOAD SWAP1 SWAP2 POP DUP1 PUSH2 0x118F DUP5 DUP8 PUSH4 0xFFFFFFFF PUSH2 0x1A7A AND JUMP JUMPDEST DUP2 PUSH2 0x1196 JUMPI INVALID JUMPDEST DIV SWAP11 POP DUP1 PUSH2 0x11AA DUP5 DUP7 PUSH4 0xFFFFFFFF PUSH2 0x1A7A AND JUMP JUMPDEST DUP2 PUSH2 0x11B1 JUMPI INVALID JUMPDEST DIV SWAP10 POP PUSH1 0x0 DUP12 GT DUP1 ISZERO PUSH2 0x11C4 JUMPI POP PUSH1 0x0 DUP11 GT JUMPDEST PUSH2 0x11FF JUMPI PUSH1 0x40 MLOAD PUSH3 0x461BCD PUSH1 0xE5 SHL DUP2 MSTORE PUSH1 0x4 ADD DUP1 DUP1 PUSH1 0x20 ADD DUP3 DUP2 SUB DUP3 MSTORE PUSH1 0x28 DUP2 MSTORE PUSH1 0x20 ADD DUP1 PUSH2 0x22AC PUSH1 0x28 SWAP2 CODECOPY PUSH1 0x40 ADD SWAP2 POP POP PUSH1 0x40 MLOAD DUP1 SWAP2 SUB SWAP1 REVERT JUMPDEST PUSH2 0x1209 ADDRESS DUP5 PUSH2 0x211D JUMP JUMPDEST PUSH2 0x1214 DUP8 DUP14 DUP14 PUSH2 0x18E0 JUMP JUMPDEST PUSH2 0x121F DUP7 DUP14 DUP13 PUSH2 0x18E0 JUMP JUMPDEST PUSH1 0x40 DUP1 MLOAD PUSH4 0x70A08231 PUSH1 0xE0 SHL DUP2 MSTORE ADDRESS PUSH1 0x4 DUP3 ADD MSTORE SWAP1 MLOAD PUSH1 0x1 PUSH1 0x1 PUSH1 0xA0 SHL SUB DUP10 AND SWAP2 PUSH4 0x70A08231 SWAP2 PUSH1 0x24 DUP1 DUP4 ADD SWAP3 PUSH1 0x20 SWAP3 SWAP2 SWAP1 DUP3 SWAP1 SUB ADD DUP2 DUP7 DUP1 EXTCODESIZE ISZERO DUP1 ISZERO PUSH2 0x1265 JUMPI PUSH1 0x0 DUP1 REVERT JUMPDEST POP GAS STATICCALL ISZERO DUP1 ISZERO PUSH2 0x1279 JUMPI RETURNDATASIZE PUSH1 0x0 DUP1 RETURNDATACOPY RETURNDATASIZE PUSH1 0x0 REVERT JUMPDEST POP POP POP POP PUSH1 0x40 MLOAD RETURNDATASIZE PUSH1 0x20 DUP2 LT ISZERO PUSH2 0x128F JUMPI PUSH1 0x0 DUP1 REVERT JUMPDEST POP MLOAD PUSH1 0x40 DUP1 MLOAD PUSH4 0x70A08231 PUSH1 0xE0 SHL DUP2 MSTORE ADDRESS PUSH1 0x4 DUP3 ADD MSTORE SWAP1 MLOAD SWAP2 SWAP7 POP PUSH1 0x1 PUSH1 0x1 PUSH1 0xA0 SHL SUB DUP9 AND SWAP2 PUSH4 0x70A08231 SWAP2 PUSH1 0x24 DUP1 DUP3 ADD SWAP3 PUSH1 0x20 SWAP3 SWAP1 SWAP2 SWAP1 DUP3 SWAP1 SUB ADD DUP2 DUP7 DUP1 EXTCODESIZE ISZERO DUP1 ISZERO PUSH2 0x12DB JUMPI PUSH1 0x0 DUP1 REVERT JUMPDEST POP GAS STATICCALL ISZERO DUP1 ISZERO PUSH2 0x12EF JUMPI RETURNDATASIZE PUSH1 0x0 DUP1 RETURNDATACOPY RETURNDATASIZE PUSH1 0x0 REVERT JUMPDEST POP POP POP POP PUSH1 0x40 MLOAD RETURNDATASIZE PUSH1 0x20 DUP2 LT ISZERO PUSH2 0x1305 JUMPI PUSH1 0x0 DUP1 REVERT JUMPDEST POP MLOAD SWAP4 POP PUSH2 0x1315 DUP6 DUP6 DUP12 DUP12 PUSH2 0x1B2D JUMP JUMPDEST DUP2 ISZERO PUSH2 0x1345 JUMPI PUSH1 0x8 SLOAD PUSH2 0x1341 SWAP1 PUSH1 0x1 PUSH1 0x1 PUSH1 0x70 SHL SUB DUP1 DUP3 AND SWAP2 PUSH1 0x1 PUSH1 0x70 SHL SWAP1 DIV AND PUSH4 0xFFFFFFFF PUSH2 0x1A7A AND JUMP JUMPDEST PUSH1 0xB SSTORE JUMPDEST PUSH1 0x40 DUP1 MLOAD DUP13 DUP2 MSTORE PUSH1 0x20 DUP2 ADD DUP13 SWAP1 MSTORE DUP2 MLOAD PUSH1 0x1 PUSH1 0x1 PUSH1 0xA0 SHL SUB DUP16 AND SWAP3 CALLER SWAP3 PUSH32 0xDCCD412F0B1252819CB1FD330B93224CA42612892BB3F4F789976E6D81936496 SWAP3 SWAP1 DUP2 SWAP1 SUB SWAP1 SWAP2 ADD SWAP1 LOG3 POP POP POP POP POP POP POP POP POP PUSH1 0x1 PUSH1 0xC DUP2 SWAP1 SSTORE POP SWAP2 POP SWAP2 JUMP JUMPDEST PUSH1 0x40 MLOAD DUP1 PUSH1 0x40 ADD PUSH1 0x40 MSTORE DUP1 PUSH1 0x4 DUP2 MSTORE PUSH1 0x20 ADD PUSH4 0x908AB0B PUSH1 0xE3 SHL DUP2 MSTORE POP DUP2 JUMP JUMPDEST PUSH1 0x0 PUSH2 0xB5B CALLER DUP5 DUP5 PUSH2 0x1D54 JUMP JUMPDEST PUSH2 0x3E8 DUP2 JUMP JUMPDEST PUSH1 0xC SLOAD PUSH1 0x1 EQ PUSH2 0x1421 JUMPI PUSH1 0x40 DUP1 MLOAD PUSH3 0x461BCD PUSH1 0xE5 SHL DUP2 MSTORE PUSH1 0x20 PUSH1 0x4 DUP3 ADD MSTORE PUSH1 0x11 PUSH1 0x24 DUP3 ADD MSTORE PUSH17 0x155B9A5CDDD85C158C8E881313D0D2D151 PUSH1 0x7A SHL PUSH1 0x44 DUP3 ADD MSTORE SWAP1 MLOAD SWAP1 DUP2 SWAP1 SUB PUSH1 0x64 ADD SWAP1 REVERT JUMPDEST PUSH1 0x0 PUSH1 0xC SSTORE PUSH1 0x6 SLOAD PUSH1 0x7 SLOAD PUSH1 0x8 SLOAD PUSH1 0x40 DUP1 MLOAD PUSH4 0x70A08231 PUSH1 0xE0 SHL DUP2 MSTORE ADDRESS PUSH1 0x4 DUP3 ADD MSTORE SWAP1 MLOAD PUSH1 0x1 PUSH1 0x1 PUSH1 0xA0 SHL SUB SWAP5 DUP6 AND SWAP5 SWAP1 SWAP4 AND SWAP3 PUSH2 0x14D0 SWAP3 DUP6 SWAP3 DUP8 SWAP3 PUSH2 0x14CB SWAP3 PUSH1 0x1 PUSH1 0x1 PUSH1 0x70 SHL SUB AND SWAP2 DUP6 SWAP2 PUSH4 0x70A08231 SWAP2 PUSH1 0x24 DUP1 DUP3 ADD SWAP3 PUSH1 0x20 SWAP3 SWAP1 SWAP2 SWAP1 DUP3 SWAP1 SUB ADD DUP2 DUP7 DUP1 EXTCODESIZE ISZERO DUP1 ISZERO PUSH2 0x1493 JUMPI PUSH1 0x0 DUP1 REVERT JUMPDEST POP GAS STATICCALL ISZERO DUP1 ISZERO PUSH2 0x14A7 JUMPI RETURNDATASIZE PUSH1 0x0 DUP1 RETURNDATACOPY RETURNDATASIZE PUSH1 0x0 REVERT JUMPDEST POP POP POP POP PUSH1 0x40 MLOAD RETURNDATASIZE PUSH1 0x20 DUP2 LT ISZERO PUSH2 0x14BD JUMPI PUSH1 0x0 DUP1 REVERT JUMPDEST POP MLOAD SWAP1 PUSH4 0xFFFFFFFF PUSH2 0x1ADD AND JUMP JUMPDEST PUSH2 0x18E0 JUMP JUMPDEST PUSH1 0x8 SLOAD PUSH1 0x40 DUP1 MLOAD PUSH4 0x70A08231 PUSH1 0xE0 SHL DUP2 MSTORE ADDRESS PUSH1 0x4 DUP3 ADD MSTORE SWAP1 MLOAD PUSH2 0x1537 SWAP3 DUP5 SWAP3 DUP8 SWAP3 PUSH2 0x14CB SWAP3 PUSH1 0x1 PUSH1 0x70 SHL SWAP1 DIV PUSH1 0x1 PUSH1 0x1 PUSH1 0x70 SHL SUB AND SWAP2 PUSH1 0x1 PUSH1 0x1 PUSH1 0xA0 SHL SUB DUP7 AND SWAP2 PUSH4 0x70A08231 SWAP2 PUSH1 0x24 DUP1 DUP3 ADD SWAP3 PUSH1 0x20 SWAP3 SWAP1 SWAP2 SWAP1 DUP3 SWAP1 SUB ADD DUP2 DUP7 DUP1 EXTCODESIZE ISZERO DUP1 ISZERO PUSH2 0x1493 JUMPI PUSH1 0x0 DUP1 REVERT JUMPDEST POP POP PUSH1 0x1 PUSH1 0xC SSTORE POP JUMP JUMPDEST PUSH1 0x5 SLOAD PUSH1 0x1 PUSH1 0x1 PUSH1 0xA0 SHL SUB AND DUP2 JUMP JUMPDEST PUSH1 0x7 SLOAD PUSH1 0x1 PUSH1 0x1 PUSH1 0xA0 SHL SUB AND DUP2 JUMP JUMPDEST TIMESTAMP DUP5 LT ISZERO PUSH2 0x15A9 JUMPI PUSH1 0x40 DUP1 MLOAD PUSH3 0x461BCD PUSH1 0xE5 SHL DUP2 MSTORE PUSH1 0x20 PUSH1 0x4 DUP3 ADD MSTORE PUSH1 0x12 PUSH1 0x24 DUP3 ADD MSTORE PUSH18 0x155B9A5CDDD85C158C8E8811561412549151 PUSH1 0x72 SHL PUSH1 0x44 DUP3 ADD MSTORE SWAP1 MLOAD SWAP1 DUP2 SWAP1 SUB PUSH1 0x64 ADD SWAP1 REVERT JUMPDEST PUSH1 0x3 SLOAD PUSH1 0x1 PUSH1 0x1 PUSH1 0xA0 SHL SUB DUP1 DUP10 AND PUSH1 0x0 DUP2 DUP2 MSTORE PUSH1 0x4 PUSH1 0x20 SWAP1 DUP2 MSTORE PUSH1 0x40 DUP1 DUP4 KECCAK256 DUP1 SLOAD PUSH1 0x1 DUP1 DUP3 ADD SWAP1 SWAP3 SSTORE DUP3 MLOAD PUSH32 0x6E71EDAE12B1B97F4D1F60370FEF10105FA2FAAE0126114A169C64845D6126C9 DUP2 DUP7 ADD MSTORE DUP1 DUP5 ADD SWAP7 SWAP1 SWAP7 MSTORE SWAP6 DUP14 AND PUSH1 0x60 DUP7 ADD MSTORE PUSH1 0x80 DUP6 ADD DUP13 SWAP1 MSTORE PUSH1 0xA0 DUP6 ADD SWAP6 SWAP1 SWAP6 MSTORE PUSH1 0xC0 DUP1 DUP6 ADD DUP12 SWAP1 MSTORE DUP2 MLOAD DUP1 DUP7 SUB SWAP1 SWAP2 ADD DUP2 MSTORE PUSH1 0xE0 DUP6 ADD DUP3 MSTORE DUP1 MLOAD SWAP1 DUP4 ADD KECCAK256 PUSH2 0x1901 PUSH1 0xF0 SHL PUSH2 0x100 DUP7 ADD MSTORE PUSH2 0x102 DUP6 ADD SWAP7 SWAP1 SWAP7 MSTORE PUSH2 0x122 DUP1 DUP6 ADD SWAP7 SWAP1 SWAP7 MSTORE DUP1 MLOAD DUP1 DUP6 SUB SWAP1 SWAP7 ADD DUP7 MSTORE PUSH2 0x142 DUP5 ADD DUP1 DUP3 MSTORE DUP7 MLOAD SWAP7 DUP4 ADD SWAP7 SWAP1 SWAP7 KECCAK256 SWAP6 DUP4 SWAP1 MSTORE PUSH2 0x162 DUP5 ADD DUP1 DUP3 MSTORE DUP7 SWAP1 MSTORE PUSH1 0xFF DUP10 AND PUSH2 0x182 DUP6 ADD MSTORE PUSH2 0x1A2 DUP5 ADD DUP9 SWAP1 MSTORE PUSH2 0x1C2 DUP5 ADD DUP8 SWAP1 MSTORE MLOAD SWAP2 SWAP4 SWAP3 PUSH2 0x1E2 DUP1 DUP3 ADD SWAP4 PUSH1 0x1F NOT DUP2 ADD SWAP3 DUP2 SWAP1 SUB SWAP1 SWAP2 ADD SWAP1 DUP6 GAS STATICCALL ISZERO DUP1 ISZERO PUSH2 0x16C4 JUMPI RETURNDATASIZE PUSH1 0x0 DUP1 RETURNDATACOPY RETURNDATASIZE PUSH1 0x0 REVERT JUMPDEST POP POP PUSH1 0x40 MLOAD PUSH1 0x1F NOT ADD MLOAD SWAP2 POP POP PUSH1 0x1 PUSH1 0x1 PUSH1 0xA0 SHL SUB DUP2 AND ISZERO DUP1 ISZERO SWAP1 PUSH2 0x16FA JUMPI POP DUP9 PUSH1 0x1 PUSH1 0x1 PUSH1 0xA0 SHL SUB AND DUP2 PUSH1 0x1 PUSH1 0x1 PUSH1 0xA0 SHL SUB AND EQ JUMPDEST PUSH2 0x174B JUMPI PUSH1 0x40 DUP1 MLOAD PUSH3 0x461BCD PUSH1 0xE5 SHL DUP2 MSTORE PUSH1 0x20 PUSH1 0x4 DUP3 ADD MSTORE PUSH1 0x1C PUSH1 0x24 DUP3 ADD MSTORE PUSH32 0x556E697377617056323A20494E56414C49445F5349474E415455524500000000 PUSH1 0x44 DUP3 ADD MSTORE SWAP1 MLOAD SWAP1 DUP2 SWAP1 SUB PUSH1 0x64 ADD SWAP1 REVERT JUMPDEST PUSH2 0x1756 DUP10 DUP10 DUP10 PUSH2 0x1CF2 JUMP JUMPDEST POP POP POP POP POP POP POP POP POP JUMP JUMPDEST PUSH1 0x2 PUSH1 0x20 SWAP1 DUP2 MSTORE PUSH1 0x0 SWAP3 DUP4 MSTORE PUSH1 0x40 DUP1 DUP5 KECCAK256 SWAP1 SWAP2 MSTORE SWAP1 DUP3 MSTORE SWAP1 KECCAK256 SLOAD DUP2 JUMP JUMPDEST PUSH1 0xC SLOAD PUSH1 0x1 EQ PUSH2 0x17C9 JUMPI PUSH1 0x40 DUP1 MLOAD PUSH3 0x461BCD PUSH1 0xE5 SHL DUP2 MSTORE PUSH1 0x20 PUSH1 0x4 DUP3 ADD MSTORE PUSH1 0x11 PUSH1 0x24 DUP3 ADD MSTORE PUSH17 0x155B9A5CDDD85C158C8E881313D0D2D151 PUSH1 0x7A SHL PUSH1 0x44 DUP3 ADD MSTORE SWAP1 MLOAD SWAP1 DUP2 SWAP1 SUB PUSH1 0x64 ADD SWAP1 REVERT JUMPDEST PUSH1 0x0 PUSH1 0xC SSTORE PUSH1 0x6 SLOAD PUSH1 0x40 DUP1 MLOAD PUSH4 0x70A08231 PUSH1 0xE0 SHL DUP2 MSTORE ADDRESS PUSH1 0x4 DUP3 ADD MSTORE SWAP1 MLOAD PUSH2 0x18D9 SWAP3 PUSH1 0x1 PUSH1 0x1 PUSH1 0xA0 SHL SUB AND SWAP2 PUSH4 0x70A08231 SWAP2 PUSH1 0x24 DUP1 DUP4 ADD SWAP3 PUSH1 0x20 SWAP3 SWAP2 SWAP1 DUP3 SWAP1 SUB ADD DUP2 DUP7 DUP1 EXTCODESIZE ISZERO DUP1 ISZERO PUSH2 0x181A JUMPI PUSH1 0x0 DUP1 REVERT JUMPDEST POP GAS STATICCALL ISZERO DUP1 ISZERO PUSH2 0x182E JUMPI RETURNDATASIZE PUSH1 0x0 DUP1 RETURNDATACOPY RETURNDATASIZE PUSH1 0x0 REVERT JUMPDEST POP POP POP POP PUSH1 0x40 MLOAD RETURNDATASIZE PUSH1 0x20 DUP2 LT ISZERO PUSH2 0x1844 JUMPI PUSH1 0x0 DUP1 REVERT JUMPDEST POP MLOAD PUSH1 0x7 SLOAD PUSH1 0x40 DUP1 MLOAD PUSH4 0x70A08231 PUSH1 0xE0 SHL DUP2 MSTORE ADDRESS PUSH1 0x4 DUP3 ADD MSTORE SWAP1 MLOAD PUSH1 0x1 PUSH1 0x1 PUSH1 0xA0 SHL SUB SWAP1 SWAP3 AND SWAP2 PUSH4 0x70A08231 SWAP2 PUSH1 0x24 DUP1 DUP3 ADD SWAP3 PUSH1 0x20 SWAP3 SWAP1 SWAP2 SWAP1 DUP3 SWAP1 SUB ADD DUP2 DUP7 DUP1 EXTCODESIZE ISZERO DUP1 ISZERO PUSH2 0x1891 JUMPI PUSH1 0x0 DUP1 REVERT JUMPDEST POP GAS STATICCALL ISZERO DUP1 ISZERO PUSH2 0x18A5 JUMPI RETURNDATASIZE PUSH1 0x0 DUP1 RETURNDATACOPY RETURNDATASIZE PUSH1 0x0 REVERT JUMPDEST POP POP POP POP PUSH1 0x40 MLOAD RETURNDATASIZE PUSH1 0x20 DUP2 LT ISZERO PUSH2 0x18BB JUMPI PUSH1 0x0 DUP1 REVERT JUMPDEST POP MLOAD PUSH1 0x8 SLOAD PUSH1 0x1 PUSH1 0x1 PUSH1 0x70 SHL SUB DUP1 DUP3 AND SWAP2 PUSH1 0x1 PUSH1 0x70 SHL SWAP1 DIV AND PUSH2 0x1B2D JUMP JUMPDEST PUSH1 0x1 PUSH1 0xC SSTORE JUMP JUMPDEST PUSH1 0x40 DUP1 MLOAD DUP1 DUP3 ADD DUP3 MSTORE PUSH1 0x19 DUP2 MSTORE PUSH32 0x7472616E7366657228616464726573732C75696E743235362900000000000000 PUSH1 0x20 SWAP2 DUP3 ADD MSTORE DUP2 MLOAD PUSH1 0x1 PUSH1 0x1 PUSH1 0xA0 SHL SUB DUP6 DUP2 AND PUSH1 0x24 DUP4 ADD MSTORE PUSH1 0x44 DUP1 DUP4 ADD DUP7 SWAP1 MSTORE DUP5 MLOAD DUP1 DUP5 SUB SWAP1 SWAP2 ADD DUP2 MSTORE PUSH1 0x64 SWAP1 SWAP3 ADD DUP5 MSTORE SWAP2 DUP2 ADD DUP1 MLOAD PUSH1 0x1 PUSH1 0x1 PUSH1 0xE0 SHL SUB AND PUSH4 0xA9059CBB PUSH1 0xE0 SHL OR DUP2 MSTORE SWAP3 MLOAD DUP2 MLOAD PUSH1 0x0 SWAP5 PUSH1 0x60 SWAP5 DUP10 AND SWAP4 SWAP3 SWAP2 DUP3 SWAP2 SWAP1 DUP1 DUP4 DUP4 JUMPDEST PUSH1 0x20 DUP4 LT PUSH2 0x198D JUMPI DUP1 MLOAD DUP3 MSTORE PUSH1 0x1F NOT SWAP1 SWAP3 ADD SWAP2 PUSH1 0x20 SWAP2 DUP3 ADD SWAP2 ADD PUSH2 0x196E JUMP JUMPDEST PUSH1 0x1 DUP4 PUSH1 0x20 SUB PUSH2 0x100 EXP SUB DUP1 NOT DUP3 MLOAD AND DUP2 DUP5 MLOAD AND DUP1 DUP3 OR DUP6 MSTORE POP POP POP POP POP POP SWAP1 POP ADD SWAP2 POP POP PUSH1 0x0 PUSH1 0x40 MLOAD DUP1 DUP4 SUB DUP2 PUSH1 0x0 DUP7 GAS CALL SWAP2 POP POP RETURNDATASIZE DUP1 PUSH1 0x0 DUP2 EQ PUSH2 0x19EF JUMPI PUSH1 0x40 MLOAD SWAP2 POP PUSH1 0x1F NOT PUSH1 0x3F RETURNDATASIZE ADD AND DUP3 ADD PUSH1 0x40 MSTORE RETURNDATASIZE DUP3 MSTORE RETURNDATASIZE PUSH1 0x0 PUSH1 0x20 DUP5 ADD RETURNDATACOPY PUSH2 0x19F4 JUMP JUMPDEST PUSH1 0x60 SWAP2 POP JUMPDEST POP SWAP2 POP SWAP2 POP DUP2 DUP1 ISZERO PUSH2 0x1A22 JUMPI POP DUP1 MLOAD ISZERO DUP1 PUSH2 0x1A22 JUMPI POP DUP1 DUP1 PUSH1 0x20 ADD SWAP1 MLOAD PUSH1 0x20 DUP2 LT ISZERO PUSH2 0x1A1F JUMPI PUSH1 0x0 DUP1 REVERT JUMPDEST POP MLOAD JUMPDEST PUSH2 0x1A73 JUMPI PUSH1 0x40 DUP1 MLOAD PUSH3 0x461BCD PUSH1 0xE5 SHL DUP2 MSTORE PUSH1 0x20 PUSH1 0x4 DUP3 ADD MSTORE PUSH1 0x1A PUSH1 0x24 DUP3 ADD MSTORE PUSH32 0x556E697377617056323A205452414E534645525F4641494C4544000000000000 PUSH1 0x44 DUP3 ADD MSTORE SWAP1 MLOAD SWAP1 DUP2 SWAP1 SUB PUSH1 0x64 ADD SWAP1 REVERT JUMPDEST POP POP POP POP POP JUMP JUMPDEST PUSH1 0x0 DUP2 ISZERO DUP1 PUSH2 0x1A95 JUMPI POP POP DUP1 DUP3 MUL DUP3 DUP3 DUP3 DUP2 PUSH2 0x1A92 JUMPI INVALID JUMPDEST DIV EQ JUMPDEST PUSH2 0xB5F JUMPI PUSH1 0x40 DUP1 MLOAD PUSH3 0x461BCD PUSH1 0xE5 SHL DUP2 MSTORE PUSH1 0x20 PUSH1 0x4 DUP3 ADD MSTORE PUSH1 0x14 PUSH1 0x24 DUP3 ADD MSTORE PUSH20 0x64732D6D6174682D6D756C2D6F766572666C6F77 PUSH1 0x60 SHL PUSH1 0x44 DUP3 ADD MSTORE SWAP1 MLOAD SWAP1 DUP2 SWAP1 SUB PUSH1 0x64 ADD SWAP1 REVERT JUMPDEST DUP1 DUP3 SUB DUP3 DUP2 GT ISZERO PUSH2 0xB5F JUMPI PUSH1 0x40 DUP1 MLOAD PUSH3 0x461BCD PUSH1 0xE5 SHL DUP2 MSTORE PUSH1 0x20 PUSH1 0x4 DUP3 ADD MSTORE PUSH1 0x15 PUSH1 0x24 DUP3 ADD MSTORE PUSH21 0x64732D6D6174682D7375622D756E646572666C6F77 PUSH1 0x58 SHL PUSH1 0x44 DUP3 ADD MSTORE SWAP1 MLOAD SWAP1 DUP2 SWAP1 SUB PUSH1 0x64 ADD SWAP1 REVERT JUMPDEST PUSH1 0x1 PUSH1 0x1 PUSH1 0x70 SHL SUB DUP5 GT DUP1 ISZERO SWAP1 PUSH2 0x1B4B JUMPI POP PUSH1 0x1 PUSH1 0x1 PUSH1 0x70 SHL SUB DUP4 GT ISZERO JUMPDEST PUSH2 0x1B92 JUMPI PUSH1 0x40 DUP1 MLOAD PUSH3 0x461BCD PUSH1 0xE5 SHL DUP2 MSTORE PUSH1 0x20 PUSH1 0x4 DUP3 ADD MSTORE PUSH1 0x13 PUSH1 0x24 DUP3 ADD MSTORE PUSH19 0x556E697377617056323A204F564552464C4F57 PUSH1 0x68 SHL PUSH1 0x44 DUP3 ADD MSTORE SWAP1 MLOAD SWAP1 DUP2 SWAP1 SUB PUSH1 0x64 ADD SWAP1 REVERT JUMPDEST PUSH1 0x8 SLOAD PUSH4 0xFFFFFFFF TIMESTAMP DUP2 AND SWAP2 PUSH1 0x1 PUSH1 0xE0 SHL SWAP1 DIV DUP2 AND DUP3 SUB SWAP1 DUP2 AND ISZERO DUP1 ISZERO SWAP1 PUSH2 0x1BC2 JUMPI POP PUSH1 0x1 PUSH1 0x1 PUSH1 0x70 SHL SUB DUP5 AND ISZERO ISZERO JUMPDEST DUP1 ISZERO PUSH2 0x1BD6 JUMPI POP PUSH1 0x1 PUSH1 0x1 PUSH1 0x70 SHL SUB DUP4 AND ISZERO ISZERO JUMPDEST ISZERO PUSH2 0x1C47 JUMPI DUP1 PUSH4 0xFFFFFFFF AND PUSH2 0x1C04 DUP6 PUSH2 0x1BEF DUP7 PUSH2 0x21BB JUMP JUMPDEST PUSH1 0x1 PUSH1 0x1 PUSH1 0xE0 SHL SUB AND SWAP1 PUSH4 0xFFFFFFFF PUSH2 0x21CD AND JUMP JUMPDEST PUSH1 0x9 DUP1 SLOAD PUSH1 0x1 PUSH1 0x1 PUSH1 0xE0 SHL SUB SWAP3 SWAP1 SWAP3 AND SWAP3 SWAP1 SWAP3 MUL ADD SWAP1 SSTORE PUSH4 0xFFFFFFFF DUP2 AND PUSH2 0x1C2F DUP5 PUSH2 0x1BEF DUP8 PUSH2 0x21BB JUMP JUMPDEST PUSH1 0xA DUP1 SLOAD PUSH1 0x1 PUSH1 0x1 PUSH1 0xE0 SHL SUB SWAP3 SWAP1 SWAP3 AND SWAP3 SWAP1 SWAP3 MUL ADD SWAP1 SSTORE JUMPDEST PUSH1 0x8 DUP1 SLOAD PUSH14 0xFFFFFFFFFFFFFFFFFFFFFFFFFFFF NOT AND PUSH1 0x1 PUSH1 0x1 PUSH1 0x70 SHL SUB DUP9 DUP2 AND SWAP2 SWAP1 SWAP2 OR PUSH14 0xFFFFFFFFFFFFFFFFFFFFFFFFFFFF PUSH1 0x70 SHL NOT AND PUSH1 0x1 PUSH1 0x70 SHL DUP9 DUP4 AND DUP2 MUL SWAP2 SWAP1 SWAP2 OR PUSH1 0x1 PUSH1 0x1 PUSH1 0xE0 SHL SUB AND PUSH1 0x1 PUSH1 0xE0 SHL PUSH4 0xFFFFFFFF DUP8 AND MUL OR SWAP3 DUP4 SWAP1 SSTORE PUSH1 0x40 DUP1 MLOAD DUP5 DUP5 AND DUP2 MSTORE SWAP2 SWAP1 SWAP4 DIV SWAP1 SWAP2 AND PUSH1 0x20 DUP3 ADD MSTORE DUP2 MLOAD PUSH32 0x1C411E9A96E071241C2F21F7726B17AE89E3CAB4C78BE50E062B03A9FFFBBAD1 SWAP3 SWAP2 DUP2 SWAP1 SUB SWAP1 SWAP2 ADD SWAP1 LOG1 POP POP POP POP POP POP JUMP JUMPDEST PUSH1 0x1 PUSH1 0x1 PUSH1 0xA0 SHL SUB DUP1 DUP5 AND PUSH1 0x0 DUP2 DUP2 MSTORE PUSH1 0x2 PUSH1 0x20 SWAP1 DUP2 MSTORE PUSH1 0x40 DUP1 DUP4 KECCAK256 SWAP5 DUP8 AND DUP1 DUP5 MSTORE SWAP5 DUP3 MSTORE SWAP2 DUP3 SWAP1 KECCAK256 DUP6 SWAP1 SSTORE DUP2 MLOAD DUP6 DUP2 MSTORE SWAP2 MLOAD PUSH32 0x8C5BE1E5EBEC7D5BD14F71427D1E84F3DD0314C0F7B2291E5B200AC8C7C3B925 SWAP3 DUP2 SWAP1 SUB SWAP1 SWAP2 ADD SWAP1 LOG3 POP POP POP JUMP JUMPDEST PUSH1 0x1 PUSH1 0x1 PUSH1 0xA0 SHL SUB DUP4 AND PUSH1 0x0 SWAP1 DUP2 MSTORE PUSH1 0x1 PUSH1 0x20 MSTORE PUSH1 0x40 SWAP1 KECCAK256 SLOAD PUSH2 0x1D7D SWAP1 DUP3 PUSH4 0xFFFFFFFF PUSH2 0x1ADD AND JUMP JUMPDEST PUSH1 0x1 PUSH1 0x1 PUSH1 0xA0 SHL SUB DUP1 DUP6 AND PUSH1 0x0 SWAP1 DUP2 MSTORE PUSH1 0x1 PUSH1 0x20 MSTORE PUSH1 0x40 DUP1 DUP3 KECCAK256 SWAP4 SWAP1 SWAP4 SSTORE SWAP1 DUP5 AND DUP2 MSTORE KECCAK256 SLOAD PUSH2 0x1DB2 SWAP1 DUP3 PUSH4 0xFFFFFFFF PUSH2 0x21F2 AND JUMP JUMPDEST PUSH1 0x1 PUSH1 0x1 PUSH1 0xA0 SHL SUB DUP1 DUP5 AND PUSH1 0x0 DUP2 DUP2 MSTORE PUSH1 0x1 PUSH1 0x20 SWAP1 DUP2 MSTORE PUSH1 0x40 SWAP2 DUP3 SWAP1 KECCAK256 SWAP5 SWAP1 SWAP5 SSTORE DUP1 MLOAD DUP6 DUP2 MSTORE SWAP1 MLOAD SWAP2 SWAP4 SWAP3 DUP8 AND SWAP3 PUSH32 0xDDF252AD1BE2C89B69C2B068FC378DAA952BA7F163C4A11628F55A4DF523B3EF SWAP3 SWAP2 DUP3 SWAP1 SUB ADD SWAP1 LOG3 POP POP POP JUMP JUMPDEST PUSH1 0x0 DUP1 PUSH1 0x5 PUSH1 0x0 SWAP1 SLOAD SWAP1 PUSH2 0x100 EXP SWAP1 DIV PUSH1 0x1 PUSH1 0x1 PUSH1 0xA0 SHL SUB AND PUSH1 0x1 PUSH1 0x1 PUSH1 0xA0 SHL SUB AND PUSH4 0x17E7E58 PUSH1 0x40 MLOAD DUP2 PUSH4 0xFFFFFFFF AND PUSH1 0xE0 SHL DUP2 MSTORE PUSH1 0x4 ADD PUSH1 0x20 PUSH1 0x40 MLOAD DUP1 DUP4 SUB DUP2 DUP7 DUP1 EXTCODESIZE ISZERO DUP1 ISZERO PUSH2 0x1E5F JUMPI PUSH1 0x0 DUP1 REVERT JUMPDEST POP GAS STATICCALL ISZERO DUP1 ISZERO PUSH2 0x1E73 JUMPI RETURNDATASIZE PUSH1 0x0 DUP1 RETURNDATACOPY RETURNDATASIZE PUSH1 0x0 REVERT JUMPDEST POP POP POP POP PUSH1 0x40 MLOAD RETURNDATASIZE PUSH1 0x20 DUP2 LT ISZERO PUSH2 0x1E89 JUMPI PUSH1 0x0 DUP1 REVERT JUMPDEST POP MLOAD PUSH1 0x5 SLOAD PUSH1 0x40 DUP1 MLOAD PUSH4 0x27AEBAD3 PUSH1 0xE2 SHL DUP2 MSTORE SWAP1 MLOAD SWAP3 SWAP4 POP PUSH1 0x0 SWAP3 PUSH1 0x1 PUSH1 0x1 PUSH1 0xA0 SHL SUB SWAP1 SWAP3 AND SWAP2 PUSH4 0x9EBAEB4C SWAP2 PUSH1 0x4 DUP1 DUP3 ADD SWAP3 PUSH1 0x20 SWAP3 SWAP1 SWAP2 SWAP1 DUP3 SWAP1 SUB ADD DUP2 DUP7 DUP1 EXTCODESIZE ISZERO DUP1 ISZERO PUSH2 0x1ED6 JUMPI PUSH1 0x0 DUP1 REVERT JUMPDEST POP GAS STATICCALL ISZERO DUP1 ISZERO PUSH2 0x1EEA JUMPI RETURNDATASIZE PUSH1 0x0 DUP1 RETURNDATACOPY RETURNDATASIZE PUSH1 0x0 REVERT JUMPDEST POP POP POP POP PUSH1 0x40 MLOAD RETURNDATASIZE PUSH1 0x20 DUP2 LT ISZERO PUSH2 0x1F00 JUMPI PUSH1 0x0 DUP1 REVERT JUMPDEST POP MLOAD PUSH1 0xB SLOAD PUSH1 0x1 PUSH1 0x1 PUSH1 0xA0 SHL SUB DUP5 AND ISZERO DUP1 ISZERO SWAP6 POP SWAP2 SWAP3 POP SWAP1 PUSH2 0x2008 JUMPI DUP1 ISZERO PUSH2 0x2003 JUMPI PUSH1 0x0 PUSH2 0x1F43 PUSH2 0xE99 PUSH1 0x1 PUSH1 0x1 PUSH1 0x70 SHL SUB DUP10 DUP2 AND SWAP1 DUP10 AND PUSH4 0xFFFFFFFF PUSH2 0x1A7A AND JUMP JUMPDEST SWAP1 POP PUSH1 0x0 PUSH2 0x1F50 DUP4 PUSH2 0x201D JUMP JUMPDEST SWAP1 POP DUP1 DUP3 GT ISZERO PUSH2 0x2000 JUMPI PUSH1 0x0 PUSH2 0x1F7E PUSH2 0x1F6F DUP5 DUP5 PUSH4 0xFFFFFFFF PUSH2 0x1ADD AND JUMP JUMPDEST PUSH1 0x0 SLOAD SWAP1 PUSH4 0xFFFFFFFF PUSH2 0x1A7A AND JUMP JUMPDEST SWAP1 POP PUSH1 0x0 PUSH2 0x1FA3 DUP4 PUSH2 0x1F97 DUP7 PUSH1 0x4 PUSH4 0xFFFFFFFF PUSH2 0x1A7A AND JUMP JUMPDEST SWAP1 PUSH4 0xFFFFFFFF PUSH2 0x21F2 AND JUMP JUMPDEST SWAP1 POP PUSH1 0x0 DUP2 DUP4 DUP2 PUSH2 0x1FB0 JUMPI INVALID JUMPDEST DIV SWAP1 POP DUP1 ISZERO PUSH2 0x1FFC JUMPI PUSH1 0x1 PUSH1 0x1 PUSH1 0xA0 SHL SUB DUP8 AND PUSH2 0x1FD6 JUMPI PUSH2 0x1FD1 DUP9 DUP3 PUSH2 0x206F JUMP JUMPDEST PUSH2 0x1FFC JUMP JUMPDEST PUSH1 0xA DUP2 DIV PUSH2 0x1FEB DUP10 PUSH1 0x64 PUSH1 0x7 DUP5 MUL JUMPDEST DIV PUSH2 0x206F JUMP JUMPDEST PUSH2 0x1FFA DUP9 PUSH1 0x64 PUSH1 0x3 DUP5 MUL PUSH2 0x1FE5 JUMP JUMPDEST POP JUMPDEST POP POP POP JUMPDEST POP POP JUMPDEST PUSH2 0x2014 JUMP JUMPDEST DUP1 ISZERO PUSH2 0x2014 JUMPI PUSH1 0x0 PUSH1 0xB SSTORE JUMPDEST POP POP POP SWAP3 SWAP2 POP POP JUMP JUMPDEST PUSH1 0x0 PUSH1 0x3 DUP3 GT ISZERO PUSH2 0x2060 JUMPI POP DUP1 PUSH1 0x1 PUSH1 0x2 DUP3 DIV ADD JUMPDEST DUP2 DUP2 LT ISZERO PUSH2 0x205A JUMPI DUP1 SWAP2 POP PUSH1 0x2 DUP2 DUP3 DUP6 DUP2 PUSH2 0x2049 JUMPI INVALID JUMPDEST DIV ADD DUP2 PUSH2 0x2052 JUMPI INVALID JUMPDEST DIV SWAP1 POP PUSH2 0x2032 JUMP JUMPDEST POP PUSH2 0x206A JUMP JUMPDEST DUP2 ISZERO PUSH2 0x206A JUMPI POP PUSH1 0x1 JUMPDEST SWAP2 SWAP1 POP JUMP JUMPDEST PUSH1 0x0 SLOAD PUSH2 0x2082 SWAP1 DUP3 PUSH4 0xFFFFFFFF PUSH2 0x21F2 AND JUMP JUMPDEST PUSH1 0x0 SWAP1 DUP2 SSTORE PUSH1 0x1 PUSH1 0x1 PUSH1 0xA0 SHL SUB DUP4 AND DUP2 MSTORE PUSH1 0x1 PUSH1 0x20 MSTORE PUSH1 0x40 SWAP1 KECCAK256 SLOAD PUSH2 0x20AD SWAP1 DUP3 PUSH4 0xFFFFFFFF PUSH2 0x21F2 AND JUMP JUMPDEST PUSH1 0x1 PUSH1 0x1 PUSH1 0xA0 SHL SUB DUP4 AND PUSH1 0x0 DUP2 DUP2 MSTORE PUSH1 0x1 PUSH1 0x20 SWAP1 DUP2 MSTORE PUSH1 0x40 DUP1 DUP4 KECCAK256 SWAP5 SWAP1 SWAP5 SSTORE DUP4 MLOAD DUP6 DUP2 MSTORE SWAP4 MLOAD SWAP3 SWAP4 SWAP2 SWAP3 PUSH32 0xDDF252AD1BE2C89B69C2B068FC378DAA952BA7F163C4A11628F55A4DF523B3EF SWAP3 DUP2 SWAP1 SUB SWAP1 SWAP2 ADD SWAP1 LOG3 POP POP JUMP JUMPDEST PUSH1 0x0 DUP2 DUP4 LT PUSH2 0x2114 JUMPI DUP2 PUSH2 0x2116 JUMP JUMPDEST DUP3 JUMPDEST SWAP4 SWAP3 POP POP POP JUMP JUMPDEST PUSH1 0x1 PUSH1 0x1 PUSH1 0xA0 SHL SUB DUP3 AND PUSH1 0x0 SWAP1 DUP2 MSTORE PUSH1 0x1 PUSH1 0x20 MSTORE PUSH1 0x40 SWAP1 KECCAK256 SLOAD PUSH2 0x2146 SWAP1 DUP3 PUSH4 0xFFFFFFFF PUSH2 0x1ADD AND JUMP JUMPDEST PUSH1 0x1 PUSH1 0x1 PUSH1 0xA0 SHL SUB DUP4 AND PUSH1 0x0 SWAP1 DUP2 MSTORE PUSH1 0x1 PUSH1 0x20 MSTORE PUSH1 0x40 DUP2 KECCAK256 SWAP2 SWAP1 SWAP2 SSTORE SLOAD PUSH2 0x2173 SWAP1 DUP3 PUSH4 0xFFFFFFFF PUSH2 0x1ADD AND JUMP JUMPDEST PUSH1 0x0 SWAP1 DUP2 SSTORE PUSH1 0x40 DUP1 MLOAD DUP4 DUP2 MSTORE SWAP1 MLOAD PUSH1 0x1 PUSH1 0x1 PUSH1 0xA0 SHL SUB DUP6 AND SWAP2 PUSH32 0xDDF252AD1BE2C89B69C2B068FC378DAA952BA7F163C4A11628F55A4DF523B3EF SWAP2 SWAP1 DUP2 SWAP1 SUB PUSH1 0x20 ADD SWAP1 LOG3 POP POP JUMP JUMPDEST PUSH1 0x1 PUSH1 0x1 PUSH1 0x70 SHL SUB AND PUSH1 0x1 PUSH1 0x70 SHL MUL SWAP1 JUMP JUMPDEST PUSH1 0x0 PUSH1 0x1 PUSH1 0x1 PUSH1 0x70 SHL SUB DUP3 AND PUSH1 0x1 PUSH1 0x1 PUSH1 0xE0 SHL SUB DUP5 AND DUP2 PUSH2 0x21EA JUMPI INVALID JUMPDEST DIV SWAP4 SWAP3 POP POP POP JUMP JUMPDEST DUP1 DUP3 ADD DUP3 DUP2 LT ISZERO PUSH2 0xB5F JUMPI PUSH1 0x40 DUP1 MLOAD PUSH3 0x461BCD PUSH1 0xE5 SHL DUP2 MSTORE PUSH1 0x20 PUSH1 0x4 DUP3 ADD MSTORE PUSH1 0x14 PUSH1 0x24 DUP3 ADD MSTORE PUSH20 0x64732D6D6174682D6164642D6F766572666C6F77 PUSH1 0x60 SHL PUSH1 0x44 DUP3 ADD MSTORE SWAP1 MLOAD SWAP1 DUP2 SWAP1 SUB PUSH1 0x64 ADD SWAP1 REVERT INVALID SSTORE PUSH15 0x697377617056323A20494E53554646 0x49 NUMBER 0x49 GASLIMIT 0x4E SLOAD 0x5F 0x4F SSTORE SLOAD POP SSTORE SLOAD 0x5F COINBASE 0x4D 0x4F SSTORE 0x4E SLOAD SSTORE PUSH15 0x697377617056323A20494E53554646 0x49 NUMBER 0x49 GASLIMIT 0x4E SLOAD 0x5F 0x49 0x4E POP SSTORE SLOAD 0x5F COINBASE 0x4D 0x4F SSTORE 0x4E SLOAD SSTORE PUSH15 0x697377617056323A20494E53554646 0x49 NUMBER 0x49 GASLIMIT 0x4E SLOAD 0x5F 0x4C 0x49 MLOAD SSTORE 0x49 DIFFICULTY 0x49 SLOAD MSIZE SSTORE PUSH15 0x697377617056323A20494E53554646 0x49 NUMBER 0x49 GASLIMIT 0x4E SLOAD 0x5F 0x4C 0x49 MLOAD SSTORE 0x49 DIFFICULTY 0x49 SLOAD MSIZE 0x5F TIMESTAMP SSTORE MSTORE 0x4E GASLIMIT DIFFICULTY SSTORE PUSH15 0x697377617056323A20494E53554646 0x49 NUMBER 0x49 GASLIMIT 0x4E SLOAD 0x5F 0x4C 0x49 MLOAD SSTORE 0x49 DIFFICULTY 0x49 SLOAD MSIZE 0x5F 0x4D 0x49 0x4E SLOAD GASLIMIT DIFFICULTY LOG2 PUSH6 0x627A7A723158 KECCAK256 BLOCKHASH SWAP16 0x5C 0xCD MOD 0xB6 PUSH13 0x8D998EB9AC85247150B0B4C574 JUMPI DUP11 0xAF PUSH11 0x71A406ED107DD17D64736F PUSH13 0x63430005100032454950373132 DIFFICULTY PUSH16 0x6D61696E28737472696E67206E616D65 0x2C PUSH20 0x7472696E672076657273696F6E2C75696E743235 CALLDATASIZE KECCAK256 PUSH4 0x6861696E 0x49 PUSH5 0x2C61646472 PUSH6 0x737320766572 PUSH10 0x6679696E67436F6E7472 PUSH2 0x6374 0x29 LOG2 PUSH6 0x627A7A723158 KECCAK256 NOT REVERT LOG0 0xDF SWAP12 POP SWAP9 SWAP5 0x4B 0xA5 PUSH19 0x26B8D2E9D2AC51E89CEEE095D8E8C0CF83B000 SIGNEXTEND 0xE5 PUSH5 0x736F6C6343 STOP SDIV LT STOP ORIGIN "
				},
				"gasEstimates": {
					"creation": {
						"codeDepositCost": "2273200",
						"executionCost": "infinite",
						"totalCost": "infinite"
					},
					"external": {
						"INIT_CODE_HASH()": "infinite",
						"allPairs(uint256)": "2037",
						"allPairsLength()": "998",
						"createPair(address,address)": "infinite",
						"feeTo()": "1038",
						"feeToCharity()": "1059",
						"feeToSetter()": "1082",
						"getPair(address,address)": "1344",
						"setFeeTo(address)": "22023",
						"setFeeToCharity(address)": "21936",
						"setFeeToSetter(address)": "21957"
					}
				},
				"methodIdentifiers": {
					"INIT_CODE_HASH()": "257671f5",
					"allPairs(uint256)": "1e3dd18b",
					"allPairsLength()": "574f2ba3",
					"createPair(address,address)": "c9c65396",
					"feeTo()": "017e7e58",
					"feeToCharity()": "9ebaeb4c",
					"feeToSetter()": "094b7415",
					"getPair(address,address)": "e6a43905",
					"setFeeTo(address)": "f46901ed",
					"setFeeToCharity(address)": "063058b3",
					"setFeeToSetter(address)": "a2e74af6"
				}
			},
			"storageLayout": {
				"storage": [
					{
						"astId": 392,
						"contract": "smart contracts/v2-core-master/contracts/UniswapV2Factory.sol:UniswapV2Factory",
						"label": "feeTo",
						"offset": 0,
						"slot": "0",
						"type": "t_address"
					},
					{
						"astId": 394,
						"contract": "smart contracts/v2-core-master/contracts/UniswapV2Factory.sol:UniswapV2Factory",
						"label": "feeToCharity",
						"offset": 0,
						"slot": "1",
						"type": "t_address"
					},
					{
						"astId": 396,
						"contract": "smart contracts/v2-core-master/contracts/UniswapV2Factory.sol:UniswapV2Factory",
						"label": "feeToSetter",
						"offset": 0,
						"slot": "2",
						"type": "t_address"
					},
					{
						"astId": 413,
						"contract": "smart contracts/v2-core-master/contracts/UniswapV2Factory.sol:UniswapV2Factory",
						"label": "getPair",
						"offset": 0,
						"slot": "3",
						"type": "t_mapping(t_address,t_mapping(t_address,t_address))"
					},
					{
						"astId": 416,
						"contract": "smart contracts/v2-core-master/contracts/UniswapV2Factory.sol:UniswapV2Factory",
						"label": "allPairs",
						"offset": 0,
						"slot": "4",
						"type": "t_array(t_address)dyn_storage"
					}
				],
				"types": {
					"t_address": {
						"encoding": "inplace",
						"label": "address",
						"numberOfBytes": "20"
					},
					"t_array(t_address)dyn_storage": {
						"base": "t_address",
						"encoding": "dynamic_array",
						"label": "address[]",
						"numberOfBytes": "32"
					},
					"t_mapping(t_address,t_address)": {
						"encoding": "mapping",
						"key": "t_address",
						"label": "mapping(address => address)",
						"numberOfBytes": "32",
						"value": "t_address"
					},
					"t_mapping(t_address,t_mapping(t_address,t_address))": {
						"encoding": "mapping",
						"key": "t_address",
						"label": "mapping(address => mapping(address => address))",
						"numberOfBytes": "32",
						"value": "t_mapping(t_address,t_address)"
					}
				}
			},
			"userdoc": {
				"methods": {}
			}
		}
	}
}